{"contracts/DarwinPresale.sol":{"DarwinPresale":{"abi":[{"inputs":[],"name":"AlreadyInitialized","type":"error"},{"inputs":[],"name":"AmountExceedsHardcap","type":"error"},{"inputs":[],"name":"ApproveFailed","type":"error"},{"inputs":[],"name":"InvalidDepositAmount","type":"error"},{"inputs":[],"name":"InvalidEndDate","type":"error"},{"inputs":[],"name":"InvalidStartDate","type":"error"},{"inputs":[],"name":"NotInitialized","type":"error"},{"inputs":[],"name":"PresaleNotActive","type":"error"},{"inputs":[],"name":"PresaleNotEnded","type":"error"},{"inputs":[],"name":"TransferFailed","type":"error"},{"inputs":[],"name":"ZeroAddress","type":"error"},{"anonymous":false,"inputs":[{"indexed":true,"internalType":"address","name":"previousOwner","type":"address"},{"indexed":true,"internalType":"address","name":"newOwner","type":"address"}],"name":"OwnershipTransferred","type":"event"},{"anonymous":false,"inputs":[{"indexed":true,"internalType":"uint256","name":"ethAmount","type":"uint256"},{"indexed":true,"internalType":"uint256","name":"unsoldDarwinAmount","type":"uint256"}],"name":"PresaleCompleted","type":"event"},{"anonymous":false,"inputs":[{"indexed":true,"internalType":"uint256","name":"endDate","type":"uint256"}],"name":"PresaleEndDateSet","type":"event"},{"anonymous":false,"inputs":[{"indexed":true,"internalType":"address","name":"router","type":"address"}],"name":"RouterSet","type":"event"},{"anonymous":false,"inputs":[{"indexed":true,"internalType":"address","name":"user","type":"address"},{"indexed":true,"internalType":"uint256","name":"amountIn","type":"uint256"},{"indexed":true,"internalType":"uint256","name":"darwinAmount","type":"uint256"}],"name":"UserDeposit","type":"event"},{"anonymous":false,"inputs":[{"indexed":true,"internalType":"address","name":"wallet1","type":"address"}],"name":"Wallet1Set","type":"event"},{"anonymous":false,"inputs":[{"indexed":true,"internalType":"address","name":"wallet2","type":"address"}],"name":"Wallet2Set","type":"event"},{"inputs":[],"name":"HARDCAP","outputs":[{"internalType":"uint256","name":"","type":"uint256"}],"stateMutability":"view","type":"function"},{"inputs":[],"name":"RAISE_MAX","outputs":[{"internalType":"uint256","name":"","type":"uint256"}],"stateMutability":"view","type":"function"},{"inputs":[],"name":"RAISE_MIN","outputs":[{"internalType":"uint256","name":"","type":"uint256"}],"stateMutability":"view","type":"function"},{"inputs":[],"name":"baseTokensLeftToRaiseOnCurrentStage","outputs":[{"internalType":"uint256","name":"tokensLeft","type":"uint256"}],"stateMutability":"view","type":"function"},{"inputs":[{"internalType":"uint256","name":"ethAmount","type":"uint256"}],"name":"calculateDarwinAmount","outputs":[{"internalType":"uint256","name":"","type":"uint256"}],"stateMutability":"view","type":"function"},{"inputs":[],"name":"darwin","outputs":[{"internalType":"contract IERC20","name":"","type":"address"}],"stateMutability":"view","type":"function"},{"inputs":[],"name":"getCurrentStage","outputs":[{"internalType":"uint256","name":"stage","type":"uint256"}],"stateMutability":"view","type":"function"},{"inputs":[{"internalType":"address","name":"_darwin","type":"address"}],"name":"init","outputs":[],"stateMutability":"nonpayable","type":"function"},{"inputs":[],"name":"owner","outputs":[{"internalType":"address","name":"","type":"address"}],"stateMutability":"view","type":"function"},{"inputs":[],"name":"presaleEnd","outputs":[{"internalType":"uint256","name":"","type":"uint256"}],"stateMutability":"view","type":"function"},{"inputs":[],"name":"presaleStart","outputs":[{"internalType":"uint256","name":"","type":"uint256"}],"stateMutability":"view","type":"function"},{"inputs":[],"name":"presaleStatus","outputs":[{"internalType":"enum IDarwinPresale.Status","name":"","type":"uint8"}],"stateMutability":"view","type":"function"},{"inputs":[],"name":"renounceOwnership","outputs":[],"stateMutability":"nonpayable","type":"function"},{"inputs":[{"internalType":"uint256","name":"_endDate","type":"uint256"}],"name":"setPresaleEndDate","outputs":[],"stateMutability":"nonpayable","type":"function"},{"inputs":[{"internalType":"address","name":"_wallet1","type":"address"}],"name":"setWallet1","outputs":[],"stateMutability":"nonpayable","type":"function"},{"inputs":[],"name":"startPresale","outputs":[],"stateMutability":"nonpayable","type":"function"},{"inputs":[],"name":"status","outputs":[{"internalType":"uint256","name":"raisedAmount","type":"uint256"},{"internalType":"uint256","name":"soldAmount","type":"uint256"},{"internalType":"uint256","name":"numBuyers","type":"uint256"}],"stateMutability":"view","type":"function"},{"inputs":[{"internalType":"address","name":"account","type":"address"}],"name":"tokensDepositedAndOwned","outputs":[{"internalType":"uint256","name":"","type":"uint256"},{"internalType":"uint256","name":"","type":"uint256"}],"stateMutability":"view","type":"function"},{"inputs":[{"internalType":"address","name":"newOwner","type":"address"}],"name":"transferOwnership","outputs":[],"stateMutability":"nonpayable","type":"function"},{"inputs":[],"name":"userDeposit","outputs":[],"stateMutability":"payable","type":"function"},{"inputs":[{"internalType":"address","name":"","type":"address"}],"name":"userDeposits","outputs":[{"internalType":"uint256","name":"","type":"uint256"}],"stateMutability":"view","type":"function"},{"inputs":[],"name":"wallet1","outputs":[{"internalType":"address","name":"","type":"address"}],"stateMutability":"view","type":"function"},{"inputs":[],"name":"withdrawETHAndUnsoldDarwin","outputs":[],"stateMutability":"nonpayable","type":"function"}],"evm":{"bytecode":{"linkReferences":{},"object":"608060405234801561001057600080fd5b50600160005561001f33610024565b610076565b600180546001600160a01b038381166001600160a01b0319831681179093556040519116919082907f8be0079c531659141344cd1fd0a4f28419497f9722a3daafe3b4186f6b6457e090600090a35050565b61102a806100856000396000f3fe6080604052600436106101405760003560e01c80638da5cb5b116100b6578063d39a840a1161006f578063d39a840a14610379578063d52a7cbf14610399578063de8801e5146103b9578063eedbe31d146103cf578063ef690835146103e4578063f2fde38b1461040157600080fd5b80638da5cb5b146102be5780639ac3e9a8146102dc578063acfb235514610311578063b96cec1614610333578063bed52af41461034f578063cb1980c21461036457600080fd5b8063229f3e2911610108578063229f3e291461022e5780633110c792146102445780633bd748801461026457806348146113146102815780636482233214610289578063715018a6146102a957600080fd5b806304c98b2b146101455780630ba36dcd1461015c57806319ab453c1461019c5780631a026c96146101bc578063200d2ed2146101f4575b600080fd5b34801561015157600080fd5b5061015a610421565b005b34801561016857600080fd5b50610189610177366004610ea6565b60066020526000908152604090205481565b6040519081526020015b60405180910390f35b3480156101a857600080fd5b5061015a6101b7366004610ea6565b610471565b3480156101c857600080fd5b506005546101dc906001600160a01b031681565b6040516001600160a01b039091168152602001610193565b34801561020057600080fd5b5060075460085460095461021392919083565b60408051938452602084019290925290820152606001610193565b34801561023a57600080fd5b5061018960045481565b34801561025057600080fd5b506002546101dc906001600160a01b031681565b34801561027057600080fd5b506101896815779a9de6eeb0000081565b61015a6104fe565b34801561029557600080fd5b506101896102a4366004610ecf565b610709565b3480156102b557600080fd5b5061015a610823565b3480156102ca57600080fd5b506001546001600160a01b03166101dc565b3480156102e857600080fd5b506102fc6102f7366004610ea6565b610835565b60408051928352602083019190915201610193565b34801561031d57600080fd5b506103266108c7565b6040516101939190610efe565b34801561033f57600080fd5b5061018967016345785d8a000081565b34801561035b57600080fd5b5061015a610925565b34801561037057600080fd5b50610189610aa4565b34801561038557600080fd5b5061015a610394366004610ecf565b610ad0565b3480156103a557600080fd5b5061015a6103b4366004610ea6565b610b44565b3480156103c557600080fd5b5061018960035481565b3480156103db57600080fd5b50610189610b7c565b3480156103f057600080fd5b5061018968d8d726b7177a80000081565b34801561040d57600080fd5b5061015a61041c366004610ea6565b610b8b565b610429610c06565b600a5460ff161561044c5760405162dc149f60e41b815260040160405180910390fd5b600a805460ff1916600117905542600381905561046c906276a700610f3c565b600455565b610479610c06565b600a5460ff161561049c5760405162dc149f60e41b815260040160405180910390fd5b6001600160a01b0381166104c35760405163d92e233d60e01b815260040160405180910390fd5b600280546001600160a01b0319166001600160a01b0383161790556104fb730bf1c4139a6168988fe0d1384296e6df44b27afd610c60565b50565b610506610caa565b600a5460ff16610529576040516321c4e35760e21b815260040160405180910390fd5b60016105336108c7565b600281111561054457610544610ee8565b1461056257604051633844da5760e21b815260040160405180910390fd5b3360009081526006602052604090205467016345785d8a0000341080610599575068d8d726b7177a8000006105973483610f3c565b115b156105b75760405163fe9ba5cd60e01b815260040160405180910390fd5b806000036105d457600980546000906105cf90610f54565b909155505b33600090815260066020526040812080543492906105f3908490610f3c565b909155506000905061060434610709565b9050346007600001600082825461061b9190610f3c565b909155505060088054829190600090610635908490610f3c565b909155505060025460405163a9059cbb60e01b8152336004820152602481018390526001600160a01b039091169063a9059cbb906044016020604051808303816000875af115801561068b573d6000803e3d6000fd5b505050506040513d601f19601f820116820180604052508101906106af9190610f6d565b6106cc576040516312171d8360e31b815260040160405180910390fd5b6040518190349033907f2f1a7fda57b5fd5cb62770aebd7fc9a8a0a834c5ff558eb7562f85f2b28c437590600090a450506107076001600055565b565b600754600090610722906815779a9de6eeb00000610f8f565b821115610742576040516309443f3960e01b815260040160405180910390fd5b600061074c610aa4565b90508083101561076f5761075e610d03565b6107689084610fa6565b9392505050565b6000610779610d18565b9050600080600080600060076000015490505b88156108165761079b86610d58565b9195509350915060006107ae8284610f8f565b9050808a116107d7576107c1858b610fa6565b6107cb9087610f3c565b95506000995050610816565b6107e18183610f3c565b91506107ed8582610fa6565b6107f79087610f3c565b9550610803818b610f8f565b995061080e87610f54565b96505061078c565b5092979650505050505050565b61082b610c06565b6107076000610ddb565b6001600160a01b038181166000818152600660205260408082205460025491516370a0823160e01b81526004810194909452919384938492909116906370a0823190602401602060405180830381865afa158015610897573d6000803e3d6000fd5b505050506040513d601f19601f820116820180604052508101906108bb9190610fc5565b91959194509092505050565b600a5460009060ff166108da5750600090565b6007546815779a9de6eeb000001115806108f5575060045442115b156109005750600290565b600354421015801561091457506004544211155b1561091f5750600190565b50600090565b61092d610c06565b60026109376108c7565b600281111561094857610948610ee8565b146109665760405163dfc7e2e560e01b815260040160405180910390fd5b47801561098357600554610983906001600160a01b031682610e2d565b6002546040516370a0823160e01b81523060048201526000916001600160a01b0316906370a0823190602401602060405180830381865afa1580156109cc573d6000803e3d6000fd5b505050506040513d601f19601f820116820180604052508101906109f09190610fc5565b90508015610a735760025460055460405163a9059cbb60e01b81526001600160a01b0391821660048201526024810184905291169063a9059cbb906044016020604051808303816000875af1158015610a4d573d6000803e3d6000fd5b505050506040513d601f19601f82011682018060405250810190610a719190610f6d565b505b604051819083907fdba9c995f50d4dbcf61c8456721131e5b3cf718fb409cdac2578e1a14b2132c990600090a35050565b600080610ab7610ab2610d18565b610d58565b600754909350610aca9250905082610f8f565b91505090565b610ad8610c06565b42811080610ae7575060035481105b80610af3575060045481115b15610b115760405163398145cf60e11b815260040160405180910390fd5b600481905560405181907ff2efedb45b62795007f61674edfbf06d96b7c52daaffe8a30632492cb561cf6b90600090a250565b610b4c610c06565b6001600160a01b038116610b735760405163d92e233d60e01b815260040160405180910390fd5b6104fb81610c60565b6000610b86610d18565b905090565b610b93610c06565b6001600160a01b038116610bfd5760405162461bcd60e51b815260206004820152602660248201527f4f776e61626c653a206e6577206f776e657220697320746865207a65726f206160448201526564647265737360d01b60648201526084015b60405180910390fd5b6104fb81610ddb565b6001546001600160a01b031633146107075760405162461bcd60e51b815260206004820181905260248201527f4f776e61626c653a2063616c6c6572206973206e6f7420746865206f776e65726044820152606401610bf4565b600580546001600160a01b0319166001600160a01b0383169081179091556040517f98a9845b11aff33a851910bf36257bf6b63b3734a53f36d8f56bd5c8ba1316d390600090a250565b600260005403610cfc5760405162461bcd60e51b815260206004820152601f60248201527f5265656e7472616e637947756172643a207265656e7472616e742063616c6c006044820152606401610bf4565b6002600055565b6000610d10610ab2610d18565b509092915050565b6007546000906802b5e3af16b1880000811115610d3757600291505090565b6801158e460913d00000811115610d5057600191505090565b600091505090565b60008060006002841115610d6e57610d6e610fde565b83600003610d8e57506114b491506801158e460913d00000905080610dd4565b83600103610db757506112c091506801a055690d9db8000090506802b5e3af16b1880000610dd4565b5061109a91506811ac28a8c72958000090506815779a9de6eeb000005b9193909250565b600180546001600160a01b038381166001600160a01b0319831681179093556040519116919082907f8be0079c531659141344cd1fd0a4f28419497f9722a3daafe3b4186f6b6457e090600090a35050565b6000826001600160a01b03168260405160006040518083038185875af1925050503d8060008114610e7a576040519150601f19603f3d011682016040523d82523d6000602084013e610e7f565b606091505b5050905080610ea1576040516312171d8360e31b815260040160405180910390fd5b505050565b600060208284031215610eb857600080fd5b81356001600160a01b038116811461076857600080fd5b600060208284031215610ee157600080fd5b5035919050565b634e487b7160e01b600052602160045260246000fd5b6020810160038310610f2057634e487b7160e01b600052602160045260246000fd5b91905290565b634e487b7160e01b600052601160045260246000fd5b60008219821115610f4f57610f4f610f26565b500190565b600060018201610f6657610f66610f26565b5060010190565b600060208284031215610f7f57600080fd5b8151801515811461076857600080fd5b600082821015610fa157610fa1610f26565b500390565b6000816000190483118215151615610fc057610fc0610f26565b500290565b600060208284031215610fd757600080fd5b5051919050565b634e487b7160e01b600052600160045260246000fdfea2646970667358221220939e2e33fa37ab2a555cc36ecef9a7abd199e3ddd0480fdba3128fbebcdd6c1464736f6c634300080e0033","opcodes":"PUSH1 0x80 PUSH1 0x40 MSTORE CALLVALUE DUP1 ISZERO PUSH2 0x10 JUMPI PUSH1 0x0 DUP1 REVERT JUMPDEST POP PUSH1 0x1 PUSH1 0x0 SSTORE PUSH2 0x1F CALLER PUSH2 0x24 JUMP JUMPDEST PUSH2 0x76 JUMP JUMPDEST PUSH1 0x1 DUP1 SLOAD PUSH1 0x1 PUSH1 0x1 PUSH1 0xA0 SHL SUB DUP4 DUP2 AND PUSH1 0x1 PUSH1 0x1 PUSH1 0xA0 SHL SUB NOT DUP4 AND DUP2 OR SWAP1 SWAP4 SSTORE PUSH1 0x40 MLOAD SWAP2 AND SWAP2 SWAP1 DUP3 SWAP1 PUSH32 0x8BE0079C531659141344CD1FD0A4F28419497F9722A3DAAFE3B4186F6B6457E0 SWAP1 PUSH1 0x0 SWAP1 LOG3 POP POP JUMP JUMPDEST PUSH2 0x102A DUP1 PUSH2 0x85 PUSH1 0x0 CODECOPY PUSH1 0x0 RETURN INVALID PUSH1 0x80 PUSH1 0x40 MSTORE PUSH1 0x4 CALLDATASIZE LT PUSH2 0x140 JUMPI PUSH1 0x0 CALLDATALOAD PUSH1 0xE0 SHR DUP1 PUSH4 0x8DA5CB5B GT PUSH2 0xB6 JUMPI DUP1 PUSH4 0xD39A840A GT PUSH2 0x6F JUMPI DUP1 PUSH4 0xD39A840A EQ PUSH2 0x379 JUMPI DUP1 PUSH4 0xD52A7CBF EQ PUSH2 0x399 JUMPI DUP1 PUSH4 0xDE8801E5 EQ PUSH2 0x3B9 JUMPI DUP1 PUSH4 0xEEDBE31D EQ PUSH2 0x3CF JUMPI DUP1 PUSH4 0xEF690835 EQ PUSH2 0x3E4 JUMPI DUP1 PUSH4 0xF2FDE38B EQ PUSH2 0x401 JUMPI PUSH1 0x0 DUP1 REVERT JUMPDEST DUP1 PUSH4 0x8DA5CB5B EQ PUSH2 0x2BE JUMPI DUP1 PUSH4 0x9AC3E9A8 EQ PUSH2 0x2DC JUMPI DUP1 PUSH4 0xACFB2355 EQ PUSH2 0x311 JUMPI DUP1 PUSH4 0xB96CEC16 EQ PUSH2 0x333 JUMPI DUP1 PUSH4 0xBED52AF4 EQ PUSH2 0x34F JUMPI DUP1 PUSH4 0xCB1980C2 EQ PUSH2 0x364 JUMPI PUSH1 0x0 DUP1 REVERT JUMPDEST DUP1 PUSH4 0x229F3E29 GT PUSH2 0x108 JUMPI DUP1 PUSH4 0x229F3E29 EQ PUSH2 0x22E JUMPI DUP1 PUSH4 0x3110C792 EQ PUSH2 0x244 JUMPI DUP1 PUSH4 0x3BD74880 EQ PUSH2 0x264 JUMPI DUP1 PUSH4 0x48146113 EQ PUSH2 0x281 JUMPI DUP1 PUSH4 0x64822332 EQ PUSH2 0x289 JUMPI DUP1 PUSH4 0x715018A6 EQ PUSH2 0x2A9 JUMPI PUSH1 0x0 DUP1 REVERT JUMPDEST DUP1 PUSH4 0x4C98B2B EQ PUSH2 0x145 JUMPI DUP1 PUSH4 0xBA36DCD EQ PUSH2 0x15C JUMPI DUP1 PUSH4 0x19AB453C EQ PUSH2 0x19C JUMPI DUP1 PUSH4 0x1A026C96 EQ PUSH2 0x1BC JUMPI DUP1 PUSH4 0x200D2ED2 EQ PUSH2 0x1F4 JUMPI JUMPDEST PUSH1 0x0 DUP1 REVERT JUMPDEST CALLVALUE DUP1 ISZERO PUSH2 0x151 JUMPI PUSH1 0x0 DUP1 REVERT JUMPDEST POP PUSH2 0x15A PUSH2 0x421 JUMP JUMPDEST STOP JUMPDEST CALLVALUE DUP1 ISZERO PUSH2 0x168 JUMPI PUSH1 0x0 DUP1 REVERT JUMPDEST POP PUSH2 0x189 PUSH2 0x177 CALLDATASIZE PUSH1 0x4 PUSH2 0xEA6 JUMP JUMPDEST PUSH1 0x6 PUSH1 0x20 MSTORE PUSH1 0x0 SWAP1 DUP2 MSTORE PUSH1 0x40 SWAP1 KECCAK256 SLOAD DUP2 JUMP JUMPDEST PUSH1 0x40 MLOAD SWAP1 DUP2 MSTORE PUSH1 0x20 ADD JUMPDEST PUSH1 0x40 MLOAD DUP1 SWAP2 SUB SWAP1 RETURN JUMPDEST CALLVALUE DUP1 ISZERO PUSH2 0x1A8 JUMPI PUSH1 0x0 DUP1 REVERT JUMPDEST POP PUSH2 0x15A PUSH2 0x1B7 CALLDATASIZE PUSH1 0x4 PUSH2 0xEA6 JUMP JUMPDEST PUSH2 0x471 JUMP JUMPDEST CALLVALUE DUP1 ISZERO PUSH2 0x1C8 JUMPI PUSH1 0x0 DUP1 REVERT JUMPDEST POP PUSH1 0x5 SLOAD PUSH2 0x1DC SWAP1 PUSH1 0x1 PUSH1 0x1 PUSH1 0xA0 SHL SUB AND DUP2 JUMP JUMPDEST PUSH1 0x40 MLOAD PUSH1 0x1 PUSH1 0x1 PUSH1 0xA0 SHL SUB SWAP1 SWAP2 AND DUP2 MSTORE PUSH1 0x20 ADD PUSH2 0x193 JUMP JUMPDEST CALLVALUE DUP1 ISZERO PUSH2 0x200 JUMPI PUSH1 0x0 DUP1 REVERT JUMPDEST POP PUSH1 0x7 SLOAD PUSH1 0x8 SLOAD PUSH1 0x9 SLOAD PUSH2 0x213 SWAP3 SWAP2 SWAP1 DUP4 JUMP JUMPDEST PUSH1 0x40 DUP1 MLOAD SWAP4 DUP5 MSTORE PUSH1 0x20 DUP5 ADD SWAP3 SWAP1 SWAP3 MSTORE SWAP1 DUP3 ADD MSTORE PUSH1 0x60 ADD PUSH2 0x193 JUMP JUMPDEST CALLVALUE DUP1 ISZERO PUSH2 0x23A JUMPI PUSH1 0x0 DUP1 REVERT JUMPDEST POP PUSH2 0x189 PUSH1 0x4 SLOAD DUP2 JUMP JUMPDEST CALLVALUE DUP1 ISZERO PUSH2 0x250 JUMPI PUSH1 0x0 DUP1 REVERT JUMPDEST POP PUSH1 0x2 SLOAD PUSH2 0x1DC SWAP1 PUSH1 0x1 PUSH1 0x1 PUSH1 0xA0 SHL SUB AND DUP2 JUMP JUMPDEST CALLVALUE DUP1 ISZERO PUSH2 0x270 JUMPI PUSH1 0x0 DUP1 REVERT JUMPDEST POP PUSH2 0x189 PUSH9 0x15779A9DE6EEB00000 DUP2 JUMP JUMPDEST PUSH2 0x15A PUSH2 0x4FE JUMP JUMPDEST CALLVALUE DUP1 ISZERO PUSH2 0x295 JUMPI PUSH1 0x0 DUP1 REVERT JUMPDEST POP PUSH2 0x189 PUSH2 0x2A4 CALLDATASIZE PUSH1 0x4 PUSH2 0xECF JUMP JUMPDEST PUSH2 0x709 JUMP JUMPDEST CALLVALUE DUP1 ISZERO PUSH2 0x2B5 JUMPI PUSH1 0x0 DUP1 REVERT JUMPDEST POP PUSH2 0x15A PUSH2 0x823 JUMP JUMPDEST CALLVALUE DUP1 ISZERO PUSH2 0x2CA JUMPI PUSH1 0x0 DUP1 REVERT JUMPDEST POP PUSH1 0x1 SLOAD PUSH1 0x1 PUSH1 0x1 PUSH1 0xA0 SHL SUB AND PUSH2 0x1DC JUMP JUMPDEST CALLVALUE DUP1 ISZERO PUSH2 0x2E8 JUMPI PUSH1 0x0 DUP1 REVERT JUMPDEST POP PUSH2 0x2FC PUSH2 0x2F7 CALLDATASIZE PUSH1 0x4 PUSH2 0xEA6 JUMP JUMPDEST PUSH2 0x835 JUMP JUMPDEST PUSH1 0x40 DUP1 MLOAD SWAP3 DUP4 MSTORE PUSH1 0x20 DUP4 ADD SWAP2 SWAP1 SWAP2 MSTORE ADD PUSH2 0x193 JUMP JUMPDEST CALLVALUE DUP1 ISZERO PUSH2 0x31D JUMPI PUSH1 0x0 DUP1 REVERT JUMPDEST POP PUSH2 0x326 PUSH2 0x8C7 JUMP JUMPDEST PUSH1 0x40 MLOAD PUSH2 0x193 SWAP2 SWAP1 PUSH2 0xEFE JUMP JUMPDEST CALLVALUE DUP1 ISZERO PUSH2 0x33F JUMPI PUSH1 0x0 DUP1 REVERT JUMPDEST POP PUSH2 0x189 PUSH8 0x16345785D8A0000 DUP2 JUMP JUMPDEST CALLVALUE DUP1 ISZERO PUSH2 0x35B JUMPI PUSH1 0x0 DUP1 REVERT JUMPDEST POP PUSH2 0x15A PUSH2 0x925 JUMP JUMPDEST CALLVALUE DUP1 ISZERO PUSH2 0x370 JUMPI PUSH1 0x0 DUP1 REVERT JUMPDEST POP PUSH2 0x189 PUSH2 0xAA4 JUMP JUMPDEST CALLVALUE DUP1 ISZERO PUSH2 0x385 JUMPI PUSH1 0x0 DUP1 REVERT JUMPDEST POP PUSH2 0x15A PUSH2 0x394 CALLDATASIZE PUSH1 0x4 PUSH2 0xECF JUMP JUMPDEST PUSH2 0xAD0 JUMP JUMPDEST CALLVALUE DUP1 ISZERO PUSH2 0x3A5 JUMPI PUSH1 0x0 DUP1 REVERT JUMPDEST POP PUSH2 0x15A PUSH2 0x3B4 CALLDATASIZE PUSH1 0x4 PUSH2 0xEA6 JUMP JUMPDEST PUSH2 0xB44 JUMP JUMPDEST CALLVALUE DUP1 ISZERO PUSH2 0x3C5 JUMPI PUSH1 0x0 DUP1 REVERT JUMPDEST POP PUSH2 0x189 PUSH1 0x3 SLOAD DUP2 JUMP JUMPDEST CALLVALUE DUP1 ISZERO PUSH2 0x3DB JUMPI PUSH1 0x0 DUP1 REVERT JUMPDEST POP PUSH2 0x189 PUSH2 0xB7C JUMP JUMPDEST CALLVALUE DUP1 ISZERO PUSH2 0x3F0 JUMPI PUSH1 0x0 DUP1 REVERT JUMPDEST POP PUSH2 0x189 PUSH9 0xD8D726B7177A800000 DUP2 JUMP JUMPDEST CALLVALUE DUP1 ISZERO PUSH2 0x40D JUMPI PUSH1 0x0 DUP1 REVERT JUMPDEST POP PUSH2 0x15A PUSH2 0x41C CALLDATASIZE PUSH1 0x4 PUSH2 0xEA6 JUMP JUMPDEST PUSH2 0xB8B JUMP JUMPDEST PUSH2 0x429 PUSH2 0xC06 JUMP JUMPDEST PUSH1 0xA SLOAD PUSH1 0xFF AND ISZERO PUSH2 0x44C JUMPI PUSH1 0x40 MLOAD PUSH3 0xDC149F PUSH1 0xE4 SHL DUP2 MSTORE PUSH1 0x4 ADD PUSH1 0x40 MLOAD DUP1 SWAP2 SUB SWAP1 REVERT JUMPDEST PUSH1 0xA DUP1 SLOAD PUSH1 0xFF NOT AND PUSH1 0x1 OR SWAP1 SSTORE TIMESTAMP PUSH1 0x3 DUP2 SWAP1 SSTORE PUSH2 0x46C SWAP1 PUSH3 0x76A700 PUSH2 0xF3C JUMP JUMPDEST PUSH1 0x4 SSTORE JUMP JUMPDEST PUSH2 0x479 PUSH2 0xC06 JUMP JUMPDEST PUSH1 0xA SLOAD PUSH1 0xFF AND ISZERO PUSH2 0x49C JUMPI PUSH1 0x40 MLOAD PUSH3 0xDC149F PUSH1 0xE4 SHL DUP2 MSTORE PUSH1 0x4 ADD PUSH1 0x40 MLOAD DUP1 SWAP2 SUB SWAP1 REVERT JUMPDEST PUSH1 0x1 PUSH1 0x1 PUSH1 0xA0 SHL SUB DUP2 AND PUSH2 0x4C3 JUMPI PUSH1 0x40 MLOAD PUSH4 0xD92E233D PUSH1 0xE0 SHL DUP2 MSTORE PUSH1 0x4 ADD PUSH1 0x40 MLOAD DUP1 SWAP2 SUB SWAP1 REVERT JUMPDEST PUSH1 0x2 DUP1 SLOAD PUSH1 0x1 PUSH1 0x1 PUSH1 0xA0 SHL SUB NOT AND PUSH1 0x1 PUSH1 0x1 PUSH1 0xA0 SHL SUB DUP4 AND OR SWAP1 SSTORE PUSH2 0x4FB PUSH20 0xBF1C4139A6168988FE0D1384296E6DF44B27AFD PUSH2 0xC60 JUMP JUMPDEST POP JUMP JUMPDEST PUSH2 0x506 PUSH2 0xCAA JUMP JUMPDEST PUSH1 0xA SLOAD PUSH1 0xFF AND PUSH2 0x529 JUMPI PUSH1 0x40 MLOAD PUSH4 0x21C4E357 PUSH1 0xE2 SHL DUP2 MSTORE PUSH1 0x4 ADD PUSH1 0x40 MLOAD DUP1 SWAP2 SUB SWAP1 REVERT JUMPDEST PUSH1 0x1 PUSH2 0x533 PUSH2 0x8C7 JUMP JUMPDEST PUSH1 0x2 DUP2 GT ISZERO PUSH2 0x544 JUMPI PUSH2 0x544 PUSH2 0xEE8 JUMP JUMPDEST EQ PUSH2 0x562 JUMPI PUSH1 0x40 MLOAD PUSH4 0x3844DA57 PUSH1 0xE2 SHL DUP2 MSTORE PUSH1 0x4 ADD PUSH1 0x40 MLOAD DUP1 SWAP2 SUB SWAP1 REVERT JUMPDEST CALLER PUSH1 0x0 SWAP1 DUP2 MSTORE PUSH1 0x6 PUSH1 0x20 MSTORE PUSH1 0x40 SWAP1 KECCAK256 SLOAD PUSH8 0x16345785D8A0000 CALLVALUE LT DUP1 PUSH2 0x599 JUMPI POP PUSH9 0xD8D726B7177A800000 PUSH2 0x597 CALLVALUE DUP4 PUSH2 0xF3C JUMP JUMPDEST GT JUMPDEST ISZERO PUSH2 0x5B7 JUMPI PUSH1 0x40 MLOAD PUSH4 0xFE9BA5CD PUSH1 0xE0 SHL DUP2 MSTORE PUSH1 0x4 ADD PUSH1 0x40 MLOAD DUP1 SWAP2 SUB SWAP1 REVERT JUMPDEST DUP1 PUSH1 0x0 SUB PUSH2 0x5D4 JUMPI PUSH1 0x9 DUP1 SLOAD PUSH1 0x0 SWAP1 PUSH2 0x5CF SWAP1 PUSH2 0xF54 JUMP JUMPDEST SWAP1 SWAP2 SSTORE POP JUMPDEST CALLER PUSH1 0x0 SWAP1 DUP2 MSTORE PUSH1 0x6 PUSH1 0x20 MSTORE PUSH1 0x40 DUP2 KECCAK256 DUP1 SLOAD CALLVALUE SWAP3 SWAP1 PUSH2 0x5F3 SWAP1 DUP5 SWAP1 PUSH2 0xF3C JUMP JUMPDEST SWAP1 SWAP2 SSTORE POP PUSH1 0x0 SWAP1 POP PUSH2 0x604 CALLVALUE PUSH2 0x709 JUMP JUMPDEST SWAP1 POP CALLVALUE PUSH1 0x7 PUSH1 0x0 ADD PUSH1 0x0 DUP3 DUP3 SLOAD PUSH2 0x61B SWAP2 SWAP1 PUSH2 0xF3C JUMP JUMPDEST SWAP1 SWAP2 SSTORE POP POP PUSH1 0x8 DUP1 SLOAD DUP3 SWAP2 SWAP1 PUSH1 0x0 SWAP1 PUSH2 0x635 SWAP1 DUP5 SWAP1 PUSH2 0xF3C JUMP JUMPDEST SWAP1 SWAP2 SSTORE POP POP PUSH1 0x2 SLOAD PUSH1 0x40 MLOAD PUSH4 0xA9059CBB PUSH1 0xE0 SHL DUP2 MSTORE CALLER PUSH1 0x4 DUP3 ADD MSTORE PUSH1 0x24 DUP2 ADD DUP4 SWAP1 MSTORE PUSH1 0x1 PUSH1 0x1 PUSH1 0xA0 SHL SUB SWAP1 SWAP2 AND SWAP1 PUSH4 0xA9059CBB SWAP1 PUSH1 0x44 ADD PUSH1 0x20 PUSH1 0x40 MLOAD DUP1 DUP4 SUB DUP2 PUSH1 0x0 DUP8 GAS CALL ISZERO DUP1 ISZERO PUSH2 0x68B JUMPI RETURNDATASIZE PUSH1 0x0 DUP1 RETURNDATACOPY RETURNDATASIZE PUSH1 0x0 REVERT JUMPDEST POP POP POP POP PUSH1 0x40 MLOAD RETURNDATASIZE PUSH1 0x1F NOT PUSH1 0x1F DUP3 ADD AND DUP3 ADD DUP1 PUSH1 0x40 MSTORE POP DUP2 ADD SWAP1 PUSH2 0x6AF SWAP2 SWAP1 PUSH2 0xF6D JUMP JUMPDEST PUSH2 0x6CC JUMPI PUSH1 0x40 MLOAD PUSH4 0x12171D83 PUSH1 0xE3 SHL DUP2 MSTORE PUSH1 0x4 ADD PUSH1 0x40 MLOAD DUP1 SWAP2 SUB SWAP1 REVERT JUMPDEST PUSH1 0x40 MLOAD DUP2 SWAP1 CALLVALUE SWAP1 CALLER SWAP1 PUSH32 0x2F1A7FDA57B5FD5CB62770AEBD7FC9A8A0A834C5FF558EB7562F85F2B28C4375 SWAP1 PUSH1 0x0 SWAP1 LOG4 POP POP PUSH2 0x707 PUSH1 0x1 PUSH1 0x0 SSTORE JUMP JUMPDEST JUMP JUMPDEST PUSH1 0x7 SLOAD PUSH1 0x0 SWAP1 PUSH2 0x722 SWAP1 PUSH9 0x15779A9DE6EEB00000 PUSH2 0xF8F JUMP JUMPDEST DUP3 GT ISZERO PUSH2 0x742 JUMPI PUSH1 0x40 MLOAD PUSH4 0x9443F39 PUSH1 0xE0 SHL DUP2 MSTORE PUSH1 0x4 ADD PUSH1 0x40 MLOAD DUP1 SWAP2 SUB SWAP1 REVERT JUMPDEST PUSH1 0x0 PUSH2 0x74C PUSH2 0xAA4 JUMP JUMPDEST SWAP1 POP DUP1 DUP4 LT ISZERO PUSH2 0x76F JUMPI PUSH2 0x75E PUSH2 0xD03 JUMP JUMPDEST PUSH2 0x768 SWAP1 DUP5 PUSH2 0xFA6 JUMP JUMPDEST SWAP4 SWAP3 POP POP POP JUMP JUMPDEST PUSH1 0x0 PUSH2 0x779 PUSH2 0xD18 JUMP JUMPDEST SWAP1 POP PUSH1 0x0 DUP1 PUSH1 0x0 DUP1 PUSH1 0x0 PUSH1 0x7 PUSH1 0x0 ADD SLOAD SWAP1 POP JUMPDEST DUP9 ISZERO PUSH2 0x816 JUMPI PUSH2 0x79B DUP7 PUSH2 0xD58 JUMP JUMPDEST SWAP2 SWAP6 POP SWAP4 POP SWAP2 POP PUSH1 0x0 PUSH2 0x7AE DUP3 DUP5 PUSH2 0xF8F JUMP JUMPDEST SWAP1 POP DUP1 DUP11 GT PUSH2 0x7D7 JUMPI PUSH2 0x7C1 DUP6 DUP12 PUSH2 0xFA6 JUMP JUMPDEST PUSH2 0x7CB SWAP1 DUP8 PUSH2 0xF3C JUMP JUMPDEST SWAP6 POP PUSH1 0x0 SWAP10 POP POP PUSH2 0x816 JUMP JUMPDEST PUSH2 0x7E1 DUP2 DUP4 PUSH2 0xF3C JUMP JUMPDEST SWAP2 POP PUSH2 0x7ED DUP6 DUP3 PUSH2 0xFA6 JUMP JUMPDEST PUSH2 0x7F7 SWAP1 DUP8 PUSH2 0xF3C JUMP JUMPDEST SWAP6 POP PUSH2 0x803 DUP2 DUP12 PUSH2 0xF8F JUMP JUMPDEST SWAP10 POP PUSH2 0x80E DUP8 PUSH2 0xF54 JUMP JUMPDEST SWAP7 POP POP PUSH2 0x78C JUMP JUMPDEST POP SWAP3 SWAP8 SWAP7 POP POP POP POP POP POP POP JUMP JUMPDEST PUSH2 0x82B PUSH2 0xC06 JUMP JUMPDEST PUSH2 0x707 PUSH1 0x0 PUSH2 0xDDB JUMP JUMPDEST PUSH1 0x1 PUSH1 0x1 PUSH1 0xA0 SHL SUB DUP2 DUP2 AND PUSH1 0x0 DUP2 DUP2 MSTORE PUSH1 0x6 PUSH1 0x20 MSTORE PUSH1 0x40 DUP1 DUP3 KECCAK256 SLOAD PUSH1 0x2 SLOAD SWAP2 MLOAD PUSH4 0x70A08231 PUSH1 0xE0 SHL DUP2 MSTORE PUSH1 0x4 DUP2 ADD SWAP5 SWAP1 SWAP5 MSTORE SWAP2 SWAP4 DUP5 SWAP4 DUP5 SWAP3 SWAP1 SWAP2 AND SWAP1 PUSH4 0x70A08231 SWAP1 PUSH1 0x24 ADD PUSH1 0x20 PUSH1 0x40 MLOAD DUP1 DUP4 SUB DUP2 DUP7 GAS STATICCALL ISZERO DUP1 ISZERO PUSH2 0x897 JUMPI RETURNDATASIZE PUSH1 0x0 DUP1 RETURNDATACOPY RETURNDATASIZE PUSH1 0x0 REVERT JUMPDEST POP POP POP POP PUSH1 0x40 MLOAD RETURNDATASIZE PUSH1 0x1F NOT PUSH1 0x1F DUP3 ADD AND DUP3 ADD DUP1 PUSH1 0x40 MSTORE POP DUP2 ADD SWAP1 PUSH2 0x8BB SWAP2 SWAP1 PUSH2 0xFC5 JUMP JUMPDEST SWAP2 SWAP6 SWAP2 SWAP5 POP SWAP1 SWAP3 POP POP POP JUMP JUMPDEST PUSH1 0xA SLOAD PUSH1 0x0 SWAP1 PUSH1 0xFF AND PUSH2 0x8DA JUMPI POP PUSH1 0x0 SWAP1 JUMP JUMPDEST PUSH1 0x7 SLOAD PUSH9 0x15779A9DE6EEB00000 GT ISZERO DUP1 PUSH2 0x8F5 JUMPI POP PUSH1 0x4 SLOAD TIMESTAMP GT JUMPDEST ISZERO PUSH2 0x900 JUMPI POP PUSH1 0x2 SWAP1 JUMP JUMPDEST PUSH1 0x3 SLOAD TIMESTAMP LT ISZERO DUP1 ISZERO PUSH2 0x914 JUMPI POP PUSH1 0x4 SLOAD TIMESTAMP GT ISZERO JUMPDEST ISZERO PUSH2 0x91F JUMPI POP PUSH1 0x1 SWAP1 JUMP JUMPDEST POP PUSH1 0x0 SWAP1 JUMP JUMPDEST PUSH2 0x92D PUSH2 0xC06 JUMP JUMPDEST PUSH1 0x2 PUSH2 0x937 PUSH2 0x8C7 JUMP JUMPDEST PUSH1 0x2 DUP2 GT ISZERO PUSH2 0x948 JUMPI PUSH2 0x948 PUSH2 0xEE8 JUMP JUMPDEST EQ PUSH2 0x966 JUMPI PUSH1 0x40 MLOAD PUSH4 0xDFC7E2E5 PUSH1 0xE0 SHL DUP2 MSTORE PUSH1 0x4 ADD PUSH1 0x40 MLOAD DUP1 SWAP2 SUB SWAP1 REVERT JUMPDEST SELFBALANCE DUP1 ISZERO PUSH2 0x983 JUMPI PUSH1 0x5 SLOAD PUSH2 0x983 SWAP1 PUSH1 0x1 PUSH1 0x1 PUSH1 0xA0 SHL SUB AND DUP3 PUSH2 0xE2D JUMP JUMPDEST PUSH1 0x2 SLOAD PUSH1 0x40 MLOAD PUSH4 0x70A08231 PUSH1 0xE0 SHL DUP2 MSTORE ADDRESS PUSH1 0x4 DUP3 ADD MSTORE PUSH1 0x0 SWAP2 PUSH1 0x1 PUSH1 0x1 PUSH1 0xA0 SHL SUB AND SWAP1 PUSH4 0x70A08231 SWAP1 PUSH1 0x24 ADD PUSH1 0x20 PUSH1 0x40 MLOAD DUP1 DUP4 SUB DUP2 DUP7 GAS STATICCALL ISZERO DUP1 ISZERO PUSH2 0x9CC JUMPI RETURNDATASIZE PUSH1 0x0 DUP1 RETURNDATACOPY RETURNDATASIZE PUSH1 0x0 REVERT JUMPDEST POP POP POP POP PUSH1 0x40 MLOAD RETURNDATASIZE PUSH1 0x1F NOT PUSH1 0x1F DUP3 ADD AND DUP3 ADD DUP1 PUSH1 0x40 MSTORE POP DUP2 ADD SWAP1 PUSH2 0x9F0 SWAP2 SWAP1 PUSH2 0xFC5 JUMP JUMPDEST SWAP1 POP DUP1 ISZERO PUSH2 0xA73 JUMPI PUSH1 0x2 SLOAD PUSH1 0x5 SLOAD PUSH1 0x40 MLOAD PUSH4 0xA9059CBB PUSH1 0xE0 SHL DUP2 MSTORE PUSH1 0x1 PUSH1 0x1 PUSH1 0xA0 SHL SUB SWAP2 DUP3 AND PUSH1 0x4 DUP3 ADD MSTORE PUSH1 0x24 DUP2 ADD DUP5 SWAP1 MSTORE SWAP2 AND SWAP1 PUSH4 0xA9059CBB SWAP1 PUSH1 0x44 ADD PUSH1 0x20 PUSH1 0x40 MLOAD DUP1 DUP4 SUB DUP2 PUSH1 0x0 DUP8 GAS CALL ISZERO DUP1 ISZERO PUSH2 0xA4D JUMPI RETURNDATASIZE PUSH1 0x0 DUP1 RETURNDATACOPY RETURNDATASIZE PUSH1 0x0 REVERT JUMPDEST POP POP POP POP PUSH1 0x40 MLOAD RETURNDATASIZE PUSH1 0x1F NOT PUSH1 0x1F DUP3 ADD AND DUP3 ADD DUP1 PUSH1 0x40 MSTORE POP DUP2 ADD SWAP1 PUSH2 0xA71 SWAP2 SWAP1 PUSH2 0xF6D JUMP JUMPDEST POP JUMPDEST PUSH1 0x40 MLOAD DUP2 SWAP1 DUP4 SWAP1 PUSH32 0xDBA9C995F50D4DBCF61C8456721131E5B3CF718FB409CDAC2578E1A14B2132C9 SWAP1 PUSH1 0x0 SWAP1 LOG3 POP POP JUMP JUMPDEST PUSH1 0x0 DUP1 PUSH2 0xAB7 PUSH2 0xAB2 PUSH2 0xD18 JUMP JUMPDEST PUSH2 0xD58 JUMP JUMPDEST PUSH1 0x7 SLOAD SWAP1 SWAP4 POP PUSH2 0xACA SWAP3 POP SWAP1 POP DUP3 PUSH2 0xF8F JUMP JUMPDEST SWAP2 POP POP SWAP1 JUMP JUMPDEST PUSH2 0xAD8 PUSH2 0xC06 JUMP JUMPDEST TIMESTAMP DUP2 LT DUP1 PUSH2 0xAE7 JUMPI POP PUSH1 0x3 SLOAD DUP2 LT JUMPDEST DUP1 PUSH2 0xAF3 JUMPI POP PUSH1 0x4 SLOAD DUP2 GT JUMPDEST ISZERO PUSH2 0xB11 JUMPI PUSH1 0x40 MLOAD PUSH4 0x398145CF PUSH1 0xE1 SHL DUP2 MSTORE PUSH1 0x4 ADD PUSH1 0x40 MLOAD DUP1 SWAP2 SUB SWAP1 REVERT JUMPDEST PUSH1 0x4 DUP2 SWAP1 SSTORE PUSH1 0x40 MLOAD DUP2 SWAP1 PUSH32 0xF2EFEDB45B62795007F61674EDFBF06D96B7C52DAAFFE8A30632492CB561CF6B SWAP1 PUSH1 0x0 SWAP1 LOG2 POP JUMP JUMPDEST PUSH2 0xB4C PUSH2 0xC06 JUMP JUMPDEST PUSH1 0x1 PUSH1 0x1 PUSH1 0xA0 SHL SUB DUP2 AND PUSH2 0xB73 JUMPI PUSH1 0x40 MLOAD PUSH4 0xD92E233D PUSH1 0xE0 SHL DUP2 MSTORE PUSH1 0x4 ADD PUSH1 0x40 MLOAD DUP1 SWAP2 SUB SWAP1 REVERT JUMPDEST PUSH2 0x4FB DUP2 PUSH2 0xC60 JUMP JUMPDEST PUSH1 0x0 PUSH2 0xB86 PUSH2 0xD18 JUMP JUMPDEST SWAP1 POP SWAP1 JUMP JUMPDEST PUSH2 0xB93 PUSH2 0xC06 JUMP JUMPDEST PUSH1 0x1 PUSH1 0x1 PUSH1 0xA0 SHL SUB DUP2 AND PUSH2 0xBFD JUMPI PUSH1 0x40 MLOAD PUSH3 0x461BCD PUSH1 0xE5 SHL DUP2 MSTORE PUSH1 0x20 PUSH1 0x4 DUP3 ADD MSTORE PUSH1 0x26 PUSH1 0x24 DUP3 ADD MSTORE PUSH32 0x4F776E61626C653A206E6577206F776E657220697320746865207A65726F2061 PUSH1 0x44 DUP3 ADD MSTORE PUSH6 0x646472657373 PUSH1 0xD0 SHL PUSH1 0x64 DUP3 ADD MSTORE PUSH1 0x84 ADD JUMPDEST PUSH1 0x40 MLOAD DUP1 SWAP2 SUB SWAP1 REVERT JUMPDEST PUSH2 0x4FB DUP2 PUSH2 0xDDB JUMP JUMPDEST PUSH1 0x1 SLOAD PUSH1 0x1 PUSH1 0x1 PUSH1 0xA0 SHL SUB AND CALLER EQ PUSH2 0x707 JUMPI PUSH1 0x40 MLOAD PUSH3 0x461BCD PUSH1 0xE5 SHL DUP2 MSTORE PUSH1 0x20 PUSH1 0x4 DUP3 ADD DUP2 SWAP1 MSTORE PUSH1 0x24 DUP3 ADD MSTORE PUSH32 0x4F776E61626C653A2063616C6C6572206973206E6F7420746865206F776E6572 PUSH1 0x44 DUP3 ADD MSTORE PUSH1 0x64 ADD PUSH2 0xBF4 JUMP JUMPDEST PUSH1 0x5 DUP1 SLOAD PUSH1 0x1 PUSH1 0x1 PUSH1 0xA0 SHL SUB NOT AND PUSH1 0x1 PUSH1 0x1 PUSH1 0xA0 SHL SUB DUP4 AND SWAP1 DUP2 OR SWAP1 SWAP2 SSTORE PUSH1 0x40 MLOAD PUSH32 0x98A9845B11AFF33A851910BF36257BF6B63B3734A53F36D8F56BD5C8BA1316D3 SWAP1 PUSH1 0x0 SWAP1 LOG2 POP JUMP JUMPDEST PUSH1 0x2 PUSH1 0x0 SLOAD SUB PUSH2 0xCFC JUMPI PUSH1 0x40 MLOAD PUSH3 0x461BCD PUSH1 0xE5 SHL DUP2 MSTORE PUSH1 0x20 PUSH1 0x4 DUP3 ADD MSTORE PUSH1 0x1F PUSH1 0x24 DUP3 ADD MSTORE PUSH32 0x5265656E7472616E637947756172643A207265656E7472616E742063616C6C00 PUSH1 0x44 DUP3 ADD MSTORE PUSH1 0x64 ADD PUSH2 0xBF4 JUMP JUMPDEST PUSH1 0x2 PUSH1 0x0 SSTORE JUMP JUMPDEST PUSH1 0x0 PUSH2 0xD10 PUSH2 0xAB2 PUSH2 0xD18 JUMP JUMPDEST POP SWAP1 SWAP3 SWAP2 POP POP JUMP JUMPDEST PUSH1 0x7 SLOAD PUSH1 0x0 SWAP1 PUSH9 0x2B5E3AF16B1880000 DUP2 GT ISZERO PUSH2 0xD37 JUMPI PUSH1 0x2 SWAP2 POP POP SWAP1 JUMP JUMPDEST PUSH9 0x1158E460913D00000 DUP2 GT ISZERO PUSH2 0xD50 JUMPI PUSH1 0x1 SWAP2 POP POP SWAP1 JUMP JUMPDEST PUSH1 0x0 SWAP2 POP POP SWAP1 JUMP JUMPDEST PUSH1 0x0 DUP1 PUSH1 0x0 PUSH1 0x2 DUP5 GT ISZERO PUSH2 0xD6E JUMPI PUSH2 0xD6E PUSH2 0xFDE JUMP JUMPDEST DUP4 PUSH1 0x0 SUB PUSH2 0xD8E JUMPI POP PUSH2 0x14B4 SWAP2 POP PUSH9 0x1158E460913D00000 SWAP1 POP DUP1 PUSH2 0xDD4 JUMP JUMPDEST DUP4 PUSH1 0x1 SUB PUSH2 0xDB7 JUMPI POP PUSH2 0x12C0 SWAP2 POP PUSH9 0x1A055690D9DB80000 SWAP1 POP PUSH9 0x2B5E3AF16B1880000 PUSH2 0xDD4 JUMP JUMPDEST POP PUSH2 0x109A SWAP2 POP PUSH9 0x11AC28A8C729580000 SWAP1 POP PUSH9 0x15779A9DE6EEB00000 JUMPDEST SWAP2 SWAP4 SWAP1 SWAP3 POP JUMP JUMPDEST PUSH1 0x1 DUP1 SLOAD PUSH1 0x1 PUSH1 0x1 PUSH1 0xA0 SHL SUB DUP4 DUP2 AND PUSH1 0x1 PUSH1 0x1 PUSH1 0xA0 SHL SUB NOT DUP4 AND DUP2 OR SWAP1 SWAP4 SSTORE PUSH1 0x40 MLOAD SWAP2 AND SWAP2 SWAP1 DUP3 SWAP1 PUSH32 0x8BE0079C531659141344CD1FD0A4F28419497F9722A3DAAFE3B4186F6B6457E0 SWAP1 PUSH1 0x0 SWAP1 LOG3 POP POP JUMP JUMPDEST PUSH1 0x0 DUP3 PUSH1 0x1 PUSH1 0x1 PUSH1 0xA0 SHL SUB AND DUP3 PUSH1 0x40 MLOAD PUSH1 0x0 PUSH1 0x40 MLOAD DUP1 DUP4 SUB DUP2 DUP6 DUP8 GAS CALL SWAP3 POP POP POP RETURNDATASIZE DUP1 PUSH1 0x0 DUP2 EQ PUSH2 0xE7A JUMPI PUSH1 0x40 MLOAD SWAP2 POP PUSH1 0x1F NOT PUSH1 0x3F RETURNDATASIZE ADD AND DUP3 ADD PUSH1 0x40 MSTORE RETURNDATASIZE DUP3 MSTORE RETURNDATASIZE PUSH1 0x0 PUSH1 0x20 DUP5 ADD RETURNDATACOPY PUSH2 0xE7F JUMP JUMPDEST PUSH1 0x60 SWAP2 POP JUMPDEST POP POP SWAP1 POP DUP1 PUSH2 0xEA1 JUMPI PUSH1 0x40 MLOAD PUSH4 0x12171D83 PUSH1 0xE3 SHL DUP2 MSTORE PUSH1 0x4 ADD PUSH1 0x40 MLOAD DUP1 SWAP2 SUB SWAP1 REVERT JUMPDEST POP POP POP JUMP JUMPDEST PUSH1 0x0 PUSH1 0x20 DUP3 DUP5 SUB SLT ISZERO PUSH2 0xEB8 JUMPI PUSH1 0x0 DUP1 REVERT JUMPDEST DUP2 CALLDATALOAD PUSH1 0x1 PUSH1 0x1 PUSH1 0xA0 SHL SUB DUP2 AND DUP2 EQ PUSH2 0x768 JUMPI PUSH1 0x0 DUP1 REVERT JUMPDEST PUSH1 0x0 PUSH1 0x20 DUP3 DUP5 SUB SLT ISZERO PUSH2 0xEE1 JUMPI PUSH1 0x0 DUP1 REVERT JUMPDEST POP CALLDATALOAD SWAP2 SWAP1 POP JUMP JUMPDEST PUSH4 0x4E487B71 PUSH1 0xE0 SHL PUSH1 0x0 MSTORE PUSH1 0x21 PUSH1 0x4 MSTORE PUSH1 0x24 PUSH1 0x0 REVERT JUMPDEST PUSH1 0x20 DUP2 ADD PUSH1 0x3 DUP4 LT PUSH2 0xF20 JUMPI PUSH4 0x4E487B71 PUSH1 0xE0 SHL PUSH1 0x0 MSTORE PUSH1 0x21 PUSH1 0x4 MSTORE PUSH1 0x24 PUSH1 0x0 REVERT JUMPDEST SWAP2 SWAP1 MSTORE SWAP1 JUMP JUMPDEST PUSH4 0x4E487B71 PUSH1 0xE0 SHL PUSH1 0x0 MSTORE PUSH1 0x11 PUSH1 0x4 MSTORE PUSH1 0x24 PUSH1 0x0 REVERT JUMPDEST PUSH1 0x0 DUP3 NOT DUP3 GT ISZERO PUSH2 0xF4F JUMPI PUSH2 0xF4F PUSH2 0xF26 JUMP JUMPDEST POP ADD SWAP1 JUMP JUMPDEST PUSH1 0x0 PUSH1 0x1 DUP3 ADD PUSH2 0xF66 JUMPI PUSH2 0xF66 PUSH2 0xF26 JUMP JUMPDEST POP PUSH1 0x1 ADD SWAP1 JUMP JUMPDEST PUSH1 0x0 PUSH1 0x20 DUP3 DUP5 SUB SLT ISZERO PUSH2 0xF7F JUMPI PUSH1 0x0 DUP1 REVERT JUMPDEST DUP2 MLOAD DUP1 ISZERO ISZERO DUP2 EQ PUSH2 0x768 JUMPI PUSH1 0x0 DUP1 REVERT JUMPDEST PUSH1 0x0 DUP3 DUP3 LT ISZERO PUSH2 0xFA1 JUMPI PUSH2 0xFA1 PUSH2 0xF26 JUMP JUMPDEST POP SUB SWAP1 JUMP JUMPDEST PUSH1 0x0 DUP2 PUSH1 0x0 NOT DIV DUP4 GT DUP3 ISZERO ISZERO AND ISZERO PUSH2 0xFC0 JUMPI PUSH2 0xFC0 PUSH2 0xF26 JUMP JUMPDEST POP MUL SWAP1 JUMP JUMPDEST PUSH1 0x0 PUSH1 0x20 DUP3 DUP5 SUB SLT ISZERO PUSH2 0xFD7 JUMPI PUSH1 0x0 DUP1 REVERT JUMPDEST POP MLOAD SWAP2 SWAP1 POP JUMP JUMPDEST PUSH4 0x4E487B71 PUSH1 0xE0 SHL PUSH1 0x0 MSTORE PUSH1 0x1 PUSH1 0x4 MSTORE PUSH1 0x24 PUSH1 0x0 REVERT INVALID LOG2 PUSH5 0x6970667358 0x22 SLT KECCAK256 SWAP4 SWAP15 0x2E CALLER STATICCALL CALLDATACOPY 0xAB 0x2A SSTORE 0x5C 0xC3 PUSH15 0xCEF9A7ABD199E3DDD0480FDBA3128F 0xBE 0xBC 0xDD PUSH13 0x1464736F6C634300080E003300 "},"methodIdentifiers":{"HARDCAP()":"3bd74880","RAISE_MAX()":"ef690835","RAISE_MIN()":"b96cec16","baseTokensLeftToRaiseOnCurrentStage()":"cb1980c2","calculateDarwinAmount(uint256)":"64822332","darwin()":"3110c792","getCurrentStage()":"eedbe31d","init(address)":"19ab453c","owner()":"8da5cb5b","presaleEnd()":"229f3e29","presaleStart()":"de8801e5","presaleStatus()":"acfb2355","renounceOwnership()":"715018a6","setPresaleEndDate(uint256)":"d39a840a","setWallet1(address)":"d52a7cbf","startPresale()":"04c98b2b","status()":"200d2ed2","tokensDepositedAndOwned(address)":"9ac3e9a8","transferOwnership(address)":"f2fde38b","userDeposit()":"48146113","userDeposits(address)":"0ba36dcd","wallet1()":"1a026c96","withdrawETHAndUnsoldDarwin()":"bed52af4"}},"storageLayout":{"storage":[{"astId":123,"contract":"contracts/DarwinPresale.sol:DarwinPresale","label":"_status","offset":0,"slot":"0","type":"t_uint256"},{"astId":7,"contract":"contracts/DarwinPresale.sol:DarwinPresale","label":"_owner","offset":0,"slot":"1","type":"t_address"},{"astId":3189,"contract":"contracts/DarwinPresale.sol:DarwinPresale","label":"darwin","offset":0,"slot":"2","type":"t_contract(IERC20)244"},{"astId":3192,"contract":"contracts/DarwinPresale.sol:DarwinPresale","label":"presaleStart","offset":0,"slot":"3","type":"t_uint256"},{"astId":3195,"contract":"contracts/DarwinPresale.sol:DarwinPresale","label":"presaleEnd","offset":0,"slot":"4","type":"t_uint256"},{"astId":3198,"contract":"contracts/DarwinPresale.sol:DarwinPresale","label":"wallet1","offset":0,"slot":"5","type":"t_address"},{"astId":3203,"contract":"contracts/DarwinPresale.sol:DarwinPresale","label":"userDeposits","offset":0,"slot":"6","type":"t_mapping(t_address,t_uint256)"},{"astId":3207,"contract":"contracts/DarwinPresale.sol:DarwinPresale","label":"status","offset":0,"slot":"7","type":"t_struct(PresaleStatus)5542_storage"},{"astId":3210,"contract":"contracts/DarwinPresale.sol:DarwinPresale","label":"_isInitialized","offset":0,"slot":"10","type":"t_bool"}],"types":{"t_address":{"encoding":"inplace","label":"address","numberOfBytes":"20"},"t_bool":{"encoding":"inplace","label":"bool","numberOfBytes":"1"},"t_contract(IERC20)244":{"encoding":"inplace","label":"contract IERC20","numberOfBytes":"20"},"t_mapping(t_address,t_uint256)":{"encoding":"mapping","key":"t_address","label":"mapping(address => uint256)","numberOfBytes":"32","value":"t_uint256"},"t_struct(PresaleStatus)5542_storage":{"encoding":"inplace","label":"struct IDarwinPresale.PresaleStatus","members":[{"astId":5537,"contract":"contracts/DarwinPresale.sol:DarwinPresale","label":"raisedAmount","offset":0,"slot":"0","type":"t_uint256"},{"astId":5539,"contract":"contracts/DarwinPresale.sol:DarwinPresale","label":"soldAmount","offset":0,"slot":"1","type":"t_uint256"},{"astId":5541,"contract":"contracts/DarwinPresale.sol:DarwinPresale","label":"numBuyers","offset":0,"slot":"2","type":"t_uint256"}],"numberOfBytes":"96"},"t_uint256":{"encoding":"inplace","label":"uint256","numberOfBytes":"32"}}}}}}