{"contracts/OldVester.sol":{"OldVester":{"abi":[{"inputs":[{"internalType":"address","name":"_darwin","type":"address"}],"stateMutability":"nonpayable","type":"constructor"},{"inputs":[],"name":"AlreadyInitialized","type":"error"},{"inputs":[],"name":"AmountExceedsClaimable","type":"error"},{"inputs":[],"name":"AmountExceedsWithdrawable","type":"error"},{"inputs":[],"name":"NotInitialized","type":"error"},{"inputs":[],"name":"NotPrivateSale","type":"error"},{"inputs":[],"name":"TransferFailed","type":"error"},{"inputs":[],"name":"ZeroAddress","type":"error"},{"anonymous":false,"inputs":[{"indexed":true,"internalType":"address","name":"user","type":"address"},{"indexed":true,"internalType":"uint256","name":"claimAmount","type":"uint256"}],"name":"Claim","type":"event"},{"anonymous":false,"inputs":[{"indexed":true,"internalType":"address","name":"previousOwner","type":"address"},{"indexed":true,"internalType":"address","name":"newOwner","type":"address"}],"name":"OwnershipTransferred","type":"event"},{"anonymous":false,"inputs":[{"indexed":true,"internalType":"address","name":"user","type":"address"},{"indexed":true,"internalType":"uint256","name":"vestAmount","type":"uint256"}],"name":"Vest","type":"event"},{"anonymous":false,"inputs":[{"indexed":true,"internalType":"address","name":"user","type":"address"},{"indexed":true,"internalType":"uint256","name":"withdrawAmount","type":"uint256"}],"name":"Withdraw","type":"event"},{"inputs":[],"name":"INTEREST","outputs":[{"internalType":"uint256","name":"","type":"uint256"}],"stateMutability":"view","type":"function"},{"inputs":[],"name":"MONTHS","outputs":[{"internalType":"uint256","name":"","type":"uint256"}],"stateMutability":"view","type":"function"},{"inputs":[],"name":"VESTING_TIME","outputs":[{"internalType":"uint256","name":"","type":"uint256"}],"stateMutability":"view","type":"function"},{"inputs":[{"internalType":"address","name":"_user","type":"address"}],"name":"claimableDarwin","outputs":[{"internalType":"uint256","name":"claimable","type":"uint256"}],"stateMutability":"view","type":"function"},{"inputs":[],"name":"darwin","outputs":[{"internalType":"contract IERC20","name":"","type":"address"}],"stateMutability":"view","type":"function"},{"inputs":[{"internalType":"address","name":"_user","type":"address"},{"internalType":"uint256","name":"_amount","type":"uint256"}],"name":"deposit","outputs":[],"stateMutability":"nonpayable","type":"function"},{"inputs":[{"internalType":"address","name":"_privateSale","type":"address"}],"name":"init","outputs":[],"stateMutability":"nonpayable","type":"function"},{"inputs":[],"name":"owner","outputs":[{"internalType":"address","name":"","type":"address"}],"stateMutability":"view","type":"function"},{"inputs":[],"name":"privateSale","outputs":[{"internalType":"address","name":"","type":"address"}],"stateMutability":"view","type":"function"},{"inputs":[],"name":"renounceOwnership","outputs":[],"stateMutability":"nonpayable","type":"function"},{"inputs":[{"internalType":"address","name":"newOwner","type":"address"}],"name":"transferOwnership","outputs":[],"stateMutability":"nonpayable","type":"function"},{"inputs":[{"internalType":"address","name":"","type":"address"}],"name":"userInfo","outputs":[{"internalType":"uint256","name":"withdrawn","type":"uint256"},{"internalType":"uint256","name":"vested","type":"uint256"},{"internalType":"uint256","name":"vestTimestamp","type":"uint256"},{"internalType":"uint256","name":"claimed","type":"uint256"}],"stateMutability":"view","type":"function"},{"inputs":[{"internalType":"uint256","name":"_amount","type":"uint256"}],"name":"withdraw","outputs":[],"stateMutability":"nonpayable","type":"function"},{"inputs":[{"internalType":"address","name":"_user","type":"address"}],"name":"withdrawableDarwin","outputs":[{"internalType":"uint256","name":"withdrawable","type":"uint256"}],"stateMutability":"view","type":"function"}],"evm":{"bytecode":{"linkReferences":{},"object":"608060405234801561001057600080fd5b50604051610c10380380610c1083398101604081905261002f916100db565b600160005561003d33610089565b6001600160a01b0381166100645760405163d92e233d60e01b815260040160405180910390fd5b600380546001600160a01b0319166001600160a01b039290921691909117905561010b565b600180546001600160a01b038381166001600160a01b0319831681179093556040519116919082907f8be0079c531659141344cd1fd0a4f28419497f9722a3daafe3b4186f6b6457e090600090a35050565b6000602082840312156100ed57600080fd5b81516001600160a01b038116811461010457600080fd5b9392505050565b610af68061011a6000396000f3fe608060405234801561001057600080fd5b50600436106100ea5760003560e01c80638ce910a51161008c578063ba1f879f11610066578063ba1f879f146101fb578063eec414aa1461020e578063f2fde38b14610221578063ff60dfb61461023457600080fd5b80638ce910a5146101cf5780638da5cb5b146101e25780638fa626f2146101f357600080fd5b80632e1a7d4d116100c85780632e1a7d4d146101765780633110c7921461018957806347e7ef24146101b4578063715018a6146101c757600080fd5b80630dea38b6146100ef5780631959a0021461010a57806319ab453c14610161575b600080fd5b6100f761023d565b6040519081526020015b60405180910390f35b6101416101183660046109b3565b600260208190526000918252604090912080546001820154928201546003909201549092919084565b604080519485526020850193909352918301526060820152608001610101565b61017461016f3660046109b3565b61024e565b005b6101746101843660046109d5565b6102a9565b60035461019c906001600160a01b031681565b6040516001600160a01b039091168152602001610101565b6101746101c23660046109ee565b6102c8565b61017461044e565b6100f76101dd3660046109b3565b610462565b6001546001600160a01b031661019c565b6100f7600c81565b60045461019c906001600160a01b031681565b6100f761021c3660046109b3565b610513565b61017461022f3660046109b3565b6105ca565b6100f761024781565b61024b600c62278d00610a2e565b81565b610256610645565b600454600160a01b900460ff16156102805760405162dc149f60e41b815260040160405180910390fd5b600480546001600160a01b039092166001600160a81b031990921691909117600160a01b179055565b6102b161069f565b6102bb33826106f8565b6102c56001600055565b50565b600454600160a01b900460ff166102f2576040516321c4e35760e21b815260040160405180910390fd5b6004546001600160a01b0316331461031d57604051638edbb5a960e01b815260040160405180910390fd5b6003546040516323b872dd60e01b8152336004820152306024820152604481018390526001600160a01b03909116906323b872dd906064016020604051808303816000875af1158015610374573d6000803e3d6000fd5b505050506040513d601f19601f820116820180604052508101906103989190610a4d565b6103b5576040516312171d8360e31b815260040160405180910390fd5b6103c7826103c284610513565b6106f8565b6001600160a01b038216600090815260026020526040812060010180548392906103f2908490610a6f565b90915550506001600160a01b03821660008181526002602081905260408083206003810184905583815542920191909155518392917fd4a50953e9ae2104f507446be8391c79b33e1e86e626473e34bb79eb5fea1f3e91a35050565b610456610645565b6104606000610862565b565b6001600160a01b03811660009081526002602052604081206001015480820361048e5750600092915050565b6001600160a01b038316600090815260026020819052604082206003810154910154909162278d006104c08342610a87565b6104ca9190610a9e565b9050600c8111156104d95750600c5b8281620186a06104eb61024788610a2e565b6104f59190610a9e565b6104ff9190610a2e565b6105099190610a87565b9695505050505050565b6001600160a01b03811660009081526002602052604081206001015480820361053f5750600092915050565b6001600160a01b038316600090815260026020819052604082208054910154909162278d0061056e8342610a87565b6105789190610a9e565b9050600c8111156105875750600c5b82600c826105958388610a6f565b61059f9190610a2e565b6105a99190610a9e565b6105b39190610a87565b9450838511156105c1578394505b50505050919050565b6105d2610645565b6001600160a01b03811661063c5760405162461bcd60e51b815260206004820152602660248201527f4f776e61626c653a206e6577206f776e657220697320746865207a65726f206160448201526564647265737360d01b60648201526084015b60405180910390fd5b6102c581610862565b6001546001600160a01b031633146104605760405162461bcd60e51b815260206004820181905260248201527f4f776e61626c653a2063616c6c6572206973206e6f7420746865206f776e65726044820152606401610633565b6002600054036106f15760405162461bcd60e51b815260206004820152601f60248201527f5265656e7472616e637947756172643a207265656e7472616e742063616c6c006044820152606401610633565b6002600055565b610701826108b4565b801561085e57600061071283610513565b905080821115610735576040516304b28d1960e21b815260040160405180910390fd5b6001600160a01b03831660009081526002602052604081206001018054849290610760908490610a87565b90915550506001600160a01b0383166000908152600260205260408120805484929061078d908490610a6f565b909155505060035460405163a9059cbb60e01b81526001600160a01b038581166004830152602482018590529091169063a9059cbb906044016020604051808303816000875af11580156107e5573d6000803e3d6000fd5b505050506040513d601f19601f820116820180604052508101906108099190610a4d565b610826576040516312171d8360e31b815260040160405180910390fd5b60405182906001600160a01b038516907f884edad9ce6fa2440d8a54cc123490eb96d2768479d49ff9c7366125a942436490600090a3505b5050565b600180546001600160a01b038381166001600160a01b0319831681179093556040519116919082907f8be0079c531659141344cd1fd0a4f28419497f9722a3daafe3b4186f6b6457e090600090a35050565b60006108bf33610462565b9050801561085e576001600160a01b038216600090815260026020526040812060030180548392906108f2908490610a6f565b90915550506003546040516340c10f1960e01b81526001600160a01b03848116600483015260248201849052909116906340c10f1990604401600060405180830381600087803b15801561094557600080fd5b505af1158015610959573d6000803e3d6000fd5b50506040518392506001600160a01b03851691507f47cee97cb7acd717b3c0aa1435d004cd5b3c8c57d70dbceb4e4458bbd60e39d490600090a35050565b80356001600160a01b03811681146109ae57600080fd5b919050565b6000602082840312156109c557600080fd5b6109ce82610997565b9392505050565b6000602082840312156109e757600080fd5b5035919050565b60008060408385031215610a0157600080fd5b610a0a83610997565b946020939093013593505050565b634e487b7160e01b600052601160045260246000fd5b6000816000190483118215151615610a4857610a48610a18565b500290565b600060208284031215610a5f57600080fd5b815180151581146109ce57600080fd5b60008219821115610a8257610a82610a18565b500190565b600082821015610a9957610a99610a18565b500390565b600082610abb57634e487b7160e01b600052601260045260246000fd5b50049056fea2646970667358221220c92c39443925d6cb62868c44664a2c687139dded38fe15f17d88b83de0ee4a2a64736f6c634300080e0033","opcodes":"PUSH1 0x80 PUSH1 0x40 MSTORE CALLVALUE DUP1 ISZERO PUSH2 0x10 JUMPI PUSH1 0x0 DUP1 REVERT JUMPDEST POP PUSH1 0x40 MLOAD PUSH2 0xC10 CODESIZE SUB DUP1 PUSH2 0xC10 DUP4 CODECOPY DUP2 ADD PUSH1 0x40 DUP2 SWAP1 MSTORE PUSH2 0x2F SWAP2 PUSH2 0xDB JUMP JUMPDEST PUSH1 0x1 PUSH1 0x0 SSTORE PUSH2 0x3D CALLER PUSH2 0x89 JUMP JUMPDEST PUSH1 0x1 PUSH1 0x1 PUSH1 0xA0 SHL SUB DUP2 AND PUSH2 0x64 JUMPI PUSH1 0x40 MLOAD PUSH4 0xD92E233D PUSH1 0xE0 SHL DUP2 MSTORE PUSH1 0x4 ADD PUSH1 0x40 MLOAD DUP1 SWAP2 SUB SWAP1 REVERT JUMPDEST PUSH1 0x3 DUP1 SLOAD PUSH1 0x1 PUSH1 0x1 PUSH1 0xA0 SHL SUB NOT AND PUSH1 0x1 PUSH1 0x1 PUSH1 0xA0 SHL SUB SWAP3 SWAP1 SWAP3 AND SWAP2 SWAP1 SWAP2 OR SWAP1 SSTORE PUSH2 0x10B JUMP JUMPDEST PUSH1 0x1 DUP1 SLOAD PUSH1 0x1 PUSH1 0x1 PUSH1 0xA0 SHL SUB DUP4 DUP2 AND PUSH1 0x1 PUSH1 0x1 PUSH1 0xA0 SHL SUB NOT DUP4 AND DUP2 OR SWAP1 SWAP4 SSTORE PUSH1 0x40 MLOAD SWAP2 AND SWAP2 SWAP1 DUP3 SWAP1 PUSH32 0x8BE0079C531659141344CD1FD0A4F28419497F9722A3DAAFE3B4186F6B6457E0 SWAP1 PUSH1 0x0 SWAP1 LOG3 POP POP JUMP JUMPDEST PUSH1 0x0 PUSH1 0x20 DUP3 DUP5 SUB SLT ISZERO PUSH2 0xED JUMPI PUSH1 0x0 DUP1 REVERT JUMPDEST DUP2 MLOAD PUSH1 0x1 PUSH1 0x1 PUSH1 0xA0 SHL SUB DUP2 AND DUP2 EQ PUSH2 0x104 JUMPI PUSH1 0x0 DUP1 REVERT JUMPDEST SWAP4 SWAP3 POP POP POP JUMP JUMPDEST PUSH2 0xAF6 DUP1 PUSH2 0x11A PUSH1 0x0 CODECOPY PUSH1 0x0 RETURN INVALID PUSH1 0x80 PUSH1 0x40 MSTORE CALLVALUE DUP1 ISZERO PUSH2 0x10 JUMPI PUSH1 0x0 DUP1 REVERT JUMPDEST POP PUSH1 0x4 CALLDATASIZE LT PUSH2 0xEA JUMPI PUSH1 0x0 CALLDATALOAD PUSH1 0xE0 SHR DUP1 PUSH4 0x8CE910A5 GT PUSH2 0x8C JUMPI DUP1 PUSH4 0xBA1F879F GT PUSH2 0x66 JUMPI DUP1 PUSH4 0xBA1F879F EQ PUSH2 0x1FB JUMPI DUP1 PUSH4 0xEEC414AA EQ PUSH2 0x20E JUMPI DUP1 PUSH4 0xF2FDE38B EQ PUSH2 0x221 JUMPI DUP1 PUSH4 0xFF60DFB6 EQ PUSH2 0x234 JUMPI PUSH1 0x0 DUP1 REVERT JUMPDEST DUP1 PUSH4 0x8CE910A5 EQ PUSH2 0x1CF JUMPI DUP1 PUSH4 0x8DA5CB5B EQ PUSH2 0x1E2 JUMPI DUP1 PUSH4 0x8FA626F2 EQ PUSH2 0x1F3 JUMPI PUSH1 0x0 DUP1 REVERT JUMPDEST DUP1 PUSH4 0x2E1A7D4D GT PUSH2 0xC8 JUMPI DUP1 PUSH4 0x2E1A7D4D EQ PUSH2 0x176 JUMPI DUP1 PUSH4 0x3110C792 EQ PUSH2 0x189 JUMPI DUP1 PUSH4 0x47E7EF24 EQ PUSH2 0x1B4 JUMPI DUP1 PUSH4 0x715018A6 EQ PUSH2 0x1C7 JUMPI PUSH1 0x0 DUP1 REVERT JUMPDEST DUP1 PUSH4 0xDEA38B6 EQ PUSH2 0xEF JUMPI DUP1 PUSH4 0x1959A002 EQ PUSH2 0x10A JUMPI DUP1 PUSH4 0x19AB453C EQ PUSH2 0x161 JUMPI JUMPDEST PUSH1 0x0 DUP1 REVERT JUMPDEST PUSH2 0xF7 PUSH2 0x23D JUMP JUMPDEST PUSH1 0x40 MLOAD SWAP1 DUP2 MSTORE PUSH1 0x20 ADD JUMPDEST PUSH1 0x40 MLOAD DUP1 SWAP2 SUB SWAP1 RETURN JUMPDEST PUSH2 0x141 PUSH2 0x118 CALLDATASIZE PUSH1 0x4 PUSH2 0x9B3 JUMP JUMPDEST PUSH1 0x2 PUSH1 0x20 DUP2 SWAP1 MSTORE PUSH1 0x0 SWAP2 DUP3 MSTORE PUSH1 0x40 SWAP1 SWAP2 KECCAK256 DUP1 SLOAD PUSH1 0x1 DUP3 ADD SLOAD SWAP3 DUP3 ADD SLOAD PUSH1 0x3 SWAP1 SWAP3 ADD SLOAD SWAP1 SWAP3 SWAP2 SWAP1 DUP5 JUMP JUMPDEST PUSH1 0x40 DUP1 MLOAD SWAP5 DUP6 MSTORE PUSH1 0x20 DUP6 ADD SWAP4 SWAP1 SWAP4 MSTORE SWAP2 DUP4 ADD MSTORE PUSH1 0x60 DUP3 ADD MSTORE PUSH1 0x80 ADD PUSH2 0x101 JUMP JUMPDEST PUSH2 0x174 PUSH2 0x16F CALLDATASIZE PUSH1 0x4 PUSH2 0x9B3 JUMP JUMPDEST PUSH2 0x24E JUMP JUMPDEST STOP JUMPDEST PUSH2 0x174 PUSH2 0x184 CALLDATASIZE PUSH1 0x4 PUSH2 0x9D5 JUMP JUMPDEST PUSH2 0x2A9 JUMP JUMPDEST PUSH1 0x3 SLOAD PUSH2 0x19C SWAP1 PUSH1 0x1 PUSH1 0x1 PUSH1 0xA0 SHL SUB AND DUP2 JUMP JUMPDEST PUSH1 0x40 MLOAD PUSH1 0x1 PUSH1 0x1 PUSH1 0xA0 SHL SUB SWAP1 SWAP2 AND DUP2 MSTORE PUSH1 0x20 ADD PUSH2 0x101 JUMP JUMPDEST PUSH2 0x174 PUSH2 0x1C2 CALLDATASIZE PUSH1 0x4 PUSH2 0x9EE JUMP JUMPDEST PUSH2 0x2C8 JUMP JUMPDEST PUSH2 0x174 PUSH2 0x44E JUMP JUMPDEST PUSH2 0xF7 PUSH2 0x1DD CALLDATASIZE PUSH1 0x4 PUSH2 0x9B3 JUMP JUMPDEST PUSH2 0x462 JUMP JUMPDEST PUSH1 0x1 SLOAD PUSH1 0x1 PUSH1 0x1 PUSH1 0xA0 SHL SUB AND PUSH2 0x19C JUMP JUMPDEST PUSH2 0xF7 PUSH1 0xC DUP2 JUMP JUMPDEST PUSH1 0x4 SLOAD PUSH2 0x19C SWAP1 PUSH1 0x1 PUSH1 0x1 PUSH1 0xA0 SHL SUB AND DUP2 JUMP JUMPDEST PUSH2 0xF7 PUSH2 0x21C CALLDATASIZE PUSH1 0x4 PUSH2 0x9B3 JUMP JUMPDEST PUSH2 0x513 JUMP JUMPDEST PUSH2 0x174 PUSH2 0x22F CALLDATASIZE PUSH1 0x4 PUSH2 0x9B3 JUMP JUMPDEST PUSH2 0x5CA JUMP JUMPDEST PUSH2 0xF7 PUSH2 0x247 DUP2 JUMP JUMPDEST PUSH2 0x24B PUSH1 0xC PUSH3 0x278D00 PUSH2 0xA2E JUMP JUMPDEST DUP2 JUMP JUMPDEST PUSH2 0x256 PUSH2 0x645 JUMP JUMPDEST PUSH1 0x4 SLOAD PUSH1 0x1 PUSH1 0xA0 SHL SWAP1 DIV PUSH1 0xFF AND ISZERO PUSH2 0x280 JUMPI PUSH1 0x40 MLOAD PUSH3 0xDC149F PUSH1 0xE4 SHL DUP2 MSTORE PUSH1 0x4 ADD PUSH1 0x40 MLOAD DUP1 SWAP2 SUB SWAP1 REVERT JUMPDEST PUSH1 0x4 DUP1 SLOAD PUSH1 0x1 PUSH1 0x1 PUSH1 0xA0 SHL SUB SWAP1 SWAP3 AND PUSH1 0x1 PUSH1 0x1 PUSH1 0xA8 SHL SUB NOT SWAP1 SWAP3 AND SWAP2 SWAP1 SWAP2 OR PUSH1 0x1 PUSH1 0xA0 SHL OR SWAP1 SSTORE JUMP JUMPDEST PUSH2 0x2B1 PUSH2 0x69F JUMP JUMPDEST PUSH2 0x2BB CALLER DUP3 PUSH2 0x6F8 JUMP JUMPDEST PUSH2 0x2C5 PUSH1 0x1 PUSH1 0x0 SSTORE JUMP JUMPDEST POP JUMP JUMPDEST PUSH1 0x4 SLOAD PUSH1 0x1 PUSH1 0xA0 SHL SWAP1 DIV PUSH1 0xFF AND PUSH2 0x2F2 JUMPI PUSH1 0x40 MLOAD PUSH4 0x21C4E357 PUSH1 0xE2 SHL DUP2 MSTORE PUSH1 0x4 ADD PUSH1 0x40 MLOAD DUP1 SWAP2 SUB SWAP1 REVERT JUMPDEST PUSH1 0x4 SLOAD PUSH1 0x1 PUSH1 0x1 PUSH1 0xA0 SHL SUB AND CALLER EQ PUSH2 0x31D JUMPI PUSH1 0x40 MLOAD PUSH4 0x8EDBB5A9 PUSH1 0xE0 SHL DUP2 MSTORE PUSH1 0x4 ADD PUSH1 0x40 MLOAD DUP1 SWAP2 SUB SWAP1 REVERT JUMPDEST PUSH1 0x3 SLOAD PUSH1 0x40 MLOAD PUSH4 0x23B872DD PUSH1 0xE0 SHL DUP2 MSTORE CALLER PUSH1 0x4 DUP3 ADD MSTORE ADDRESS PUSH1 0x24 DUP3 ADD MSTORE PUSH1 0x44 DUP2 ADD DUP4 SWAP1 MSTORE PUSH1 0x1 PUSH1 0x1 PUSH1 0xA0 SHL SUB SWAP1 SWAP2 AND SWAP1 PUSH4 0x23B872DD SWAP1 PUSH1 0x64 ADD PUSH1 0x20 PUSH1 0x40 MLOAD DUP1 DUP4 SUB DUP2 PUSH1 0x0 DUP8 GAS CALL ISZERO DUP1 ISZERO PUSH2 0x374 JUMPI RETURNDATASIZE PUSH1 0x0 DUP1 RETURNDATACOPY RETURNDATASIZE PUSH1 0x0 REVERT JUMPDEST POP POP POP POP PUSH1 0x40 MLOAD RETURNDATASIZE PUSH1 0x1F NOT PUSH1 0x1F DUP3 ADD AND DUP3 ADD DUP1 PUSH1 0x40 MSTORE POP DUP2 ADD SWAP1 PUSH2 0x398 SWAP2 SWAP1 PUSH2 0xA4D JUMP JUMPDEST PUSH2 0x3B5 JUMPI PUSH1 0x40 MLOAD PUSH4 0x12171D83 PUSH1 0xE3 SHL DUP2 MSTORE PUSH1 0x4 ADD PUSH1 0x40 MLOAD DUP1 SWAP2 SUB SWAP1 REVERT JUMPDEST PUSH2 0x3C7 DUP3 PUSH2 0x3C2 DUP5 PUSH2 0x513 JUMP JUMPDEST PUSH2 0x6F8 JUMP JUMPDEST PUSH1 0x1 PUSH1 0x1 PUSH1 0xA0 SHL SUB DUP3 AND PUSH1 0x0 SWAP1 DUP2 MSTORE PUSH1 0x2 PUSH1 0x20 MSTORE PUSH1 0x40 DUP2 KECCAK256 PUSH1 0x1 ADD DUP1 SLOAD DUP4 SWAP3 SWAP1 PUSH2 0x3F2 SWAP1 DUP5 SWAP1 PUSH2 0xA6F JUMP JUMPDEST SWAP1 SWAP2 SSTORE POP POP PUSH1 0x1 PUSH1 0x1 PUSH1 0xA0 SHL SUB DUP3 AND PUSH1 0x0 DUP2 DUP2 MSTORE PUSH1 0x2 PUSH1 0x20 DUP2 SWAP1 MSTORE PUSH1 0x40 DUP1 DUP4 KECCAK256 PUSH1 0x3 DUP2 ADD DUP5 SWAP1 SSTORE DUP4 DUP2 SSTORE TIMESTAMP SWAP3 ADD SWAP2 SWAP1 SWAP2 SSTORE MLOAD DUP4 SWAP3 SWAP2 PUSH32 0xD4A50953E9AE2104F507446BE8391C79B33E1E86E626473E34BB79EB5FEA1F3E SWAP2 LOG3 POP POP JUMP JUMPDEST PUSH2 0x456 PUSH2 0x645 JUMP JUMPDEST PUSH2 0x460 PUSH1 0x0 PUSH2 0x862 JUMP JUMPDEST JUMP JUMPDEST PUSH1 0x1 PUSH1 0x1 PUSH1 0xA0 SHL SUB DUP2 AND PUSH1 0x0 SWAP1 DUP2 MSTORE PUSH1 0x2 PUSH1 0x20 MSTORE PUSH1 0x40 DUP2 KECCAK256 PUSH1 0x1 ADD SLOAD DUP1 DUP3 SUB PUSH2 0x48E JUMPI POP PUSH1 0x0 SWAP3 SWAP2 POP POP JUMP JUMPDEST PUSH1 0x1 PUSH1 0x1 PUSH1 0xA0 SHL SUB DUP4 AND PUSH1 0x0 SWAP1 DUP2 MSTORE PUSH1 0x2 PUSH1 0x20 DUP2 SWAP1 MSTORE PUSH1 0x40 DUP3 KECCAK256 PUSH1 0x3 DUP2 ADD SLOAD SWAP2 ADD SLOAD SWAP1 SWAP2 PUSH3 0x278D00 PUSH2 0x4C0 DUP4 TIMESTAMP PUSH2 0xA87 JUMP JUMPDEST PUSH2 0x4CA SWAP2 SWAP1 PUSH2 0xA9E JUMP JUMPDEST SWAP1 POP PUSH1 0xC DUP2 GT ISZERO PUSH2 0x4D9 JUMPI POP PUSH1 0xC JUMPDEST DUP3 DUP2 PUSH3 0x186A0 PUSH2 0x4EB PUSH2 0x247 DUP9 PUSH2 0xA2E JUMP JUMPDEST PUSH2 0x4F5 SWAP2 SWAP1 PUSH2 0xA9E JUMP JUMPDEST PUSH2 0x4FF SWAP2 SWAP1 PUSH2 0xA2E JUMP JUMPDEST PUSH2 0x509 SWAP2 SWAP1 PUSH2 0xA87 JUMP JUMPDEST SWAP7 SWAP6 POP POP POP POP POP POP JUMP JUMPDEST PUSH1 0x1 PUSH1 0x1 PUSH1 0xA0 SHL SUB DUP2 AND PUSH1 0x0 SWAP1 DUP2 MSTORE PUSH1 0x2 PUSH1 0x20 MSTORE PUSH1 0x40 DUP2 KECCAK256 PUSH1 0x1 ADD SLOAD DUP1 DUP3 SUB PUSH2 0x53F JUMPI POP PUSH1 0x0 SWAP3 SWAP2 POP POP JUMP JUMPDEST PUSH1 0x1 PUSH1 0x1 PUSH1 0xA0 SHL SUB DUP4 AND PUSH1 0x0 SWAP1 DUP2 MSTORE PUSH1 0x2 PUSH1 0x20 DUP2 SWAP1 MSTORE PUSH1 0x40 DUP3 KECCAK256 DUP1 SLOAD SWAP2 ADD SLOAD SWAP1 SWAP2 PUSH3 0x278D00 PUSH2 0x56E DUP4 TIMESTAMP PUSH2 0xA87 JUMP JUMPDEST PUSH2 0x578 SWAP2 SWAP1 PUSH2 0xA9E JUMP JUMPDEST SWAP1 POP PUSH1 0xC DUP2 GT ISZERO PUSH2 0x587 JUMPI POP PUSH1 0xC JUMPDEST DUP3 PUSH1 0xC DUP3 PUSH2 0x595 DUP4 DUP9 PUSH2 0xA6F JUMP JUMPDEST PUSH2 0x59F SWAP2 SWAP1 PUSH2 0xA2E JUMP JUMPDEST PUSH2 0x5A9 SWAP2 SWAP1 PUSH2 0xA9E JUMP JUMPDEST PUSH2 0x5B3 SWAP2 SWAP1 PUSH2 0xA87 JUMP JUMPDEST SWAP5 POP DUP4 DUP6 GT ISZERO PUSH2 0x5C1 JUMPI DUP4 SWAP5 POP JUMPDEST POP POP POP POP SWAP2 SWAP1 POP JUMP JUMPDEST PUSH2 0x5D2 PUSH2 0x645 JUMP JUMPDEST PUSH1 0x1 PUSH1 0x1 PUSH1 0xA0 SHL SUB DUP2 AND PUSH2 0x63C JUMPI PUSH1 0x40 MLOAD PUSH3 0x461BCD PUSH1 0xE5 SHL DUP2 MSTORE PUSH1 0x20 PUSH1 0x4 DUP3 ADD MSTORE PUSH1 0x26 PUSH1 0x24 DUP3 ADD MSTORE PUSH32 0x4F776E61626C653A206E6577206F776E657220697320746865207A65726F2061 PUSH1 0x44 DUP3 ADD MSTORE PUSH6 0x646472657373 PUSH1 0xD0 SHL PUSH1 0x64 DUP3 ADD MSTORE PUSH1 0x84 ADD JUMPDEST PUSH1 0x40 MLOAD DUP1 SWAP2 SUB SWAP1 REVERT JUMPDEST PUSH2 0x2C5 DUP2 PUSH2 0x862 JUMP JUMPDEST PUSH1 0x1 SLOAD PUSH1 0x1 PUSH1 0x1 PUSH1 0xA0 SHL SUB AND CALLER EQ PUSH2 0x460 JUMPI PUSH1 0x40 MLOAD PUSH3 0x461BCD PUSH1 0xE5 SHL DUP2 MSTORE PUSH1 0x20 PUSH1 0x4 DUP3 ADD DUP2 SWAP1 MSTORE PUSH1 0x24 DUP3 ADD MSTORE PUSH32 0x4F776E61626C653A2063616C6C6572206973206E6F7420746865206F776E6572 PUSH1 0x44 DUP3 ADD MSTORE PUSH1 0x64 ADD PUSH2 0x633 JUMP JUMPDEST PUSH1 0x2 PUSH1 0x0 SLOAD SUB PUSH2 0x6F1 JUMPI PUSH1 0x40 MLOAD PUSH3 0x461BCD PUSH1 0xE5 SHL DUP2 MSTORE PUSH1 0x20 PUSH1 0x4 DUP3 ADD MSTORE PUSH1 0x1F PUSH1 0x24 DUP3 ADD MSTORE PUSH32 0x5265656E7472616E637947756172643A207265656E7472616E742063616C6C00 PUSH1 0x44 DUP3 ADD MSTORE PUSH1 0x64 ADD PUSH2 0x633 JUMP JUMPDEST PUSH1 0x2 PUSH1 0x0 SSTORE JUMP JUMPDEST PUSH2 0x701 DUP3 PUSH2 0x8B4 JUMP JUMPDEST DUP1 ISZERO PUSH2 0x85E JUMPI PUSH1 0x0 PUSH2 0x712 DUP4 PUSH2 0x513 JUMP JUMPDEST SWAP1 POP DUP1 DUP3 GT ISZERO PUSH2 0x735 JUMPI PUSH1 0x40 MLOAD PUSH4 0x4B28D19 PUSH1 0xE2 SHL DUP2 MSTORE PUSH1 0x4 ADD PUSH1 0x40 MLOAD DUP1 SWAP2 SUB SWAP1 REVERT JUMPDEST PUSH1 0x1 PUSH1 0x1 PUSH1 0xA0 SHL SUB DUP4 AND PUSH1 0x0 SWAP1 DUP2 MSTORE PUSH1 0x2 PUSH1 0x20 MSTORE PUSH1 0x40 DUP2 KECCAK256 PUSH1 0x1 ADD DUP1 SLOAD DUP5 SWAP3 SWAP1 PUSH2 0x760 SWAP1 DUP5 SWAP1 PUSH2 0xA87 JUMP JUMPDEST SWAP1 SWAP2 SSTORE POP POP PUSH1 0x1 PUSH1 0x1 PUSH1 0xA0 SHL SUB DUP4 AND PUSH1 0x0 SWAP1 DUP2 MSTORE PUSH1 0x2 PUSH1 0x20 MSTORE PUSH1 0x40 DUP2 KECCAK256 DUP1 SLOAD DUP5 SWAP3 SWAP1 PUSH2 0x78D SWAP1 DUP5 SWAP1 PUSH2 0xA6F JUMP JUMPDEST SWAP1 SWAP2 SSTORE POP POP PUSH1 0x3 SLOAD PUSH1 0x40 MLOAD PUSH4 0xA9059CBB PUSH1 0xE0 SHL DUP2 MSTORE PUSH1 0x1 PUSH1 0x1 PUSH1 0xA0 SHL SUB DUP6 DUP2 AND PUSH1 0x4 DUP4 ADD MSTORE PUSH1 0x24 DUP3 ADD DUP6 SWAP1 MSTORE SWAP1 SWAP2 AND SWAP1 PUSH4 0xA9059CBB SWAP1 PUSH1 0x44 ADD PUSH1 0x20 PUSH1 0x40 MLOAD DUP1 DUP4 SUB DUP2 PUSH1 0x0 DUP8 GAS CALL ISZERO DUP1 ISZERO PUSH2 0x7E5 JUMPI RETURNDATASIZE PUSH1 0x0 DUP1 RETURNDATACOPY RETURNDATASIZE PUSH1 0x0 REVERT JUMPDEST POP POP POP POP PUSH1 0x40 MLOAD RETURNDATASIZE PUSH1 0x1F NOT PUSH1 0x1F DUP3 ADD AND DUP3 ADD DUP1 PUSH1 0x40 MSTORE POP DUP2 ADD SWAP1 PUSH2 0x809 SWAP2 SWAP1 PUSH2 0xA4D JUMP JUMPDEST PUSH2 0x826 JUMPI PUSH1 0x40 MLOAD PUSH4 0x12171D83 PUSH1 0xE3 SHL DUP2 MSTORE PUSH1 0x4 ADD PUSH1 0x40 MLOAD DUP1 SWAP2 SUB SWAP1 REVERT JUMPDEST PUSH1 0x40 MLOAD DUP3 SWAP1 PUSH1 0x1 PUSH1 0x1 PUSH1 0xA0 SHL SUB DUP6 AND SWAP1 PUSH32 0x884EDAD9CE6FA2440D8A54CC123490EB96D2768479D49FF9C7366125A9424364 SWAP1 PUSH1 0x0 SWAP1 LOG3 POP JUMPDEST POP POP JUMP JUMPDEST PUSH1 0x1 DUP1 SLOAD PUSH1 0x1 PUSH1 0x1 PUSH1 0xA0 SHL SUB DUP4 DUP2 AND PUSH1 0x1 PUSH1 0x1 PUSH1 0xA0 SHL SUB NOT DUP4 AND DUP2 OR SWAP1 SWAP4 SSTORE PUSH1 0x40 MLOAD SWAP2 AND SWAP2 SWAP1 DUP3 SWAP1 PUSH32 0x8BE0079C531659141344CD1FD0A4F28419497F9722A3DAAFE3B4186F6B6457E0 SWAP1 PUSH1 0x0 SWAP1 LOG3 POP POP JUMP JUMPDEST PUSH1 0x0 PUSH2 0x8BF CALLER PUSH2 0x462 JUMP JUMPDEST SWAP1 POP DUP1 ISZERO PUSH2 0x85E JUMPI PUSH1 0x1 PUSH1 0x1 PUSH1 0xA0 SHL SUB DUP3 AND PUSH1 0x0 SWAP1 DUP2 MSTORE PUSH1 0x2 PUSH1 0x20 MSTORE PUSH1 0x40 DUP2 KECCAK256 PUSH1 0x3 ADD DUP1 SLOAD DUP4 SWAP3 SWAP1 PUSH2 0x8F2 SWAP1 DUP5 SWAP1 PUSH2 0xA6F JUMP JUMPDEST SWAP1 SWAP2 SSTORE POP POP PUSH1 0x3 SLOAD PUSH1 0x40 MLOAD PUSH4 0x40C10F19 PUSH1 0xE0 SHL DUP2 MSTORE PUSH1 0x1 PUSH1 0x1 PUSH1 0xA0 SHL SUB DUP5 DUP2 AND PUSH1 0x4 DUP4 ADD MSTORE PUSH1 0x24 DUP3 ADD DUP5 SWAP1 MSTORE SWAP1 SWAP2 AND SWAP1 PUSH4 0x40C10F19 SWAP1 PUSH1 0x44 ADD PUSH1 0x0 PUSH1 0x40 MLOAD DUP1 DUP4 SUB DUP2 PUSH1 0x0 DUP8 DUP1 EXTCODESIZE ISZERO DUP1 ISZERO PUSH2 0x945 JUMPI PUSH1 0x0 DUP1 REVERT JUMPDEST POP GAS CALL ISZERO DUP1 ISZERO PUSH2 0x959 JUMPI RETURNDATASIZE PUSH1 0x0 DUP1 RETURNDATACOPY RETURNDATASIZE PUSH1 0x0 REVERT JUMPDEST POP POP PUSH1 0x40 MLOAD DUP4 SWAP3 POP PUSH1 0x1 PUSH1 0x1 PUSH1 0xA0 SHL SUB DUP6 AND SWAP2 POP PUSH32 0x47CEE97CB7ACD717B3C0AA1435D004CD5B3C8C57D70DBCEB4E4458BBD60E39D4 SWAP1 PUSH1 0x0 SWAP1 LOG3 POP POP JUMP JUMPDEST DUP1 CALLDATALOAD PUSH1 0x1 PUSH1 0x1 PUSH1 0xA0 SHL SUB DUP2 AND DUP2 EQ PUSH2 0x9AE JUMPI PUSH1 0x0 DUP1 REVERT JUMPDEST SWAP2 SWAP1 POP JUMP JUMPDEST PUSH1 0x0 PUSH1 0x20 DUP3 DUP5 SUB SLT ISZERO PUSH2 0x9C5 JUMPI PUSH1 0x0 DUP1 REVERT JUMPDEST PUSH2 0x9CE DUP3 PUSH2 0x997 JUMP JUMPDEST SWAP4 SWAP3 POP POP POP JUMP JUMPDEST PUSH1 0x0 PUSH1 0x20 DUP3 DUP5 SUB SLT ISZERO PUSH2 0x9E7 JUMPI PUSH1 0x0 DUP1 REVERT JUMPDEST POP CALLDATALOAD SWAP2 SWAP1 POP JUMP JUMPDEST PUSH1 0x0 DUP1 PUSH1 0x40 DUP4 DUP6 SUB SLT ISZERO PUSH2 0xA01 JUMPI PUSH1 0x0 DUP1 REVERT JUMPDEST PUSH2 0xA0A DUP4 PUSH2 0x997 JUMP JUMPDEST SWAP5 PUSH1 0x20 SWAP4 SWAP1 SWAP4 ADD CALLDATALOAD SWAP4 POP POP POP JUMP JUMPDEST PUSH4 0x4E487B71 PUSH1 0xE0 SHL PUSH1 0x0 MSTORE PUSH1 0x11 PUSH1 0x4 MSTORE PUSH1 0x24 PUSH1 0x0 REVERT JUMPDEST PUSH1 0x0 DUP2 PUSH1 0x0 NOT DIV DUP4 GT DUP3 ISZERO ISZERO AND ISZERO PUSH2 0xA48 JUMPI PUSH2 0xA48 PUSH2 0xA18 JUMP JUMPDEST POP MUL SWAP1 JUMP JUMPDEST PUSH1 0x0 PUSH1 0x20 DUP3 DUP5 SUB SLT ISZERO PUSH2 0xA5F JUMPI PUSH1 0x0 DUP1 REVERT JUMPDEST DUP2 MLOAD DUP1 ISZERO ISZERO DUP2 EQ PUSH2 0x9CE JUMPI PUSH1 0x0 DUP1 REVERT JUMPDEST PUSH1 0x0 DUP3 NOT DUP3 GT ISZERO PUSH2 0xA82 JUMPI PUSH2 0xA82 PUSH2 0xA18 JUMP JUMPDEST POP ADD SWAP1 JUMP JUMPDEST PUSH1 0x0 DUP3 DUP3 LT ISZERO PUSH2 0xA99 JUMPI PUSH2 0xA99 PUSH2 0xA18 JUMP JUMPDEST POP SUB SWAP1 JUMP JUMPDEST PUSH1 0x0 DUP3 PUSH2 0xABB JUMPI PUSH4 0x4E487B71 PUSH1 0xE0 SHL PUSH1 0x0 MSTORE PUSH1 0x12 PUSH1 0x4 MSTORE PUSH1 0x24 PUSH1 0x0 REVERT JUMPDEST POP DIV SWAP1 JUMP INVALID LOG2 PUSH5 0x6970667358 0x22 SLT KECCAK256 0xC9 0x2C CODECOPY DIFFICULTY CODECOPY 0x25 0xD6 0xCB PUSH3 0x868C44 PUSH7 0x4A2C687139DDED CODESIZE INVALID ISZERO CALL PUSH30 0x88B83DE0EE4A2A64736F6C634300080E0033000000000000000000000000 "},"methodIdentifiers":{"INTEREST()":"ff60dfb6","MONTHS()":"8fa626f2","VESTING_TIME()":"0dea38b6","claimableDarwin(address)":"8ce910a5","darwin()":"3110c792","deposit(address,uint256)":"47e7ef24","init(address)":"19ab453c","owner()":"8da5cb5b","privateSale()":"ba1f879f","renounceOwnership()":"715018a6","transferOwnership(address)":"f2fde38b","userInfo(address)":"1959a002","withdraw(uint256)":"2e1a7d4d","withdrawableDarwin(address)":"eec414aa"}},"storageLayout":{"storage":[{"astId":123,"contract":"contracts/OldVester.sol:OldVester","label":"_status","offset":0,"slot":"0","type":"t_uint256"},{"astId":7,"contract":"contracts/OldVester.sol:OldVester","label":"_owner","offset":0,"slot":"1","type":"t_address"},{"astId":302,"contract":"contracts/OldVester.sol:OldVester","label":"userInfo","offset":0,"slot":"2","type":"t_mapping(t_address,t_struct(UserInfo)951_storage)"},{"astId":306,"contract":"contracts/OldVester.sol:OldVester","label":"darwin","offset":0,"slot":"3","type":"t_contract(IERC20)244"},{"astId":309,"contract":"contracts/OldVester.sol:OldVester","label":"privateSale","offset":0,"slot":"4","type":"t_address"},{"astId":311,"contract":"contracts/OldVester.sol:OldVester","label":"_isInitialized","offset":20,"slot":"4","type":"t_bool"}],"types":{"t_address":{"encoding":"inplace","label":"address","numberOfBytes":"20"},"t_bool":{"encoding":"inplace","label":"bool","numberOfBytes":"1"},"t_contract(IERC20)244":{"encoding":"inplace","label":"contract IERC20","numberOfBytes":"20"},"t_mapping(t_address,t_struct(UserInfo)951_storage)":{"encoding":"mapping","key":"t_address","label":"mapping(address => struct IOldVester.UserInfo)","numberOfBytes":"32","value":"t_struct(UserInfo)951_storage"},"t_struct(UserInfo)951_storage":{"encoding":"inplace","label":"struct IOldVester.UserInfo","members":[{"astId":944,"contract":"contracts/OldVester.sol:OldVester","label":"withdrawn","offset":0,"slot":"0","type":"t_uint256"},{"astId":946,"contract":"contracts/OldVester.sol:OldVester","label":"vested","offset":0,"slot":"1","type":"t_uint256"},{"astId":948,"contract":"contracts/OldVester.sol:OldVester","label":"vestTimestamp","offset":0,"slot":"2","type":"t_uint256"},{"astId":950,"contract":"contracts/OldVester.sol:OldVester","label":"claimed","offset":0,"slot":"3","type":"t_uint256"}],"numberOfBytes":"128"},"t_uint256":{"encoding":"inplace","label":"uint256","numberOfBytes":"32"}}}}}}