{
  "_format": "hh-sol-artifact-1",
  "contractName": "DarwinCommunity",
  "sourceName": "contracts/DarwinCommunity.sol",
  "abi": [
    {
      "inputs": [
        {
          "internalType": "address",
          "name": "_kieran",
          "type": "address"
        }
      ],
      "stateMutability": "nonpayable",
      "type": "constructor"
    },
    {
      "anonymous": false,
      "inputs": [
        {
          "indexed": true,
          "internalType": "uint256",
          "name": "id",
          "type": "uint256"
        }
      ],
      "name": "ActiveFundCandidateAdded",
      "type": "event"
    },
    {
      "anonymous": false,
      "inputs": [
        {
          "indexed": true,
          "internalType": "uint256",
          "name": "id",
          "type": "uint256"
        }
      ],
      "name": "ActiveFundCandidateRemoved",
      "type": "event"
    },
    {
      "anonymous": false,
      "inputs": [
        {
          "indexed": false,
          "internalType": "uint256",
          "name": "fundWeek",
          "type": "uint256"
        },
        {
          "indexed": false,
          "internalType": "uint256[]",
          "name": "candidates",
          "type": "uint256[]"
        },
        {
          "indexed": false,
          "internalType": "uint256[]",
          "name": "tokens",
          "type": "uint256[]"
        }
      ],
      "name": "CommunityFundDistributed",
      "type": "event"
    },
    {
      "anonymous": false,
      "inputs": [
        {
          "indexed": true,
          "internalType": "uint256",
          "name": "id",
          "type": "uint256"
        },
        {
          "indexed": true,
          "internalType": "bytes32",
          "name": "txHash",
          "type": "bytes32"
        },
        {
          "indexed": true,
          "internalType": "address",
          "name": "target",
          "type": "address"
        },
        {
          "indexed": false,
          "internalType": "uint256",
          "name": "value",
          "type": "uint256"
        },
        {
          "indexed": false,
          "internalType": "string",
          "name": "signature",
          "type": "string"
        },
        {
          "indexed": false,
          "internalType": "bytes",
          "name": "data",
          "type": "bytes"
        }
      ],
      "name": "ExecuteTransaction",
      "type": "event"
    },
    {
      "anonymous": false,
      "inputs": [
        {
          "indexed": true,
          "internalType": "uint256",
          "name": "id",
          "type": "uint256"
        }
      ],
      "name": "FundCandidateDeactivated",
      "type": "event"
    },
    {
      "anonymous": false,
      "inputs": [
        {
          "indexed": true,
          "internalType": "uint256",
          "name": "id",
          "type": "uint256"
        },
        {
          "indexed": false,
          "internalType": "address",
          "name": "valueAddress",
          "type": "address"
        },
        {
          "indexed": false,
          "internalType": "string",
          "name": "proposal",
          "type": "string"
        }
      ],
      "name": "NewFundCandidate",
      "type": "event"
    },
    {
      "anonymous": false,
      "inputs": [
        {
          "indexed": true,
          "internalType": "uint256",
          "name": "id",
          "type": "uint256"
        }
      ],
      "name": "ProposalCanceled",
      "type": "event"
    },
    {
      "anonymous": false,
      "inputs": [
        {
          "indexed": true,
          "internalType": "uint256",
          "name": "id",
          "type": "uint256"
        },
        {
          "indexed": true,
          "internalType": "address",
          "name": "proposer",
          "type": "address"
        },
        {
          "indexed": false,
          "internalType": "uint256",
          "name": "startTime",
          "type": "uint256"
        },
        {
          "indexed": false,
          "internalType": "uint256",
          "name": "endTime",
          "type": "uint256"
        },
        {
          "indexed": false,
          "internalType": "string",
          "name": "title",
          "type": "string"
        },
        {
          "indexed": false,
          "internalType": "string",
          "name": "description",
          "type": "string"
        },
        {
          "indexed": false,
          "internalType": "string",
          "name": "other",
          "type": "string"
        }
      ],
      "name": "ProposalCreated",
      "type": "event"
    },
    {
      "anonymous": false,
      "inputs": [
        {
          "indexed": true,
          "internalType": "uint256",
          "name": "id",
          "type": "uint256"
        }
      ],
      "name": "ProposalExecuted",
      "type": "event"
    },
    {
      "anonymous": false,
      "inputs": [
        {
          "indexed": true,
          "internalType": "uint256",
          "name": "id",
          "type": "uint256"
        }
      ],
      "name": "ProposalFirstCallExecuted",
      "type": "event"
    },
    {
      "anonymous": false,
      "inputs": [
        {
          "indexed": true,
          "internalType": "bytes32",
          "name": "role",
          "type": "bytes32"
        },
        {
          "indexed": true,
          "internalType": "bytes32",
          "name": "previousAdminRole",
          "type": "bytes32"
        },
        {
          "indexed": true,
          "internalType": "bytes32",
          "name": "newAdminRole",
          "type": "bytes32"
        }
      ],
      "name": "RoleAdminChanged",
      "type": "event"
    },
    {
      "anonymous": false,
      "inputs": [
        {
          "indexed": true,
          "internalType": "bytes32",
          "name": "role",
          "type": "bytes32"
        },
        {
          "indexed": true,
          "internalType": "address",
          "name": "account",
          "type": "address"
        },
        {
          "indexed": true,
          "internalType": "address",
          "name": "sender",
          "type": "address"
        }
      ],
      "name": "RoleGranted",
      "type": "event"
    },
    {
      "anonymous": false,
      "inputs": [
        {
          "indexed": true,
          "internalType": "bytes32",
          "name": "role",
          "type": "bytes32"
        },
        {
          "indexed": true,
          "internalType": "address",
          "name": "account",
          "type": "address"
        },
        {
          "indexed": true,
          "internalType": "address",
          "name": "sender",
          "type": "address"
        }
      ],
      "name": "RoleRevoked",
      "type": "event"
    },
    {
      "anonymous": false,
      "inputs": [
        {
          "indexed": true,
          "internalType": "address",
          "name": "voter",
          "type": "address"
        },
        {
          "indexed": true,
          "internalType": "uint256",
          "name": "proposalId",
          "type": "uint256"
        },
        {
          "indexed": false,
          "internalType": "bool",
          "name": "inSupport",
          "type": "bool"
        }
      ],
      "name": "VoteCast",
      "type": "event"
    },
    {
      "anonymous": false,
      "inputs": [
        {
          "indexed": true,
          "internalType": "address",
          "name": "user",
          "type": "address"
        },
        {
          "indexed": true,
          "internalType": "uint256",
          "name": "darwinAmount",
          "type": "uint256"
        }
      ],
      "name": "Withdraw",
      "type": "event"
    },
    {
      "inputs": [],
      "name": "ADMIN",
      "outputs": [
        {
          "internalType": "bytes32",
          "name": "",
          "type": "bytes32"
        }
      ],
      "stateMutability": "view",
      "type": "function"
    },
    {
      "inputs": [],
      "name": "CALLS_TO_EXECUTE",
      "outputs": [
        {
          "internalType": "uint256",
          "name": "",
          "type": "uint256"
        }
      ],
      "stateMutability": "view",
      "type": "function"
    },
    {
      "inputs": [],
      "name": "DEFAULT_ADMIN_ROLE",
      "outputs": [
        {
          "internalType": "bytes32",
          "name": "",
          "type": "bytes32"
        }
      ],
      "stateMutability": "view",
      "type": "function"
    },
    {
      "inputs": [],
      "name": "OWNER",
      "outputs": [
        {
          "internalType": "bytes32",
          "name": "",
          "type": "bytes32"
        }
      ],
      "stateMutability": "view",
      "type": "function"
    },
    {
      "inputs": [],
      "name": "PROPOSER",
      "outputs": [
        {
          "internalType": "bytes32",
          "name": "",
          "type": "bytes32"
        }
      ],
      "stateMutability": "view",
      "type": "function"
    },
    {
      "inputs": [],
      "name": "SENIOR_PROPOSER",
      "outputs": [
        {
          "internalType": "bytes32",
          "name": "",
          "type": "bytes32"
        }
      ],
      "stateMutability": "view",
      "type": "function"
    },
    {
      "inputs": [],
      "name": "VOTE_LOCK_PERIOD",
      "outputs": [
        {
          "internalType": "uint256",
          "name": "",
          "type": "uint256"
        }
      ],
      "stateMutability": "view",
      "type": "function"
    },
    {
      "inputs": [
        {
          "internalType": "uint256",
          "name": "proposalId",
          "type": "uint256"
        }
      ],
      "name": "cancel",
      "outputs": [],
      "stateMutability": "nonpayable",
      "type": "function"
    },
    {
      "inputs": [
        {
          "internalType": "uint256",
          "name": "proposalId",
          "type": "uint256"
        },
        {
          "internalType": "bool",
          "name": "inSupport",
          "type": "bool"
        }
      ],
      "name": "castVote",
      "outputs": [],
      "stateMutability": "nonpayable",
      "type": "function"
    },
    {
      "inputs": [],
      "name": "darwin",
      "outputs": [
        {
          "internalType": "contract IDarwin",
          "name": "",
          "type": "address"
        }
      ],
      "stateMutability": "view",
      "type": "function"
    },
    {
      "inputs": [
        {
          "internalType": "uint256",
          "name": "_id",
          "type": "uint256"
        }
      ],
      "name": "deactivateFundCandidate",
      "outputs": [],
      "stateMutability": "nonpayable",
      "type": "function"
    },
    {
      "inputs": [
        {
          "internalType": "uint256",
          "name": "fundWeek",
          "type": "uint256"
        },
        {
          "internalType": "uint256[]",
          "name": "candidates",
          "type": "uint256[]"
        },
        {
          "internalType": "uint256[]",
          "name": "votes",
          "type": "uint256[]"
        },
        {
          "internalType": "uint256",
          "name": "totalVoteCount",
          "type": "uint256"
        },
        {
          "internalType": "uint256",
          "name": "tokensToDistribute",
          "type": "uint256"
        }
      ],
      "name": "distributeCommunityFund",
      "outputs": [],
      "stateMutability": "nonpayable",
      "type": "function"
    },
    {
      "inputs": [],
      "name": "emitInitialFundsEvents",
      "outputs": [],
      "stateMutability": "nonpayable",
      "type": "function"
    },
    {
      "inputs": [
        {
          "internalType": "uint256",
          "name": "proposalId",
          "type": "uint256"
        }
      ],
      "name": "execute",
      "outputs": [],
      "stateMutability": "payable",
      "type": "function"
    },
    {
      "inputs": [],
      "name": "getActiveFundCandidates",
      "outputs": [
        {
          "components": [
            {
              "internalType": "uint256",
              "name": "id",
              "type": "uint256"
            },
            {
              "internalType": "address",
              "name": "valueAddress",
              "type": "address"
            },
            {
              "internalType": "bool",
              "name": "isActive",
              "type": "bool"
            }
          ],
          "internalType": "struct IDarwinCommunity.CommunityFundCandidate[]",
          "name": "",
          "type": "tuple[]"
        }
      ],
      "stateMutability": "view",
      "type": "function"
    },
    {
      "inputs": [],
      "name": "getActiveFundDandidateIds",
      "outputs": [
        {
          "internalType": "uint256[]",
          "name": "",
          "type": "uint256[]"
        }
      ],
      "stateMutability": "view",
      "type": "function"
    },
    {
      "inputs": [
        {
          "internalType": "uint256",
          "name": "id",
          "type": "uint256"
        }
      ],
      "name": "getProposal",
      "outputs": [
        {
          "components": [
            {
              "internalType": "uint256",
              "name": "id",
              "type": "uint256"
            },
            {
              "internalType": "address",
              "name": "proposer",
              "type": "address"
            },
            {
              "internalType": "address[]",
              "name": "targets",
              "type": "address[]"
            },
            {
              "internalType": "uint256[]",
              "name": "values",
              "type": "uint256[]"
            },
            {
              "internalType": "string[]",
              "name": "signatures",
              "type": "string[]"
            },
            {
              "internalType": "bytes[]",
              "name": "calldatas",
              "type": "bytes[]"
            },
            {
              "internalType": "uint256",
              "name": "darwinAmount",
              "type": "uint256"
            },
            {
              "internalType": "uint256",
              "name": "startTime",
              "type": "uint256"
            },
            {
              "internalType": "uint256",
              "name": "endTime",
              "type": "uint256"
            },
            {
              "internalType": "uint256",
              "name": "forVotes",
              "type": "uint256"
            },
            {
              "internalType": "uint256",
              "name": "againstVotes",
              "type": "uint256"
            },
            {
              "internalType": "bool",
              "name": "canceled",
              "type": "bool"
            },
            {
              "internalType": "bool",
              "name": "executed",
              "type": "bool"
            }
          ],
          "internalType": "struct IDarwinCommunity.Proposal",
          "name": "",
          "type": "tuple"
        }
      ],
      "stateMutability": "view",
      "type": "function"
    },
    {
      "inputs": [
        {
          "internalType": "bytes32",
          "name": "role",
          "type": "bytes32"
        }
      ],
      "name": "getRoleAdmin",
      "outputs": [
        {
          "internalType": "bytes32",
          "name": "",
          "type": "bytes32"
        }
      ],
      "stateMutability": "view",
      "type": "function"
    },
    {
      "inputs": [
        {
          "internalType": "uint256",
          "name": "id",
          "type": "uint256"
        }
      ],
      "name": "getVoteReceipt",
      "outputs": [
        {
          "components": [
            {
              "internalType": "bool",
              "name": "hasVoted",
              "type": "bool"
            },
            {
              "internalType": "bool",
              "name": "inSupport",
              "type": "bool"
            },
            {
              "internalType": "uint256",
              "name": "darwinAmount",
              "type": "uint256"
            }
          ],
          "internalType": "struct IDarwinCommunity.Receipt",
          "name": "",
          "type": "tuple"
        }
      ],
      "stateMutability": "view",
      "type": "function"
    },
    {
      "inputs": [],
      "name": "gracePeriod",
      "outputs": [
        {
          "internalType": "uint256",
          "name": "",
          "type": "uint256"
        }
      ],
      "stateMutability": "view",
      "type": "function"
    },
    {
      "inputs": [
        {
          "internalType": "bytes32",
          "name": "role",
          "type": "bytes32"
        },
        {
          "internalType": "address",
          "name": "account",
          "type": "address"
        }
      ],
      "name": "grantRole",
      "outputs": [],
      "stateMutability": "nonpayable",
      "type": "function"
    },
    {
      "inputs": [
        {
          "internalType": "bytes32",
          "name": "_role",
          "type": "bytes32"
        },
        {
          "internalType": "address",
          "name": "_addr",
          "type": "address"
        }
      ],
      "name": "hasRole",
      "outputs": [
        {
          "internalType": "bool",
          "name": "",
          "type": "bool"
        }
      ],
      "stateMutability": "view",
      "type": "function"
    },
    {
      "inputs": [
        {
          "internalType": "address",
          "name": "_darwin",
          "type": "address"
        },
        {
          "internalType": "address[]",
          "name": "fundAddress",
          "type": "address[]"
        },
        {
          "internalType": "string[]",
          "name": "initialFundProposalStrings",
          "type": "string[]"
        },
        {
          "internalType": "string[]",
          "name": "restrictedProposalSignatures",
          "type": "string[]"
        }
      ],
      "name": "init",
      "outputs": [],
      "stateMutability": "nonpayable",
      "type": "function"
    },
    {
      "inputs": [
        {
          "internalType": "string",
          "name": "signature",
          "type": "string"
        }
      ],
      "name": "isProposalSignatureRestricted",
      "outputs": [
        {
          "internalType": "bool",
          "name": "",
          "type": "bool"
        }
      ],
      "stateMutability": "view",
      "type": "function"
    },
    {
      "inputs": [],
      "name": "lastCommunityFundCandidateId",
      "outputs": [
        {
          "internalType": "uint256",
          "name": "",
          "type": "uint256"
        }
      ],
      "stateMutability": "view",
      "type": "function"
    },
    {
      "inputs": [],
      "name": "lastProposalId",
      "outputs": [
        {
          "internalType": "uint256",
          "name": "",
          "type": "uint256"
        }
      ],
      "stateMutability": "view",
      "type": "function"
    },
    {
      "inputs": [],
      "name": "maxVotingPeriod",
      "outputs": [
        {
          "internalType": "uint256",
          "name": "",
          "type": "uint256"
        }
      ],
      "stateMutability": "view",
      "type": "function"
    },
    {
      "inputs": [],
      "name": "minDarwinTransferToAccess",
      "outputs": [
        {
          "internalType": "uint256",
          "name": "",
          "type": "uint256"
        }
      ],
      "stateMutability": "view",
      "type": "function"
    },
    {
      "inputs": [],
      "name": "minVotingDelay",
      "outputs": [
        {
          "internalType": "uint256",
          "name": "",
          "type": "uint256"
        }
      ],
      "stateMutability": "view",
      "type": "function"
    },
    {
      "inputs": [],
      "name": "minVotingPeriod",
      "outputs": [
        {
          "internalType": "uint256",
          "name": "",
          "type": "uint256"
        }
      ],
      "stateMutability": "view",
      "type": "function"
    },
    {
      "inputs": [
        {
          "internalType": "address",
          "name": "valueAddress",
          "type": "address"
        },
        {
          "internalType": "string",
          "name": "proposal",
          "type": "string"
        }
      ],
      "name": "newFundCandidate",
      "outputs": [],
      "stateMutability": "nonpayable",
      "type": "function"
    },
    {
      "inputs": [],
      "name": "proposalMaxOperations",
      "outputs": [
        {
          "internalType": "uint256",
          "name": "",
          "type": "uint256"
        }
      ],
      "stateMutability": "view",
      "type": "function"
    },
    {
      "inputs": [],
      "name": "proposalMinVotesCountForAction",
      "outputs": [
        {
          "internalType": "uint256",
          "name": "",
          "type": "uint256"
        }
      ],
      "stateMutability": "view",
      "type": "function"
    },
    {
      "inputs": [
        {
          "internalType": "address[]",
          "name": "targets",
          "type": "address[]"
        },
        {
          "internalType": "uint256[]",
          "name": "values",
          "type": "uint256[]"
        },
        {
          "internalType": "string[]",
          "name": "signatures",
          "type": "string[]"
        },
        {
          "internalType": "bytes[]",
          "name": "calldatas",
          "type": "bytes[]"
        },
        {
          "internalType": "string",
          "name": "title",
          "type": "string"
        },
        {
          "internalType": "string",
          "name": "description",
          "type": "string"
        },
        {
          "internalType": "string",
          "name": "other",
          "type": "string"
        },
        {
          "internalType": "uint256",
          "name": "endTime",
          "type": "uint256"
        }
      ],
      "name": "propose",
      "outputs": [
        {
          "internalType": "uint256",
          "name": "",
          "type": "uint256"
        }
      ],
      "stateMutability": "nonpayable",
      "type": "function"
    },
    {
      "inputs": [
        {
          "internalType": "bytes32",
          "name": "role",
          "type": "bytes32"
        },
        {
          "internalType": "address",
          "name": "account",
          "type": "address"
        }
      ],
      "name": "renounceRole",
      "outputs": [],
      "stateMutability": "nonpayable",
      "type": "function"
    },
    {
      "inputs": [
        {
          "internalType": "bytes32",
          "name": "role",
          "type": "bytes32"
        },
        {
          "internalType": "address",
          "name": "account",
          "type": "address"
        }
      ],
      "name": "revokeRole",
      "outputs": [],
      "stateMutability": "nonpayable",
      "type": "function"
    },
    {
      "inputs": [
        {
          "internalType": "address",
          "name": "_account",
          "type": "address"
        },
        {
          "internalType": "bool",
          "name": "_hasRole",
          "type": "bool"
        }
      ],
      "name": "setAdmin",
      "outputs": [],
      "stateMutability": "nonpayable",
      "type": "function"
    },
    {
      "inputs": [
        {
          "internalType": "address",
          "name": "_darwin",
          "type": "address"
        }
      ],
      "name": "setDarwinAddress",
      "outputs": [],
      "stateMutability": "nonpayable",
      "type": "function"
    },
    {
      "inputs": [
        {
          "internalType": "uint256",
          "name": "value",
          "type": "uint256"
        }
      ],
      "name": "setGracePeriod",
      "outputs": [],
      "stateMutability": "nonpayable",
      "type": "function"
    },
    {
      "inputs": [
        {
          "internalType": "uint256",
          "name": "value",
          "type": "uint256"
        }
      ],
      "name": "setMaxVotingPeriod",
      "outputs": [],
      "stateMutability": "nonpayable",
      "type": "function"
    },
    {
      "inputs": [
        {
          "internalType": "uint256",
          "name": "delay",
          "type": "uint256"
        }
      ],
      "name": "setMinVotingDelay",
      "outputs": [],
      "stateMutability": "nonpayable",
      "type": "function"
    },
    {
      "inputs": [
        {
          "internalType": "uint256",
          "name": "value",
          "type": "uint256"
        }
      ],
      "name": "setMinVotingPeriod",
      "outputs": [],
      "stateMutability": "nonpayable",
      "type": "function"
    },
    {
      "inputs": [
        {
          "internalType": "address",
          "name": "_account",
          "type": "address"
        },
        {
          "internalType": "bool",
          "name": "_hasRole",
          "type": "bool"
        }
      ],
      "name": "setOwner",
      "outputs": [],
      "stateMutability": "nonpayable",
      "type": "function"
    },
    {
      "inputs": [
        {
          "internalType": "uint256",
          "name": "count",
          "type": "uint256"
        }
      ],
      "name": "setProposalMaxOperations",
      "outputs": [],
      "stateMutability": "nonpayable",
      "type": "function"
    },
    {
      "inputs": [
        {
          "internalType": "uint256",
          "name": "count",
          "type": "uint256"
        }
      ],
      "name": "setProposalMinVotesCountForAction",
      "outputs": [],
      "stateMutability": "nonpayable",
      "type": "function"
    },
    {
      "inputs": [
        {
          "internalType": "address",
          "name": "_account",
          "type": "address"
        },
        {
          "internalType": "bool",
          "name": "_hasRole",
          "type": "bool"
        }
      ],
      "name": "setProposer",
      "outputs": [],
      "stateMutability": "nonpayable",
      "type": "function"
    },
    {
      "inputs": [
        {
          "internalType": "address",
          "name": "_account",
          "type": "address"
        },
        {
          "internalType": "bool",
          "name": "_hasRole",
          "type": "bool"
        }
      ],
      "name": "setSeniorProposer",
      "outputs": [],
      "stateMutability": "nonpayable",
      "type": "function"
    },
    {
      "inputs": [],
      "name": "stakedDarwin",
      "outputs": [
        {
          "internalType": "contract IStakedDarwin",
          "name": "",
          "type": "address"
        }
      ],
      "stateMutability": "view",
      "type": "function"
    },
    {
      "inputs": [],
      "name": "staking",
      "outputs": [
        {
          "internalType": "contract IDarwinStaking",
          "name": "",
          "type": "address"
        }
      ],
      "stateMutability": "view",
      "type": "function"
    },
    {
      "inputs": [
        {
          "internalType": "uint256",
          "name": "proposalId",
          "type": "uint256"
        }
      ],
      "name": "state",
      "outputs": [
        {
          "internalType": "enum IDarwinCommunity.ProposalState",
          "name": "",
          "type": "uint8"
        }
      ],
      "stateMutability": "view",
      "type": "function"
    },
    {
      "inputs": [
        {
          "internalType": "bytes4",
          "name": "interfaceId",
          "type": "bytes4"
        }
      ],
      "name": "supportsInterface",
      "outputs": [
        {
          "internalType": "bool",
          "name": "",
          "type": "bool"
        }
      ],
      "stateMutability": "view",
      "type": "function"
    }
  ],
  "bytecode": "0x6101006040527fb09aa5aeb3702cfd50b6b62bc4532604938f21248a27a1d5ca736082b6819cc160809081527fabc70d2258afa6759f4374a1c000a3080cd0f2802aa144aed93e2e4b4921133760a0527fa49807205ce4d355092ef5a8a18f56e8913cf4a201fbe287825b095693c2177560c05260008051602062004de783398151915260e0526200009690600290600462000293565b50348015620000a457600080fd5b5060405162004e0738038062004e07833981016040819052620000c791620002ed565b60018055620000e660008051602062004de78339815191523362000137565b6200010160008051602062004de78339815191528262000137565b6200013060008051602062004de783398151915273745309f30deb0a8271f5f521925222f5e128064162000137565b506200035d565b620001438282620001c0565b620001bc576000828152602081815260408083206001600160a01b03851684529091529020805460ff191660011790556200017b3390565b6001600160a01b0316816001600160a01b0316837f2f8788117e7eff1d82e926ec794901d17c78024a50270940304540a733656f0d60405160405180910390a45b5050565b600080805b60048110156200025d5781158015620001f4575060028160048110620001ef57620001ef6200031f565b015485145b15620001ff57600191505b81801562000236575062000236600282600481106200022257620002226200031f565b0154856200026a60201b62002c7c1760201c565b15620002485760019250505062000264565b80620002548162000335565b915050620001c5565b5060009150505b92915050565b6000918252602082815260408084206001600160a01b0393909316845291905290205460ff1690565b8260048101928215620002c4579160200282015b82811115620002c4578251825591602001919060010190620002a7565b50620002d2929150620002d6565b5090565b5b80821115620002d25760008155600101620002d7565b6000602082840312156200030057600080fd5b81516001600160a01b03811681146200031857600080fd5b9392505050565b634e487b7160e01b600052603260045260246000fd5b6000600182016200035657634e487b7160e01b600052601160045260246000fd5b5060010190565b614a7a806200036d6000396000f3fe6080604052600436106102e45760003560e01c80637658713611610190578063b7b9a9d8116100dc578063d1798b9311610095578063e9ed9b641161006f578063e9ed9b64146108df578063f2f65960146108ff578063f74f430a1461091f578063fe0d94c11461093f57600080fd5b8063d1798b931461087f578063d3f251a31461089f578063d547741f146108bf57600080fd5b8063b7b9a9d8146107b8578063bffa7f0f146107d8578063c40ffbf6146107fa578063c4d2659614610810578063c7f758a814610830578063d15713a41461085d57600080fd5b8063a06db7dc11610149578063aa6961fd11610123578063aa6961fd1461074d578063ab0dce3214610762578063b26a950914610782578063b499035c146107a257600080fd5b8063a06db7dc1461070c578063a217fddf14610722578063a397d0271461073757600080fd5b806376587136146106455780637bdbe4d01461065a5780637e8752bf1461067057806386341a9c146106b65780638635447a146106d657806391d14854146106ec57600080fd5b806336568abe1161024f5780634b0bddd2116102085780635b99427e116101e25780635b99427e146105cd5780635fc09186146105ed578063698076c41461060f57806374cb30411461062f57600080fd5b80634b0bddd21461056d5780634cf088d91461058d578063516c731c146105ad57600080fd5b806336568abe1461049e5780633e4f49e6146104be57806340e58ee5146104eb5780634233531e1461050b57806342c9ad231461052b578063489bcf2d1461054b57600080fd5b806320185c16116102a157806320185c16146103be578063248a9ca3146103d45780632a0acc6a146104045780632dc81147146104265780632f2ff15d146104465780633110c7921461046657600080fd5b806301ffc9a7146102e95780630e31f6c21461031e5780630eeeea3a14610342578063117803e31461035a57806312b5ea3a1461037c57806315373e3d1461039e575b600080fd5b3480156102f557600080fd5b50610309610304366004613992565b610952565b60405190151581526020015b60405180910390f35b34801561032a57600080fd5b5061033460155481565b604051908152602001610315565b34801561034e57600080fd5b506103346301e1338081565b34801561036657600080fd5b506103346000805160206149c583398151915281565b34801561038857600080fd5b5061039c6103973660046139bc565b610989565b005b3480156103aa57600080fd5b5061039c6103b93660046139e3565b6109b6565b3480156103ca57600080fd5b5061033460115481565b3480156103e057600080fd5b506103346103ef3660046139bc565b60009081526020819052604090206001015490565b34801561041057600080fd5b50610334600080516020614a2583398151915281565b34801561043257600080fd5b5061039c6104413660046139bc565b610be1565b34801561045257600080fd5b5061039c610461366004613a28565b610c05565b34801561047257600080fd5b50601754610486906001600160a01b031681565b6040516001600160a01b039091168152602001610315565b3480156104aa57600080fd5b5061039c6104b9366004613a28565b610c2f565b3480156104ca57600080fd5b506104de6104d93660046139bc565b610cad565b6040516103159190613a63565b3480156104f757600080fd5b5061039c6105063660046139bc565b610d93565b34801561051757600080fd5b50601854610486906001600160a01b031681565b34801561053757600080fd5b5061039c6105463660046139bc565b610f1a565b34801561055757600080fd5b50610560610f3e565b6040516103159190613a8b565b34801561057957600080fd5b5061039c610588366004613aef565b611055565b34801561059957600080fd5b50601954610486906001600160a01b031681565b3480156105b957600080fd5b5061039c6105c8366004613aef565b6110aa565b3480156105d957600080fd5b5061039c6105e8366004613b65565b6110ff565b3480156105f957600080fd5b5061060261126f565b6040516103159190613bf4565b34801561061b57600080fd5b5061039c61062a3660046139bc565b6112c7565b34801561063b57600080fd5b50610334600f5481565b34801561065157600080fd5b50610334600281565b34801561066657600080fd5b5061033460125481565b34801561067c57600080fd5b5061069061068b3660046139bc565b611460565b604080518251151581526020808401511515908201529181015190820152606001610315565b3480156106c257600080fd5b506103096106d1366004613c07565b6114f9565b3480156106e257600080fd5b5061033460145481565b3480156106f857600080fd5b50610309610707366004613a28565b611533565b34801561071857600080fd5b5061033460165481565b34801561072e57600080fd5b50610334600081565b34801561074357600080fd5b50610334600e5481565b34801561075957600080fd5b5061039c6115bf565b34801561076e57600080fd5b5061033461077d366004613f13565b61167c565b34801561078e57600080fd5b5061039c61079d3660046139bc565b611c27565b3480156107ae57600080fd5b5061033460105481565b3480156107c457600080fd5b5061039c6107d33660046139bc565b611c4b565b3480156107e457600080fd5b50610334600080516020614a0583398151915281565b34801561080657600080fd5b5061033460135481565b34801561081c57600080fd5b5061039c61082b366004613aef565b611c6f565b34801561083c57600080fd5b5061085061084b3660046139bc565b611cc4565b6040516103159190614114565b34801561086957600080fd5b506103346000805160206149e583398151915281565b34801561088b57600080fd5b5061039c61089a36600461421d565b61205d565b3480156108ab57600080fd5b5061039c6108ba3660046142fb565b6123d1565b3480156108cb57600080fd5b5061039c6108da366004613a28565b6126cc565b3480156108eb57600080fd5b5061039c6108fa366004613aef565b6126f1565b34801561090b57600080fd5b5061039c61091a3660046139bc565b612746565b34801561092b57600080fd5b5061039c61093a366004614383565b61276a565b61039c61094d3660046139bc565b61280c565b60006001600160e01b03198216637965db0b60e01b148061098357506301ffc9a760e01b6001600160e01b03198316145b92915050565b3330146109b15760405162461bcd60e51b81526004016109a8906143a0565b60405180910390fd5b601555565b6018546040516370a0823160e01b81523360048201526000916001600160a01b0316906370a0823190602401602060405180830381865afa1580156109ff573d6000803e3d6000fd5b505050506040513d601f19601f82011682018060405250810190610a2391906143fd565b9050806010541115610a8d5760405162461bcd60e51b815260206004820152602d60248201527f44433a3a63617374566f74653a206e6f7420656e6f756768205374616b65644460448201526c617277696e20746f20766f746560981b60648201526084016109a8565b6000838152600b602052604090819020600801546019549151636386c1c760e01b815233600482015290916001600160a01b031690636386c1c79060240160a060405180830381865afa158015610ae8573d6000803e3d6000fd5b505050506040513d601f19601f82011682018060405250810190610b0c9190614416565b602001511015610b975760405162461bcd60e51b815260206004820152604a60248201527f44433a3a63617374566f74653a20746865207374616b696e67206c6f636b696e60448201527f6720706572696f6420656e6473206265666f7265207468652070726f706f73616064820152696c20656e642074696d6560b01b608482015260a4016109a8565b610ba333848385612ca5565b6040518215158152839033907fd356173ae8eeea8691aee4c1be712c314a975a3d43ebc48b08ca54d0dac912289060200160405180910390a3505050565b333014610c005760405162461bcd60e51b81526004016109a8906143a0565b601155565b600082815260208190526040902060010154610c2081612e35565b610c2a8383612e42565b505050565b6001600160a01b0381163314610c9f5760405162461bcd60e51b815260206004820152602f60248201527f416363657373436f6e74726f6c3a2063616e206f6e6c792072656e6f756e636560448201526e103937b632b9903337b91039b2b63360891b60648201526084016109a8565b610ca98282612ec6565b5050565b600081600081118015610cc25750600f548111155b610cde5760405162461bcd60e51b81526004016109a89061448d565b6000838152600b602081905260409091209081015460ff1615610d05576002925050610d8d565b80600701544211610d1a576000925050610d8d565b80600801544211610d2f576001925050610d8d565b80600a015481600901541015610d49576003925050610d8d565b600b810154610100900460ff1615610d65576006925050610d8d565b6016548160080154610d7791906144d8565b4210610d87576005925050610d8d565b60049250505b50919050565b80600081118015610da65750600f548111155b610dc25760405162461bcd60e51b81526004016109a89061448d565b6006610dcd83610cad565b6006811115610dde57610dde613a4d565b03610e3f5760405162461bcd60e51b815260206004820152602b60248201527f44433a3a63616e63656c3a2063616e6e6f742063616e63656c2065786563757460448201526a1959081c1c9bdc1bdcd85b60aa1b60648201526084016109a8565b6000828152600b6020526040902060018101546001600160a01b0316336001600160a01b03161480610e845750610e84600080516020614a2583398151915233611533565b610edb5760405162461bcd60e51b815260206004820152602260248201527f44433a3a63616e63656c3a2063616e6e6f742063616e63656c2070726f706f73604482015261185b60f21b60648201526084016109a8565b600b8101805460ff1916600117905560405183907f789cf55be980739dad1d0699b93b58e806b51c9d96619bfa8fe0a28abaa7b30c90600090a2505050565b333014610f395760405162461bcd60e51b81526004016109a8906143a0565b601255565b6009546060906000906001600160401b03811115610f5e57610f5e613c48565b604051908082528060200260200182016040528015610fa957816020015b6040805160608101825260008082526020808301829052928201528252600019909201910181610f7c5790505b50905060005b600954811015610d8d576008600060098381548110610fd057610fd06144f0565b600091825260208083209190910154835282810193909352604091820190208151606081018352815481526001909101546001600160a01b03811693820193909352600160a01b90920460ff161515908201528251839083908110611037576110376144f0565b6020026020010181905250808061104d90614506565b915050610faf565b3330146110745760405162461bcd60e51b81526004016109a8906143a0565b801561109257610ca9600080516020614a2583398151915283612e42565b610ca9600080516020614a2583398151915283612ec6565b3330146110c95760405162461bcd60e51b81526004016109a8906143a0565b80156110e757610ca96000805160206149c583398151915283612e42565b610ca96000805160206149c583398151915283612ec6565b33301461111e5760405162461bcd60e51b81526004016109a8906143a0565b6001600160a01b03831661117f5760405162461bcd60e51b815260206004820152602260248201527f44433a6e657746756e6443616e6469646174653a3a207a65726f206164647265604482015261737360f01b60648201526084016109a8565b6000600e54600161119091906144d8565b604080516060810182528281526001600160a01b038088166020808401918252600184860181815260008881526008909352868320955186559251948101805493511515600160a01b026001600160a81b031990941695909416949094179190911790915560098054928301815590527f6e1540171b6c0c960b71a7020d9f60077f6af931a8bbf590da0223dacf75c7af01829055600e8290555190915081907f37e637f231127e9b412b61d5238625f615ec525f6cccf979b642f80ee5c1b938906112619087908790879061451f565b60405180910390a250505050565b606060098054806020026020016040519081016040528092919081815260200182805480156112bd57602002820191906000526020600020905b8154815260200190600101908083116112a9575b5050505050905090565b3330146112e65760405162461bcd60e51b81526004016109a8906143a0565b600081815260086020526040902060010154600160a01b900460ff1661135e5760405162461bcd60e51b815260206004820152602760248201527f44433a3a6465616374697661746546756e6443616e6469646174653a206e6f746044820152662061637469766560c81b60648201526084016109a8565b6000818152600860205260408120600101805460ff60a01b191690555b600954811015611431578160098281548110611399576113996144f0565b90600052602060002001540361141f57600980546113b99060019061455f565b815481106113c9576113c96144f0565b9060005260206000200154600982815481106113e7576113e76144f0565b600091825260209091200155600980548061140457611404614576565b60019003818190600052602060002001600090559055611431565b8061142981614506565b91505061137b565b5060405181907f9aa208b8394704eda914d513c80938aea441ba8d65cde82e0cfbf41caba178c690600090a250565b6040805160608101825260008082526020820181905291810191909152816000811180156114905750600f548111155b6114ac5760405162461bcd60e51b81526004016109a89061448d565b50506000908152600a602090815260408083203384528252918290208251606081018452815460ff8082161515835261010090910416151592810192909252600101549181019190915290565b6000600c6000848460405161150f92919061458c565b604080519182900390912082526020820192909252016000205460ff169392505050565b600080805b60048110156115b4578115801561156257506002816004811061155d5761155d6144f0565b015485145b1561156c57600191505b81801561159257506115926002826004811061158a5761158a6144f0565b015485612c7c565b156115a257600192505050610983565b806115ac81614506565b915050611538565b506000949350505050565b6000805160206149c58339815191526115d781612e35565b60005b600d54811015610ca95760006115f18260016144d8565b600081815260086020526040902060010154600d805492935083927f37e637f231127e9b412b61d5238625f615ec525f6cccf979b642f80ee5c1b938926001600160a01b0316919086908110611649576116496144f0565b906000526020600020016040516116619291906145d0565b60405180910390a2508061167481614506565b9150506115da565b6000600080516020614a0583398151915261169681612e35565b6017546010546040516323b872dd60e01b815233600482015230602482015260448101919091526001600160a01b03909116906323b872dd906064016020604051808303816000875af11580156116f1573d6000803e3d6000fd5b505050506040513d601f19601f820116820180604052508101906117159190614688565b6117735760405162461bcd60e51b815260206004820152602960248201527f44433a3a70726f706f73653a206e6f7420656e6f756768202444415257494e206044820152681a5b881dd85b1b195d60ba1b60648201526084016109a8565b88518a51148015611785575087518a51145b8015611792575086518a51145b6118045760405162461bcd60e51b815260206004820152603960248201527f44433a3a70726f706f73653a2070726f706f73616c2066756e6374696f6e206960448201527f6e666f726d6174696f6e206172697479206d69736d617463680000000000000060648201526084016109a8565b6012548a5111156118575760405162461bcd60e51b815260206004820152601d60248201527f44433a3a70726f706f73653a20746f6f206d616e7920616374696f6e7300000060448201526064016109a8565b60006014546013544261186a91906144d8565b61187491906144d8565b905060006015546013544261188991906144d8565b61189391906144d8565b9050818510156118e55760405162461bcd60e51b815260206004820152601f60248201527f44433a3a70726f706f73653a20746f6f206561726c7920656e642074696d650060448201526064016109a8565b808511156119355760405162461bcd60e51b815260206004820152601e60248201527f44433a3a70726f706f73653a20746f6f206c61746520656e642074696d65000060448201526064016109a8565b505060006013544261194791906144d8565b90506000600f54600161195a91906144d8565b905060005b8a51811015611a335760008b828151811061197c5761197c6144f0565b6020908102919091018101518051908201206000818152600c90925260409091205490915060ff1615611a20576119c16000805160206149e583398151915233611533565b611a205760405162461bcd60e51b815260206004820152602a60248201527f44433a3a70726f706f73653a2070726f706f73616c207369676e6174757265206044820152691c995cdd1c9a58dd195960b21b60648201526084016109a8565b5080611a2b81614506565b91505061195f565b506000604051806101a00160405280838152602001336001600160a01b031681526020018e81526020018d81526020018c81526020018b81526020016010548152602001848152602001878152602001600081526020016000815260200160001515815260200160001515815250905081600f8190555080600b6000836000015181526020019081526020016000206000820151816000015560208201518160010160006101000a8154816001600160a01b0302191690836001600160a01b031602179055506040820151816002019080519060200190611b15929190613744565b5060608201518051611b319160038401916020909101906137a9565b5060808201518051611b4d9160048401916020909101906137e4565b5060a08201518051611b6991600584019160209091019061383d565b5060c0820151600682015560e082015160078201556101008083015160088301556101208301516009830155610140830151600a830155610160830151600b90920180546101809094015161ffff1990941692151561ff001916929092179215150291909117905580516040513391907f2aaed8c34093afe23d30e0d1681a5053e48f4189c13324a46e64943de201372190611c0e9087908b908f908f908f906146a5565b60405180910390a3519c9b505050505050505050505050565b333014611c465760405162461bcd60e51b81526004016109a8906143a0565b601355565b333014611c6a5760405162461bcd60e51b81526004016109a8906143a0565b601455565b333014611c8e5760405162461bcd60e51b81526004016109a8906143a0565b8015611cac57610ca96000805160206149e583398151915283612e42565b610ca96000805160206149e583398151915283612ec6565b611d3c604051806101a001604052806000815260200160006001600160a01b031681526020016060815260200160608152602001606081526020016060815260200160008152602001600081526020016000815260200160008152602001600081526020016000151581526020016000151581525090565b81600081118015611d4f5750600f548111155b611d6b5760405162461bcd60e51b81526004016109a89061448d565b6000838152600b602090815260409182902082516101a0810184528154815260018201546001600160a01b03168184015260028201805485518186028101860187528181529295939493860193830182828015611df157602002820191906000526020600020905b81546001600160a01b03168152600190910190602001808311611dd3575b5050505050815260200160038201805480602002602001604051908101604052809291908181526020018280548015611e4957602002820191906000526020600020905b815481526020019060010190808311611e35575b5050505050815260200160048201805480602002602001604051908101604052809291908181526020016000905b82821015611f23578382906000526020600020018054611e969061459c565b80601f0160208091040260200160405190810160405280929190818152602001828054611ec29061459c565b8015611f0f5780601f10611ee457610100808354040283529160200191611f0f565b820191906000526020600020905b815481529060010190602001808311611ef257829003601f168201915b505050505081526020019060010190611e77565b50505050815260200160058201805480602002602001604051908101604052809291908181526020016000905b82821015611ffc578382906000526020600020018054611f6f9061459c565b80601f0160208091040260200160405190810160405280929190818152602001828054611f9b9061459c565b8015611fe85780601f10611fbd57610100808354040283529160200191611fe8565b820191906000526020600020905b815481529060010190602001808311611fcb57829003601f168201915b505050505081526020019060010190611f50565b5050509082525060068201546020820152600782015460408201526008820154606082015260098201546080820152600a82015460a0820152600b9091015460ff808216151560c084015261010090910416151560e0909101529392505050565b6000805160206149c583398151915261207581612e35565b6001600160a01b0385166120c45760405162461bcd60e51b815260206004820152601660248201527544433a3a696e69743a205a45524f5f4144445245535360501b60448201526064016109a8565b6017546001600160a01b03161561211d5760405162461bcd60e51b815260206004820152601d60248201527f44433a3a696e69743a20616c726561647920696e697469616c697a656400000060448201526064016109a8565b601780546001600160a01b0319166001600160a01b03871690811790915560408051632119a98f60e11b81529051634233531e916004808201926020929091908290030181865afa158015612176573d6000803e3d6000fd5b505050506040513d601f19601f8201168201806040525081019061219a91906146f6565b601880546001600160a01b0319166001600160a01b039290921691821790556040805163423c4da960e11b815290516384789b52916004808201926020929091908290030181865afa1580156121f4573d6000803e3d6000fd5b505050506040513d601f19601f8201168201806040525081019061221891906146f6565b601980546001600160a01b0319166001600160a01b0392909216919091179055825161224b90600d9060208601906137e4565b50600160125562015180601381905560145562093a806015556203f4806016556103e8601155670de0b6b3a764000060105560005b82518110156122db57600083828151811061229d5761229d6144f0565b6020908102919091018101518051908201206000908152600c90915260409020805460ff1916600117905550806122d381614506565b915050612280565b5060005b600d548110156123c9576000600e5460016122fa91906144d8565b9050604051806060016040528082815260200187848151811061231f5761231f6144f0565b6020908102919091018101516001600160a01b039081168352600192820183905260008581526008835260408082208651815593860151938501805496909101511515600160a01b026001600160a81b03199096169390921692909217939093179092556009805491820181559091527f6e1540171b6c0c960b71a7020d9f60077f6af931a8bbf590da0223dacf75c7af01819055600e55806123c181614506565b9150506122df565b505050505050565b6000805160206149c58339815191526123e981612e35565b8584146124685760405162461bcd60e51b815260206004820152604160248201527f44433a3a64697374726962757465436f6d6d756e69747946756e643a2063616e60448201527f6469646174657320616e6420766f746573206c656e677468206d69736d6174636064820152600d60fb1b608482015260a4016109a8565b856124cb5760405162461bcd60e51b815260206004820152602d60248201527f44433a3a64697374726962757465436f6d6d756e69747946756e643a20656d7060448201526c74792063616e6469646174657360981b60648201526084016109a8565b6017546040516370a0823160e01b81523060048201526000916001600160a01b0316906370a0823190602401602060405180830381865afa158015612514573d6000803e3d6000fd5b505050506040513d601f19601f8201168201806040525081019061253891906143fd565b9050828110156125a15760405162461bcd60e51b815260206004820152602e60248201527f44433a3a64697374726962757465436f6d6d756e69747946756e643a206e6f7460448201526d20656e6f75676820746f6b656e7360901b60648201526084016109a8565b60008060006126178b8b8080602002602001604051908101604052809392919081815260200183836020028082843760009201919091525050604080516020808f0282810182019093528e82529093508e92508d9182918501908490808284376000920191909152508c92508b9150612f2b9050565b601754604051630a9d0f9f60e11b815293965091945092506001600160a01b03169063153a1f3e9061264f9085908590600401614713565b600060405180830381600087803b15801561266957600080fd5b505af115801561267d573d6000803e3d6000fd5b505050507fdde783927535928e5cfa143627faa17f33bf042593a63e8120e3edbd0deb7e758c8c8c866040516126b69493929190614741565b60405180910390a1505050505050505050505050565b6000828152602081905260409020600101546126e781612e35565b610c2a8383612ec6565b3330146127105760405162461bcd60e51b81526004016109a8906143a0565b801561272e57610ca9600080516020614a0583398151915283612e42565b610ca9600080516020614a0583398151915283612ec6565b3330146127655760405162461bcd60e51b81526004016109a8906143a0565b601655565b3330146127895760405162461bcd60e51b81526004016109a8906143a0565b6001600160a01b0381166127ea5760405162461bcd60e51b815260206004820152602260248201527f44433a73657444617277696e416464726573733a3a207a65726f206164647265604482015261737360f01b60648201526084016109a8565b601780546001600160a01b0319166001600160a01b0392909216919091179055565b600080516020614a2583398151915261282481612e35565b600082815260066020908152604080832033845290915290205460ff16156128a65760405162461bcd60e51b815260206004820152602f60248201527f44433a3a657865637574653a2063616c6c657220616c726561647920766f746560448201526e32103337b91032bc32b1baba34b7b760891b60648201526084016109a8565b60008281526006602090815260408083203384528252808320805460ff19166001179055848352600790915281208054916128e083614506565b90915550506000828152600760205260409020546002111561292b5760405182907f364a57e625faf480cf95e68712cefbae6d5a19b263e2b29446ae92be57b3bd7c90600090a25050565b6000828152600b60205260409020600461294484610cad565b600681111561295557612955613a4d565b146129c85760405162461bcd60e51b815260206004820152603a60248201527f44433a3a657865637574653a2070726f706f73616c2063616e206f6e6c79206260448201527f652065786563757465642069662069742069732071756575656400000000000060648201526084016109a8565b60115481600a015482600901546129df91906144d8565b1015612a3c5760405162461bcd60e51b815260206004820152602660248201527f44433a3a657865637574653a206e6f7420656e6f75676820766f74657320726560448201526518d95a5d995960d21b60648201526084016109a8565b600b8101805461ff001916610100179055600a8101546009820154141580612a79575080600a01548160090154148015612a795750612a79613351565b15612c4c5760005b6002820154811015612c4a57612c388260000154836002018381548110612aaa57612aaa6144f0565b6000918252602090912001546003850180546001600160a01b039092169185908110612ad857612ad86144f0565b9060005260206000200154856004018581548110612af857612af86144f0565b906000526020600020018054612b0d9061459c565b80601f0160208091040260200160405190810160405280929190818152602001828054612b399061459c565b8015612b865780601f10612b5b57610100808354040283529160200191612b86565b820191906000526020600020905b815481529060010190602001808311612b6957829003601f168201915b5050505050866005018681548110612ba057612ba06144f0565b906000526020600020018054612bb59061459c565b80601f0160208091040260200160405190810160405280929190818152602001828054612be19061459c565b8015612c2e5780601f10612c0357610100808354040283529160200191612c2e565b820191906000526020600020905b815481529060010190602001808311612c1157829003601f168201915b505050505061339b565b80612c4281614506565b915050612a81565b505b60405183907f712ae1383f79ac853f8d882153778e0260ef8f03b504e2866e0593e04d2b291f90600090a2505050565b6000918252602082815260408084206001600160a01b0393909316845291905290205460ff1690565b6001612cb084610cad565b6006811115612cc157612cc1613a4d565b14612d1d5760405162461bcd60e51b815260206004820152602660248201527f44433a3a63617374566f7465496e7465726e616c3a20766f74696e672069732060448201526518db1bdcd95960d21b60648201526084016109a8565b6000838152600a602090815260408083206001600160a01b03881684528252808320868452600b909252909120815460ff1615612dae5760405162461bcd60e51b815260206004820152602960248201527f44433a3a63617374566f7465496e7465726e616c3a20766f74657220616c726560448201526818591e481d9bdd195960ba1b60648201526084016109a8565b8154831580156101000261ffff1990921691909117600190811784558301859055612e0357612de5670de0b6b3a7640000856147ab565b816009016000828254612df891906144d8565b909155506123c99050565b612e15670de0b6b3a7640000856147ab565b81600a016000828254612e2891906144d8565b9091555050505050505050565b612e3f81336134e8565b50565b612e4c8282611533565b610ca9576000828152602081815260408083206001600160a01b03851684529091529020805460ff19166001179055612e823390565b6001600160a01b0316816001600160a01b0316837f2f8788117e7eff1d82e926ec794901d17c78024a50270940304540a733656f0d60405160405180910390a45050565b612ed08282611533565b15610ca9576000828152602081815260408083206001600160a01b0385168085529252808320805460ff1916905551339285917ff6391f5c32d9c69d2a47ea670b442974b53935d1edc7fd64eb21e047a839171b9190a45050565b6060806060600087516001600160401b03811115612f4b57612f4b613c48565b604051908082528060200260200182016040528015612f74578160200160208202803683370190505b509050600088516001600160401b03811115612f9257612f92613c48565b604051908082528060200260200182016040528015612fbb578160200160208202803683370190505b5090506000808a516001600160401b03811115612fda57612fda613c48565b604051908082528060200260200182016040528015613003578160200160208202803683370190505b5090506000805b8c518110156131f157600860008e8381518110613029576130296144f0565b6020026020010151815260200190815260200160002060010160009054906101000a90046001600160a01b0316868281518110613068576130686144f0565b60200260200101906001600160a01b031690816001600160a01b0316815250508a8c828151811061309b5761309b6144f0565b60200260200101518b6130ae91906147bf565b6130b891906147ab565b8582815181106130ca576130ca6144f0565b60200260200101818152505060006001600160a01b03168682815181106130f3576130f36144f0565b60200260200101516001600160a01b03161415801561313d5750306001600160a01b0316868281518110613129576131296144f0565b60200260200101516001600160a01b031614155b801561316257506000858281518110613158576131586144f0565b6020026020010151115b1561319d576131726001856144d8565b93506001838281518110613188576131886144f0565b911515602092830291909101909101526131c2565b60008382815181106131b1576131b16144f0565b911515602092830291909101909101525b8b81815181106131d4576131d46144f0565b6020026020010151826131e791906144d8565b915060010161300a565b506000836001600160401b0381111561320c5761320c613c48565b604051908082528060200260200182016040528015613235578160200160208202803683370190505b5090506000846001600160401b0381111561325257613252613c48565b60405190808252806020026020018201604052801561327b578160200160208202803683370190505b5090506000805b8f5181101561333c5785818151811061329d5761329d6144f0565b602002602001015115613334578881815181106132bc576132bc6144f0565b60200260200101518482815181106132d6576132d66144f0565b60200260200101906001600160a01b031690816001600160a01b031681525050878181518110613308576133086144f0565b6020026020010151838281518110613322576133226144f0565b60209081029190910101526001909101905b600101613282565b50959e919d509b509950505050505050505050565b60008060024442604051602001613372929190918252602082015260400190565b6040516020818303038152906040528051906020012060001c61339591906147de565b11905090565b6000848484846040516020016133b494939291906147f2565b604051602081830303815290604052805190602001209050606083516000036133de57508161340a565b8380519060200120836040516020016133f8929190614836565b60405160208183030381529060405290505b600080876001600160a01b031687846040516134269190614867565b60006040518083038185875af1925050503d8060008114613463576040519150601f19603f3d011682016040523d82523d6000602084013e613468565b606091505b50915091508161347782613541565b906134955760405162461bcd60e51b81526004016109a89190614883565b50876001600160a01b0316848a7f8116523581d37fa5f5079c48659c8a6568002d9e29b0c98e05de305125f50a7d8a8a8a6040516134d593929190614896565b60405180910390a4505050505050505050565b6134f28282611533565b610ca9576134ff81613590565b61350a8360206135a2565b60405160200161351b9291906148cb565b60408051601f198184030181529082905262461bcd60e51b82526109a891600401614883565b80516060906044811015613565575050604080516020810190915260008152919050565b6004830180516003198301825290936135879083810160200190602401614940565b93525090919050565b60606109836001600160a01b03831660145b606060006135b18360026147bf565b6135bc9060026144d8565b6001600160401b038111156135d3576135d3613c48565b6040519080825280601f01601f1916602001820160405280156135fd576020820181803683370190505b509050600360fc1b81600081518110613618576136186144f0565b60200101906001600160f81b031916908160001a905350600f60fb1b81600181518110613647576136476144f0565b60200101906001600160f81b031916908160001a905350600061366b8460026147bf565b6136769060016144d8565b90505b60018111156136ee576f181899199a1a9b1b9c1cb0b131b232b360811b85600f16601081106136aa576136aa6144f0565b1a60f81b8282815181106136c0576136c06144f0565b60200101906001600160f81b031916908160001a90535060049490941c936136e7816149ad565b9050613679565b50831561373d5760405162461bcd60e51b815260206004820181905260248201527f537472696e67733a20686578206c656e67746820696e73756666696369656e7460448201526064016109a8565b9392505050565b828054828255906000526020600020908101928215613799579160200282015b8281111561379957825182546001600160a01b0319166001600160a01b03909116178255602090920191600190910190613764565b506137a5929150613896565b5090565b828054828255906000526020600020908101928215613799579160200282015b828111156137995782518255916020019190600101906137c9565b828054828255906000526020600020908101928215613831579160200282015b8281111561383157825180516138219184916020909101906138ab565b5091602001919060010190613804565b506137a592915061391e565b82805482825590600052602060002090810192821561388a579160200282015b8281111561388a578251805161387a9184916020909101906138ab565b509160200191906001019061385d565b506137a592915061393b565b5b808211156137a55760008155600101613897565b8280546138b79061459c565b90600052602060002090601f0160209004810192826138d95760008555613799565b82601f106138f257805160ff1916838001178555613799565b8280016001018555821561379957918201828111156137995782518255916020019190600101906137c9565b808211156137a55760006139328282613958565b5060010161391e565b808211156137a557600061394f8282613958565b5060010161393b565b5080546139649061459c565b6000825580601f10613974575050565b601f016020900490600052602060002090810190612e3f9190613896565b6000602082840312156139a457600080fd5b81356001600160e01b03198116811461373d57600080fd5b6000602082840312156139ce57600080fd5b5035919050565b8015158114612e3f57600080fd5b600080604083850312156139f657600080fd5b823591506020830135613a08816139d5565b809150509250929050565b6001600160a01b0381168114612e3f57600080fd5b60008060408385031215613a3b57600080fd5b823591506020830135613a0881613a13565b634e487b7160e01b600052602160045260246000fd5b6020810160078310613a8557634e487b7160e01b600052602160045260246000fd5b91905290565b602080825282518282018190526000919060409081850190868401855b82811015613ae257815180518552868101516001600160a01b03168786015285015115158585015260609093019290850190600101613aa8565b5091979650505050505050565b60008060408385031215613b0257600080fd5b8235613b0d81613a13565b91506020830135613a08816139d5565b60008083601f840112613b2f57600080fd5b5081356001600160401b03811115613b4657600080fd5b602083019150836020828501011115613b5e57600080fd5b9250929050565b600080600060408486031215613b7a57600080fd5b8335613b8581613a13565b925060208401356001600160401b03811115613ba057600080fd5b613bac86828701613b1d565b9497909650939450505050565b600081518084526020808501945080840160005b83811015613be957815187529582019590820190600101613bcd565b509495945050505050565b60208152600061373d6020830184613bb9565b60008060208385031215613c1a57600080fd5b82356001600160401b03811115613c3057600080fd5b613c3c85828601613b1d565b90969095509350505050565b634e487b7160e01b600052604160045260246000fd5b604051601f8201601f191681016001600160401b0381118282101715613c8657613c86613c48565b604052919050565b60006001600160401b03821115613ca757613ca7613c48565b5060051b60200190565b600082601f830112613cc257600080fd5b81356020613cd7613cd283613c8e565b613c5e565b82815260059290921b84018101918181019086841115613cf657600080fd5b8286015b84811015613d1a578035613d0d81613a13565b8352918301918301613cfa565b509695505050505050565b600082601f830112613d3657600080fd5b81356020613d46613cd283613c8e565b82815260059290921b84018101918181019086841115613d6557600080fd5b8286015b84811015613d1a5780358352918301918301613d69565b60006001600160401b03821115613d9957613d99613c48565b50601f01601f191660200190565b6000613db5613cd284613d80565b9050828152838383011115613dc957600080fd5b828260208301376000602084830101529392505050565b600082601f830112613df157600080fd5b61373d83833560208501613da7565b600082601f830112613e1157600080fd5b81356020613e21613cd283613c8e565b82815260059290921b84018101918181019086841115613e4057600080fd5b8286015b84811015613d1a5780356001600160401b03811115613e635760008081fd5b613e718986838b0101613de0565b845250918301918301613e44565b600082601f830112613e9057600080fd5b81356020613ea0613cd283613c8e565b82815260059290921b84018101918181019086841115613ebf57600080fd5b8286015b84811015613d1a5780356001600160401b03811115613ee25760008081fd5b8701603f81018913613ef45760008081fd5b613f05898683013560408401613da7565b845250918301918301613ec3565b600080600080600080600080610100898b031215613f3057600080fd5b88356001600160401b0380821115613f4757600080fd5b613f538c838d01613cb1565b995060208b0135915080821115613f6957600080fd5b613f758c838d01613d25565b985060408b0135915080821115613f8b57600080fd5b613f978c838d01613e00565b975060608b0135915080821115613fad57600080fd5b613fb98c838d01613e7f565b965060808b0135915080821115613fcf57600080fd5b613fdb8c838d01613de0565b955060a08b0135915080821115613ff157600080fd5b613ffd8c838d01613de0565b945060c08b013591508082111561401357600080fd5b506140208b828c01613de0565b92505060e089013590509295985092959890939650565b600081518084526020808501945080840160005b83811015613be95781516001600160a01b03168752958201959082019060010161404b565b60005b8381101561408b578181015183820152602001614073565b8381111561409a576000848401525b50505050565b600081518084526140b8816020860160208601614070565b601f01601f19169290920160200192915050565b600081518084526020808501808196508360051b8101915082860160005b85811015613ae25782840389526141028483516140a0565b988501989350908401906001016140ea565b60208152815160208201526000602083015161413b60408401826001600160a01b03169052565b5060408301516101a08060608501526141586101c0850183614037565b91506060850151601f19808685030160808701526141768483613bb9565b935060808701519150808685030160a087015261419384836140cc565b935060a08701519150808685030160c0870152506141b183826140cc565b60c087015160e08781019190915287015161010080880191909152870151610120808801919091528701516101408088019190915287015161016080880191909152870151909350905061018061420b8187018315159052565b90950151151593019290925250919050565b6000806000806080858703121561423357600080fd5b843561423e81613a13565b935060208501356001600160401b038082111561425a57600080fd5b61426688838901613cb1565b9450604087013591508082111561427c57600080fd5b61428888838901613e00565b9350606087013591508082111561429e57600080fd5b506142ab87828801613e00565b91505092959194509250565b60008083601f8401126142c957600080fd5b5081356001600160401b038111156142e057600080fd5b6020830191508360208260051b8501011115613b5e57600080fd5b600080600080600080600060a0888a03121561431657600080fd5b8735965060208801356001600160401b038082111561433457600080fd5b6143408b838c016142b7565b909850965060408a013591508082111561435957600080fd5b506143668a828b016142b7565b989b979a5095989597966060870135966080013595509350505050565b60006020828403121561439557600080fd5b813561373d81613a13565b60208082526038908201527f44433a3a6f6e6c7944617277696e436f6d6d756e6974793a206f6e6c7920446160408201527f7277696e436f6d6d756e6974792063616e206163636573730000000000000000606082015260800190565b60006020828403121561440f57600080fd5b5051919050565b600060a0828403121561442857600080fd5b60405160a081018181106001600160401b038211171561444a5761444a613c48565b8060405250825181526020830151602082015260408301516040820152606083015161447581613a13565b60608201526080928301519281019290925250919050565b6020808252818101527f44433a3a697350726f706f73616c496456616c696420696e76616c6964206964604082015260600190565b634e487b7160e01b600052601160045260246000fd5b600082198211156144eb576144eb6144c2565b500190565b634e487b7160e01b600052603260045260246000fd5b600060018201614518576145186144c2565b5060010190565b6001600160a01b03841681526040602082018190528101829052818360608301376000818301606090810191909152601f909201601f1916010192915050565b600082821015614571576145716144c2565b500390565b634e487b7160e01b600052603160045260246000fd5b8183823760009101908152919050565b600181811c908216806145b057607f821691505b602082108103610d8d57634e487b7160e01b600052602260045260246000fd5b60018060a01b0383168152600060206040818401526000845481600182811c91508083168061460057607f831692505b858310810361461d57634e487b7160e01b85526022600452602485fd5b604088018390526060880181801561463c576001811461464d57614678565b60ff19861682528782019650614678565b60008b81526020902060005b8681101561467257815484820152908501908901614659565b83019750505b50949a9950505050505050505050565b60006020828403121561469a57600080fd5b815161373d816139d5565b85815284602082015260a0604082015260006146c460a08301866140a0565b82810360608401526146d681866140a0565b905082810360808401526146ea81856140a0565b98975050505050505050565b60006020828403121561470857600080fd5b815161373d81613a13565b6040815260006147266040830185614037565b82810360208401526147388185613bb9565b95945050505050565b848152606060208201819052810183905260006001600160fb1b0384111561476857600080fd5b8360051b808660808501378083019050608081016000815260808483030160408501526146ea8186613bb9565b634e487b7160e01b600052601260045260246000fd5b6000826147ba576147ba614795565b500490565b60008160001904831182151516156147d9576147d96144c2565b500290565b6000826147ed576147ed614795565b500690565b60018060a01b038516815283602082015260806040820152600061481960808301856140a0565b828103606084015261482b81856140a0565b979650505050505050565b6001600160e01b0319831681528151600090614859816004850160208701614070565b919091016004019392505050565b60008251614879818460208701614070565b9190910192915050565b60208152600061373d60208301846140a0565b8381526060602082015260006148af60608301856140a0565b82810360408401526148c181856140a0565b9695505050505050565b7f416363657373436f6e74726f6c3a206163636f756e7420000000000000000000815260008351614903816017850160208801614070565b7001034b99036b4b9b9b4b733903937b6329607d1b6017918401918201528351614934816028840160208801614070565b01602801949350505050565b60006020828403121561495257600080fd5b81516001600160401b0381111561496857600080fd5b8201601f8101841361497957600080fd5b8051614987613cd282613d80565b81815285602083850101111561499c57600080fd5b614738826020830160208601614070565b6000816149bc576149bc6144c2565b50600019019056feb19546dff01e856fb3f010c267a7b1c60363cf8a4664e21cc89c26224620214eabc70d2258afa6759f4374a1c000a3080cd0f2802aa144aed93e2e4b49211337b09aa5aeb3702cfd50b6b62bc4532604938f21248a27a1d5ca736082b6819cc1a49807205ce4d355092ef5a8a18f56e8913cf4a201fbe287825b095693c21775a2646970667358221220e51e75020e5d0f88a409ff39e17f9deb9d1158d37c8b47139d1eb1d63f65687264736f6c634300080e0033b19546dff01e856fb3f010c267a7b1c60363cf8a4664e21cc89c26224620214e",
  "linkReferences": {},
  "deployedLinkReferences": {}
}