{
  "_format": "hh-sol-artifact-1",
  "contractName": "BoosterNFT",
  "sourceName": "contracts/BoosterNFT.sol",
  "abi": [
    {
      "inputs": [
        {
          "components": [
            {
              "internalType": "uint8",
              "name": "unminted",
              "type": "uint8"
            },
            {
              "internalType": "uint8",
              "name": "no",
              "type": "uint8"
            }
          ],
          "internalType": "struct IBoosterNFT.Kind[]",
          "name": "unminted_",
          "type": "tuple[]"
        }
      ],
      "stateMutability": "nonpayable",
      "type": "constructor"
    },
    {
      "anonymous": false,
      "inputs": [
        {
          "indexed": true,
          "internalType": "address",
          "name": "owner",
          "type": "address"
        },
        {
          "indexed": true,
          "internalType": "address",
          "name": "approved",
          "type": "address"
        },
        {
          "indexed": true,
          "internalType": "uint256",
          "name": "tokenId",
          "type": "uint256"
        }
      ],
      "name": "Approval",
      "type": "event"
    },
    {
      "anonymous": false,
      "inputs": [
        {
          "indexed": true,
          "internalType": "address",
          "name": "owner",
          "type": "address"
        },
        {
          "indexed": true,
          "internalType": "address",
          "name": "operator",
          "type": "address"
        },
        {
          "indexed": false,
          "internalType": "bool",
          "name": "approved",
          "type": "bool"
        }
      ],
      "name": "ApprovalForAll",
      "type": "event"
    },
    {
      "anonymous": false,
      "inputs": [
        {
          "indexed": true,
          "internalType": "address",
          "name": "from",
          "type": "address"
        },
        {
          "indexed": true,
          "internalType": "address",
          "name": "to",
          "type": "address"
        },
        {
          "indexed": true,
          "internalType": "uint256",
          "name": "tokenId",
          "type": "uint256"
        }
      ],
      "name": "Transfer",
      "type": "event"
    },
    {
      "inputs": [],
      "name": "BOOSTER_PRICE",
      "outputs": [
        {
          "internalType": "uint56",
          "name": "",
          "type": "uint56"
        }
      ],
      "stateMutability": "view",
      "type": "function"
    },
    {
      "inputs": [],
      "name": "MAX_SUPPLY",
      "outputs": [
        {
          "internalType": "uint16",
          "name": "",
          "type": "uint16"
        }
      ],
      "stateMutability": "view",
      "type": "function"
    },
    {
      "inputs": [
        {
          "internalType": "address",
          "name": "to",
          "type": "address"
        },
        {
          "internalType": "uint256",
          "name": "tokenId",
          "type": "uint256"
        }
      ],
      "name": "approve",
      "outputs": [],
      "stateMutability": "nonpayable",
      "type": "function"
    },
    {
      "inputs": [
        {
          "internalType": "address",
          "name": "owner",
          "type": "address"
        }
      ],
      "name": "balanceOf",
      "outputs": [
        {
          "internalType": "uint256",
          "name": "",
          "type": "uint256"
        }
      ],
      "stateMutability": "view",
      "type": "function"
    },
    {
      "inputs": [
        {
          "internalType": "uint16",
          "name": "_tokenId",
          "type": "uint16"
        }
      ],
      "name": "boosterInfo",
      "outputs": [
        {
          "components": [
            {
              "internalType": "uint8",
              "name": "multiplier",
              "type": "uint8"
            },
            {
              "internalType": "uint8",
              "name": "no",
              "type": "uint8"
            }
          ],
          "internalType": "struct IBoosterNFT.BoosterInfo",
          "name": "",
          "type": "tuple"
        }
      ],
      "stateMutability": "view",
      "type": "function"
    },
    {
      "inputs": [],
      "name": "contractURI",
      "outputs": [
        {
          "internalType": "string",
          "name": "",
          "type": "string"
        }
      ],
      "stateMutability": "pure",
      "type": "function"
    },
    {
      "inputs": [],
      "name": "dev",
      "outputs": [
        {
          "internalType": "address",
          "name": "",
          "type": "address"
        }
      ],
      "stateMutability": "view",
      "type": "function"
    },
    {
      "inputs": [],
      "name": "evotures",
      "outputs": [
        {
          "internalType": "address",
          "name": "",
          "type": "address"
        }
      ],
      "stateMutability": "view",
      "type": "function"
    },
    {
      "inputs": [
        {
          "internalType": "uint256",
          "name": "tokenId",
          "type": "uint256"
        }
      ],
      "name": "getApproved",
      "outputs": [
        {
          "internalType": "address",
          "name": "",
          "type": "address"
        }
      ],
      "stateMutability": "view",
      "type": "function"
    },
    {
      "inputs": [
        {
          "internalType": "address",
          "name": "owner",
          "type": "address"
        },
        {
          "internalType": "address",
          "name": "operator",
          "type": "address"
        }
      ],
      "name": "isApprovedForAll",
      "outputs": [
        {
          "internalType": "bool",
          "name": "",
          "type": "bool"
        }
      ],
      "stateMutability": "view",
      "type": "function"
    },
    {
      "inputs": [],
      "name": "lastTokenId",
      "outputs": [
        {
          "internalType": "uint16",
          "name": "",
          "type": "uint16"
        }
      ],
      "stateMutability": "view",
      "type": "function"
    },
    {
      "inputs": [
        {
          "internalType": "uint8",
          "name": "_amount",
          "type": "uint8"
        },
        {
          "internalType": "address",
          "name": "_to",
          "type": "address"
        }
      ],
      "name": "mint",
      "outputs": [
        {
          "internalType": "uint16[]",
          "name": "",
          "type": "uint16[]"
        }
      ],
      "stateMutability": "nonpayable",
      "type": "function"
    },
    {
      "inputs": [],
      "name": "name",
      "outputs": [
        {
          "internalType": "string",
          "name": "",
          "type": "string"
        }
      ],
      "stateMutability": "view",
      "type": "function"
    },
    {
      "inputs": [
        {
          "internalType": "uint256",
          "name": "tokenId",
          "type": "uint256"
        }
      ],
      "name": "ownerOf",
      "outputs": [
        {
          "internalType": "address",
          "name": "",
          "type": "address"
        }
      ],
      "stateMutability": "view",
      "type": "function"
    },
    {
      "inputs": [
        {
          "internalType": "address",
          "name": "from",
          "type": "address"
        },
        {
          "internalType": "address",
          "name": "to",
          "type": "address"
        },
        {
          "internalType": "uint256",
          "name": "tokenId",
          "type": "uint256"
        }
      ],
      "name": "safeTransferFrom",
      "outputs": [],
      "stateMutability": "nonpayable",
      "type": "function"
    },
    {
      "inputs": [
        {
          "internalType": "address",
          "name": "from",
          "type": "address"
        },
        {
          "internalType": "address",
          "name": "to",
          "type": "address"
        },
        {
          "internalType": "uint256",
          "name": "tokenId",
          "type": "uint256"
        },
        {
          "internalType": "bytes",
          "name": "data",
          "type": "bytes"
        }
      ],
      "name": "safeTransferFrom",
      "outputs": [],
      "stateMutability": "nonpayable",
      "type": "function"
    },
    {
      "inputs": [
        {
          "internalType": "address",
          "name": "operator",
          "type": "address"
        },
        {
          "internalType": "bool",
          "name": "approved",
          "type": "bool"
        }
      ],
      "name": "setApprovalForAll",
      "outputs": [],
      "stateMutability": "nonpayable",
      "type": "function"
    },
    {
      "inputs": [
        {
          "internalType": "address",
          "name": "_evotures",
          "type": "address"
        }
      ],
      "name": "setEvotures",
      "outputs": [],
      "stateMutability": "nonpayable",
      "type": "function"
    },
    {
      "inputs": [
        {
          "internalType": "bytes4",
          "name": "interfaceId",
          "type": "bytes4"
        }
      ],
      "name": "supportsInterface",
      "outputs": [
        {
          "internalType": "bool",
          "name": "",
          "type": "bool"
        }
      ],
      "stateMutability": "view",
      "type": "function"
    },
    {
      "inputs": [],
      "name": "symbol",
      "outputs": [
        {
          "internalType": "string",
          "name": "",
          "type": "string"
        }
      ],
      "stateMutability": "view",
      "type": "function"
    },
    {
      "inputs": [
        {
          "internalType": "uint256",
          "name": "tokenId",
          "type": "uint256"
        }
      ],
      "name": "tokenURI",
      "outputs": [
        {
          "internalType": "string",
          "name": "",
          "type": "string"
        }
      ],
      "stateMutability": "view",
      "type": "function"
    },
    {
      "inputs": [
        {
          "internalType": "address",
          "name": "from",
          "type": "address"
        },
        {
          "internalType": "address",
          "name": "to",
          "type": "address"
        },
        {
          "internalType": "uint256",
          "name": "tokenId",
          "type": "uint256"
        }
      ],
      "name": "transferFrom",
      "outputs": [],
      "stateMutability": "nonpayable",
      "type": "function"
    },
    {
      "inputs": [],
      "name": "unminted",
      "outputs": [
        {
          "components": [
            {
              "internalType": "uint8",
              "name": "unminted",
              "type": "uint8"
            },
            {
              "internalType": "uint8",
              "name": "no",
              "type": "uint8"
            }
          ],
          "internalType": "struct IBoosterNFT.Kind[]",
          "name": "",
          "type": "tuple[]"
        }
      ],
      "stateMutability": "view",
      "type": "function"
    }
  ],
  "bytecode": "0x60a06040523480156200001157600080fd5b506040516200273138038062002731833981016040819052620000349162000630565b604080518082018252600d81526c45766f7475726573204e46547360981b60208083019182528351808501909452600884526745564f545552455360c01b9084015281519192916200008991600091620004ff565b5080516200009f906001906020840190620004ff565b5050336080819052620000b59150600162000161565b620000c233600262000161565b6006805461ffff60a01b1916600160a11b17905560005b81518160ff16101562000159576008828260ff16815181106200010057620001006200071d565b6020908102919091018101518254600181018455600093845292829020815193018054919092015160ff9081166101000261ffff1990921693169290921791909117905580620001508162000733565b915050620000d9565b50506200084b565b620001838282604051806020016040528060008152506200018760201b60201c565b5050565b62000193838362000203565b620001a2600084848462000394565b620001fe5760405162461bcd60e51b815260206004820152603260248201526000805160206200271183398151915260448201527131b2b4bb32b91034b6b83632b6b2b73a32b960711b60648201526084015b60405180910390fd5b505050565b6001600160a01b0382166200025b5760405162461bcd60e51b815260206004820181905260248201527f4552433732313a206d696e7420746f20746865207a65726f20616464726573736044820152606401620001f5565b6000818152600260205260409020546001600160a01b031615620002c25760405162461bcd60e51b815260206004820152601c60248201527f4552433732313a20746f6b656e20616c7265616479206d696e746564000000006044820152606401620001f5565b6000818152600260205260409020546001600160a01b031615620003295760405162461bcd60e51b815260206004820152601c60248201527f4552433732313a20746f6b656e20616c7265616479206d696e746564000000006044820152606401620001f5565b6001600160a01b038216600081815260036020908152604080832080546001019055848352600290915280822080546001600160a01b0319168417905551839291907fddf252ad1be2c89b69c2b068fc378daa952ba7f163c4a11628f55a4df523b3ef908290a45050565b6000620003b5846001600160a01b0316620004f060201b62000d451760201c565b15620004e457604051630a85bd0160e11b81526001600160a01b0385169063150b7a0290620003ef90339089908890889060040162000761565b6020604051808303816000875af19250505080156200042d575060408051601f3d908101601f191682019092526200042a91810190620007dc565b60015b620004c9573d8080156200045e576040519150601f19603f3d011682016040523d82523d6000602084013e62000463565b606091505b508051600003620004c15760405162461bcd60e51b815260206004820152603260248201526000805160206200271183398151915260448201527131b2b4bb32b91034b6b83632b6b2b73a32b960711b6064820152608401620001f5565b805181602001fd5b6001600160e01b031916630a85bd0160e11b149050620004e8565b5060015b949350505050565b6001600160a01b03163b151590565b8280546200050d906200080f565b90600052602060002090601f0160209004810192826200053157600085556200057c565b82601f106200054c57805160ff19168380011785556200057c565b828001600101855582156200057c579182015b828111156200057c5782518255916020019190600101906200055f565b506200058a9291506200058e565b5090565b5b808211156200058a57600081556001016200058f565b634e487b7160e01b600052604160045260246000fd5b604080519081016001600160401b0381118282101715620005e057620005e0620005a5565b60405290565b604051601f8201601f191681016001600160401b0381118282101715620006115762000611620005a5565b604052919050565b805160ff811681146200062b57600080fd5b919050565b600060208083850312156200064457600080fd5b82516001600160401b03808211156200065c57600080fd5b818501915085601f8301126200067157600080fd5b815181811115620006865762000686620005a5565b62000696848260051b01620005e6565b818152848101925060069190911b830184019087821115620006b757600080fd5b928401925b81841015620007125760408489031215620006d75760008081fd5b620006e1620005bb565b620006ec8562000619565b8152620006fb86860162000619565b8187015283526040939093019291840191620006bc565b979650505050505050565b634e487b7160e01b600052603260045260246000fd5b600060ff821660ff81036200075857634e487b7160e01b600052601160045260246000fd5b60010192915050565b600060018060a01b038087168352602081871681850152856040850152608060608501528451915081608085015260005b82811015620007b05785810182015185820160a00152810162000792565b82811115620007c357600060a084870101525b5050601f01601f19169190910160a00195945050505050565b600060208284031215620007ef57600080fd5b81516001600160e01b0319811681146200080857600080fd5b9392505050565b600181811c908216806200082457607f821691505b6020821081036200084557634e487b7160e01b600052602260045260246000fd5b50919050565b608051611ea36200086e60003960008181610309015261064c0152611ea36000f3fe608060405234801561001057600080fd5b506004361061014d5760003560e01c80636352211e116100c3578063b88d4fde1161007c578063b88d4fde14610346578063c87b56dd14610359578063d035770c1461036c578063e8a3d48514610392578063e985e9c51461039a578063f84ddf0b146103d657600080fd5b80636352211e146102b057806370a08231146102c35780637bf75f6c146102e457806391cca3db1461030457806395d89b411461032b578063a22cb4651461033357600080fd5b8063252ab12d11610115578063252ab12d146101e25780632b083ead146101f557806332cb6b0c14610208578063373215891461022457806342842e0e1461023957806359ea5adb1461024c57600080fd5b806301ffc9a71461015257806306fdde031461017a578063081812fc1461018f578063095ea7b3146101ba57806323b872dd146101cf575b600080fd5b61016561016036600461175b565b6103eb565b60405190151581526020015b60405180910390f35b61018261043d565b60405161017191906117d0565b6101a261019d3660046117e3565b6104cf565b6040516001600160a01b039091168152602001610171565b6101cd6101c8366004611813565b6104f6565b005b6101cd6101dd36600461183d565b610610565b6006546101a2906001600160a01b031681565b6101cd610203366004611879565b610641565b61021161070881565b60405161ffff9091168152602001610171565b61022c610752565b6040516101719190611894565b6101cd61024736600461183d565b6107c0565b6102a361025a3660046118f1565b60408051808201909152600080825260208201525061ffff1660009081526007602090815260409182902082518084019093525460ff8082168452610100909104169082015290565b6040516101719190611915565b6101a26102be3660046117e3565b6107db565b6102d66102d1366004611879565b61083b565b604051908152602001610171565b6102f76102f2366004611933565b6108c1565b604051610171919061196e565b6101a27f000000000000000000000000000000000000000000000000000000000000000081565b610182610c4b565b6101cd6103413660046119b6565b610c5a565b6101cd610354366004611a08565b610c69565b6101826103673660046117e3565b610ca1565b61037a661550f7dca7000081565b60405166ffffffffffffff9091168152602001610171565b610182610d25565b6101656103a8366004611ae4565b6001600160a01b03918216600090815260056020908152604080832093909416825291909152205460ff1690565b60065461021190600160a01b900461ffff1681565b60006001600160e01b031982166380ac58cd60e01b148061041c57506001600160e01b03198216635b5e139f60e01b145b8061043757506301ffc9a760e01b6001600160e01b03198316145b92915050565b60606000805461044c90611b00565b80601f016020809104026020016040519081016040528092919081815260200182805461047890611b00565b80156104c55780601f1061049a576101008083540402835291602001916104c5565b820191906000526020600020905b8154815290600101906020018083116104a857829003601f168201915b5050505050905090565b60006104da82610d54565b506000908152600460205260409020546001600160a01b031690565b6000610501826107db565b9050806001600160a01b0316836001600160a01b0316036105735760405162461bcd60e51b815260206004820152602160248201527f4552433732313a20617070726f76616c20746f2063757272656e74206f776e656044820152603960f91b60648201526084015b60405180910390fd5b336001600160a01b038216148061058f575061058f81336103a8565b6106015760405162461bcd60e51b815260206004820152603d60248201527f4552433732313a20617070726f76652063616c6c6572206973206e6f7420746f60448201527f6b656e206f776e6572206f7220617070726f76656420666f7220616c6c000000606482015260840161056a565b61060b8383610db6565b505050565b61061a3382610e24565b6106365760405162461bcd60e51b815260040161056a90611b3a565b61060b838383610ea3565b336001600160a01b037f000000000000000000000000000000000000000000000000000000000000000016146106c95760405162461bcd60e51b815260206004820152602760248201527f426f6f737465724e46543a3a73657445766f74757265733a2043414c4c45525f6044820152662727aa2fa222ab60c91b606482015260840161056a565b6006546001600160a01b0316156107305760405162461bcd60e51b815260206004820152602560248201527f426f6f737465724e46543a3a73657445766f74757265733a2045564f5455524560448201526414d7d4d15560da1b606482015260840161056a565b600680546001600160a01b0319166001600160a01b0392909216919091179055565b60606008805480602002602001604051908101604052809291908181526020016000905b828210156107b7576000848152602090819020604080518082019091529084015460ff80821683526101009091041681830152825260019092019101610776565b50505050905090565b61060b83838360405180602001604052806000815250610c69565b6000818152600260205260408120546001600160a01b0316806104375760405162461bcd60e51b8152602060048201526018602482015277115490cdcc8c4e881a5b9d985b1a59081d1bdad95b88125160421b604482015260640161056a565b60006001600160a01b0382166108a55760405162461bcd60e51b815260206004820152602960248201527f4552433732313a2061646472657373207a65726f206973206e6f7420612076616044820152683634b21037bbb732b960b91b606482015260840161056a565b506001600160a01b031660009081526003602052604090205490565b6006546060906001600160a01b0316331461092c5760405162461bcd60e51b815260206004820152602560248201527f426f6f737465724e46543a3a6d696e743a2043414c4c45525f4e4f545f45564f604482015264545552455360d81b606482015260840161056a565b60065460ff84169061094b90600160a01b900461ffff16610708611b9d565b61ffff16101561099d5760405162461bcd60e51b815260206004820152601f60248201527f426f6f737465724e46543a3a6d696e743a204d494e545f455843454544454400604482015260640161056a565b60008360ff1667ffffffffffffffff8111156109bb576109bb6119f2565b6040519080825280602002602001820160405280156109e4578160200160208202803683370190505b50905060005b8460ff168160ff161015610c435760006008610a04611007565b61ffff1681548110610a1857610a18611bc0565b6000918252602090912001546006805461010090920460ff169250600160a01b90910461ffff16906014610a4b83611bd6565b91906101000a81548161ffff021916908361ffff16021790555050610a8485600660149054906101000a900461ffff1661ffff16611171565b600660149054906101000a900461ffff16838360ff1681518110610aaa57610aaa611bc0565b602002602001019061ffff16908161ffff1681525050610ac98161118b565b60068054600160a01b9081900461ffff908116600090815260076020526040808220805460ff191660ff97881617905593549290920416815220805461ff001916610100928416928302179055600880549091908110610b2b57610b2b611bc0565b60009182526020822001805460ff1691610b4483611bf7565b91906101000a81548160ff021916908360ff1602179055505060088160ff1681548110610b7357610b73611bc0565b600091825260208220015460ff169003610c305760088054610b9790600190611c14565b81548110610ba757610ba7611bc0565b9060005260206000200160088260ff1681548110610bc757610bc7611bc0565b6000918252602090912082549101805460ff92831660ff19821681178355935461ffff19909116909317610100938490049092169092021790556008805480610c1257610c12611c2b565b6000828152602090208101600019908101805461ffff191690550190555b5080610c3b81611c41565b9150506109ea565b509392505050565b60606001805461044c90611b00565b610c653383836111fa565b5050565b610c733383610e24565b610c8f5760405162461bcd60e51b815260040161056a90611b3a565b610c9b848484846112c8565b50505050565b6060610cac82610d54565b6000610cb66112fb565b90506000815111610cd65760405180602001604052806000815250610d1e565b61ffff83166000908152600760205260409020548190610cfd90610100900460ff1661131b565b604051602001610d0e929190611c60565b6040516020818303038152906040525b9392505050565b6060604051806060016040528060278152602001611e4760279139905090565b6001600160a01b03163b151590565b6000818152600260205260409020546001600160a01b0316610db35760405162461bcd60e51b8152602060048201526018602482015277115490cdcc8c4e881a5b9d985b1a59081d1bdad95b88125160421b604482015260640161056a565b50565b600081815260046020526040902080546001600160a01b0319166001600160a01b0384169081179091558190610deb826107db565b6001600160a01b03167f8c5be1e5ebec7d5bd14f71427d1e84f3dd0314c0f7b2291e5b200ac8c7c3b92560405160405180910390a45050565b600080610e30836107db565b9050806001600160a01b0316846001600160a01b03161480610e7757506001600160a01b0380821660009081526005602090815260408083209388168352929052205460ff165b80610e9b5750836001600160a01b0316610e90846104cf565b6001600160a01b0316145b949350505050565b826001600160a01b0316610eb6826107db565b6001600160a01b031614610edc5760405162461bcd60e51b815260040161056a90611c9f565b6001600160a01b038216610f3e5760405162461bcd60e51b8152602060048201526024808201527f4552433732313a207472616e7366657220746f20746865207a65726f206164646044820152637265737360e01b606482015260840161056a565b826001600160a01b0316610f51826107db565b6001600160a01b031614610f775760405162461bcd60e51b815260040161056a90611c9f565b600081815260046020908152604080832080546001600160a01b03199081169091556001600160a01b0387811680865260038552838620805460001901905590871680865283862080546001019055868652600290945282852080549092168417909155905184937fddf252ad1be2c89b69c2b068fc378daa952ba7f163c4a11628f55a4df523b3ef91a4505050565b600080423360405160200161101c9190611ce4565b6040516020818303038152906040528051906020012060001c61103f9190611d17565b42306040516020016110519190611ce4565b6040516020818303038152906040528051906020012060001c6110749190611d17565b4342326040516020016110879190611ce4565b6040516020818303038152906040528051906020012060001c6110aa9190611d17565b4542416040516020016110bd9190611ce4565b6040516020818303038152906040528051906020012060001c6110e09190611d17565b5a6110eb4442611d2b565b6110f59190611d2b565b6110ff9190611d2b565b6111099190611d2b565b6111139190611d2b565b61111d9190611d2b565b6111279190611d2b565b6111319190611d2b565b60405160200161114391815260200190565b60408051601f19818403018152919052805160209091012060085490915061116b9082611d43565b91505090565b610c658282604051806020016040528060008152506113ae565b600060038260ff1610156111a157506032919050565b60068260ff1610156111b557506019919050565b600a8260ff1610156111c957506014919050565b600f8260ff1610156111dd5750600f919050565b60158260ff1610156111f15750600a919050565b5060055b919050565b816001600160a01b0316836001600160a01b03160361125b5760405162461bcd60e51b815260206004820152601960248201527f4552433732313a20617070726f766520746f2063616c6c657200000000000000604482015260640161056a565b6001600160a01b03838116600081815260056020908152604080832094871680845294825291829020805460ff191686151590811790915591519182527f17307eab39ab6107e8899845ad3d59bd9653f200f220920489ca2b5937696c31910160405180910390a3505050565b6112d3848484610ea3565b6112df848484846113e1565b610c9b5760405162461bcd60e51b815260040161056a90611d57565b6060604051806080016040528060438152602001611e0460439139905090565b60606000611328836114e2565b600101905060008167ffffffffffffffff811115611348576113486119f2565b6040519080825280601f01601f191660200182016040528015611372576020820181803683370190505b5090508181016020015b600019016f181899199a1a9b1b9c1cb0b131b232b360811b600a86061a8153600a850494508461137c57509392505050565b6113b883836115ba565b6113c560008484846113e1565b61060b5760405162461bcd60e51b815260040161056a90611d57565b60006001600160a01b0384163b156114d757604051630a85bd0160e11b81526001600160a01b0385169063150b7a0290611425903390899088908890600401611da9565b6020604051808303816000875af1925050508015611460575060408051601f3d908101601f1916820190925261145d91810190611de6565b60015b6114bd573d80801561148e576040519150601f19603f3d011682016040523d82523d6000602084013e611493565b606091505b5080516000036114b55760405162461bcd60e51b815260040161056a90611d57565b805181602001fd5b6001600160e01b031916630a85bd0160e11b149050610e9b565b506001949350505050565b60008072184f03e93ff9f4daa797ed6e38ed64bf6a1f0160401b83106115215772184f03e93ff9f4daa797ed6e38ed64bf6a1f0160401b830492506040015b6d04ee2d6d415b85acef8100000000831061154d576d04ee2d6d415b85acef8100000000830492506020015b662386f26fc10000831061156b57662386f26fc10000830492506010015b6305f5e1008310611583576305f5e100830492506008015b612710831061159757612710830492506004015b606483106115a9576064830492506002015b600a83106104375760010192915050565b6001600160a01b0382166116105760405162461bcd60e51b815260206004820181905260248201527f4552433732313a206d696e7420746f20746865207a65726f2061646472657373604482015260640161056a565b6000818152600260205260409020546001600160a01b0316156116755760405162461bcd60e51b815260206004820152601c60248201527f4552433732313a20746f6b656e20616c7265616479206d696e74656400000000604482015260640161056a565b6000818152600260205260409020546001600160a01b0316156116da5760405162461bcd60e51b815260206004820152601c60248201527f4552433732313a20746f6b656e20616c7265616479206d696e74656400000000604482015260640161056a565b6001600160a01b038216600081815260036020908152604080832080546001019055848352600290915280822080546001600160a01b0319168417905551839291907fddf252ad1be2c89b69c2b068fc378daa952ba7f163c4a11628f55a4df523b3ef908290a45050565b6001600160e01b031981168114610db357600080fd5b60006020828403121561176d57600080fd5b8135610d1e81611745565b60005b8381101561179357818101518382015260200161177b565b83811115610c9b5750506000910152565b600081518084526117bc816020860160208601611778565b601f01601f19169290920160200192915050565b602081526000610d1e60208301846117a4565b6000602082840312156117f557600080fd5b5035919050565b80356001600160a01b03811681146111f557600080fd5b6000806040838503121561182657600080fd5b61182f836117fc565b946020939093013593505050565b60008060006060848603121561185257600080fd5b61185b846117fc565b9250611869602085016117fc565b9150604084013590509250925092565b60006020828403121561188b57600080fd5b610d1e826117fc565b602080825282518282018190526000919060409081850190868401855b828110156118e4576118d4848351805160ff908116835260209182015116910152565b92840192908501906001016118b1565b5091979650505050505050565b60006020828403121561190357600080fd5b813561ffff81168114610d1e57600080fd5b604081016104378284805160ff908116835260209182015116910152565b6000806040838503121561194657600080fd5b823560ff8116811461195757600080fd5b9150611965602084016117fc565b90509250929050565b6020808252825182820181905260009190848201906040850190845b818110156119aa57835161ffff168352928401929184019160010161198a565b50909695505050505050565b600080604083850312156119c957600080fd5b6119d2836117fc565b9150602083013580151581146119e757600080fd5b809150509250929050565b634e487b7160e01b600052604160045260246000fd5b60008060008060808587031215611a1e57600080fd5b611a27856117fc565b9350611a35602086016117fc565b925060408501359150606085013567ffffffffffffffff80821115611a5957600080fd5b818701915087601f830112611a6d57600080fd5b813581811115611a7f57611a7f6119f2565b604051601f8201601f19908116603f01168101908382118183101715611aa757611aa76119f2565b816040528281528a6020848701011115611ac057600080fd5b82602086016020830137600060208483010152809550505050505092959194509250565b60008060408385031215611af757600080fd5b611957836117fc565b600181811c90821680611b1457607f821691505b602082108103611b3457634e487b7160e01b600052602260045260246000fd5b50919050565b6020808252602d908201527f4552433732313a2063616c6c6572206973206e6f7420746f6b656e206f776e6560408201526c1c881bdc88185c1c1c9bdd9959609a1b606082015260800190565b634e487b7160e01b600052601160045260246000fd5b600061ffff83811690831681811015611bb857611bb8611b87565b039392505050565b634e487b7160e01b600052603260045260246000fd5b600061ffff808316818103611bed57611bed611b87565b6001019392505050565b600060ff821680611c0a57611c0a611b87565b6000190192915050565b600082821015611c2657611c26611b87565b500390565b634e487b7160e01b600052603160045260246000fd5b600060ff821660ff8103611c5757611c57611b87565b60010192915050565b60008351611c72818460208801611778565b835190830190611c86818360208801611778565b64173539b7b760d91b9101908152600501949350505050565b60208082526025908201527f4552433732313a207472616e736665722066726f6d20696e636f72726563742060408201526437bbb732b960d91b606082015260800190565b60609190911b6bffffffffffffffffffffffff1916815260140190565b634e487b7160e01b600052601260045260246000fd5b600082611d2657611d26611d01565b500490565b60008219821115611d3e57611d3e611b87565b500190565b600082611d5257611d52611d01565b500690565b60208082526032908201527f4552433732313a207472616e7366657220746f206e6f6e20455243373231526560408201527131b2b4bb32b91034b6b83632b6b2b73a32b960711b606082015260800190565b6001600160a01b0385811682528416602082015260408101839052608060608201819052600090611ddc908301846117a4565b9695505050505050565b600060208284031215611df857600080fd5b8151610d1e8161174556fe697066733a2f2f626166796265696567626779376132673232706e6f7867786b786a7a74677a7a35786e77336e616f627066626e6234766c367473677570706370692f68747470733a2f2f64617277696e70726f746f636f6c2e696f2f626f6f73746572732e6a736f6ea2646970667358221220fac637e3e212b0a60e0a49e6b241b281440ba2647b931a63cdf6bb325e8a552964736f6c634300080e00334552433732313a207472616e7366657220746f206e6f6e204552433732315265",
  "linkReferences": {},
  "deployedLinkReferences": {}
}