{
  "_format": "hh-sol-artifact-1",
  "contractName": "Darwin",
  "sourceName": "contracts/Darwin.sol",
  "abi": [
    {
      "inputs": [],
      "name": "AccountAlreadyExcluded",
      "type": "error"
    },
    {
      "inputs": [],
      "name": "AccountNotExcluded",
      "type": "error"
    },
    {
      "inputs": [],
      "name": "HoldingLimitExceeded",
      "type": "error"
    },
    {
      "inputs": [],
      "name": "InsufficientAllowance",
      "type": "error"
    },
    {
      "inputs": [],
      "name": "InvalidArrayLengths",
      "type": "error"
    },
    {
      "inputs": [],
      "name": "MaxSupplyReached",
      "type": "error"
    },
    {
      "inputs": [],
      "name": "OnlyDarwinCommunity",
      "type": "error"
    },
    {
      "inputs": [],
      "name": "Paused",
      "type": "error"
    },
    {
      "inputs": [],
      "name": "SellLimitExceeded",
      "type": "error"
    },
    {
      "inputs": [],
      "name": "ZeroAddress",
      "type": "error"
    },
    {
      "inputs": [],
      "name": "ZeroAmount",
      "type": "error"
    },
    {
      "anonymous": false,
      "inputs": [
        {
          "indexed": false,
          "internalType": "address",
          "name": "previousAdmin",
          "type": "address"
        },
        {
          "indexed": false,
          "internalType": "address",
          "name": "newAdmin",
          "type": "address"
        }
      ],
      "name": "AdminChanged",
      "type": "event"
    },
    {
      "anonymous": false,
      "inputs": [
        {
          "indexed": true,
          "internalType": "address",
          "name": "owner",
          "type": "address"
        },
        {
          "indexed": true,
          "internalType": "address",
          "name": "spender",
          "type": "address"
        },
        {
          "indexed": false,
          "internalType": "uint256",
          "name": "value",
          "type": "uint256"
        }
      ],
      "name": "Approval",
      "type": "event"
    },
    {
      "anonymous": false,
      "inputs": [
        {
          "indexed": true,
          "internalType": "address",
          "name": "beacon",
          "type": "address"
        }
      ],
      "name": "BeaconUpgraded",
      "type": "event"
    },
    {
      "anonymous": false,
      "inputs": [
        {
          "indexed": false,
          "internalType": "address",
          "name": "account",
          "type": "address"
        },
        {
          "indexed": false,
          "internalType": "bool",
          "name": "isExcluded",
          "type": "bool"
        }
      ],
      "name": "ExcludedFromReflection",
      "type": "event"
    },
    {
      "anonymous": false,
      "inputs": [
        {
          "indexed": false,
          "internalType": "uint8",
          "name": "version",
          "type": "uint8"
        }
      ],
      "name": "Initialized",
      "type": "event"
    },
    {
      "anonymous": false,
      "inputs": [
        {
          "indexed": true,
          "internalType": "address",
          "name": "previousOwner",
          "type": "address"
        },
        {
          "indexed": true,
          "internalType": "address",
          "name": "newOwner",
          "type": "address"
        }
      ],
      "name": "OwnershipTransferred",
      "type": "event"
    },
    {
      "anonymous": false,
      "inputs": [
        {
          "indexed": true,
          "internalType": "bytes32",
          "name": "role",
          "type": "bytes32"
        },
        {
          "indexed": true,
          "internalType": "bytes32",
          "name": "previousAdminRole",
          "type": "bytes32"
        },
        {
          "indexed": true,
          "internalType": "bytes32",
          "name": "newAdminRole",
          "type": "bytes32"
        }
      ],
      "name": "RoleAdminChanged",
      "type": "event"
    },
    {
      "anonymous": false,
      "inputs": [
        {
          "indexed": true,
          "internalType": "bytes32",
          "name": "role",
          "type": "bytes32"
        },
        {
          "indexed": true,
          "internalType": "address",
          "name": "account",
          "type": "address"
        },
        {
          "indexed": true,
          "internalType": "address",
          "name": "sender",
          "type": "address"
        }
      ],
      "name": "RoleGranted",
      "type": "event"
    },
    {
      "anonymous": false,
      "inputs": [
        {
          "indexed": true,
          "internalType": "bytes32",
          "name": "role",
          "type": "bytes32"
        },
        {
          "indexed": true,
          "internalType": "address",
          "name": "account",
          "type": "address"
        },
        {
          "indexed": true,
          "internalType": "address",
          "name": "sender",
          "type": "address"
        }
      ],
      "name": "RoleRevoked",
      "type": "event"
    },
    {
      "anonymous": false,
      "inputs": [
        {
          "indexed": false,
          "internalType": "uint256",
          "name": "timestamp",
          "type": "uint256"
        }
      ],
      "name": "SetPaused",
      "type": "event"
    },
    {
      "anonymous": false,
      "inputs": [
        {
          "indexed": false,
          "internalType": "uint256",
          "name": "timestamp",
          "type": "uint256"
        }
      ],
      "name": "SetUnpaused",
      "type": "event"
    },
    {
      "anonymous": false,
      "inputs": [
        {
          "indexed": true,
          "internalType": "address",
          "name": "from",
          "type": "address"
        },
        {
          "indexed": true,
          "internalType": "address",
          "name": "to",
          "type": "address"
        },
        {
          "indexed": false,
          "internalType": "uint256",
          "name": "value",
          "type": "uint256"
        }
      ],
      "name": "Transfer",
      "type": "event"
    },
    {
      "anonymous": false,
      "inputs": [
        {
          "indexed": true,
          "internalType": "address",
          "name": "implementation",
          "type": "address"
        }
      ],
      "name": "Upgraded",
      "type": "event"
    },
    {
      "inputs": [],
      "name": "COMMUNITY_ROLE",
      "outputs": [
        {
          "internalType": "bytes32",
          "name": "",
          "type": "bytes32"
        }
      ],
      "stateMutability": "view",
      "type": "function"
    },
    {
      "inputs": [],
      "name": "DEFAULT_ADMIN_ROLE",
      "outputs": [
        {
          "internalType": "bytes32",
          "name": "",
          "type": "bytes32"
        }
      ],
      "stateMutability": "view",
      "type": "function"
    },
    {
      "inputs": [],
      "name": "FACTORY_ROLE",
      "outputs": [
        {
          "internalType": "bytes32",
          "name": "",
          "type": "bytes32"
        }
      ],
      "stateMutability": "view",
      "type": "function"
    },
    {
      "inputs": [],
      "name": "INITIAL_SUPPLY",
      "outputs": [
        {
          "internalType": "uint256",
          "name": "",
          "type": "uint256"
        }
      ],
      "stateMutability": "view",
      "type": "function"
    },
    {
      "inputs": [],
      "name": "MAINTENANCE_ROLE",
      "outputs": [
        {
          "internalType": "bytes32",
          "name": "",
          "type": "bytes32"
        }
      ],
      "stateMutability": "view",
      "type": "function"
    },
    {
      "inputs": [],
      "name": "MAX_SUPPLY",
      "outputs": [
        {
          "internalType": "uint256",
          "name": "",
          "type": "uint256"
        }
      ],
      "stateMutability": "view",
      "type": "function"
    },
    {
      "inputs": [],
      "name": "MINTER_ROLE",
      "outputs": [
        {
          "internalType": "bytes32",
          "name": "",
          "type": "bytes32"
        }
      ],
      "stateMutability": "view",
      "type": "function"
    },
    {
      "inputs": [],
      "name": "SECURITY_ROLE",
      "outputs": [
        {
          "internalType": "bytes32",
          "name": "",
          "type": "bytes32"
        }
      ],
      "stateMutability": "view",
      "type": "function"
    },
    {
      "inputs": [],
      "name": "UPGRADER_ROLE",
      "outputs": [
        {
          "internalType": "bytes32",
          "name": "",
          "type": "bytes32"
        }
      ],
      "stateMutability": "view",
      "type": "function"
    },
    {
      "inputs": [
        {
          "internalType": "address",
          "name": "owner",
          "type": "address"
        },
        {
          "internalType": "address",
          "name": "spender",
          "type": "address"
        }
      ],
      "name": "allowance",
      "outputs": [
        {
          "internalType": "uint256",
          "name": "",
          "type": "uint256"
        }
      ],
      "stateMutability": "view",
      "type": "function"
    },
    {
      "inputs": [
        {
          "internalType": "address",
          "name": "spender",
          "type": "address"
        },
        {
          "internalType": "uint256",
          "name": "amount",
          "type": "uint256"
        }
      ],
      "name": "approve",
      "outputs": [
        {
          "internalType": "bool",
          "name": "",
          "type": "bool"
        }
      ],
      "stateMutability": "nonpayable",
      "type": "function"
    },
    {
      "inputs": [
        {
          "internalType": "address",
          "name": "account",
          "type": "address"
        }
      ],
      "name": "balanceOf",
      "outputs": [
        {
          "internalType": "uint256",
          "name": "balance",
          "type": "uint256"
        }
      ],
      "stateMutability": "view",
      "type": "function"
    },
    {
      "inputs": [
        {
          "internalType": "address[]",
          "name": "recipients",
          "type": "address[]"
        },
        {
          "internalType": "uint256[]",
          "name": "amounts",
          "type": "uint256[]"
        }
      ],
      "name": "bulkTransfer",
      "outputs": [],
      "stateMutability": "nonpayable",
      "type": "function"
    },
    {
      "inputs": [
        {
          "internalType": "uint256",
          "name": "amount",
          "type": "uint256"
        }
      ],
      "name": "burn",
      "outputs": [],
      "stateMutability": "nonpayable",
      "type": "function"
    },
    {
      "inputs": [],
      "name": "communityPause",
      "outputs": [],
      "stateMutability": "nonpayable",
      "type": "function"
    },
    {
      "inputs": [],
      "name": "communityUnPause",
      "outputs": [],
      "stateMutability": "nonpayable",
      "type": "function"
    },
    {
      "inputs": [],
      "name": "culmulativeRewardPerToken",
      "outputs": [
        {
          "internalType": "uint256",
          "name": "",
          "type": "uint256"
        }
      ],
      "stateMutability": "view",
      "type": "function"
    },
    {
      "inputs": [],
      "name": "darwinStaking",
      "outputs": [
        {
          "internalType": "address",
          "name": "",
          "type": "address"
        }
      ],
      "stateMutability": "view",
      "type": "function"
    },
    {
      "inputs": [],
      "name": "darwinSwapFactory",
      "outputs": [
        {
          "internalType": "contract IUniswapV2Factory",
          "name": "",
          "type": "address"
        }
      ],
      "stateMutability": "view",
      "type": "function"
    },
    {
      "inputs": [],
      "name": "decimals",
      "outputs": [
        {
          "internalType": "uint8",
          "name": "",
          "type": "uint8"
        }
      ],
      "stateMutability": "view",
      "type": "function"
    },
    {
      "inputs": [
        {
          "internalType": "address",
          "name": "spender",
          "type": "address"
        },
        {
          "internalType": "uint256",
          "name": "subtractedValue",
          "type": "uint256"
        }
      ],
      "name": "decreaseAllowance",
      "outputs": [
        {
          "internalType": "bool",
          "name": "",
          "type": "bool"
        }
      ],
      "stateMutability": "nonpayable",
      "type": "function"
    },
    {
      "inputs": [
        {
          "internalType": "uint256",
          "name": "amount",
          "type": "uint256"
        }
      ],
      "name": "distributeRewards",
      "outputs": [],
      "stateMutability": "nonpayable",
      "type": "function"
    },
    {
      "inputs": [
        {
          "internalType": "uint256",
          "name": "",
          "type": "uint256"
        }
      ],
      "name": "excludedFromRewards",
      "outputs": [
        {
          "internalType": "address",
          "name": "",
          "type": "address"
        }
      ],
      "stateMutability": "view",
      "type": "function"
    },
    {
      "inputs": [
        {
          "internalType": "bytes32",
          "name": "role",
          "type": "bytes32"
        }
      ],
      "name": "getRoleAdmin",
      "outputs": [
        {
          "internalType": "bytes32",
          "name": "",
          "type": "bytes32"
        }
      ],
      "stateMutability": "view",
      "type": "function"
    },
    {
      "inputs": [
        {
          "internalType": "bytes32",
          "name": "role",
          "type": "bytes32"
        },
        {
          "internalType": "address",
          "name": "account",
          "type": "address"
        }
      ],
      "name": "grantRole",
      "outputs": [],
      "stateMutability": "nonpayable",
      "type": "function"
    },
    {
      "inputs": [
        {
          "internalType": "bytes32",
          "name": "role",
          "type": "bytes32"
        },
        {
          "internalType": "address",
          "name": "account",
          "type": "address"
        }
      ],
      "name": "hasRole",
      "outputs": [
        {
          "internalType": "bool",
          "name": "",
          "type": "bool"
        }
      ],
      "stateMutability": "view",
      "type": "function"
    },
    {
      "inputs": [
        {
          "internalType": "address",
          "name": "spender",
          "type": "address"
        },
        {
          "internalType": "uint256",
          "name": "addedValue",
          "type": "uint256"
        }
      ],
      "name": "increaseAllowance",
      "outputs": [
        {
          "internalType": "bool",
          "name": "",
          "type": "bool"
        }
      ],
      "stateMutability": "nonpayable",
      "type": "function"
    },
    {
      "inputs": [
        {
          "internalType": "address",
          "name": "_darwinCommunity",
          "type": "address"
        },
        {
          "internalType": "address",
          "name": "_vester",
          "type": "address"
        },
        {
          "internalType": "address",
          "name": "_wallet1",
          "type": "address"
        },
        {
          "internalType": "address",
          "name": "_charity",
          "type": "address"
        },
        {
          "internalType": "address",
          "name": "_giveaway",
          "type": "address"
        },
        {
          "internalType": "address",
          "name": "_bounties",
          "type": "address"
        },
        {
          "internalType": "address",
          "name": "_darwinDrop",
          "type": "address"
        }
      ],
      "name": "initialize",
      "outputs": [],
      "stateMutability": "nonpayable",
      "type": "function"
    },
    {
      "inputs": [],
      "name": "isPaused",
      "outputs": [
        {
          "internalType": "bool",
          "name": "",
          "type": "bool"
        }
      ],
      "stateMutability": "view",
      "type": "function"
    },
    {
      "inputs": [],
      "name": "masterChef",
      "outputs": [
        {
          "internalType": "address",
          "name": "",
          "type": "address"
        }
      ],
      "stateMutability": "view",
      "type": "function"
    },
    {
      "inputs": [
        {
          "internalType": "address",
          "name": "account",
          "type": "address"
        },
        {
          "internalType": "uint256",
          "name": "amount",
          "type": "uint256"
        }
      ],
      "name": "mint",
      "outputs": [],
      "stateMutability": "nonpayable",
      "type": "function"
    },
    {
      "inputs": [],
      "name": "name",
      "outputs": [
        {
          "internalType": "string",
          "name": "",
          "type": "string"
        }
      ],
      "stateMutability": "view",
      "type": "function"
    },
    {
      "inputs": [],
      "name": "owner",
      "outputs": [
        {
          "internalType": "address",
          "name": "",
          "type": "address"
        }
      ],
      "stateMutability": "view",
      "type": "function"
    },
    {
      "inputs": [],
      "name": "proxiableUUID",
      "outputs": [
        {
          "internalType": "bytes32",
          "name": "",
          "type": "bytes32"
        }
      ],
      "stateMutability": "view",
      "type": "function"
    },
    {
      "inputs": [
        {
          "internalType": "address",
          "name": "_pair",
          "type": "address"
        }
      ],
      "name": "registerDarwinSwapPair",
      "outputs": [],
      "stateMutability": "nonpayable",
      "type": "function"
    },
    {
      "inputs": [],
      "name": "renounceOwnership",
      "outputs": [],
      "stateMutability": "nonpayable",
      "type": "function"
    },
    {
      "inputs": [
        {
          "internalType": "bytes32",
          "name": "role",
          "type": "bytes32"
        },
        {
          "internalType": "address",
          "name": "account",
          "type": "address"
        }
      ],
      "name": "renounceRole",
      "outputs": [],
      "stateMutability": "nonpayable",
      "type": "function"
    },
    {
      "inputs": [
        {
          "internalType": "bytes32",
          "name": "role",
          "type": "bytes32"
        },
        {
          "internalType": "address",
          "name": "account",
          "type": "address"
        }
      ],
      "name": "revokeRole",
      "outputs": [],
      "stateMutability": "nonpayable",
      "type": "function"
    },
    {
      "inputs": [],
      "name": "rewardsWallet",
      "outputs": [
        {
          "internalType": "address",
          "name": "",
          "type": "address"
        }
      ],
      "stateMutability": "view",
      "type": "function"
    },
    {
      "inputs": [
        {
          "internalType": "address",
          "name": "_darwinStaking",
          "type": "address"
        }
      ],
      "name": "setDarwinStaking",
      "outputs": [],
      "stateMutability": "nonpayable",
      "type": "function"
    },
    {
      "inputs": [
        {
          "internalType": "address",
          "name": "_darwinSwapFactory",
          "type": "address"
        }
      ],
      "name": "setDarwinSwapFactory",
      "outputs": [],
      "stateMutability": "nonpayable",
      "type": "function"
    },
    {
      "inputs": [
        {
          "internalType": "address",
          "name": "_account",
          "type": "address"
        },
        {
          "internalType": "bool",
          "name": "_hasRole",
          "type": "bool"
        }
      ],
      "name": "setMaintenance",
      "outputs": [],
      "stateMutability": "nonpayable",
      "type": "function"
    },
    {
      "inputs": [
        {
          "internalType": "address",
          "name": "_masterChef",
          "type": "address"
        }
      ],
      "name": "setMasterChef",
      "outputs": [],
      "stateMutability": "nonpayable",
      "type": "function"
    },
    {
      "inputs": [
        {
          "internalType": "address",
          "name": "user_",
          "type": "address"
        },
        {
          "internalType": "bool",
          "name": "canMint_",
          "type": "bool"
        }
      ],
      "name": "setMinter",
      "outputs": [],
      "stateMutability": "nonpayable",
      "type": "function"
    },
    {
      "inputs": [
        {
          "internalType": "address",
          "name": "account",
          "type": "address"
        },
        {
          "internalType": "bool",
          "name": "shouldReceive",
          "type": "bool"
        }
      ],
      "name": "setReceiveRewards",
      "outputs": [],
      "stateMutability": "nonpayable",
      "type": "function"
    },
    {
      "inputs": [
        {
          "internalType": "address",
          "name": "_account",
          "type": "address"
        },
        {
          "internalType": "bool",
          "name": "_hasRole",
          "type": "bool"
        }
      ],
      "name": "setSecurity",
      "outputs": [],
      "stateMutability": "nonpayable",
      "type": "function"
    },
    {
      "inputs": [
        {
          "internalType": "address",
          "name": "_account",
          "type": "address"
        },
        {
          "internalType": "bool",
          "name": "_hasRole",
          "type": "bool"
        }
      ],
      "name": "setUpgrader",
      "outputs": [],
      "stateMutability": "nonpayable",
      "type": "function"
    },
    {
      "inputs": [],
      "name": "stakedDarwin",
      "outputs": [
        {
          "internalType": "contract IStakedDarwin",
          "name": "",
          "type": "address"
        }
      ],
      "stateMutability": "view",
      "type": "function"
    },
    {
      "inputs": [
        {
          "internalType": "bytes4",
          "name": "interfaceId",
          "type": "bytes4"
        }
      ],
      "name": "supportsInterface",
      "outputs": [
        {
          "internalType": "bool",
          "name": "",
          "type": "bool"
        }
      ],
      "stateMutability": "view",
      "type": "function"
    },
    {
      "inputs": [],
      "name": "symbol",
      "outputs": [
        {
          "internalType": "string",
          "name": "",
          "type": "string"
        }
      ],
      "stateMutability": "view",
      "type": "function"
    },
    {
      "inputs": [],
      "name": "totalBurnt",
      "outputs": [
        {
          "internalType": "uint256",
          "name": "",
          "type": "uint256"
        }
      ],
      "stateMutability": "view",
      "type": "function"
    },
    {
      "inputs": [],
      "name": "totalSupply",
      "outputs": [
        {
          "internalType": "uint256",
          "name": "",
          "type": "uint256"
        }
      ],
      "stateMutability": "view",
      "type": "function"
    },
    {
      "inputs": [
        {
          "internalType": "address",
          "name": "to",
          "type": "address"
        },
        {
          "internalType": "uint256",
          "name": "amount",
          "type": "uint256"
        }
      ],
      "name": "transfer",
      "outputs": [
        {
          "internalType": "bool",
          "name": "",
          "type": "bool"
        }
      ],
      "stateMutability": "nonpayable",
      "type": "function"
    },
    {
      "inputs": [
        {
          "internalType": "address",
          "name": "from",
          "type": "address"
        },
        {
          "internalType": "address",
          "name": "to",
          "type": "address"
        },
        {
          "internalType": "uint256",
          "name": "amount",
          "type": "uint256"
        }
      ],
      "name": "transferFrom",
      "outputs": [
        {
          "internalType": "bool",
          "name": "",
          "type": "bool"
        }
      ],
      "stateMutability": "nonpayable",
      "type": "function"
    },
    {
      "inputs": [
        {
          "internalType": "address",
          "name": "newOwner",
          "type": "address"
        }
      ],
      "name": "transferOwnership",
      "outputs": [],
      "stateMutability": "nonpayable",
      "type": "function"
    },
    {
      "inputs": [
        {
          "internalType": "address",
          "name": "newImplementation",
          "type": "address"
        }
      ],
      "name": "upgradeTo",
      "outputs": [],
      "stateMutability": "nonpayable",
      "type": "function"
    },
    {
      "inputs": [
        {
          "internalType": "address",
          "name": "newImplementation",
          "type": "address"
        },
        {
          "internalType": "bytes",
          "name": "data",
          "type": "bytes"
        }
      ],
      "name": "upgradeToAndCall",
      "outputs": [],
      "stateMutability": "payable",
      "type": "function"
    }
  ],
  "bytecode": "0x60a06040523060805234801561001457600080fd5b50608051613dc661004c60003960008181610f6401528181610fa4015281816110ec0152818161112c01526111bb0152613dc66000f3fe6080604052600436106103765760003560e01c806359974e38116101d1578063a217fddf11610102578063cf456ae7116100a0578063dd62ed3e1161006f578063dd62ed3e14610a18578063f2fde38b14610a38578063f40daafd14610a58578063f72c0d8b14610a7857600080fd5b8063cf456ae714610994578063d5391393146109b4578063d547741f146109d6578063dbe10655146109f657600080fd5b8063a5e7a003116100dc578063a5e7a00314610922578063a9059cbb14610939578063b187bd2614610959578063c58ce8861461097457600080fd5b8063a217fddf146108cd578063a2d9f4dc146108e2578063a457c2d71461090257600080fd5b80638da5cb5b1161016f578063966ff65011610149578063966ff650146108535780639aa777311461086a5780639db36ed21461088c578063a1471686146108ac57600080fd5b80638da5cb5b1461080057806391d148541461081e57806395d89b411461083e57600080fd5b80636696821b116101ab5780636696821b1461079557806370a08231146107aa578063715018a6146107ca57806384789b52146107df57600080fd5b806359974e381461072f5780635b35f9c91461074f5780636139b87f1461077557600080fd5b8063313ce567116102ab5780634233531e1161024957806352d1902d1161022357806352d1902d146106b957806354ed3679146106ce57806356e26c63146106ee578063575a86b21461070e57600080fd5b80634233531e1461064d57806342966c68146106865780634f1ef286146106a657600080fd5b806336568abe1161028557806336568abe146105cd5780633659cfe6146105ed578063395093511461060d57806340c10f191461062d57600080fd5b8063313ce5671461057157806332cb6b0c1461058d57806335876476146105ad57600080fd5b8063153a1f3e1161031857806323b872dd116102f257806323b872dd146104e2578063248a9ca3146105025780632f2ff15d146105325780632ff2e9dc1461055257600080fd5b8063153a1f3e1461048b57806318160ddd146104ab5780631dec5e07146104c057600080fd5b806307eddd471161035457806307eddd4714610414578063095ea7b3146104365780630bfa8dfd146104565780630dab5b891461047657600080fd5b806301ffc9a71461037b57806304a0fb17146103b057806306fdde03146103f2575b600080fd5b34801561038757600080fd5b5061039b610396366004612f09565b610a9a565b60405190151581526020015b60405180910390f35b3480156103bc57600080fd5b506103e47fdfbefbf47cfe66b701d8cfdbce1de81c821590819cb07e71cb01b6602fb0ee2781565b6040519081526020016103a7565b3480156103fe57600080fd5b50610407610ad1565b6040516103a79190612f5f565b34801561042057600080fd5b5061043461042f366004612fae565b610b63565b005b34801561044257600080fd5b5061039b610451366004612fea565b610bb6565b34801561046257600080fd5b50610434610471366004612fae565b610bce565b34801561048257600080fd5b50610434610c1c565b34801561049757600080fd5b506104346104a6366004613060565b610c83565b3480156104b757600080fd5b506035546103e4565b3480156104cc57600080fd5b506103e4600080516020613d5183398151915281565b3480156104ee57600080fd5b5061039b6104fd3660046130cc565b610d06565b34801561050e57600080fd5b506103e461051d366004613108565b600090815260c9602052604090206001015490565b34801561053e57600080fd5b5061043461054d366004613121565b610d2c565b34801561055e57600080fd5b506103e46a376bcd471fa2312300000081565b34801561057d57600080fd5b50604051601281526020016103a7565b34801561059957600080fd5b506103e46b026c62ad77dc602dae00000081565b3480156105b957600080fd5b506104346105c836600461314d565b610d51565b3480156105d957600080fd5b506104346105e8366004613121565b610edc565b3480156105f957600080fd5b506104346106083660046131d3565b610f5a565b34801561061957600080fd5b5061039b610628366004612fea565b611039565b34801561063957600080fd5b50610434610648366004612fea565b61105b565b34801561065957600080fd5b506101655461066e906001600160a01b031681565b6040516001600160a01b0390911681526020016103a7565b34801561069257600080fd5b506104346106a1366004613108565b6110bd565b6104346106b4366004613204565b6110e2565b3480156106c557600080fd5b506103e46111ae565b3480156106da57600080fd5b506104346106e9366004612fae565b611261565b3480156106fa57600080fd5b506104346107093660046131d3565b6112af565b34801561071a57600080fd5b506101665461066e906001600160a01b031681565b34801561073b57600080fd5b5061043461074a366004613108565b61137e565b34801561075b57600080fd5b506101635461066e9061010090046001600160a01b031681565b34801561078157600080fd5b5061066e610790366004613108565b6113ae565b3480156107a157600080fd5b506104346113d9565b3480156107b657600080fd5b506103e46107c53660046131d3565b61143b565b3480156107d657600080fd5b50610434611532565b3480156107eb57600080fd5b506101675461066e906001600160a01b031681565b34801561080c57600080fd5b506065546001600160a01b031661066e565b34801561082a57600080fd5b5061039b610839366004613121565b611546565b34801561084a57600080fd5b50610407611571565b34801561085f57600080fd5b506103e46101685481565b34801561087657600080fd5b506103e4600080516020613cca83398151915281565b34801561089857600080fd5b506104346108a73660046131d3565b611580565b3480156108b857600080fd5b506101645461066e906001600160a01b031681565b3480156108d957600080fd5b506103e4600081565b3480156108ee57600080fd5b506104346108fd3660046131d3565b6116a5565b34801561090e57600080fd5b5061039b61091d366004612fea565b611769565b34801561092e57600080fd5b506103e461015f5481565b34801561094557600080fd5b5061039b610954366004612fea565b6117ef565b34801561096557600080fd5b506101635461039b9060ff1681565b34801561098057600080fd5b5061043461098f3660046131d3565b6117fd565b3480156109a057600080fd5b506104346109af366004612fae565b611830565b3480156109c057600080fd5b506103e4600080516020613d1183398151915281565b3480156109e257600080fd5b506104346109f1366004613121565b61187e565b348015610a0257600080fd5b506103e4600080516020613d7183398151915281565b348015610a2457600080fd5b506103e4610a333660046132c6565b6118a3565b348015610a4457600080fd5b50610434610a533660046131d3565b6118ce565b348015610a6457600080fd5b50610434610a73366004612fae565b611944565b348015610a8457600080fd5b506103e4600080516020613c8a83398151915281565b60006001600160e01b03198216637965db0b60e01b1480610acb57506301ffc9a760e01b6001600160e01b03198316145b92915050565b606060368054610ae0906132f0565b80601f0160208091040260200160405190810160405280929190818152602001828054610b0c906132f0565b8015610b595780601f10610b2e57610100808354040283529160200191610b59565b820191906000526020600020905b815481529060010190602001808311610b3c57829003601f168201915b5050505050905090565b600080516020613cca833981519152610b7b81611974565b8115610b9e57610b99600080516020613c8a8339815191528461197e565b505050565b610b99600080516020613c8a83398151915284611a04565b600033610bc4818585611a6b565b5060019392505050565b600080516020613cca833981519152610be681611974565b8115610c0457610b99600080516020613d518339815191528461197e565b610b99600080516020613d5183398151915284611a04565b600080516020613cca833981519152610c3481611974565b6101635460ff1615610c4c57610163805460ff191690555b6040514281527fe4613ba0dfa18e3aefeaf8f3dca9b092edcc3588780e22b06960f54e6baf6c57906020015b60405180910390a150565b828114610ca35760405163a9854bc960e01b815260040160405180910390fd5b60005b83811015610cff57610cf733868684818110610cc457610cc4613324565b9050602002016020810190610cd991906131d3565b858585818110610ceb57610ceb613324565b90506020020135611b8f565b600101610ca6565b5050505050565b600033610d14858285611cff565b610d1f858585611b8f565b60019150505b9392505050565b600082815260c96020526040902060010154610d4781611974565b610b99838361197e565b600054610100900460ff1615808015610d715750600054600160ff909116105b80610d8b5750303b158015610d8b575060005460ff166001145b610df35760405162461bcd60e51b815260206004820152602e60248201527f496e697469616c697a61626c653a20636f6e747261637420697320616c72656160448201526d191e481a5b9a5d1a585b1a5e995960921b60648201526084015b60405180910390fd5b6000805460ff191660011790558015610e16576000805461ff0019166101001790555b610e1e611d73565b610e26611d9a565b610e3588888888888888611dca565b610e3d611d73565b610e8c6040518060400160405280600f81526020016e11185c9dda5b88141c9bdd1bd8dbdb608a1b815250604051806040016040528060068152602001652220a92ba4a760d11b815250611fb9565b8015610ed2576000805461ff0019169055604051600181527f7f26b83ff96e1f2b6a682f133852f6798a09c465da95921460cefb38474024989060200160405180910390a15b5050505050505050565b6001600160a01b0381163314610f4c5760405162461bcd60e51b815260206004820152602f60248201527f416363657373436f6e74726f6c3a2063616e206f6e6c792072656e6f756e636560448201526e103937b632b9903337b91039b2b63360891b6064820152608401610dea565b610f568282611a04565b5050565b6001600160a01b037f0000000000000000000000000000000000000000000000000000000000000000163003610fa25760405162461bcd60e51b8152600401610dea9061333a565b7f00000000000000000000000000000000000000000000000000000000000000006001600160a01b0316610feb600080516020613caa833981519152546001600160a01b031690565b6001600160a01b0316146110115760405162461bcd60e51b8152600401610dea90613386565b61101a81612007565b604080516000808252602082019092526110369183919061201f565b50565b600033610bc481858561104c83836118a3565b61105691906133e8565b611a6b565b600080516020613d1183398151915261107381611974565b6b026c62ad77dc602dae0000008261108a60355490565b61109491906133e8565b11156110b35760405163d05cb60960e01b815260040160405180910390fd5b610b99838361218a565b6110c7338261224c565b8061016860008282546110da91906133e8565b909155505050565b6001600160a01b037f000000000000000000000000000000000000000000000000000000000000000016300361112a5760405162461bcd60e51b8152600401610dea9061333a565b7f00000000000000000000000000000000000000000000000000000000000000006001600160a01b0316611173600080516020613caa833981519152546001600160a01b031690565b6001600160a01b0316146111995760405162461bcd60e51b8152600401610dea90613386565b6111a282612007565b610f568282600161201f565b6000306001600160a01b037f0000000000000000000000000000000000000000000000000000000000000000161461124e5760405162461bcd60e51b815260206004820152603860248201527f555550535570677261646561626c653a206d757374206e6f742062652063616c60448201527f6c6564207468726f7567682064656c656761746563616c6c00000000000000006064820152608401610dea565b50600080516020613caa83398151915290565b600080516020613cca83398151915261127981611974565b811561129757610b99600080516020613d718339815191528461197e565b610b99600080516020613d7183398151915284611a04565b600080516020613d518339815191526112c781611974565b610164546001600160a01b0316156113385760405162461bcd60e51b815260206004820152602e60248201527f44415257494e3a2044617277696e5377617020466163746f727920616464726560448201526d1cdcc8185b1c9958591e481cd95d60921b6064820152608401610dea565b61016480546001600160a01b0319166001600160a01b038416179055610f567fdfbefbf47cfe66b701d8cfdbce1de81c821590819cb07e71cb01b6602fb0ee278361197e565b61138733612380565b610163546113a590339061010090046001600160a01b0316836123f5565b6110368161248a565b61016081815481106113bf57600080fd5b6000918252602090912001546001600160a01b0316905081565b600080516020613cca8339815191526113f181611974565b6101635460ff1661140b57610163805460ff191660011790555b6040514281527f03201d5333f14e6b008716235f97449493bbc08e25cf7d9282dd5b6e5f40a3b890602001610c78565b6001600160a01b038116600090815260336020526040812054610165546040516370a0823160e01b81526001600160a01b038581166004830152929350600092909116906370a0823190602401602060405180830381865afa1580156114a5573d6000803e3d6000fd5b505050506040513d601f19601f820116820180604052508101906114c99190613400565b6001600160a01b0384166000908152610162602052604090205490915060ff1661152c5761015f546001600160a01b0384166000908152610161602052604090205461151f919061151a84866133e8565b6124c9565b61152990836133e8565b91505b50919050565b61153a6124f7565b6115446000612551565b565b600091825260c9602090815260408084206001600160a01b0393909316845291905290205460ff1690565b606060378054610ae0906132f0565b600080516020613d5183398151915261159881611974565b610167546001600160a01b0316156116045760405162461bcd60e51b815260206004820152602960248201527f44415257494e3a2044617277696e5374616b696e67206164647265737320616c6044820152681c9958591e481cd95d60ba1b6064820152608401610dea565b61016780546001600160a01b0319166001600160a01b038416179055611629826125a3565b611641600080516020613d118339815191528361197e565b61016554604051634ed9b76960e11b81526001600160a01b03848116600483015290911690639db36ed290602401600060405180830381600087803b15801561168957600080fd5b505af115801561169d573d6000803e3d6000fd5b505050505050565b600080516020613d518339815191526116bd81611974565b610166546001600160a01b03161561172c5760405162461bcd60e51b815260206004820152602c60248201527f44415257494e3a2044617277696e4d617374657243686566206164647265737360448201526b08185b1c9958591e481cd95d60a21b6064820152608401610dea565b61016680546001600160a01b0319166001600160a01b038416179055611751826125a3565b610f56600080516020613d118339815191528361197e565b6000338161177782866118a3565b9050838110156117d75760405162461bcd60e51b815260206004820152602560248201527f45524332303a2064656372656173656420616c6c6f77616e63652062656c6f77604482015264207a65726f60d81b6064820152608401610dea565b6117e48286868403611a6b565b506001949350505050565b600033610bc4818585611b8f565b7fdfbefbf47cfe66b701d8cfdbce1de81c821590819cb07e71cb01b6602fb0ee2761182781611974565b610f56826125a3565b600080516020613cca83398151915261184881611974565b811561186657610b99600080516020613d118339815191528461197e565b610b99600080516020613d1183398151915284611a04565b600082815260c9602052604090206001015461189981611974565b610b998383611a04565b6001600160a01b03918216600090815260346020908152604080832093909416825291909152205490565b6118d66124f7565b6001600160a01b03811661193b5760405162461bcd60e51b815260206004820152602660248201527f4f776e61626c653a206e6577206f776e657220697320746865207a65726f206160448201526564647265737360d01b6064820152608401610dea565b61103681612551565b600080516020613cca83398151915261195c81611974565b811561196b57610b998361267e565b610b99836125a3565b6110368133612834565b6119888282611546565b610f5657600082815260c9602090815260408083206001600160a01b03851684529091529020805460ff191660011790556119c03390565b6001600160a01b0316816001600160a01b0316837f2f8788117e7eff1d82e926ec794901d17c78024a50270940304540a733656f0d60405160405180910390a45050565b611a0e8282611546565b15610f5657600082815260c9602090815260408083206001600160a01b0385168085529252808320805460ff1916905551339285917ff6391f5c32d9c69d2a47ea670b442974b53935d1edc7fd64eb21e047a839171b9190a45050565b6001600160a01b038316611acd5760405162461bcd60e51b8152602060048201526024808201527f45524332303a20617070726f76652066726f6d20746865207a65726f206164646044820152637265737360e01b6064820152608401610dea565b6001600160a01b038216611b2e5760405162461bcd60e51b815260206004820152602260248201527f45524332303a20617070726f766520746f20746865207a65726f206164647265604482015261737360f01b6064820152608401610dea565b6001600160a01b0383811660008181526034602090815260408083209487168084529482529182902085905590518481527f8c5be1e5ebec7d5bd14f71427d1e84f3dd0314c0f7b2291e5b200ac8c7c3b925910160405180910390a3505050565b6001600160a01b038316611bf35760405162461bcd60e51b815260206004820152602560248201527f45524332303a207472616e736665722066726f6d20746865207a65726f206164604482015264647265737360d81b6064820152608401610dea565b6001600160a01b038216611c555760405162461bcd60e51b815260206004820152602360248201527f45524332303a207472616e7366657220746f20746865207a65726f206164647260448201526265737360e81b6064820152608401610dea565b611c5f838361288d565b6001600160a01b03831660009081526033602052604090205481811015611c985760405162461bcd60e51b8152600401610dea90613419565b6001600160a01b038085166000818152603360205260408082208686039055928616808252908390208054860190559151600080516020613d3183398151915290611ce69086815260200190565b60405180910390a3611cf98484846128e5565b50505050565b6000611d0b84846118a3565b90506000198114611cf95781811015611d665760405162461bcd60e51b815260206004820152601d60248201527f45524332303a20696e73756666696369656e7420616c6c6f77616e63650000006044820152606401610dea565b611cf98484848403611a6b565b600054610100900460ff166115445760405162461bcd60e51b8152600401610dea9061345f565b600054610100900460ff16611dc15760405162461bcd60e51b8152600401610dea9061345f565b61154433612551565b600054610100900460ff16611df15760405162461bcd60e51b8152600401610dea9061345f565b600060405180602001611e0390612e63565b601f1982820381018352601f9091011660408190526bffffffffffffffffffffffff193060601b1660208201529091506000906034016040516020818303038152906040528051906020012090506000818351602085016000f561016580546001600160a01b0319166001600160a01b039290921691909117905550506101638054610100600160a81b031916743cc90773ebb2714180b424815f390d937974109b0017905550611eb3336125a3565b611ebc846125a3565b611ec5836125a3565b611ece826125a3565b611ed7876125a3565b611ee0856125a3565b611ee9816125a3565b61016354611f049061010090046001600160a01b03166125a3565b611f0d866125a3565b611f22336a376bcd471fa2312300000061218a565b611f2d60003361197e565b611f45600080516020613d518339815191523361197e565b611f5d600080516020613d718339815191523361197e565b611f75600080516020613cca8339815191528861197e565b611f8d600080516020613c8a8339815191528861197e565b611fa5600080516020613d118339815191528761197e565b5050610163805460ff191690555050505050565b600054610100900460ff16611fe05760405162461bcd60e51b8152600401610dea9061345f565b8151611ff3906036906020850190612e70565b508051610b99906037906020840190612e70565b600080516020613c8a833981519152610f5681611974565b7f4910fdfa16fed3260ed0e7147f7cc6da11a60208b5b9406d12a635614ffd91435460ff161561205257610b998361290a565b826001600160a01b03166352d1902d6040518163ffffffff1660e01b8152600401602060405180830381865afa9250505080156120ac575060408051601f3d908101601f191682019092526120a991810190613400565b60015b61210f5760405162461bcd60e51b815260206004820152602e60248201527f45524331393637557067726164653a206e657720696d706c656d656e7461746960448201526d6f6e206973206e6f74205555505360901b6064820152608401610dea565b600080516020613caa833981519152811461217e5760405162461bcd60e51b815260206004820152602960248201527f45524331393637557067726164653a20756e737570706f727465642070726f786044820152681a58589b195555525160ba1b6064820152608401610dea565b50610b998383836129a6565b6001600160a01b0382166121e05760405162461bcd60e51b815260206004820152601f60248201527f45524332303a206d696e7420746f20746865207a65726f2061646472657373006044820152606401610dea565b6121eb60008361288d565b80603560008282546121fd91906133e8565b90915550506001600160a01b038216600081815260336020908152604080832080548601905551848152600080516020613d31833981519152910160405180910390a3610f56600083836128e5565b6001600160a01b0382166122ac5760405162461bcd60e51b815260206004820152602160248201527f45524332303a206275726e2066726f6d20746865207a65726f206164647265736044820152607360f81b6064820152608401610dea565b6122b782600061288d565b6001600160a01b0382166000908152603360205260409020548181101561232b5760405162461bcd60e51b815260206004820152602260248201527f45524332303a206275726e20616d6f756e7420657863656564732062616c616e604482015261636560f01b6064820152608401610dea565b6001600160a01b0383166000818152603360209081526040808320868603905560358054879003905551858152919291600080516020613d31833981519152910160405180910390a3610b99836000846128e5565b6001600160a01b0381166000908152610162602052604090205460ff16156123a55750565b61015f546001600160a01b0382166000908152610161602052604090205480821115610b9957611cf982826123ef866001600160a01b031660009081526033602052604090205490565b866129cb565b6001600160a01b0383166000908152603360205260409020548181101561242e5760405162461bcd60e51b8152600401610dea90613419565b6001600160a01b038085166000818152603360205260408082208686039055928616808252908390208054860190559151600080516020613d318339815191529061247c9086815260200190565b60405180910390a350505050565b612492612a7b565b60355461249f91906134aa565b6124ad600160a01b836134c1565b6124b791906134e0565b61015f60008282546110da91906133e8565b6000600160a01b826124db85876134aa565b6124e591906134c1565b6124ef91906134e0565b949350505050565b6065546001600160a01b031633146115445760405162461bcd60e51b815260206004820181905260248201527f4f776e61626c653a2063616c6c6572206973206e6f7420746865206f776e65726044820152606401610dea565b606580546001600160a01b038381166001600160a01b0319831681179093556040519116919082907f8be0079c531659141344cd1fd0a4f28419497f9722a3daafe3b4186f6b6457e090600090a35050565b6001600160a01b0381166000908152610162602052604090205460ff16156125c85750565b61015f546001600160a01b03821660009081526101616020526040902054818110156126145761261282826123ef866001600160a01b031660009081526033602052604090205490565b505b50506001600160a01b0316600081815261016260205260408120805460ff19166001908117909155610160805491820181559091527fec7e130cdeeae65215fabbcddb1de429e603c4887cc659532eda903e493396630180546001600160a01b0319169091179055565b6001600160a01b0381166000908152610162602052604090205460ff166126a25750565b6001600160a01b038116600090815261016260209081526040808320805460ff191690556101608054825181850281018501909352808352919290919083018282801561271857602002820191906000526020600020905b81546001600160a01b031681526001909101906020018083116126fa575b5050505050905060005b815181101561281157826001600160a01b031682828151811061274757612747613324565b60200260200101516001600160a01b0316036127ff57816001835161276c91906134aa565b8151811061277c5761277c613324565b6020026020010151610160828154811061279857612798613324565b9060005260206000200160006101000a8154816001600160a01b0302191690836001600160a01b031602179055506101608054806127d8576127d8613502565b600082815260209020810160001990810180546001600160a01b0319169055019055612811565b8061280981613518565b915050612722565b505061015f546001600160a01b0390911660009081526101616020526040902055565b61283e8282611546565b610f565761284b81612b43565b612856836020612b55565b604051602001612867929190613531565b60408051601f198184030181529082905262461bcd60e51b8252610dea91600401612f5f565b6101635460ff1680156128b557506128b3600080516020613cca83398151915233611546565b155b156128d3576040516313d0ff5960e31b815260040160405180910390fd5b6128dc82612380565b610f5681612380565b610163546001600160a01b03610100909104811690831603610b9957610b998161248a565b6001600160a01b0381163b6129775760405162461bcd60e51b815260206004820152602d60248201527f455243313936373a206e657720696d706c656d656e746174696f6e206973206e60448201526c1bdd08184818dbdb9d1c9858dd609a1b6064820152608401610dea565b600080516020613caa83398151915280546001600160a01b0319166001600160a01b0392909216919091179055565b6129af83612cf1565b6000825111806129bc5750805b15610b9957611cf98383612d31565b6000806129d98686866124c9565b6101635461010090046001600160a01b0316600090815260336020526040902054909150811115612a28576101635461010090046001600160a01b031660009081526033602052604090205490505b6001600160a01b0383166000908152610161602052604090208690558015612a675761016354612a679061010090046001600160a01b031684836123f5565b612a7181856133e8565b9695505050505050565b600080610160805480602002602001604051908101604052809291908181526020018280548015612ad557602002820191906000526020600020905b81546001600160a01b03168152600190910190602001808311612ab7575b5050505050905060005b8151811015612b3e57612b20828281518110612afd57612afd613324565b60200260200101516001600160a01b031660009081526033602052604090205490565b612b2a90846133e8565b925080612b3681613518565b915050612adf565b505090565b6060610acb6001600160a01b03831660145b60606000612b648360026134c1565b612b6f9060026133e8565b67ffffffffffffffff811115612b8757612b876131ee565b6040519080825280601f01601f191660200182016040528015612bb1576020820181803683370190505b509050600360fc1b81600081518110612bcc57612bcc613324565b60200101906001600160f81b031916908160001a905350600f60fb1b81600181518110612bfb57612bfb613324565b60200101906001600160f81b031916908160001a9053506000612c1f8460026134c1565b612c2a9060016133e8565b90505b6001811115612ca2576f181899199a1a9b1b9c1cb0b131b232b360811b85600f1660108110612c5e57612c5e613324565b1a60f81b828281518110612c7457612c74613324565b60200101906001600160f81b031916908160001a90535060049490941c93612c9b816135a6565b9050612c2d565b508315610d255760405162461bcd60e51b815260206004820181905260248201527f537472696e67733a20686578206c656e67746820696e73756666696369656e746044820152606401610dea565b612cfa8161290a565b6040516001600160a01b038216907fbc7cd75a20ee27fd9adebab32041f755214dbc6bffa90cc0225b39da2e5c2d3b90600090a250565b60606001600160a01b0383163b612d995760405162461bcd60e51b815260206004820152602660248201527f416464726573733a2064656c65676174652063616c6c20746f206e6f6e2d636f6044820152651b9d1c9858dd60d21b6064820152608401610dea565b600080846001600160a01b031684604051612db491906135bd565b600060405180830381855af49150503d8060008114612def576040519150601f19603f3d011682016040523d82523d6000602084013e612df4565b606091505b5091509150612e1c8282604051806060016040528060278152602001613cea60279139612e25565b95945050505050565b60608315612e34575081610d25565b610d258383815115612e495781518083602001fd5b8060405162461bcd60e51b8152600401610dea9190612f5f565b6106b0806135da83390190565b828054612e7c906132f0565b90600052602060002090601f016020900481019282612e9e5760008555612ee4565b82601f10612eb757805160ff1916838001178555612ee4565b82800160010185558215612ee4579182015b82811115612ee4578251825591602001919060010190612ec9565b50612ef0929150612ef4565b5090565b5b80821115612ef05760008155600101612ef5565b600060208284031215612f1b57600080fd5b81356001600160e01b031981168114610d2557600080fd5b60005b83811015612f4e578181015183820152602001612f36565b83811115611cf95750506000910152565b6020815260008251806020840152612f7e816040850160208701612f33565b601f01601f19169190910160400192915050565b80356001600160a01b0381168114612fa957600080fd5b919050565b60008060408385031215612fc157600080fd5b612fca83612f92565b915060208301358015158114612fdf57600080fd5b809150509250929050565b60008060408385031215612ffd57600080fd5b61300683612f92565b946020939093013593505050565b60008083601f84011261302657600080fd5b50813567ffffffffffffffff81111561303e57600080fd5b6020830191508360208260051b850101111561305957600080fd5b9250929050565b6000806000806040858703121561307657600080fd5b843567ffffffffffffffff8082111561308e57600080fd5b61309a88838901613014565b909650945060208701359150808211156130b357600080fd5b506130c087828801613014565b95989497509550505050565b6000806000606084860312156130e157600080fd5b6130ea84612f92565b92506130f860208501612f92565b9150604084013590509250925092565b60006020828403121561311a57600080fd5b5035919050565b6000806040838503121561313457600080fd5b8235915061314460208401612f92565b90509250929050565b600080600080600080600060e0888a03121561316857600080fd5b61317188612f92565b965061317f60208901612f92565b955061318d60408901612f92565b945061319b60608901612f92565b93506131a960808901612f92565b92506131b760a08901612f92565b91506131c560c08901612f92565b905092959891949750929550565b6000602082840312156131e557600080fd5b610d2582612f92565b634e487b7160e01b600052604160045260246000fd5b6000806040838503121561321757600080fd5b61322083612f92565b9150602083013567ffffffffffffffff8082111561323d57600080fd5b818501915085601f83011261325157600080fd5b813581811115613263576132636131ee565b604051601f8201601f19908116603f0116810190838211818310171561328b5761328b6131ee565b816040528281528860208487010111156132a457600080fd5b8260208601602083013760006020848301015280955050505050509250929050565b600080604083850312156132d957600080fd5b6132e283612f92565b915061314460208401612f92565b600181811c9082168061330457607f821691505b60208210810361152c57634e487b7160e01b600052602260045260246000fd5b634e487b7160e01b600052603260045260246000fd5b6020808252602c908201527f46756e6374696f6e206d7573742062652063616c6c6564207468726f7567682060408201526b19195b1959d85d1958d85b1b60a21b606082015260800190565b6020808252602c908201527f46756e6374696f6e206d7573742062652063616c6c6564207468726f7567682060408201526b6163746976652070726f787960a01b606082015260800190565b634e487b7160e01b600052601160045260246000fd5b600082198211156133fb576133fb6133d2565b500190565b60006020828403121561341257600080fd5b5051919050565b60208082526026908201527f45524332303a207472616e7366657220616d6f756e7420657863656564732062604082015265616c616e636560d01b606082015260800190565b6020808252602b908201527f496e697469616c697a61626c653a20636f6e7472616374206973206e6f74206960408201526a6e697469616c697a696e6760a81b606082015260800190565b6000828210156134bc576134bc6133d2565b500390565b60008160001904831182151516156134db576134db6133d2565b500290565b6000826134fd57634e487b7160e01b600052601260045260246000fd5b500490565b634e487b7160e01b600052603160045260246000fd5b60006001820161352a5761352a6133d2565b5060010190565b7f416363657373436f6e74726f6c3a206163636f756e7420000000000000000000815260008351613569816017850160208801612f33565b7001034b99036b4b9b9b4b733903937b6329607d1b601791840191820152835161359a816028840160208801612f33565b01602801949350505050565b6000816135b5576135b56133d2565b506000190190565b600082516135cf818460208701612f33565b919091019291505056fe60a060405234801561001057600080fd5b50336080526080516106796100376000396000818161010a01526102cd01526106796000f3fe608060405234801561001057600080fd5b506004361061009e5760003560e01c806370a082311161006657806370a082311461017357806384789b521461019357806395d89b41146101a65780639db36ed2146101cc5780639dc29fac146101df57600080fd5b806306fdde03146100a357806318160ddd146100ee5780633110c79214610105578063313ce5671461014457806340c10f191461015e575b600080fd5b6100d86040518060400160405280601681526020017514dd185ad9590811185c9dda5b88141c9bdd1bd8dbdb60521b81525081565b6040516100e59190610541565b60405180910390f35b6100f760015481565b6040519081526020016100e5565b61012c7f000000000000000000000000000000000000000000000000000000000000000081565b6040516001600160a01b0390911681526020016100e5565b61014c601281565b60405160ff90911681526020016100e5565b61017161016c3660046105b2565b6101f2565b005b6100f76101813660046105dc565b60026020526000908152604090205481565b60005461012c906001600160a01b031681565b6100d86040518060400160405280600781526020016639a220a92ba4a760c91b81525081565b6101716101da3660046105dc565b61025f565b6101716101ed3660046105b2565b61035c565b6000546001600160a01b031633146102515760405162461bcd60e51b815260206004820181905260248201527f5374616b656444617277696e3a2043414c4c45525f4e4f545f5354414b494e4760448201526064015b60405180910390fd5b61025b82826103c0565b5050565b6000546001600160a01b0316156102c25760405162461bcd60e51b815260206004820152602160248201527f5374616b656444617277696e3a205354414b494e475f414c52454144595f53456044820152601560fa1b6064820152608401610248565b336001600160a01b037f0000000000000000000000000000000000000000000000000000000000000000161461033a5760405162461bcd60e51b815260206004820152601f60248201527f5374616b656444617277696e3a2043414c4c45525f4e4f545f44415257494e006044820152606401610248565b600080546001600160a01b0319166001600160a01b0392909216919091179055565b6000546001600160a01b031633146103b65760405162461bcd60e51b815260206004820181905260248201527f5374616b656444617277696e3a2043414c4c45525f4e4f545f5354414b494e476044820152606401610248565b61025b828261044a565b80600160008282546103d29190610614565b90915550506001600160a01b038216600090815260026020526040812080548392906103ff908490610614565b90915550506040518181526001600160a01b038316906000907fddf252ad1be2c89b69c2b068fc378daa952ba7f163c4a11628f55a4df523b3ef906020015b60405180910390a35050565b6001600160a01b0382166000908152600260205260409020548111156104bd5760405162461bcd60e51b815260206004820152602260248201527f5374616b656444617277696e3a204255524e5f455843454544535f42414c414e604482015261434560f01b6064820152608401610248565b6001600160a01b038216600090815260026020526040812080548392906104e590849061062c565b9250508190555080600160008282546104fe919061062c565b90915550506040518181526000906001600160a01b038416907fddf252ad1be2c89b69c2b068fc378daa952ba7f163c4a11628f55a4df523b3ef9060200161043e565b600060208083528351808285015260005b8181101561056e57858101830151858201604001528201610552565b81811115610580576000604083870101525b50601f01601f1916929092016040019392505050565b80356001600160a01b03811681146105ad57600080fd5b919050565b600080604083850312156105c557600080fd5b6105ce83610596565b946020939093013593505050565b6000602082840312156105ee57600080fd5b6105f782610596565b9392505050565b634e487b7160e01b600052601160045260246000fd5b60008219821115610627576106276105fe565b500190565b60008282101561063e5761063e6105fe565b50039056fea2646970667358221220a0b3a439829f9b51e30d1926dac7413ef7d0fd190d15b36c45591f334ebc830a64736f6c634300080e0033189ab7a9244df0848122154315af71fe140f3db0fe014031783b0946b8c9d2e3360894a13ba1a3210667c828492db98dca3e2076cc3735a920a3ca505d382bbc78afd8eb771d7501d125738bdabc2c1f8b945a7e4fcba88e940ac2d88fb25666416464726573733a206c6f772d6c6576656c2064656c65676174652063616c6c206661696c65649f2df0fed2c77648de5860a4cc508cd0818c85b8b8a1ab4ceeef8d981c8956a6ddf252ad1be2c89b69c2b068fc378daa952ba7f163c4a11628f55a4df523b3efb06fd1d7ac3cc9ad93e77413fab9fcd3bbd887f5685e519e34e0e80802d074ee4698baa05b306e3e5e3fa66d29891e203a1418ef5bee962e2c9b109f129e8920a2646970667358221220753cd1e4b098758c437eedb4a0ccc968aa1a19e00b431caa72ec378ed39cb52a64736f6c634300080e0033",
  "linkReferences": {},
  "deployedLinkReferences": {}
}