{
  "_format": "hh-sol-artifact-1",
  "contractName": "Darwin",
  "sourceName": "contracts/Darwin.sol",
  "abi": [
    {
      "inputs": [],
      "name": "AccountAlreadyExcluded",
      "type": "error"
    },
    {
      "inputs": [],
      "name": "AccountNotExcluded",
      "type": "error"
    },
    {
      "inputs": [],
      "name": "HoldingLimitExceeded",
      "type": "error"
    },
    {
      "inputs": [],
      "name": "InsufficientAllowance",
      "type": "error"
    },
    {
      "inputs": [],
      "name": "InvalidArrayLengths",
      "type": "error"
    },
    {
      "inputs": [],
      "name": "MaxSupplyReached",
      "type": "error"
    },
    {
      "inputs": [],
      "name": "OnlyDarwinCommunity",
      "type": "error"
    },
    {
      "inputs": [],
      "name": "Paused",
      "type": "error"
    },
    {
      "inputs": [],
      "name": "SellLimitExceeded",
      "type": "error"
    },
    {
      "inputs": [],
      "name": "ZeroAddress",
      "type": "error"
    },
    {
      "inputs": [],
      "name": "ZeroAmount",
      "type": "error"
    },
    {
      "anonymous": false,
      "inputs": [
        {
          "indexed": false,
          "internalType": "address",
          "name": "previousAdmin",
          "type": "address"
        },
        {
          "indexed": false,
          "internalType": "address",
          "name": "newAdmin",
          "type": "address"
        }
      ],
      "name": "AdminChanged",
      "type": "event"
    },
    {
      "anonymous": false,
      "inputs": [
        {
          "indexed": true,
          "internalType": "address",
          "name": "owner",
          "type": "address"
        },
        {
          "indexed": true,
          "internalType": "address",
          "name": "spender",
          "type": "address"
        },
        {
          "indexed": false,
          "internalType": "uint256",
          "name": "value",
          "type": "uint256"
        }
      ],
      "name": "Approval",
      "type": "event"
    },
    {
      "anonymous": false,
      "inputs": [
        {
          "indexed": true,
          "internalType": "address",
          "name": "beacon",
          "type": "address"
        }
      ],
      "name": "BeaconUpgraded",
      "type": "event"
    },
    {
      "anonymous": false,
      "inputs": [
        {
          "indexed": false,
          "internalType": "address",
          "name": "account",
          "type": "address"
        },
        {
          "indexed": false,
          "internalType": "bool",
          "name": "isExcluded",
          "type": "bool"
        }
      ],
      "name": "ExcludedFromReflection",
      "type": "event"
    },
    {
      "anonymous": false,
      "inputs": [
        {
          "indexed": false,
          "internalType": "uint8",
          "name": "version",
          "type": "uint8"
        }
      ],
      "name": "Initialized",
      "type": "event"
    },
    {
      "anonymous": false,
      "inputs": [
        {
          "indexed": true,
          "internalType": "address",
          "name": "previousOwner",
          "type": "address"
        },
        {
          "indexed": true,
          "internalType": "address",
          "name": "newOwner",
          "type": "address"
        }
      ],
      "name": "OwnershipTransferred",
      "type": "event"
    },
    {
      "anonymous": false,
      "inputs": [
        {
          "indexed": true,
          "internalType": "bytes32",
          "name": "role",
          "type": "bytes32"
        },
        {
          "indexed": true,
          "internalType": "bytes32",
          "name": "previousAdminRole",
          "type": "bytes32"
        },
        {
          "indexed": true,
          "internalType": "bytes32",
          "name": "newAdminRole",
          "type": "bytes32"
        }
      ],
      "name": "RoleAdminChanged",
      "type": "event"
    },
    {
      "anonymous": false,
      "inputs": [
        {
          "indexed": true,
          "internalType": "bytes32",
          "name": "role",
          "type": "bytes32"
        },
        {
          "indexed": true,
          "internalType": "address",
          "name": "account",
          "type": "address"
        },
        {
          "indexed": true,
          "internalType": "address",
          "name": "sender",
          "type": "address"
        }
      ],
      "name": "RoleGranted",
      "type": "event"
    },
    {
      "anonymous": false,
      "inputs": [
        {
          "indexed": true,
          "internalType": "bytes32",
          "name": "role",
          "type": "bytes32"
        },
        {
          "indexed": true,
          "internalType": "address",
          "name": "account",
          "type": "address"
        },
        {
          "indexed": true,
          "internalType": "address",
          "name": "sender",
          "type": "address"
        }
      ],
      "name": "RoleRevoked",
      "type": "event"
    },
    {
      "anonymous": false,
      "inputs": [
        {
          "indexed": false,
          "internalType": "uint256",
          "name": "timestamp",
          "type": "uint256"
        }
      ],
      "name": "SetPaused",
      "type": "event"
    },
    {
      "anonymous": false,
      "inputs": [
        {
          "indexed": false,
          "internalType": "uint256",
          "name": "timestamp",
          "type": "uint256"
        }
      ],
      "name": "SetUnpaused",
      "type": "event"
    },
    {
      "anonymous": false,
      "inputs": [
        {
          "indexed": true,
          "internalType": "address",
          "name": "from",
          "type": "address"
        },
        {
          "indexed": true,
          "internalType": "address",
          "name": "to",
          "type": "address"
        },
        {
          "indexed": false,
          "internalType": "uint256",
          "name": "value",
          "type": "uint256"
        }
      ],
      "name": "Transfer",
      "type": "event"
    },
    {
      "anonymous": false,
      "inputs": [
        {
          "indexed": true,
          "internalType": "address",
          "name": "implementation",
          "type": "address"
        }
      ],
      "name": "Upgraded",
      "type": "event"
    },
    {
      "inputs": [],
      "name": "COMMUNITY_ROLE",
      "outputs": [
        {
          "internalType": "bytes32",
          "name": "",
          "type": "bytes32"
        }
      ],
      "stateMutability": "view",
      "type": "function"
    },
    {
      "inputs": [],
      "name": "DEFAULT_ADMIN_ROLE",
      "outputs": [
        {
          "internalType": "bytes32",
          "name": "",
          "type": "bytes32"
        }
      ],
      "stateMutability": "view",
      "type": "function"
    },
    {
      "inputs": [],
      "name": "DEPLOYER_PERCENTAGE",
      "outputs": [
        {
          "internalType": "uint256",
          "name": "",
          "type": "uint256"
        }
      ],
      "stateMutability": "view",
      "type": "function"
    },
    {
      "inputs": [],
      "name": "FACTORY_ROLE",
      "outputs": [
        {
          "internalType": "bytes32",
          "name": "",
          "type": "bytes32"
        }
      ],
      "stateMutability": "view",
      "type": "function"
    },
    {
      "inputs": [],
      "name": "INITIAL_SUPPLY",
      "outputs": [
        {
          "internalType": "uint256",
          "name": "",
          "type": "uint256"
        }
      ],
      "stateMutability": "view",
      "type": "function"
    },
    {
      "inputs": [],
      "name": "KIERAN_PERCENTAGE",
      "outputs": [
        {
          "internalType": "uint256",
          "name": "",
          "type": "uint256"
        }
      ],
      "stateMutability": "view",
      "type": "function"
    },
    {
      "inputs": [],
      "name": "MAINTENANCE_ROLE",
      "outputs": [
        {
          "internalType": "bytes32",
          "name": "",
          "type": "bytes32"
        }
      ],
      "stateMutability": "view",
      "type": "function"
    },
    {
      "inputs": [],
      "name": "MAX_SUPPLY",
      "outputs": [
        {
          "internalType": "uint256",
          "name": "",
          "type": "uint256"
        }
      ],
      "stateMutability": "view",
      "type": "function"
    },
    {
      "inputs": [],
      "name": "MINTER_ROLE",
      "outputs": [
        {
          "internalType": "bytes32",
          "name": "",
          "type": "bytes32"
        }
      ],
      "stateMutability": "view",
      "type": "function"
    },
    {
      "inputs": [],
      "name": "SECURITY_ROLE",
      "outputs": [
        {
          "internalType": "bytes32",
          "name": "",
          "type": "bytes32"
        }
      ],
      "stateMutability": "view",
      "type": "function"
    },
    {
      "inputs": [],
      "name": "UPGRADER_ROLE",
      "outputs": [
        {
          "internalType": "bytes32",
          "name": "",
          "type": "bytes32"
        }
      ],
      "stateMutability": "view",
      "type": "function"
    },
    {
      "inputs": [],
      "name": "WALLET1_PECENTAGE",
      "outputs": [
        {
          "internalType": "uint256",
          "name": "",
          "type": "uint256"
        }
      ],
      "stateMutability": "view",
      "type": "function"
    },
    {
      "inputs": [
        {
          "internalType": "address",
          "name": "owner",
          "type": "address"
        },
        {
          "internalType": "address",
          "name": "spender",
          "type": "address"
        }
      ],
      "name": "allowance",
      "outputs": [
        {
          "internalType": "uint256",
          "name": "",
          "type": "uint256"
        }
      ],
      "stateMutability": "view",
      "type": "function"
    },
    {
      "inputs": [
        {
          "internalType": "address",
          "name": "spender",
          "type": "address"
        },
        {
          "internalType": "uint256",
          "name": "amount",
          "type": "uint256"
        }
      ],
      "name": "approve",
      "outputs": [
        {
          "internalType": "bool",
          "name": "",
          "type": "bool"
        }
      ],
      "stateMutability": "nonpayable",
      "type": "function"
    },
    {
      "inputs": [
        {
          "internalType": "address",
          "name": "account",
          "type": "address"
        }
      ],
      "name": "balanceOf",
      "outputs": [
        {
          "internalType": "uint256",
          "name": "balance",
          "type": "uint256"
        }
      ],
      "stateMutability": "view",
      "type": "function"
    },
    {
      "inputs": [
        {
          "internalType": "address[]",
          "name": "recipients",
          "type": "address[]"
        },
        {
          "internalType": "uint256[]",
          "name": "amounts",
          "type": "uint256[]"
        }
      ],
      "name": "bulkTransfer",
      "outputs": [],
      "stateMutability": "nonpayable",
      "type": "function"
    },
    {
      "inputs": [
        {
          "internalType": "uint256",
          "name": "amount",
          "type": "uint256"
        }
      ],
      "name": "burn",
      "outputs": [],
      "stateMutability": "nonpayable",
      "type": "function"
    },
    {
      "inputs": [],
      "name": "communityPause",
      "outputs": [],
      "stateMutability": "nonpayable",
      "type": "function"
    },
    {
      "inputs": [],
      "name": "communityUnPause",
      "outputs": [],
      "stateMutability": "nonpayable",
      "type": "function"
    },
    {
      "inputs": [],
      "name": "culmulativeRewardPerToken",
      "outputs": [
        {
          "internalType": "uint256",
          "name": "",
          "type": "uint256"
        }
      ],
      "stateMutability": "view",
      "type": "function"
    },
    {
      "inputs": [],
      "name": "darwinStaking",
      "outputs": [
        {
          "internalType": "address",
          "name": "",
          "type": "address"
        }
      ],
      "stateMutability": "view",
      "type": "function"
    },
    {
      "inputs": [],
      "name": "darwinSwapFactory",
      "outputs": [
        {
          "internalType": "contract IUniswapV2Factory",
          "name": "",
          "type": "address"
        }
      ],
      "stateMutability": "view",
      "type": "function"
    },
    {
      "inputs": [],
      "name": "decimals",
      "outputs": [
        {
          "internalType": "uint8",
          "name": "",
          "type": "uint8"
        }
      ],
      "stateMutability": "view",
      "type": "function"
    },
    {
      "inputs": [
        {
          "internalType": "address",
          "name": "spender",
          "type": "address"
        },
        {
          "internalType": "uint256",
          "name": "subtractedValue",
          "type": "uint256"
        }
      ],
      "name": "decreaseAllowance",
      "outputs": [
        {
          "internalType": "bool",
          "name": "",
          "type": "bool"
        }
      ],
      "stateMutability": "nonpayable",
      "type": "function"
    },
    {
      "inputs": [
        {
          "internalType": "uint256",
          "name": "amount",
          "type": "uint256"
        }
      ],
      "name": "distributeRewards",
      "outputs": [],
      "stateMutability": "nonpayable",
      "type": "function"
    },
    {
      "inputs": [
        {
          "internalType": "uint256",
          "name": "",
          "type": "uint256"
        }
      ],
      "name": "excludedFromRewards",
      "outputs": [
        {
          "internalType": "address",
          "name": "",
          "type": "address"
        }
      ],
      "stateMutability": "view",
      "type": "function"
    },
    {
      "inputs": [
        {
          "internalType": "bytes32",
          "name": "role",
          "type": "bytes32"
        }
      ],
      "name": "getRoleAdmin",
      "outputs": [
        {
          "internalType": "bytes32",
          "name": "",
          "type": "bytes32"
        }
      ],
      "stateMutability": "view",
      "type": "function"
    },
    {
      "inputs": [
        {
          "internalType": "bytes32",
          "name": "role",
          "type": "bytes32"
        },
        {
          "internalType": "address",
          "name": "account",
          "type": "address"
        }
      ],
      "name": "grantRole",
      "outputs": [],
      "stateMutability": "nonpayable",
      "type": "function"
    },
    {
      "inputs": [
        {
          "internalType": "bytes32",
          "name": "role",
          "type": "bytes32"
        },
        {
          "internalType": "address",
          "name": "account",
          "type": "address"
        }
      ],
      "name": "hasRole",
      "outputs": [
        {
          "internalType": "bool",
          "name": "",
          "type": "bool"
        }
      ],
      "stateMutability": "view",
      "type": "function"
    },
    {
      "inputs": [
        {
          "internalType": "address",
          "name": "spender",
          "type": "address"
        },
        {
          "internalType": "uint256",
          "name": "addedValue",
          "type": "uint256"
        }
      ],
      "name": "increaseAllowance",
      "outputs": [
        {
          "internalType": "bool",
          "name": "",
          "type": "bool"
        }
      ],
      "stateMutability": "nonpayable",
      "type": "function"
    },
    {
      "inputs": [
        {
          "internalType": "address",
          "name": "_darwinCommunity",
          "type": "address"
        },
        {
          "internalType": "address",
          "name": "_vester5",
          "type": "address"
        },
        {
          "internalType": "address",
          "name": "_vester7",
          "type": "address"
        },
        {
          "internalType": "address",
          "name": "_wallet1",
          "type": "address"
        },
        {
          "internalType": "address",
          "name": "_kieran",
          "type": "address"
        },
        {
          "internalType": "address",
          "name": "_charity",
          "type": "address"
        },
        {
          "internalType": "address",
          "name": "_giveaway",
          "type": "address"
        },
        {
          "internalType": "address",
          "name": "_bounties",
          "type": "address"
        },
        {
          "internalType": "address",
          "name": "_darwinDrop",
          "type": "address"
        },
        {
          "internalType": "uint256",
          "name": "_darwinSoldInPresale",
          "type": "uint256"
        }
      ],
      "name": "initialize",
      "outputs": [],
      "stateMutability": "nonpayable",
      "type": "function"
    },
    {
      "inputs": [],
      "name": "isPaused",
      "outputs": [
        {
          "internalType": "bool",
          "name": "",
          "type": "bool"
        }
      ],
      "stateMutability": "view",
      "type": "function"
    },
    {
      "inputs": [],
      "name": "masterChef",
      "outputs": [
        {
          "internalType": "address",
          "name": "",
          "type": "address"
        }
      ],
      "stateMutability": "view",
      "type": "function"
    },
    {
      "inputs": [
        {
          "internalType": "address",
          "name": "account",
          "type": "address"
        },
        {
          "internalType": "uint256",
          "name": "amount",
          "type": "uint256"
        }
      ],
      "name": "mint",
      "outputs": [],
      "stateMutability": "nonpayable",
      "type": "function"
    },
    {
      "inputs": [],
      "name": "name",
      "outputs": [
        {
          "internalType": "string",
          "name": "",
          "type": "string"
        }
      ],
      "stateMutability": "view",
      "type": "function"
    },
    {
      "inputs": [],
      "name": "owner",
      "outputs": [
        {
          "internalType": "address",
          "name": "",
          "type": "address"
        }
      ],
      "stateMutability": "view",
      "type": "function"
    },
    {
      "inputs": [],
      "name": "proxiableUUID",
      "outputs": [
        {
          "internalType": "bytes32",
          "name": "",
          "type": "bytes32"
        }
      ],
      "stateMutability": "view",
      "type": "function"
    },
    {
      "inputs": [
        {
          "internalType": "address",
          "name": "_pair",
          "type": "address"
        }
      ],
      "name": "registerDarwinSwapPair",
      "outputs": [],
      "stateMutability": "nonpayable",
      "type": "function"
    },
    {
      "inputs": [],
      "name": "renounceOwnership",
      "outputs": [],
      "stateMutability": "nonpayable",
      "type": "function"
    },
    {
      "inputs": [
        {
          "internalType": "bytes32",
          "name": "role",
          "type": "bytes32"
        },
        {
          "internalType": "address",
          "name": "account",
          "type": "address"
        }
      ],
      "name": "renounceRole",
      "outputs": [],
      "stateMutability": "nonpayable",
      "type": "function"
    },
    {
      "inputs": [
        {
          "internalType": "bytes32",
          "name": "role",
          "type": "bytes32"
        },
        {
          "internalType": "address",
          "name": "account",
          "type": "address"
        }
      ],
      "name": "revokeRole",
      "outputs": [],
      "stateMutability": "nonpayable",
      "type": "function"
    },
    {
      "inputs": [],
      "name": "rewardsWallet",
      "outputs": [
        {
          "internalType": "address",
          "name": "",
          "type": "address"
        }
      ],
      "stateMutability": "view",
      "type": "function"
    },
    {
      "inputs": [
        {
          "internalType": "address",
          "name": "_darwinStaking",
          "type": "address"
        }
      ],
      "name": "setDarwinStaking",
      "outputs": [],
      "stateMutability": "nonpayable",
      "type": "function"
    },
    {
      "inputs": [
        {
          "internalType": "address",
          "name": "_darwinSwapFactory",
          "type": "address"
        }
      ],
      "name": "setDarwinSwapFactory",
      "outputs": [],
      "stateMutability": "nonpayable",
      "type": "function"
    },
    {
      "inputs": [
        {
          "internalType": "address",
          "name": "_account",
          "type": "address"
        },
        {
          "internalType": "bool",
          "name": "_hasRole",
          "type": "bool"
        }
      ],
      "name": "setMaintenance",
      "outputs": [],
      "stateMutability": "nonpayable",
      "type": "function"
    },
    {
      "inputs": [
        {
          "internalType": "address",
          "name": "_masterChef",
          "type": "address"
        }
      ],
      "name": "setMasterChef",
      "outputs": [],
      "stateMutability": "nonpayable",
      "type": "function"
    },
    {
      "inputs": [
        {
          "internalType": "address",
          "name": "user_",
          "type": "address"
        },
        {
          "internalType": "bool",
          "name": "canMint_",
          "type": "bool"
        }
      ],
      "name": "setMinter",
      "outputs": [],
      "stateMutability": "nonpayable",
      "type": "function"
    },
    {
      "inputs": [
        {
          "internalType": "address",
          "name": "account",
          "type": "address"
        },
        {
          "internalType": "bool",
          "name": "shouldReceive",
          "type": "bool"
        }
      ],
      "name": "setReceiveRewards",
      "outputs": [],
      "stateMutability": "nonpayable",
      "type": "function"
    },
    {
      "inputs": [
        {
          "internalType": "address",
          "name": "_account",
          "type": "address"
        },
        {
          "internalType": "bool",
          "name": "_hasRole",
          "type": "bool"
        }
      ],
      "name": "setSecurity",
      "outputs": [],
      "stateMutability": "nonpayable",
      "type": "function"
    },
    {
      "inputs": [
        {
          "internalType": "address",
          "name": "_account",
          "type": "address"
        },
        {
          "internalType": "bool",
          "name": "_hasRole",
          "type": "bool"
        }
      ],
      "name": "setUpgrader",
      "outputs": [],
      "stateMutability": "nonpayable",
      "type": "function"
    },
    {
      "inputs": [],
      "name": "stakedDarwin",
      "outputs": [
        {
          "internalType": "contract IStakedDarwin",
          "name": "",
          "type": "address"
        }
      ],
      "stateMutability": "view",
      "type": "function"
    },
    {
      "inputs": [
        {
          "internalType": "bytes4",
          "name": "interfaceId",
          "type": "bytes4"
        }
      ],
      "name": "supportsInterface",
      "outputs": [
        {
          "internalType": "bool",
          "name": "",
          "type": "bool"
        }
      ],
      "stateMutability": "view",
      "type": "function"
    },
    {
      "inputs": [],
      "name": "symbol",
      "outputs": [
        {
          "internalType": "string",
          "name": "",
          "type": "string"
        }
      ],
      "stateMutability": "view",
      "type": "function"
    },
    {
      "inputs": [],
      "name": "totalBurnt",
      "outputs": [
        {
          "internalType": "uint256",
          "name": "",
          "type": "uint256"
        }
      ],
      "stateMutability": "view",
      "type": "function"
    },
    {
      "inputs": [],
      "name": "totalSupply",
      "outputs": [
        {
          "internalType": "uint256",
          "name": "",
          "type": "uint256"
        }
      ],
      "stateMutability": "view",
      "type": "function"
    },
    {
      "inputs": [
        {
          "internalType": "address",
          "name": "to",
          "type": "address"
        },
        {
          "internalType": "uint256",
          "name": "amount",
          "type": "uint256"
        }
      ],
      "name": "transfer",
      "outputs": [
        {
          "internalType": "bool",
          "name": "",
          "type": "bool"
        }
      ],
      "stateMutability": "nonpayable",
      "type": "function"
    },
    {
      "inputs": [
        {
          "internalType": "address",
          "name": "from",
          "type": "address"
        },
        {
          "internalType": "address",
          "name": "to",
          "type": "address"
        },
        {
          "internalType": "uint256",
          "name": "amount",
          "type": "uint256"
        }
      ],
      "name": "transferFrom",
      "outputs": [
        {
          "internalType": "bool",
          "name": "",
          "type": "bool"
        }
      ],
      "stateMutability": "nonpayable",
      "type": "function"
    },
    {
      "inputs": [
        {
          "internalType": "address",
          "name": "newOwner",
          "type": "address"
        }
      ],
      "name": "transferOwnership",
      "outputs": [],
      "stateMutability": "nonpayable",
      "type": "function"
    },
    {
      "inputs": [
        {
          "internalType": "address",
          "name": "newImplementation",
          "type": "address"
        }
      ],
      "name": "upgradeTo",
      "outputs": [],
      "stateMutability": "nonpayable",
      "type": "function"
    },
    {
      "inputs": [
        {
          "internalType": "address",
          "name": "newImplementation",
          "type": "address"
        },
        {
          "internalType": "bytes",
          "name": "data",
          "type": "bytes"
        }
      ],
      "name": "upgradeToAndCall",
      "outputs": [],
      "stateMutability": "payable",
      "type": "function"
    }
  ],
  "bytecode": "0x60a06040523060805234801561001457600080fd5b50608051613f8f61004c60003960008181610e4001528181610e80015281816111540152818161119401526112230152613f8f6000f3fe6080604052600436106103975760003560e01c80635b35f9c9116101dc578063a2d9f4dc11610102578063d5391393116100a0578063df04c5901161006f578063df04c59014610a85578063f2fde38b14610a9a578063f40daafd14610aba578063f72c0d8b14610ada57600080fd5b8063d539139314610a01578063d547741f14610a23578063dbe1065514610a43578063dd62ed3e14610a6557600080fd5b8063a9059cbb116100dc578063a9059cbb14610986578063b187bd26146109a6578063c58ce886146109c1578063cf456ae7146109e157600080fd5b8063a2d9f4dc1461092f578063a457c2d71461094f578063a5e7a0031461096f57600080fd5b80638da5cb5b1161017a5780639aa77731116101495780639aa77731146108b75780639db36ed2146108d9578063a1471686146108f9578063a217fddf1461091a57600080fd5b80638da5cb5b1461084d57806391d148541461086b57806395d89b411461088b578063966ff650146108a057600080fd5b806370a08231116101b657806370a08231146107e1578063715018a61461080157806384789b521461081657806386aa55d71461083757600080fd5b80635b35f9c9146107865780636139b87f146107ac5780636696821b146107cc57600080fd5b8063313ce567116102c157806342966c681161025f57806354ed36791161022e57806354ed36791461070557806356e26c6314610725578063575a86b21461074557806359974e381461076657600080fd5b806342966c681461069d57806349d76e6d146106bd5780634f1ef286146106dd57806352d1902d146106f057600080fd5b80633659cfe61161029b5780633659cfe614610604578063395093511461062457806340c10f19146106445780634233531e1461066457600080fd5b8063313ce567146105a857806332cb6b0c146105c457806336568abe146105e457600080fd5b80630dcf46611161033957806323b872dd1161030857806323b872dd14610519578063248a9ca3146105395780632f2ff15d146105695780632ff2e9dc1461058957600080fd5b80630dcf4661146104ac578063153a1f3e146104c257806318160ddd146104e25780631dec5e07146104f757600080fd5b806307eddd471161037557806307eddd4714610435578063095ea7b3146104575780630bfa8dfd146104775780630dab5b891461049757600080fd5b806301ffc9a71461039c57806304a0fb17146103d157806306fdde0314610413575b600080fd5b3480156103a857600080fd5b506103bc6103b73660046130a5565b610afc565b60405190151581526020015b60405180910390f35b3480156103dd57600080fd5b506104057fdfbefbf47cfe66b701d8cfdbce1de81c821590819cb07e71cb01b6602fb0ee2781565b6040519081526020016103c8565b34801561041f57600080fd5b50610428610b33565b6040516103c891906130fb565b34801561044157600080fd5b5061045561045036600461314a565b610bc5565b005b34801561046357600080fd5b506103bc610472366004613186565b610c18565b34801561048357600080fd5b5061045561049236600461314a565b610c30565b3480156104a357600080fd5b50610455610c7e565b3480156104b857600080fd5b5061040561177081565b3480156104ce57600080fd5b506104556104dd3660046131fc565b610ce5565b3480156104ee57600080fd5b50603554610405565b34801561050357600080fd5b50610405600080516020613f1a83398151915281565b34801561052557600080fd5b506103bc610534366004613268565b610d68565b34801561054557600080fd5b506104056105543660046132a4565b600090815260c9602052604090206001015490565b34801561057557600080fd5b506104556105843660046132bd565b610d8e565b34801561059557600080fd5b506104056a422ca8b0a00a425000000081565b3480156105b457600080fd5b50604051601281526020016103c8565b3480156105d057600080fd5b506104056b026c62ad77dc602dae00000081565b3480156105f057600080fd5b506104556105ff3660046132bd565b610db3565b34801561061057600080fd5b5061045561061f3660046132e9565b610e36565b34801561063057600080fd5b506103bc61063f366004613186565b610f15565b34801561065057600080fd5b5061045561065f366004613186565b610f37565b34801561067057600080fd5b5061016554610685906001600160a01b031681565b6040516001600160a01b0390911681526020016103c8565b3480156106a957600080fd5b506104556106b83660046132a4565b610f99565b3480156106c957600080fd5b506104556106d8366004613304565b610fbe565b6104556106eb3660046133cd565b61114a565b3480156106fc57600080fd5b50610405611216565b34801561071157600080fd5b5061045561072036600461314a565b6112c9565b34801561073157600080fd5b506104556107403660046132e9565b611317565b34801561075157600080fd5b5061016654610685906001600160a01b031681565b34801561077257600080fd5b506104556107813660046132a4565b6113e6565b34801561079257600080fd5b50610163546106859061010090046001600160a01b031681565b3480156107b857600080fd5b506106856107c73660046132a4565b611416565b3480156107d857600080fd5b50610455611441565b3480156107ed57600080fd5b506104056107fc3660046132e9565b6114a3565b34801561080d57600080fd5b5061045561159a565b34801561082257600080fd5b5061016754610685906001600160a01b031681565b34801561084357600080fd5b506104056103e881565b34801561085957600080fd5b506065546001600160a01b0316610685565b34801561087757600080fd5b506103bc6108863660046132bd565b6115ae565b34801561089757600080fd5b506104286115d9565b3480156108ac57600080fd5b506104056101685481565b3480156108c357600080fd5b50610405600080516020613e9383398151915281565b3480156108e557600080fd5b506104556108f43660046132e9565b6115e8565b34801561090557600080fd5b5061016454610685906001600160a01b031681565b34801561092657600080fd5b50610405600081565b34801561093b57600080fd5b5061045561094a3660046132e9565b61170d565b34801561095b57600080fd5b506103bc61096a366004613186565b6117d1565b34801561097b57600080fd5b5061040561015f5481565b34801561099257600080fd5b506103bc6109a1366004613186565b611857565b3480156109b257600080fd5b50610163546103bc9060ff1681565b3480156109cd57600080fd5b506104556109dc3660046132e9565b611865565b3480156109ed57600080fd5b506104556109fc36600461314a565b611898565b348015610a0d57600080fd5b50610405600080516020613eda83398151915281565b348015610a2f57600080fd5b50610455610a3e3660046132bd565b6118e6565b348015610a4f57600080fd5b50610405600080516020613f3a83398151915281565b348015610a7157600080fd5b50610405610a8036600461348f565b61190b565b348015610a9157600080fd5b50610405601481565b348015610aa657600080fd5b50610455610ab53660046132e9565b611936565b348015610ac657600080fd5b50610455610ad536600461314a565b6119ac565b348015610ae657600080fd5b50610405600080516020613e5383398151915281565b60006001600160e01b03198216637965db0b60e01b1480610b2d57506301ffc9a760e01b6001600160e01b03198316145b92915050565b606060368054610b42906134b9565b80601f0160208091040260200160405190810160405280929190818152602001828054610b6e906134b9565b8015610bbb5780601f10610b9057610100808354040283529160200191610bbb565b820191906000526020600020905b815481529060010190602001808311610b9e57829003601f168201915b5050505050905090565b600080516020613e93833981519152610bdd816119dc565b8115610c0057610bfb600080516020613e53833981519152846119e6565b505050565b610bfb600080516020613e5383398151915284611a6c565b600033610c26818585611ad3565b5060019392505050565b600080516020613e93833981519152610c48816119dc565b8115610c6657610bfb600080516020613f1a833981519152846119e6565b610bfb600080516020613f1a83398151915284611a6c565b600080516020613e93833981519152610c96816119dc565b6101635460ff1615610cae57610163805460ff191690555b6040514281527fe4613ba0dfa18e3aefeaf8f3dca9b092edcc3588780e22b06960f54e6baf6c57906020015b60405180910390a150565b828114610d055760405163a9854bc960e01b815260040160405180910390fd5b60005b83811015610d6157610d5933868684818110610d2657610d266134ed565b9050602002016020810190610d3b91906132e9565b858585818110610d4d57610d4d6134ed565b90506020020135611bf7565b600101610d08565b5050505050565b600033610d76858285611d67565b610d81858585611bf7565b60019150505b9392505050565b600082815260c96020526040902060010154610da9816119dc565b610bfb83836119e6565b6001600160a01b0381163314610e285760405162461bcd60e51b815260206004820152602f60248201527f416363657373436f6e74726f6c3a2063616e206f6e6c792072656e6f756e636560448201526e103937b632b9903337b91039b2b63360891b60648201526084015b60405180910390fd5b610e328282611a6c565b5050565b6001600160a01b037f0000000000000000000000000000000000000000000000000000000000000000163003610e7e5760405162461bcd60e51b8152600401610e1f90613503565b7f00000000000000000000000000000000000000000000000000000000000000006001600160a01b0316610ec7600080516020613e73833981519152546001600160a01b031690565b6001600160a01b031614610eed5760405162461bcd60e51b8152600401610e1f9061354f565b610ef681611ddb565b60408051600080825260208201909252610f1291839190611df3565b50565b600033610c26818585610f28838361190b565b610f3291906135b1565b611ad3565b600080516020613eda833981519152610f4f816119dc565b6b026c62ad77dc602dae00000082610f6660355490565b610f7091906135b1565b1115610f8f5760405163d05cb60960e01b815260040160405180910390fd5b610bfb8383611f5e565b610fa33382612020565b806101686000828254610fb691906135b1565b909155505050565b600054610100900460ff1615808015610fde5750600054600160ff909116105b80610ff85750303b158015610ff8575060005460ff166001145b61105b5760405162461bcd60e51b815260206004820152602e60248201527f496e697469616c697a61626c653a20636f6e747261637420697320616c72656160448201526d191e481a5b9a5d1a585b1a5e995960921b6064820152608401610e1f565b6000805460ff19166001179055801561107e576000805461ff0019166101001790555b611086612154565b61108e61217b565b6110a08b8b8b8b8b8b8b8b8b8b6121ab565b6110a8612154565b6110f76040518060400160405280600f81526020016e11185c9dda5b88141c9bdd1bd8dbdb608a1b815250604051806040016040528060068152602001652220a92ba4a760d11b8152506124ce565b801561113d576000805461ff0019169055604051600181527f7f26b83ff96e1f2b6a682f133852f6798a09c465da95921460cefb38474024989060200160405180910390a15b5050505050505050505050565b6001600160a01b037f00000000000000000000000000000000000000000000000000000000000000001630036111925760405162461bcd60e51b8152600401610e1f90613503565b7f00000000000000000000000000000000000000000000000000000000000000006001600160a01b03166111db600080516020613e73833981519152546001600160a01b031690565b6001600160a01b0316146112015760405162461bcd60e51b8152600401610e1f9061354f565b61120a82611ddb565b610e3282826001611df3565b6000306001600160a01b037f000000000000000000000000000000000000000000000000000000000000000016146112b65760405162461bcd60e51b815260206004820152603860248201527f555550535570677261646561626c653a206d757374206e6f742062652063616c60448201527f6c6564207468726f7567682064656c656761746563616c6c00000000000000006064820152608401610e1f565b50600080516020613e7383398151915290565b600080516020613e938339815191526112e1816119dc565b81156112ff57610bfb600080516020613f3a833981519152846119e6565b610bfb600080516020613f3a83398151915284611a6c565b600080516020613f1a83398151915261132f816119dc565b610164546001600160a01b0316156113a05760405162461bcd60e51b815260206004820152602e60248201527f44415257494e3a2044617277696e5377617020466163746f727920616464726560448201526d1cdcc8185b1c9958591e481cd95d60921b6064820152608401610e1f565b61016480546001600160a01b0319166001600160a01b038416179055610e327fdfbefbf47cfe66b701d8cfdbce1de81c821590819cb07e71cb01b6602fb0ee27836119e6565b6113ef3361251c565b6101635461140d90339061010090046001600160a01b031683612591565b610f1281612626565b610160818154811061142757600080fd5b6000918252602090912001546001600160a01b0316905081565b600080516020613e93833981519152611459816119dc565b6101635460ff1661147357610163805460ff191660011790555b6040514281527f03201d5333f14e6b008716235f97449493bbc08e25cf7d9282dd5b6e5f40a3b890602001610cda565b6001600160a01b038116600090815260336020526040812054610165546040516370a0823160e01b81526001600160a01b038581166004830152929350600092909116906370a0823190602401602060405180830381865afa15801561150d573d6000803e3d6000fd5b505050506040513d601f19601f8201168201806040525081019061153191906135c9565b6001600160a01b0384166000908152610162602052604090205490915060ff166115945761015f546001600160a01b03841660009081526101616020526040902054611587919061158284866135b1565b612665565b61159190836135b1565b91505b50919050565b6115a2612693565b6115ac60006126ed565b565b600091825260c9602090815260408084206001600160a01b0393909316845291905290205460ff1690565b606060378054610b42906134b9565b600080516020613f1a833981519152611600816119dc565b610167546001600160a01b03161561166c5760405162461bcd60e51b815260206004820152602960248201527f44415257494e3a2044617277696e5374616b696e67206164647265737320616c6044820152681c9958591e481cd95d60ba1b6064820152608401610e1f565b61016780546001600160a01b0319166001600160a01b0384161790556116918261273f565b6116a9600080516020613eda833981519152836119e6565b61016554604051634ed9b76960e11b81526001600160a01b03848116600483015290911690639db36ed290602401600060405180830381600087803b1580156116f157600080fd5b505af1158015611705573d6000803e3d6000fd5b505050505050565b600080516020613f1a833981519152611725816119dc565b610166546001600160a01b0316156117945760405162461bcd60e51b815260206004820152602c60248201527f44415257494e3a2044617277696e4d617374657243686566206164647265737360448201526b08185b1c9958591e481cd95d60a21b6064820152608401610e1f565b61016680546001600160a01b0319166001600160a01b0384161790556117b98261273f565b610e32600080516020613eda833981519152836119e6565b600033816117df828661190b565b90508381101561183f5760405162461bcd60e51b815260206004820152602560248201527f45524332303a2064656372656173656420616c6c6f77616e63652062656c6f77604482015264207a65726f60d81b6064820152608401610e1f565b61184c8286868403611ad3565b506001949350505050565b600033610c26818585611bf7565b7fdfbefbf47cfe66b701d8cfdbce1de81c821590819cb07e71cb01b6602fb0ee2761188f816119dc565b610e328261273f565b600080516020613e938339815191526118b0816119dc565b81156118ce57610bfb600080516020613eda833981519152846119e6565b610bfb600080516020613eda83398151915284611a6c565b600082815260c96020526040902060010154611901816119dc565b610bfb8383611a6c565b6001600160a01b03918216600090815260346020908152604080832093909416825291909152205490565b61193e612693565b6001600160a01b0381166119a35760405162461bcd60e51b815260206004820152602660248201527f4f776e61626c653a206e6577206f776e657220697320746865207a65726f206160448201526564647265737360d01b6064820152608401610e1f565b610f12816126ed565b600080516020613e938339815191526119c4816119dc565b81156119d357610bfb8361281a565b610bfb8361273f565b610f1281336129d0565b6119f082826115ae565b610e3257600082815260c9602090815260408083206001600160a01b03851684529091529020805460ff19166001179055611a283390565b6001600160a01b0316816001600160a01b0316837f2f8788117e7eff1d82e926ec794901d17c78024a50270940304540a733656f0d60405160405180910390a45050565b611a7682826115ae565b15610e3257600082815260c9602090815260408083206001600160a01b0385168085529252808320805460ff1916905551339285917ff6391f5c32d9c69d2a47ea670b442974b53935d1edc7fd64eb21e047a839171b9190a45050565b6001600160a01b038316611b355760405162461bcd60e51b8152602060048201526024808201527f45524332303a20617070726f76652066726f6d20746865207a65726f206164646044820152637265737360e01b6064820152608401610e1f565b6001600160a01b038216611b965760405162461bcd60e51b815260206004820152602260248201527f45524332303a20617070726f766520746f20746865207a65726f206164647265604482015261737360f01b6064820152608401610e1f565b6001600160a01b0383811660008181526034602090815260408083209487168084529482529182902085905590518481527f8c5be1e5ebec7d5bd14f71427d1e84f3dd0314c0f7b2291e5b200ac8c7c3b925910160405180910390a3505050565b6001600160a01b038316611c5b5760405162461bcd60e51b815260206004820152602560248201527f45524332303a207472616e736665722066726f6d20746865207a65726f206164604482015264647265737360d81b6064820152608401610e1f565b6001600160a01b038216611cbd5760405162461bcd60e51b815260206004820152602360248201527f45524332303a207472616e7366657220746f20746865207a65726f206164647260448201526265737360e81b6064820152608401610e1f565b611cc78383612a29565b6001600160a01b03831660009081526033602052604090205481811015611d005760405162461bcd60e51b8152600401610e1f906135e2565b6001600160a01b038085166000818152603360205260408082208686039055928616808252908390208054860190559151600080516020613efa83398151915290611d4e9086815260200190565b60405180910390a3611d61848484612a81565b50505050565b6000611d73848461190b565b90506000198114611d615781811015611dce5760405162461bcd60e51b815260206004820152601d60248201527f45524332303a20696e73756666696369656e7420616c6c6f77616e63650000006044820152606401610e1f565b611d618484848403611ad3565b600080516020613e53833981519152610e32816119dc565b7f4910fdfa16fed3260ed0e7147f7cc6da11a60208b5b9406d12a635614ffd91435460ff1615611e2657610bfb83612aa6565b826001600160a01b03166352d1902d6040518163ffffffff1660e01b8152600401602060405180830381865afa925050508015611e80575060408051601f3d908101601f19168201909252611e7d918101906135c9565b60015b611ee35760405162461bcd60e51b815260206004820152602e60248201527f45524331393637557067726164653a206e657720696d706c656d656e7461746960448201526d6f6e206973206e6f74205555505360901b6064820152608401610e1f565b600080516020613e738339815191528114611f525760405162461bcd60e51b815260206004820152602960248201527f45524331393637557067726164653a20756e737570706f727465642070726f786044820152681a58589b195555525160ba1b6064820152608401610e1f565b50610bfb838383612b42565b6001600160a01b038216611fb45760405162461bcd60e51b815260206004820152601f60248201527f45524332303a206d696e7420746f20746865207a65726f2061646472657373006044820152606401610e1f565b611fbf600083612a29565b8060356000828254611fd191906135b1565b90915550506001600160a01b038216600081815260336020908152604080832080548601905551848152600080516020613efa833981519152910160405180910390a3610e3260008383612a81565b6001600160a01b0382166120805760405162461bcd60e51b815260206004820152602160248201527f45524332303a206275726e2066726f6d20746865207a65726f206164647265736044820152607360f81b6064820152608401610e1f565b61208b826000612a29565b6001600160a01b038216600090815260336020526040902054818110156120ff5760405162461bcd60e51b815260206004820152602260248201527f45524332303a206275726e20616d6f756e7420657863656564732062616c616e604482015261636560f01b6064820152608401610e1f565b6001600160a01b0383166000818152603360209081526040808320868603905560358054879003905551858152919291600080516020613efa833981519152910160405180910390a3610bfb83600084612a81565b600054610100900460ff166115ac5760405162461bcd60e51b8152600401610e1f90613628565b600054610100900460ff166121a25760405162461bcd60e51b8152600401610e1f90613628565b6115ac336126ed565b600054610100900460ff166121d25760405162461bcd60e51b8152600401610e1f90613628565b6000604051806020016121e490612fff565b601f1982820381018352601f9091011660408190526bffffffffffffffffffffffff193060601b1660208201529091506000906034016040516020818303038152906040528051906020012090506000818351602085016000f561016580546001600160a01b0319166001600160a01b039290921691909117905550506101638054610100600160a81b031916743cc90773ebb2714180b424815f390d937974109b00179055506122943361273f565b61229d8561273f565b6122a68461273f565b6122af8361273f565b6122b88a61273f565b6122c18761273f565b6122ca8261273f565b610163546122e59061010090046001600160a01b031661273f565b6122ee8961273f565b6122f78861273f565b600061271061231260146a422ca8b0a00a4250000000613673565b61231c9190613692565b9050600061271061233a6103e86a422ca8b0a00a4250000000613673565b6123449190613692565b905060006064612355856019613673565b61235f9190613692565b6127106123796117706a422ca8b0a00a4250000000613673565b6123839190613692565b61238d91906135b1565b90506000606461239e86604b613673565b6123a89190613692565b9050600081836123b886886135b1565b6123c291906135b1565b6123cc91906135b1565b6123e1906a422ca8b0a00a42500000006136b4565b90506123ed8b86611f5e565b6123f78c85611f5e565b6124013384611f5e565b61240b8d83611f5e565b6124158e82611f5e565b50505050506124276000801b336119e6565b61243f600080516020613f1a833981519152336119e6565b612457600080516020613f3a833981519152336119e6565b61246f600080516020613e938339815191528b6119e6565b612487600080516020613e538339815191528b6119e6565b61249f600080516020613eda8339815191528a6119e6565b6124b7600080516020613eda833981519152896119e6565b5050610163805460ff191690555050505050505050565b600054610100900460ff166124f55760405162461bcd60e51b8152600401610e1f90613628565b815161250890603690602085019061300c565b508051610bfb90603790602084019061300c565b6001600160a01b0381166000908152610162602052604090205460ff16156125415750565b61015f546001600160a01b0382166000908152610161602052604090205480821115610bfb57611d61828261258b866001600160a01b031660009081526033602052604090205490565b86612b67565b6001600160a01b038316600090815260336020526040902054818110156125ca5760405162461bcd60e51b8152600401610e1f906135e2565b6001600160a01b038085166000818152603360205260408082208686039055928616808252908390208054860190559151600080516020613efa833981519152906126189086815260200190565b60405180910390a350505050565b61262e612c17565b60355461263b91906136b4565b612649600160a01b83613673565b6126539190613692565b61015f6000828254610fb691906135b1565b6000600160a01b8261267785876136b4565b6126819190613673565b61268b9190613692565b949350505050565b6065546001600160a01b031633146115ac5760405162461bcd60e51b815260206004820181905260248201527f4f776e61626c653a2063616c6c6572206973206e6f7420746865206f776e65726044820152606401610e1f565b606580546001600160a01b038381166001600160a01b0319831681179093556040519116919082907f8be0079c531659141344cd1fd0a4f28419497f9722a3daafe3b4186f6b6457e090600090a35050565b6001600160a01b0381166000908152610162602052604090205460ff16156127645750565b61015f546001600160a01b03821660009081526101616020526040902054818110156127b0576127ae828261258b866001600160a01b031660009081526033602052604090205490565b505b50506001600160a01b0316600081815261016260205260408120805460ff19166001908117909155610160805491820181559091527fec7e130cdeeae65215fabbcddb1de429e603c4887cc659532eda903e493396630180546001600160a01b0319169091179055565b6001600160a01b0381166000908152610162602052604090205460ff1661283e5750565b6001600160a01b038116600090815261016260209081526040808320805460ff19169055610160805482518185028101850190935280835291929091908301828280156128b457602002820191906000526020600020905b81546001600160a01b03168152600190910190602001808311612896575b5050505050905060005b81518110156129ad57826001600160a01b03168282815181106128e3576128e36134ed565b60200260200101516001600160a01b03160361299b57816001835161290891906136b4565b81518110612918576129186134ed565b60200260200101516101608281548110612934576129346134ed565b9060005260206000200160006101000a8154816001600160a01b0302191690836001600160a01b03160217905550610160805480612974576129746136cb565b600082815260209020810160001990810180546001600160a01b03191690550190556129ad565b806129a5816136e1565b9150506128be565b505061015f546001600160a01b0390911660009081526101616020526040902055565b6129da82826115ae565b610e32576129e781612cdf565b6129f2836020612cf1565b604051602001612a039291906136fa565b60408051601f198184030181529082905262461bcd60e51b8252610e1f916004016130fb565b6101635460ff168015612a515750612a4f600080516020613e93833981519152336115ae565b155b15612a6f576040516313d0ff5960e31b815260040160405180910390fd5b612a788261251c565b610e328161251c565b610163546001600160a01b03610100909104811690831603610bfb57610bfb81612626565b6001600160a01b0381163b612b135760405162461bcd60e51b815260206004820152602d60248201527f455243313936373a206e657720696d706c656d656e746174696f6e206973206e60448201526c1bdd08184818dbdb9d1c9858dd609a1b6064820152608401610e1f565b600080516020613e7383398151915280546001600160a01b0319166001600160a01b0392909216919091179055565b612b4b83612e8d565b600082511180612b585750805b15610bfb57611d618383612ecd565b600080612b75868686612665565b6101635461010090046001600160a01b0316600090815260336020526040902054909150811115612bc4576101635461010090046001600160a01b031660009081526033602052604090205490505b6001600160a01b0383166000908152610161602052604090208690558015612c035761016354612c039061010090046001600160a01b03168483612591565b612c0d81856135b1565b9695505050505050565b600080610160805480602002602001604051908101604052809291908181526020018280548015612c7157602002820191906000526020600020905b81546001600160a01b03168152600190910190602001808311612c53575b5050505050905060005b8151811015612cda57612cbc828281518110612c9957612c996134ed565b60200260200101516001600160a01b031660009081526033602052604090205490565b612cc690846135b1565b925080612cd2816136e1565b915050612c7b565b505090565b6060610b2d6001600160a01b03831660145b60606000612d00836002613673565b612d0b9060026135b1565b67ffffffffffffffff811115612d2357612d236133b7565b6040519080825280601f01601f191660200182016040528015612d4d576020820181803683370190505b509050600360fc1b81600081518110612d6857612d686134ed565b60200101906001600160f81b031916908160001a905350600f60fb1b81600181518110612d9757612d976134ed565b60200101906001600160f81b031916908160001a9053506000612dbb846002613673565b612dc69060016135b1565b90505b6001811115612e3e576f181899199a1a9b1b9c1cb0b131b232b360811b85600f1660108110612dfa57612dfa6134ed565b1a60f81b828281518110612e1057612e106134ed565b60200101906001600160f81b031916908160001a90535060049490941c93612e378161376f565b9050612dc9565b508315610d875760405162461bcd60e51b815260206004820181905260248201527f537472696e67733a20686578206c656e67746820696e73756666696369656e746044820152606401610e1f565b612e9681612aa6565b6040516001600160a01b038216907fbc7cd75a20ee27fd9adebab32041f755214dbc6bffa90cc0225b39da2e5c2d3b90600090a250565b60606001600160a01b0383163b612f355760405162461bcd60e51b815260206004820152602660248201527f416464726573733a2064656c65676174652063616c6c20746f206e6f6e2d636f6044820152651b9d1c9858dd60d21b6064820152608401610e1f565b600080846001600160a01b031684604051612f509190613786565b600060405180830381855af49150503d8060008114612f8b576040519150601f19603f3d011682016040523d82523d6000602084013e612f90565b606091505b5091509150612fb88282604051806060016040528060278152602001613eb360279139612fc1565b95945050505050565b60608315612fd0575081610d87565b610d878383815115612fe55781518083602001fd5b8060405162461bcd60e51b8152600401610e1f91906130fb565b6106b0806137a383390190565b828054613018906134b9565b90600052602060002090601f01602090048101928261303a5760008555613080565b82601f1061305357805160ff1916838001178555613080565b82800160010185558215613080579182015b82811115613080578251825591602001919060010190613065565b5061308c929150613090565b5090565b5b8082111561308c5760008155600101613091565b6000602082840312156130b757600080fd5b81356001600160e01b031981168114610d8757600080fd5b60005b838110156130ea5781810151838201526020016130d2565b83811115611d615750506000910152565b602081526000825180602084015261311a8160408501602087016130cf565b601f01601f19169190910160400192915050565b80356001600160a01b038116811461314557600080fd5b919050565b6000806040838503121561315d57600080fd5b6131668361312e565b91506020830135801515811461317b57600080fd5b809150509250929050565b6000806040838503121561319957600080fd5b6131a28361312e565b946020939093013593505050565b60008083601f8401126131c257600080fd5b50813567ffffffffffffffff8111156131da57600080fd5b6020830191508360208260051b85010111156131f557600080fd5b9250929050565b6000806000806040858703121561321257600080fd5b843567ffffffffffffffff8082111561322a57600080fd5b613236888389016131b0565b9096509450602087013591508082111561324f57600080fd5b5061325c878288016131b0565b95989497509550505050565b60008060006060848603121561327d57600080fd5b6132868461312e565b92506132946020850161312e565b9150604084013590509250925092565b6000602082840312156132b657600080fd5b5035919050565b600080604083850312156132d057600080fd5b823591506132e06020840161312e565b90509250929050565b6000602082840312156132fb57600080fd5b610d878261312e565b6000806000806000806000806000806101408b8d03121561332457600080fd5b61332d8b61312e565b995061333b60208c0161312e565b985061334960408c0161312e565b975061335760608c0161312e565b965061336560808c0161312e565b955061337360a08c0161312e565b945061338160c08c0161312e565b935061338f60e08c0161312e565b925061339e6101008c0161312e565b91506101208b013590509295989b9194979a5092959850565b634e487b7160e01b600052604160045260246000fd5b600080604083850312156133e057600080fd5b6133e98361312e565b9150602083013567ffffffffffffffff8082111561340657600080fd5b818501915085601f83011261341a57600080fd5b81358181111561342c5761342c6133b7565b604051601f8201601f19908116603f01168101908382118183101715613454576134546133b7565b8160405282815288602084870101111561346d57600080fd5b8260208601602083013760006020848301015280955050505050509250929050565b600080604083850312156134a257600080fd5b6134ab8361312e565b91506132e06020840161312e565b600181811c908216806134cd57607f821691505b60208210810361159457634e487b7160e01b600052602260045260246000fd5b634e487b7160e01b600052603260045260246000fd5b6020808252602c908201527f46756e6374696f6e206d7573742062652063616c6c6564207468726f7567682060408201526b19195b1959d85d1958d85b1b60a21b606082015260800190565b6020808252602c908201527f46756e6374696f6e206d7573742062652063616c6c6564207468726f7567682060408201526b6163746976652070726f787960a01b606082015260800190565b634e487b7160e01b600052601160045260246000fd5b600082198211156135c4576135c461359b565b500190565b6000602082840312156135db57600080fd5b5051919050565b60208082526026908201527f45524332303a207472616e7366657220616d6f756e7420657863656564732062604082015265616c616e636560d01b606082015260800190565b6020808252602b908201527f496e697469616c697a61626c653a20636f6e7472616374206973206e6f74206960408201526a6e697469616c697a696e6760a81b606082015260800190565b600081600019048311821515161561368d5761368d61359b565b500290565b6000826136af57634e487b7160e01b600052601260045260246000fd5b500490565b6000828210156136c6576136c661359b565b500390565b634e487b7160e01b600052603160045260246000fd5b6000600182016136f3576136f361359b565b5060010190565b7f416363657373436f6e74726f6c3a206163636f756e74200000000000000000008152600083516137328160178501602088016130cf565b7001034b99036b4b9b9b4b733903937b6329607d1b60179184019182015283516137638160288401602088016130cf565b01602801949350505050565b60008161377e5761377e61359b565b506000190190565b600082516137988184602087016130cf565b919091019291505056fe60a060405234801561001057600080fd5b50336080526080516106796100376000396000818161010a01526102cd01526106796000f3fe608060405234801561001057600080fd5b506004361061009e5760003560e01c806370a082311161006657806370a082311461017357806384789b521461019357806395d89b41146101a65780639db36ed2146101cc5780639dc29fac146101df57600080fd5b806306fdde03146100a357806318160ddd146100ee5780633110c79214610105578063313ce5671461014457806340c10f191461015e575b600080fd5b6100d86040518060400160405280601681526020017514dd185ad9590811185c9dda5b88141c9bdd1bd8dbdb60521b81525081565b6040516100e59190610541565b60405180910390f35b6100f760015481565b6040519081526020016100e5565b61012c7f000000000000000000000000000000000000000000000000000000000000000081565b6040516001600160a01b0390911681526020016100e5565b61014c601281565b60405160ff90911681526020016100e5565b61017161016c3660046105b2565b6101f2565b005b6100f76101813660046105dc565b60026020526000908152604090205481565b60005461012c906001600160a01b031681565b6100d86040518060400160405280600781526020016639a220a92ba4a760c91b81525081565b6101716101da3660046105dc565b61025f565b6101716101ed3660046105b2565b61035c565b6000546001600160a01b031633146102515760405162461bcd60e51b815260206004820181905260248201527f5374616b656444617277696e3a2043414c4c45525f4e4f545f5354414b494e4760448201526064015b60405180910390fd5b61025b82826103c0565b5050565b6000546001600160a01b0316156102c25760405162461bcd60e51b815260206004820152602160248201527f5374616b656444617277696e3a205354414b494e475f414c52454144595f53456044820152601560fa1b6064820152608401610248565b336001600160a01b037f0000000000000000000000000000000000000000000000000000000000000000161461033a5760405162461bcd60e51b815260206004820152601f60248201527f5374616b656444617277696e3a2043414c4c45525f4e4f545f44415257494e006044820152606401610248565b600080546001600160a01b0319166001600160a01b0392909216919091179055565b6000546001600160a01b031633146103b65760405162461bcd60e51b815260206004820181905260248201527f5374616b656444617277696e3a2043414c4c45525f4e4f545f5354414b494e476044820152606401610248565b61025b828261044a565b80600160008282546103d29190610614565b90915550506001600160a01b038216600090815260026020526040812080548392906103ff908490610614565b90915550506040518181526001600160a01b038316906000907fddf252ad1be2c89b69c2b068fc378daa952ba7f163c4a11628f55a4df523b3ef906020015b60405180910390a35050565b6001600160a01b0382166000908152600260205260409020548111156104bd5760405162461bcd60e51b815260206004820152602260248201527f5374616b656444617277696e3a204255524e5f455843454544535f42414c414e604482015261434560f01b6064820152608401610248565b6001600160a01b038216600090815260026020526040812080548392906104e590849061062c565b9250508190555080600160008282546104fe919061062c565b90915550506040518181526000906001600160a01b038416907fddf252ad1be2c89b69c2b068fc378daa952ba7f163c4a11628f55a4df523b3ef9060200161043e565b600060208083528351808285015260005b8181101561056e57858101830151858201604001528201610552565b81811115610580576000604083870101525b50601f01601f1916929092016040019392505050565b80356001600160a01b03811681146105ad57600080fd5b919050565b600080604083850312156105c557600080fd5b6105ce83610596565b946020939093013593505050565b6000602082840312156105ee57600080fd5b6105f782610596565b9392505050565b634e487b7160e01b600052601160045260246000fd5b60008219821115610627576106276105fe565b500190565b60008282101561063e5761063e6105fe565b50039056fea2646970667358221220a0b3a439829f9b51e30d1926dac7413ef7d0fd190d15b36c45591f334ebc830a64736f6c634300080e0033189ab7a9244df0848122154315af71fe140f3db0fe014031783b0946b8c9d2e3360894a13ba1a3210667c828492db98dca3e2076cc3735a920a3ca505d382bbc78afd8eb771d7501d125738bdabc2c1f8b945a7e4fcba88e940ac2d88fb25666416464726573733a206c6f772d6c6576656c2064656c65676174652063616c6c206661696c65649f2df0fed2c77648de5860a4cc508cd0818c85b8b8a1ab4ceeef8d981c8956a6ddf252ad1be2c89b69c2b068fc378daa952ba7f163c4a11628f55a4df523b3efb06fd1d7ac3cc9ad93e77413fab9fcd3bbd887f5685e519e34e0e80802d074ee4698baa05b306e3e5e3fa66d29891e203a1418ef5bee962e2c9b109f129e8920a2646970667358221220f794c0896ed3cdd2ab3fc5abacf9f899123bbba19477d5f8aa801dfd0f47684964736f6c634300080e0033",
  "linkReferences": {},
  "deployedLinkReferences": {}
}