{
  "_format": "hh-sol-artifact-1",
  "contractName": "Darwin",
  "sourceName": "contracts/Darwin.sol",
  "abi": [
    {
      "inputs": [],
      "name": "AccountAlreadyExcluded",
      "type": "error"
    },
    {
      "inputs": [],
      "name": "AccountNotExcluded",
      "type": "error"
    },
    {
      "inputs": [],
      "name": "HoldingLimitExceeded",
      "type": "error"
    },
    {
      "inputs": [],
      "name": "InsufficientAllowance",
      "type": "error"
    },
    {
      "inputs": [],
      "name": "InvalidArrayLengths",
      "type": "error"
    },
    {
      "inputs": [],
      "name": "MaxSupplyReached",
      "type": "error"
    },
    {
      "inputs": [],
      "name": "OnlyDarwinCommunity",
      "type": "error"
    },
    {
      "inputs": [],
      "name": "Paused",
      "type": "error"
    },
    {
      "inputs": [],
      "name": "SellLimitExceeded",
      "type": "error"
    },
    {
      "inputs": [],
      "name": "ZeroAddress",
      "type": "error"
    },
    {
      "inputs": [],
      "name": "ZeroAmount",
      "type": "error"
    },
    {
      "anonymous": false,
      "inputs": [
        {
          "indexed": false,
          "internalType": "address",
          "name": "previousAdmin",
          "type": "address"
        },
        {
          "indexed": false,
          "internalType": "address",
          "name": "newAdmin",
          "type": "address"
        }
      ],
      "name": "AdminChanged",
      "type": "event"
    },
    {
      "anonymous": false,
      "inputs": [
        {
          "indexed": true,
          "internalType": "address",
          "name": "owner",
          "type": "address"
        },
        {
          "indexed": true,
          "internalType": "address",
          "name": "spender",
          "type": "address"
        },
        {
          "indexed": false,
          "internalType": "uint256",
          "name": "value",
          "type": "uint256"
        }
      ],
      "name": "Approval",
      "type": "event"
    },
    {
      "anonymous": false,
      "inputs": [
        {
          "indexed": true,
          "internalType": "address",
          "name": "beacon",
          "type": "address"
        }
      ],
      "name": "BeaconUpgraded",
      "type": "event"
    },
    {
      "anonymous": false,
      "inputs": [
        {
          "indexed": false,
          "internalType": "address",
          "name": "account",
          "type": "address"
        },
        {
          "indexed": false,
          "internalType": "bool",
          "name": "isExcluded",
          "type": "bool"
        }
      ],
      "name": "ExcludedFromReflection",
      "type": "event"
    },
    {
      "anonymous": false,
      "inputs": [
        {
          "indexed": false,
          "internalType": "address",
          "name": "account",
          "type": "address"
        },
        {
          "indexed": false,
          "internalType": "bool",
          "name": "isExcluded",
          "type": "bool"
        }
      ],
      "name": "ExcludedFromSellLimit",
      "type": "event"
    },
    {
      "anonymous": false,
      "inputs": [
        {
          "indexed": false,
          "internalType": "uint8",
          "name": "version",
          "type": "uint8"
        }
      ],
      "name": "Initialized",
      "type": "event"
    },
    {
      "anonymous": false,
      "inputs": [
        {
          "indexed": true,
          "internalType": "address",
          "name": "previousOwner",
          "type": "address"
        },
        {
          "indexed": true,
          "internalType": "address",
          "name": "newOwner",
          "type": "address"
        }
      ],
      "name": "OwnershipTransferred",
      "type": "event"
    },
    {
      "anonymous": false,
      "inputs": [
        {
          "indexed": true,
          "internalType": "bytes32",
          "name": "role",
          "type": "bytes32"
        },
        {
          "indexed": true,
          "internalType": "bytes32",
          "name": "previousAdminRole",
          "type": "bytes32"
        },
        {
          "indexed": true,
          "internalType": "bytes32",
          "name": "newAdminRole",
          "type": "bytes32"
        }
      ],
      "name": "RoleAdminChanged",
      "type": "event"
    },
    {
      "anonymous": false,
      "inputs": [
        {
          "indexed": true,
          "internalType": "bytes32",
          "name": "role",
          "type": "bytes32"
        },
        {
          "indexed": true,
          "internalType": "address",
          "name": "account",
          "type": "address"
        },
        {
          "indexed": true,
          "internalType": "address",
          "name": "sender",
          "type": "address"
        }
      ],
      "name": "RoleGranted",
      "type": "event"
    },
    {
      "anonymous": false,
      "inputs": [
        {
          "indexed": true,
          "internalType": "bytes32",
          "name": "role",
          "type": "bytes32"
        },
        {
          "indexed": true,
          "internalType": "address",
          "name": "account",
          "type": "address"
        },
        {
          "indexed": true,
          "internalType": "address",
          "name": "sender",
          "type": "address"
        }
      ],
      "name": "RoleRevoked",
      "type": "event"
    },
    {
      "anonymous": false,
      "inputs": [
        {
          "indexed": false,
          "internalType": "uint256",
          "name": "timestamp",
          "type": "uint256"
        }
      ],
      "name": "SetLive",
      "type": "event"
    },
    {
      "anonymous": false,
      "inputs": [
        {
          "indexed": false,
          "internalType": "address",
          "name": "account",
          "type": "address"
        },
        {
          "indexed": false,
          "internalType": "bool",
          "name": "isWhitelisted",
          "type": "bool"
        }
      ],
      "name": "SetPauseWhitelist",
      "type": "event"
    },
    {
      "anonymous": false,
      "inputs": [
        {
          "indexed": false,
          "internalType": "uint256",
          "name": "timestamp",
          "type": "uint256"
        }
      ],
      "name": "SetPaused",
      "type": "event"
    },
    {
      "anonymous": false,
      "inputs": [
        {
          "indexed": false,
          "internalType": "address",
          "name": "account",
          "type": "address"
        }
      ],
      "name": "SetPresaleAddress",
      "type": "event"
    },
    {
      "anonymous": false,
      "inputs": [
        {
          "indexed": false,
          "internalType": "uint256",
          "name": "timestamp",
          "type": "uint256"
        }
      ],
      "name": "SetUnpaused",
      "type": "event"
    },
    {
      "anonymous": false,
      "inputs": [
        {
          "indexed": true,
          "internalType": "address",
          "name": "from",
          "type": "address"
        },
        {
          "indexed": true,
          "internalType": "address",
          "name": "to",
          "type": "address"
        },
        {
          "indexed": false,
          "internalType": "uint256",
          "name": "value",
          "type": "uint256"
        }
      ],
      "name": "Transfer",
      "type": "event"
    },
    {
      "anonymous": false,
      "inputs": [
        {
          "indexed": true,
          "internalType": "address",
          "name": "implementation",
          "type": "address"
        }
      ],
      "name": "Upgraded",
      "type": "event"
    },
    {
      "inputs": [],
      "name": "COMMUNITY_ROLE",
      "outputs": [
        {
          "internalType": "bytes32",
          "name": "",
          "type": "bytes32"
        }
      ],
      "stateMutability": "view",
      "type": "function"
    },
    {
      "inputs": [],
      "name": "DEFAULT_ADMIN_ROLE",
      "outputs": [
        {
          "internalType": "bytes32",
          "name": "",
          "type": "bytes32"
        }
      ],
      "stateMutability": "view",
      "type": "function"
    },
    {
      "inputs": [],
      "name": "DEPLOYER_PERCENTAGE",
      "outputs": [
        {
          "internalType": "uint256",
          "name": "",
          "type": "uint256"
        }
      ],
      "stateMutability": "view",
      "type": "function"
    },
    {
      "inputs": [],
      "name": "FACTORY_ROLE",
      "outputs": [
        {
          "internalType": "bytes32",
          "name": "",
          "type": "bytes32"
        }
      ],
      "stateMutability": "view",
      "type": "function"
    },
    {
      "inputs": [],
      "name": "INITIAL_SUPPLY",
      "outputs": [
        {
          "internalType": "uint256",
          "name": "",
          "type": "uint256"
        }
      ],
      "stateMutability": "view",
      "type": "function"
    },
    {
      "inputs": [],
      "name": "KIERAN_PERCENTAGE",
      "outputs": [
        {
          "internalType": "uint256",
          "name": "",
          "type": "uint256"
        }
      ],
      "stateMutability": "view",
      "type": "function"
    },
    {
      "inputs": [],
      "name": "MAINTENANCE_ROLE",
      "outputs": [
        {
          "internalType": "bytes32",
          "name": "",
          "type": "bytes32"
        }
      ],
      "stateMutability": "view",
      "type": "function"
    },
    {
      "inputs": [],
      "name": "MAX_SUPPLY",
      "outputs": [
        {
          "internalType": "uint256",
          "name": "",
          "type": "uint256"
        }
      ],
      "stateMutability": "view",
      "type": "function"
    },
    {
      "inputs": [],
      "name": "MINTER_ROLE",
      "outputs": [
        {
          "internalType": "bytes32",
          "name": "",
          "type": "bytes32"
        }
      ],
      "stateMutability": "view",
      "type": "function"
    },
    {
      "inputs": [],
      "name": "SECURITY_ROLE",
      "outputs": [
        {
          "internalType": "bytes32",
          "name": "",
          "type": "bytes32"
        }
      ],
      "stateMutability": "view",
      "type": "function"
    },
    {
      "inputs": [],
      "name": "UPGRADER_ROLE",
      "outputs": [
        {
          "internalType": "bytes32",
          "name": "",
          "type": "bytes32"
        }
      ],
      "stateMutability": "view",
      "type": "function"
    },
    {
      "inputs": [],
      "name": "WALLET1_PECENTAGE",
      "outputs": [
        {
          "internalType": "uint256",
          "name": "",
          "type": "uint256"
        }
      ],
      "stateMutability": "view",
      "type": "function"
    },
    {
      "inputs": [
        {
          "internalType": "address",
          "name": "owner",
          "type": "address"
        },
        {
          "internalType": "address",
          "name": "spender",
          "type": "address"
        }
      ],
      "name": "allowance",
      "outputs": [
        {
          "internalType": "uint256",
          "name": "",
          "type": "uint256"
        }
      ],
      "stateMutability": "view",
      "type": "function"
    },
    {
      "inputs": [
        {
          "internalType": "address",
          "name": "spender",
          "type": "address"
        },
        {
          "internalType": "uint256",
          "name": "amount",
          "type": "uint256"
        }
      ],
      "name": "approve",
      "outputs": [
        {
          "internalType": "bool",
          "name": "",
          "type": "bool"
        }
      ],
      "stateMutability": "nonpayable",
      "type": "function"
    },
    {
      "inputs": [
        {
          "internalType": "address",
          "name": "account",
          "type": "address"
        }
      ],
      "name": "balanceOf",
      "outputs": [
        {
          "internalType": "uint256",
          "name": "balance",
          "type": "uint256"
        }
      ],
      "stateMutability": "view",
      "type": "function"
    },
    {
      "inputs": [
        {
          "internalType": "address[]",
          "name": "recipients",
          "type": "address[]"
        },
        {
          "internalType": "uint256[]",
          "name": "amounts",
          "type": "uint256[]"
        }
      ],
      "name": "bulkTransfer",
      "outputs": [],
      "stateMutability": "nonpayable",
      "type": "function"
    },
    {
      "inputs": [
        {
          "internalType": "uint256",
          "name": "amount",
          "type": "uint256"
        }
      ],
      "name": "burn",
      "outputs": [],
      "stateMutability": "nonpayable",
      "type": "function"
    },
    {
      "inputs": [],
      "name": "communityPause",
      "outputs": [],
      "stateMutability": "nonpayable",
      "type": "function"
    },
    {
      "inputs": [],
      "name": "communityUnPause",
      "outputs": [],
      "stateMutability": "nonpayable",
      "type": "function"
    },
    {
      "inputs": [],
      "name": "culmulativeRewardPerToken",
      "outputs": [
        {
          "internalType": "uint256",
          "name": "",
          "type": "uint256"
        }
      ],
      "stateMutability": "view",
      "type": "function"
    },
    {
      "inputs": [],
      "name": "darwinStaking",
      "outputs": [
        {
          "internalType": "address",
          "name": "",
          "type": "address"
        }
      ],
      "stateMutability": "view",
      "type": "function"
    },
    {
      "inputs": [],
      "name": "darwinSwapFactory",
      "outputs": [
        {
          "internalType": "contract IUniswapV2Factory",
          "name": "",
          "type": "address"
        }
      ],
      "stateMutability": "view",
      "type": "function"
    },
    {
      "inputs": [],
      "name": "decimals",
      "outputs": [
        {
          "internalType": "uint8",
          "name": "",
          "type": "uint8"
        }
      ],
      "stateMutability": "view",
      "type": "function"
    },
    {
      "inputs": [
        {
          "internalType": "address",
          "name": "spender",
          "type": "address"
        },
        {
          "internalType": "uint256",
          "name": "subtractedValue",
          "type": "uint256"
        }
      ],
      "name": "decreaseAllowance",
      "outputs": [
        {
          "internalType": "bool",
          "name": "",
          "type": "bool"
        }
      ],
      "stateMutability": "nonpayable",
      "type": "function"
    },
    {
      "inputs": [
        {
          "internalType": "uint256",
          "name": "amount",
          "type": "uint256"
        }
      ],
      "name": "distributeRewards",
      "outputs": [],
      "stateMutability": "nonpayable",
      "type": "function"
    },
    {
      "inputs": [],
      "name": "emergencyPause",
      "outputs": [],
      "stateMutability": "nonpayable",
      "type": "function"
    },
    {
      "inputs": [],
      "name": "emergencyUnPause",
      "outputs": [],
      "stateMutability": "nonpayable",
      "type": "function"
    },
    {
      "inputs": [
        {
          "internalType": "uint256",
          "name": "",
          "type": "uint256"
        }
      ],
      "name": "excludedFromRewards",
      "outputs": [
        {
          "internalType": "address",
          "name": "",
          "type": "address"
        }
      ],
      "stateMutability": "view",
      "type": "function"
    },
    {
      "inputs": [
        {
          "internalType": "bytes32",
          "name": "role",
          "type": "bytes32"
        }
      ],
      "name": "getRoleAdmin",
      "outputs": [
        {
          "internalType": "bytes32",
          "name": "",
          "type": "bytes32"
        }
      ],
      "stateMutability": "view",
      "type": "function"
    },
    {
      "inputs": [
        {
          "internalType": "bytes32",
          "name": "role",
          "type": "bytes32"
        },
        {
          "internalType": "address",
          "name": "account",
          "type": "address"
        }
      ],
      "name": "grantRole",
      "outputs": [],
      "stateMutability": "nonpayable",
      "type": "function"
    },
    {
      "inputs": [
        {
          "internalType": "bytes32",
          "name": "role",
          "type": "bytes32"
        },
        {
          "internalType": "address",
          "name": "account",
          "type": "address"
        }
      ],
      "name": "hasRole",
      "outputs": [
        {
          "internalType": "bool",
          "name": "",
          "type": "bool"
        }
      ],
      "stateMutability": "view",
      "type": "function"
    },
    {
      "inputs": [
        {
          "internalType": "address",
          "name": "spender",
          "type": "address"
        },
        {
          "internalType": "uint256",
          "name": "addedValue",
          "type": "uint256"
        }
      ],
      "name": "increaseAllowance",
      "outputs": [
        {
          "internalType": "bool",
          "name": "",
          "type": "bool"
        }
      ],
      "stateMutability": "nonpayable",
      "type": "function"
    },
    {
      "inputs": [
        {
          "internalType": "address",
          "name": "_darwinCommunity",
          "type": "address"
        },
        {
          "internalType": "address",
          "name": "_vester5",
          "type": "address"
        },
        {
          "internalType": "address",
          "name": "_vester7",
          "type": "address"
        },
        {
          "internalType": "address",
          "name": "_wallet1",
          "type": "address"
        },
        {
          "internalType": "address",
          "name": "_kieran",
          "type": "address"
        },
        {
          "internalType": "address",
          "name": "_charity",
          "type": "address"
        },
        {
          "internalType": "address",
          "name": "_giveaway",
          "type": "address"
        },
        {
          "internalType": "address",
          "name": "_bounties",
          "type": "address"
        },
        {
          "internalType": "address",
          "name": "_darwinDrop",
          "type": "address"
        },
        {
          "internalType": "uint256",
          "name": "_darwinSoldInPresale",
          "type": "uint256"
        }
      ],
      "name": "initialize",
      "outputs": [],
      "stateMutability": "nonpayable",
      "type": "function"
    },
    {
      "inputs": [],
      "name": "isLive",
      "outputs": [
        {
          "internalType": "bool",
          "name": "",
          "type": "bool"
        }
      ],
      "stateMutability": "view",
      "type": "function"
    },
    {
      "inputs": [],
      "name": "isPaused",
      "outputs": [
        {
          "internalType": "bool",
          "name": "",
          "type": "bool"
        }
      ],
      "stateMutability": "view",
      "type": "function"
    },
    {
      "inputs": [],
      "name": "masterChef",
      "outputs": [
        {
          "internalType": "address",
          "name": "",
          "type": "address"
        }
      ],
      "stateMutability": "view",
      "type": "function"
    },
    {
      "inputs": [
        {
          "internalType": "address",
          "name": "account",
          "type": "address"
        },
        {
          "internalType": "uint256",
          "name": "amount",
          "type": "uint256"
        }
      ],
      "name": "mint",
      "outputs": [],
      "stateMutability": "nonpayable",
      "type": "function"
    },
    {
      "inputs": [],
      "name": "name",
      "outputs": [
        {
          "internalType": "string",
          "name": "",
          "type": "string"
        }
      ],
      "stateMutability": "view",
      "type": "function"
    },
    {
      "inputs": [],
      "name": "owner",
      "outputs": [
        {
          "internalType": "address",
          "name": "",
          "type": "address"
        }
      ],
      "stateMutability": "view",
      "type": "function"
    },
    {
      "inputs": [],
      "name": "proxiableUUID",
      "outputs": [
        {
          "internalType": "bytes32",
          "name": "",
          "type": "bytes32"
        }
      ],
      "stateMutability": "view",
      "type": "function"
    },
    {
      "inputs": [
        {
          "internalType": "address",
          "name": "_pair",
          "type": "address"
        }
      ],
      "name": "registerDarwinSwapPair",
      "outputs": [],
      "stateMutability": "nonpayable",
      "type": "function"
    },
    {
      "inputs": [],
      "name": "renounceOwnership",
      "outputs": [],
      "stateMutability": "nonpayable",
      "type": "function"
    },
    {
      "inputs": [
        {
          "internalType": "bytes32",
          "name": "role",
          "type": "bytes32"
        },
        {
          "internalType": "address",
          "name": "account",
          "type": "address"
        }
      ],
      "name": "renounceRole",
      "outputs": [],
      "stateMutability": "nonpayable",
      "type": "function"
    },
    {
      "inputs": [
        {
          "internalType": "bytes32",
          "name": "role",
          "type": "bytes32"
        },
        {
          "internalType": "address",
          "name": "account",
          "type": "address"
        }
      ],
      "name": "revokeRole",
      "outputs": [],
      "stateMutability": "nonpayable",
      "type": "function"
    },
    {
      "inputs": [],
      "name": "rewardsWallet",
      "outputs": [
        {
          "internalType": "address",
          "name": "",
          "type": "address"
        }
      ],
      "stateMutability": "view",
      "type": "function"
    },
    {
      "inputs": [
        {
          "internalType": "address",
          "name": "_darwinStaking",
          "type": "address"
        }
      ],
      "name": "setDarwinStaking",
      "outputs": [],
      "stateMutability": "nonpayable",
      "type": "function"
    },
    {
      "inputs": [
        {
          "internalType": "address",
          "name": "_darwinSwapFactory",
          "type": "address"
        }
      ],
      "name": "setDarwinSwapFactory",
      "outputs": [],
      "stateMutability": "nonpayable",
      "type": "function"
    },
    {
      "inputs": [],
      "name": "setLive",
      "outputs": [],
      "stateMutability": "nonpayable",
      "type": "function"
    },
    {
      "inputs": [
        {
          "internalType": "address",
          "name": "_account",
          "type": "address"
        },
        {
          "internalType": "bool",
          "name": "_hasRole",
          "type": "bool"
        }
      ],
      "name": "setMaintenance",
      "outputs": [],
      "stateMutability": "nonpayable",
      "type": "function"
    },
    {
      "inputs": [
        {
          "internalType": "address",
          "name": "_masterChef",
          "type": "address"
        }
      ],
      "name": "setMasterChef",
      "outputs": [],
      "stateMutability": "nonpayable",
      "type": "function"
    },
    {
      "inputs": [
        {
          "internalType": "address",
          "name": "user_",
          "type": "address"
        },
        {
          "internalType": "bool",
          "name": "canMint_",
          "type": "bool"
        }
      ],
      "name": "setMinter",
      "outputs": [],
      "stateMutability": "nonpayable",
      "type": "function"
    },
    {
      "inputs": [
        {
          "internalType": "address",
          "name": "_addr",
          "type": "address"
        },
        {
          "internalType": "bool",
          "name": "value",
          "type": "bool"
        }
      ],
      "name": "setPauseWhitelist",
      "outputs": [],
      "stateMutability": "nonpayable",
      "type": "function"
    },
    {
      "inputs": [
        {
          "internalType": "address",
          "name": "_addr",
          "type": "address"
        }
      ],
      "name": "setPresaleAddress",
      "outputs": [],
      "stateMutability": "nonpayable",
      "type": "function"
    },
    {
      "inputs": [
        {
          "internalType": "address",
          "name": "account",
          "type": "address"
        },
        {
          "internalType": "bool",
          "name": "shouldReceive",
          "type": "bool"
        }
      ],
      "name": "setReceiveRewards",
      "outputs": [],
      "stateMutability": "nonpayable",
      "type": "function"
    },
    {
      "inputs": [
        {
          "internalType": "address",
          "name": "_account",
          "type": "address"
        },
        {
          "internalType": "bool",
          "name": "_hasRole",
          "type": "bool"
        }
      ],
      "name": "setSecurity",
      "outputs": [],
      "stateMutability": "nonpayable",
      "type": "function"
    },
    {
      "inputs": [
        {
          "internalType": "address",
          "name": "_account",
          "type": "address"
        },
        {
          "internalType": "bool",
          "name": "_hasRole",
          "type": "bool"
        }
      ],
      "name": "setUpgrader",
      "outputs": [],
      "stateMutability": "nonpayable",
      "type": "function"
    },
    {
      "inputs": [],
      "name": "stakedDarwin",
      "outputs": [
        {
          "internalType": "contract IStakedDarwin",
          "name": "",
          "type": "address"
        }
      ],
      "stateMutability": "view",
      "type": "function"
    },
    {
      "inputs": [
        {
          "internalType": "bytes4",
          "name": "interfaceId",
          "type": "bytes4"
        }
      ],
      "name": "supportsInterface",
      "outputs": [
        {
          "internalType": "bool",
          "name": "",
          "type": "bool"
        }
      ],
      "stateMutability": "view",
      "type": "function"
    },
    {
      "inputs": [],
      "name": "symbol",
      "outputs": [
        {
          "internalType": "string",
          "name": "",
          "type": "string"
        }
      ],
      "stateMutability": "view",
      "type": "function"
    },
    {
      "inputs": [],
      "name": "totalBurnt",
      "outputs": [
        {
          "internalType": "uint256",
          "name": "",
          "type": "uint256"
        }
      ],
      "stateMutability": "view",
      "type": "function"
    },
    {
      "inputs": [],
      "name": "totalSupply",
      "outputs": [
        {
          "internalType": "uint256",
          "name": "",
          "type": "uint256"
        }
      ],
      "stateMutability": "view",
      "type": "function"
    },
    {
      "inputs": [
        {
          "internalType": "address",
          "name": "to",
          "type": "address"
        },
        {
          "internalType": "uint256",
          "name": "amount",
          "type": "uint256"
        }
      ],
      "name": "transfer",
      "outputs": [
        {
          "internalType": "bool",
          "name": "",
          "type": "bool"
        }
      ],
      "stateMutability": "nonpayable",
      "type": "function"
    },
    {
      "inputs": [
        {
          "internalType": "address",
          "name": "from",
          "type": "address"
        },
        {
          "internalType": "address",
          "name": "to",
          "type": "address"
        },
        {
          "internalType": "uint256",
          "name": "amount",
          "type": "uint256"
        }
      ],
      "name": "transferFrom",
      "outputs": [
        {
          "internalType": "bool",
          "name": "",
          "type": "bool"
        }
      ],
      "stateMutability": "nonpayable",
      "type": "function"
    },
    {
      "inputs": [
        {
          "internalType": "address",
          "name": "newOwner",
          "type": "address"
        }
      ],
      "name": "transferOwnership",
      "outputs": [],
      "stateMutability": "nonpayable",
      "type": "function"
    },
    {
      "inputs": [
        {
          "internalType": "address",
          "name": "newImplementation",
          "type": "address"
        }
      ],
      "name": "upgradeTo",
      "outputs": [],
      "stateMutability": "nonpayable",
      "type": "function"
    },
    {
      "inputs": [
        {
          "internalType": "address",
          "name": "newImplementation",
          "type": "address"
        },
        {
          "internalType": "bytes",
          "name": "data",
          "type": "bytes"
        }
      ],
      "name": "upgradeToAndCall",
      "outputs": [],
      "stateMutability": "payable",
      "type": "function"
    }
  ],
  "bytecode": "0x60a06040523060805234801561001457600080fd5b5060805161433761004c60003960008181610f9901528181610fd9015281816112ad015281816112ed01526113f501526143376000f3fe6080604052600436106103d95760003560e01c80636139b87f116101fd578063a457c2d711610118578063cf456ae7116100ab578063dd62ed3e1161007a578063dd62ed3e14610b41578063df04c59014610b61578063f2fde38b14610b76578063f40daafd14610b96578063f72c0d8b14610bb657600080fd5b8063cf456ae714610abd578063d539139314610add578063d547741f14610aff578063dbe1065514610b1f57600080fd5b8063b8f7a665116100e7578063b8f7a66514610a48578063b98de7c714610a68578063bdb9f28d14610a7d578063c58ce88614610a9d57600080fd5b8063a457c2d7146109d6578063a5e7a003146109f6578063a9059cbb14610a0d578063b187bd2614610a2d57600080fd5b806391d14854116101905780639db36ed21161015f5780639db36ed214610960578063a147168614610980578063a217fddf146109a1578063a2d9f4dc146109b657600080fd5b806391d14854146108f257806395d89b4114610912578063966ff650146109275780639aa777311461093e57600080fd5b8063715018a6116101cc578063715018a61461088857806384789b521461089d57806386aa55d7146108be5780638da5cb5b146108d457600080fd5b80636139b87f1461081e5780636696821b1461083e5780636736d5801461085357806370a082311461086857600080fd5b8063313ce567116102f857806349d76e6d1161028b57806354ed36791161025a57806354ed36791461077c57806356e26c631461079c578063575a86b2146107bc57806359974e38146107dd5780635b35f9c9146107fd57600080fd5b806349d76e6d1461071f5780634f1ef2861461073f57806351858e271461075257806352d1902d1461076757600080fd5b806339509351116102c7578063395093511461068657806340c10f19146106a65780634233531e146106c657806342966c68146106ff57600080fd5b8063313ce5671461060a57806332cb6b0c1461062657806336568abe146106465780633659cfe61461066657600080fd5b8063153a1f3e11610370578063248a9ca31161033f578063248a9ca31461057b5780632f2ff15d146105ab5780632f94b667146105cb5780632ff2e9dc146105eb57600080fd5b8063153a1f3e1461050457806318160ddd146105245780631dec5e071461053957806323b872dd1461055b57600080fd5b8063095ea7b3116103ac578063095ea7b3146104995780630bfa8dfd146104b95780630dab5b89146104d95780630dcf4661146104ee57600080fd5b806301ffc9a7146103de57806304a0fb171461041357806306fdde031461045557806307eddd4714610477575b600080fd5b3480156103ea57600080fd5b506103fe6103f936600461344c565b610bd8565b60405190151581526020015b60405180910390f35b34801561041f57600080fd5b506104477fdfbefbf47cfe66b701d8cfdbce1de81c821590819cb07e71cb01b6602fb0ee2781565b60405190815260200161040a565b34801561046157600080fd5b5061046a610c0f565b60405161040a91906134a2565b34801561048357600080fd5b506104976104923660046134ec565b610ca1565b005b3480156104a557600080fd5b506103fe6104b4366004613528565b610cf4565b3480156104c557600080fd5b506104976104d43660046134ec565b610d0c565b3480156104e557600080fd5b50610497610d5a565b3480156104fa57600080fd5b5061044761177081565b34801561051057600080fd5b5061049761051f36600461359e565b610dc1565b34801561053057600080fd5b50603554610447565b34801561054557600080fd5b506104476000805160206142c283398151915281565b34801561056757600080fd5b506103fe61057636600461360a565b610e44565b34801561058757600080fd5b50610447610596366004613646565b600090815260c9602052604090206001015490565b3480156105b757600080fd5b506104976105c636600461365f565b610e6a565b3480156105d757600080fd5b506104976105e63660046134ec565b610e8f565b3480156105f757600080fd5b506104476a52b7d2dcc80cd2e400000081565b34801561061657600080fd5b506040516012815260200161040a565b34801561063257600080fd5b506104476b033b2e3c9fd0803ce800000081565b34801561065257600080fd5b5061049761066136600461365f565b610f0c565b34801561067257600080fd5b5061049761068136600461368b565b610f8f565b34801561069257600080fd5b506103fe6106a1366004613528565b61106e565b3480156106b257600080fd5b506104976106c1366004613528565b611090565b3480156106d257600080fd5b50610167546106e7906001600160a01b031681565b6040516001600160a01b03909116815260200161040a565b34801561070b57600080fd5b5061049761071a366004613646565b6110f2565b34801561072b57600080fd5b5061049761073a3660046136a6565b611117565b61049761074d36600461376f565b6112a3565b34801561075e57600080fd5b5061049761136f565b34801561077357600080fd5b506104476113e8565b34801561078857600080fd5b506104976107973660046134ec565b61149b565b3480156107a857600080fd5b506104976107b736600461368b565b6114e9565b3480156107c857600080fd5b50610168546106e7906001600160a01b031681565b3480156107e957600080fd5b506104976107f8366004613646565b6115b8565b34801561080957600080fd5b50610165546106e7906001600160a01b031681565b34801561082a57600080fd5b506106e7610839366004613646565b6115e3565b34801561084a57600080fd5b5061049761160e565b34801561085f57600080fd5b50610497611670565b34801561087457600080fd5b5061044761088336600461368b565b6116e4565b34801561089457600080fd5b50610497611749565b3480156108a957600080fd5b50610169546106e7906001600160a01b031681565b3480156108ca57600080fd5b506104476103e881565b3480156108e057600080fd5b506065546001600160a01b03166106e7565b3480156108fe57600080fd5b506103fe61090d36600461365f565b61175d565b34801561091e57600080fd5b5061046a611788565b34801561093357600080fd5b5061044761016a5481565b34801561094a57600080fd5b5061044760008051602061423b83398151915281565b34801561096c57600080fd5b5061049761097b36600461368b565b611797565b34801561098c57600080fd5b50610166546106e7906001600160a01b031681565b3480156109ad57600080fd5b50610447600081565b3480156109c257600080fd5b506104976109d136600461368b565b6118bc565b3480156109e257600080fd5b506103fe6109f1366004613528565b611980565b348015610a0257600080fd5b5061044761015f5481565b348015610a1957600080fd5b506103fe610a28366004613528565b611a06565b348015610a3957600080fd5b50610163546103fe9060ff1681565b348015610a5457600080fd5b50610163546103fe90610100900460ff1681565b348015610a7457600080fd5b50610497611a14565b348015610a8957600080fd5b50610497610a9836600461368b565b611a6e565b348015610aa957600080fd5b50610497610ab836600461368b565b611b54565b348015610ac957600080fd5b50610497610ad83660046134ec565b611b87565b348015610ae957600080fd5b5061044760008051602061428283398151915281565b348015610b0b57600080fd5b50610497610b1a36600461365f565b611bd5565b348015610b2b57600080fd5b506104476000805160206142e283398151915281565b348015610b4d57600080fd5b50610447610b5c366004613831565b611bfa565b348015610b6d57600080fd5b50610447601481565b348015610b8257600080fd5b50610497610b9136600461368b565b611c25565b348015610ba257600080fd5b50610497610bb13660046134ec565b611c9b565b348015610bc257600080fd5b506104476000805160206141fb83398151915281565b60006001600160e01b03198216637965db0b60e01b1480610c0957506301ffc9a760e01b6001600160e01b03198316145b92915050565b606060368054610c1e9061385b565b80601f0160208091040260200160405190810160405280929190818152602001828054610c4a9061385b565b8015610c975780601f10610c6c57610100808354040283529160200191610c97565b820191906000526020600020905b815481529060010190602001808311610c7a57829003601f168201915b5050505050905090565b60008051602061423b833981519152610cb981611ccb565b8115610cdc57610cd76000805160206141fb83398151915284611cd5565b505050565b610cd76000805160206141fb83398151915284611d5b565b600033610d02818585611dc2565b5060019392505050565b60008051602061423b833981519152610d2481611ccb565b8115610d4257610cd76000805160206142c283398151915284611cd5565b610cd76000805160206142c283398151915284611d5b565b60008051602061423b833981519152610d7281611ccb565b6101635460ff1615610d8a57610163805460ff191690555b6040514281527fe4613ba0dfa18e3aefeaf8f3dca9b092edcc3588780e22b06960f54e6baf6c57906020015b60405180910390a150565b828114610de15760405163a9854bc960e01b815260040160405180910390fd5b60005b83811015610e3d57610e3533868684818110610e0257610e02613895565b9050602002016020810190610e17919061368b565b858585818110610e2957610e29613895565b90506020020135611ee6565b600101610de4565b5050505050565b600033610e52858285612056565b610e5d858585611ee6565b60019150505b9392505050565b600082815260c96020526040902060010154610e8581611ccb565b610cd78383611cd5565b6000805160206142c2833981519152610ea781611ccb565b6001600160a01b03831660008181526101646020908152604091829020805460ff19168615159081179091558251938452908301527f178cd7a3743a6c820e76a688f2bb5603f260871f54b1c9fe328f4bd4d853e0f5910160405180910390a1505050565b6001600160a01b0381163314610f815760405162461bcd60e51b815260206004820152602f60248201527f416363657373436f6e74726f6c3a2063616e206f6e6c792072656e6f756e636560448201526e103937b632b9903337b91039b2b63360891b60648201526084015b60405180910390fd5b610f8b8282611d5b565b5050565b6001600160a01b037f0000000000000000000000000000000000000000000000000000000000000000163003610fd75760405162461bcd60e51b8152600401610f78906138ab565b7f00000000000000000000000000000000000000000000000000000000000000006001600160a01b031661102060008051602061421b833981519152546001600160a01b031690565b6001600160a01b0316146110465760405162461bcd60e51b8152600401610f78906138f7565b61104f816120ca565b6040805160008082526020820190925261106b918391906120e2565b50565b600033610d028185856110818383611bfa565b61108b9190613959565b611dc2565b6000805160206142828339815191526110a881611ccb565b6b033b2e3c9fd0803ce8000000826110bf60355490565b6110c99190613959565b11156110e85760405163d05cb60960e01b815260040160405180910390fd5b610cd7838361224d565b6110fc338261230f565b8061016a600082825461110f9190613959565b909155505050565b600054610100900460ff16158080156111375750600054600160ff909116105b806111515750303b158015611151575060005460ff166001145b6111b45760405162461bcd60e51b815260206004820152602e60248201527f496e697469616c697a61626c653a20636f6e747261637420697320616c72656160448201526d191e481a5b9a5d1a585b1a5e995960921b6064820152608401610f78565b6000805460ff1916600117905580156111d7576000805461ff0019166101001790555b6111df612443565b6111e761246a565b6111f98b8b8b8b8b8b8b8b8b8b61249a565b611201612443565b6112506040518060400160405280600f81526020016e11185c9dda5b88141c9bdd1bd8dbdb608a1b815250604051806040016040528060068152602001652220a92ba4a760d11b81525061285d565b8015611296576000805461ff0019169055604051600181527f7f26b83ff96e1f2b6a682f133852f6798a09c465da95921460cefb38474024989060200160405180910390a15b5050505050505050505050565b6001600160a01b037f00000000000000000000000000000000000000000000000000000000000000001630036112eb5760405162461bcd60e51b8152600401610f78906138ab565b7f00000000000000000000000000000000000000000000000000000000000000006001600160a01b031661133460008051602061421b833981519152546001600160a01b031690565b6001600160a01b03161461135a5760405162461bcd60e51b8152600401610f78906138f7565b611363826120ca565b610f8b828260016120e2565b6000805160206142e283398151915261138781611ccb565b6101635460ff161580156113a4575061016354610100900460ff16155b156113b857610163805460ff191660011790555b6040514281527f03201d5333f14e6b008716235f97449493bbc08e25cf7d9282dd5b6e5f40a3b890602001610db6565b6000306001600160a01b037f000000000000000000000000000000000000000000000000000000000000000016146114885760405162461bcd60e51b815260206004820152603860248201527f555550535570677261646561626c653a206d757374206e6f742062652063616c60448201527f6c6564207468726f7567682064656c656761746563616c6c00000000000000006064820152608401610f78565b5060008051602061421b83398151915290565b60008051602061423b8339815191526114b381611ccb565b81156114d157610cd76000805160206142e283398151915284611cd5565b610cd76000805160206142e283398151915284611d5b565b6000805160206142c283398151915261150181611ccb565b610166546001600160a01b0316156115725760405162461bcd60e51b815260206004820152602e60248201527f44415257494e3a2044617277696e5377617020466163746f727920616464726560448201526d1cdcc8185b1c9958591e481cd95d60921b6064820152608401610f78565b61016680546001600160a01b0319166001600160a01b038416179055610f8b7fdfbefbf47cfe66b701d8cfdbce1de81c821590819cb07e71cb01b6602fb0ee2783611cd5565b6115c1336128ab565b610165546115da9033906001600160a01b031683612920565b61106b816129b5565b61016081815481106115f457600080fd5b6000918252602090912001546001600160a01b0316905081565b60008051602061423b83398151915261162681611ccb565b6101635460ff166113b857610163805460ff191660011790557f03201d5333f14e6b008716235f97449493bbc08e25cf7d9282dd5b6e5f40a3b842604051610db691815260200190565b6000805160206142e283398151915261168881611ccb565b6101635460ff1680156116a4575061016354610100900460ff16155b15610d8a57610163805460ff191690556040514281527fe4613ba0dfa18e3aefeaf8f3dca9b092edcc3588780e22b06960f54e6baf6c5790602001610db6565b6001600160a01b0381166000908152603360209081526040808320546101629092529091205460ff166117445761015f546001600160a01b0383166000908152610161602052604090205461173a9190836129f4565b610c099082613959565b919050565b611751612a22565b61175b6000612a7c565b565b600091825260c9602090815260408084206001600160a01b0393909316845291905290205460ff1690565b606060378054610c1e9061385b565b6000805160206142c28339815191526117af81611ccb565b610169546001600160a01b03161561181b5760405162461bcd60e51b815260206004820152602960248201527f44415257494e3a2044617277696e5374616b696e67206164647265737320616c6044820152681c9958591e481cd95d60ba1b6064820152608401610f78565b61016980546001600160a01b0319166001600160a01b03841617905561184082612ace565b61185860008051602061428283398151915283611cd5565b61016754604051634ed9b76960e11b81526001600160a01b03848116600483015290911690639db36ed290602401600060405180830381600087803b1580156118a057600080fd5b505af11580156118b4573d6000803e3d6000fd5b505050505050565b6000805160206142c28339815191526118d481611ccb565b610168546001600160a01b0316156119435760405162461bcd60e51b815260206004820152602c60248201527f44415257494e3a2044617277696e4d617374657243686566206164647265737360448201526b08185b1c9958591e481cd95d60a21b6064820152608401610f78565b61016880546001600160a01b0319166001600160a01b03841617905561196882612ace565b610f8b60008051602061428283398151915283611cd5565b6000338161198e8286611bfa565b9050838110156119ee5760405162461bcd60e51b815260206004820152602560248201527f45524332303a2064656372656173656420616c6c6f77616e63652062656c6f77604482015264207a65726f60d81b6064820152608401610f78565b6119fb8286868403611dc2565b506001949350505050565b600033610d02818585611ee6565b6000805160206142c2833981519152611a2c81611ccb565b610163805461ffff19166101001790556040517fdae4b7287d0ad53f98427f7b3c34b7ccb2b5fdd21aed8f0cbba0b43ed12572ac90610db69042815260200190565b6000805160206142c2833981519152611a8681611ccb565b61016354610100900460ff1615611aef5760405162461bcd60e51b815260206004820152602760248201527f44415257494e3a2044617277696e2050726f746f636f6c20697320616c7265616044820152666479206c69766560c81b6064820152608401610f78565b611af882612ace565b6001600160a01b03821660008181526101646020908152604091829020805460ff1916600117905590519182527fecb74fa935e0011a827a1f11fea488b75d0d5e48d5a91ce7e6fc3ff8048e0f72910160405180910390a15050565b7fdfbefbf47cfe66b701d8cfdbce1de81c821590819cb07e71cb01b6602fb0ee27611b7e81611ccb565b610f8b82612ace565b60008051602061423b833981519152611b9f81611ccb565b8115611bbd57610cd760008051602061428283398151915284611cd5565b610cd760008051602061428283398151915284611d5b565b600082815260c96020526040902060010154611bf081611ccb565b610cd78383611d5b565b6001600160a01b03918216600090815260346020908152604080832093909416825291909152205490565b611c2d612a22565b6001600160a01b038116611c925760405162461bcd60e51b815260206004820152602660248201527f4f776e61626c653a206e6577206f776e657220697320746865207a65726f206160448201526564647265737360d01b6064820152608401610f78565b61106b81612a7c565b60008051602061423b833981519152611cb381611ccb565b8115611cc257610cd783612ba9565b610cd783612ace565b61106b8133612d5f565b611cdf828261175d565b610f8b57600082815260c9602090815260408083206001600160a01b03851684529091529020805460ff19166001179055611d173390565b6001600160a01b0316816001600160a01b0316837f2f8788117e7eff1d82e926ec794901d17c78024a50270940304540a733656f0d60405160405180910390a45050565b611d65828261175d565b15610f8b57600082815260c9602090815260408083206001600160a01b0385168085529252808320805460ff1916905551339285917ff6391f5c32d9c69d2a47ea670b442974b53935d1edc7fd64eb21e047a839171b9190a45050565b6001600160a01b038316611e245760405162461bcd60e51b8152602060048201526024808201527f45524332303a20617070726f76652066726f6d20746865207a65726f206164646044820152637265737360e01b6064820152608401610f78565b6001600160a01b038216611e855760405162461bcd60e51b815260206004820152602260248201527f45524332303a20617070726f766520746f20746865207a65726f206164647265604482015261737360f01b6064820152608401610f78565b6001600160a01b0383811660008181526034602090815260408083209487168084529482529182902085905590518481527f8c5be1e5ebec7d5bd14f71427d1e84f3dd0314c0f7b2291e5b200ac8c7c3b925910160405180910390a3505050565b6001600160a01b038316611f4a5760405162461bcd60e51b815260206004820152602560248201527f45524332303a207472616e736665722066726f6d20746865207a65726f206164604482015264647265737360d81b6064820152608401610f78565b6001600160a01b038216611fac5760405162461bcd60e51b815260206004820152602360248201527f45524332303a207472616e7366657220746f20746865207a65726f206164647260448201526265737360e81b6064820152608401610f78565b611fb68383612db8565b6001600160a01b03831660009081526033602052604090205481811015611fef5760405162461bcd60e51b8152600401610f7890613971565b6001600160a01b0380851660008181526033602052604080822086860390559286168082529083902080548601905591516000805160206142a28339815191529061203d9086815260200190565b60405180910390a3612050848484612e3d565b50505050565b60006120628484611bfa565b9050600019811461205057818110156120bd5760405162461bcd60e51b815260206004820152601d60248201527f45524332303a20696e73756666696369656e7420616c6c6f77616e63650000006044820152606401610f78565b6120508484848403611dc2565b6000805160206141fb833981519152610f8b81611ccb565b7f4910fdfa16fed3260ed0e7147f7cc6da11a60208b5b9406d12a635614ffd91435460ff161561211557610cd783612e5d565b826001600160a01b03166352d1902d6040518163ffffffff1660e01b8152600401602060405180830381865afa92505050801561216f575060408051601f3d908101601f1916820190925261216c918101906139b7565b60015b6121d25760405162461bcd60e51b815260206004820152602e60248201527f45524331393637557067726164653a206e657720696d706c656d656e7461746960448201526d6f6e206973206e6f74205555505360901b6064820152608401610f78565b60008051602061421b83398151915281146122415760405162461bcd60e51b815260206004820152602960248201527f45524331393637557067726164653a20756e737570706f727465642070726f786044820152681a58589b195555525160ba1b6064820152608401610f78565b50610cd7838383612ef9565b6001600160a01b0382166122a35760405162461bcd60e51b815260206004820152601f60248201527f45524332303a206d696e7420746f20746865207a65726f2061646472657373006044820152606401610f78565b6122ae600083612db8565b80603560008282546122c09190613959565b90915550506001600160a01b0382166000818152603360209081526040808320805486019055518481526000805160206142a2833981519152910160405180910390a3610f8b60008383612e3d565b6001600160a01b03821661236f5760405162461bcd60e51b815260206004820152602160248201527f45524332303a206275726e2066726f6d20746865207a65726f206164647265736044820152607360f81b6064820152608401610f78565b61237a826000612db8565b6001600160a01b038216600090815260336020526040902054818110156123ee5760405162461bcd60e51b815260206004820152602260248201527f45524332303a206275726e20616d6f756e7420657863656564732062616c616e604482015261636560f01b6064820152608401610f78565b6001600160a01b03831660008181526033602090815260408083208686039055603580548790039055518581529192916000805160206142a2833981519152910160405180910390a3610cd783600084612e3d565b600054610100900460ff1661175b5760405162461bcd60e51b8152600401610f78906139d0565b600054610100900460ff166124915760405162461bcd60e51b8152600401610f78906139d0565b61175b33612a7c565b600054610100900460ff166124c15760405162461bcd60e51b8152600401610f78906139d0565b6000604051806020016124d3906133a6565b601f1982820381018352601f9091011660408190526bffffffffffffffffffffffff193060601b1660208201529091506000906034016040516020818303038152906040528051906020012090506000818351602085016000f561016780546001600160a01b039092166001600160a01b03199283161790556101658054909116733cc90773ebb2714180b424815f390d937974109b17905550600191506101649050600061257f3390565b6001600160a01b03908116825260208083019390935260409182016000908120805495151560ff199687161790558b821681526101649093528183208054851660019081179091558a821684528284208054861682179055868216845282842080548616821790558e8216845282842080548616821790558d821684528284208054861682179055908c168352912080549092161790556126256126203390565b612ace565b61262e85612ace565b61263784612ace565b61264083612ace565b6126498a612ace565b61265287612ace565b61265b82612ace565b61016554612671906001600160a01b0316612ace565b61267a89612ace565b61268388612ace565b600061271061269e60146a52b7d2dcc80cd2e4000000613a1b565b6126a89190613a3a565b905060006127106126c66103e86a52b7d2dcc80cd2e4000000613a1b565b6126d09190613a3a565b9050600060646126e1856019613a1b565b6126eb9190613a3a565b6127106127056117706a52b7d2dcc80cd2e4000000613a1b565b61270f9190613a3a565b6127199190613959565b90506000606461272a86604b613a1b565b6127349190613a3a565b9050600081836127448688613959565b61274e9190613959565b6127589190613959565b61276d906a52b7d2dcc80cd2e4000000613a5c565b90506127798b8661224d565b6127838c8561224d565b61278d338461224d565b6127978d8361224d565b6127a18e8261224d565b50505050506127b36000801b33611cd5565b6127cb6000805160206142c283398151915233611cd5565b6127e36000805160206142e283398151915233611cd5565b6127fb60008051602061423b8339815191528b611cd5565b6128136000805160206141fb8339815191528b611cd5565b61282b6000805160206142828339815191528a611cd5565b61284360008051602061428283398151915289611cd5565b5050610163805460ff191660011790555050505050505050565b600054610100900460ff166128845760405162461bcd60e51b8152600401610f78906139d0565b81516128979060369060208501906133b3565b508051610cd79060379060208401906133b3565b6001600160a01b0381166000908152610162602052604090205460ff16156128d05750565b61015f546001600160a01b0382166000908152610161602052604090205480821115610cd757612050828261291a866001600160a01b031660009081526033602052604090205490565b86612f1e565b6001600160a01b038316600090815260336020526040902054818110156129595760405162461bcd60e51b8152600401610f7890613971565b6001600160a01b0380851660008181526033602052604080822086860390559286168082529083902080548601905591516000805160206142a2833981519152906129a79086815260200190565b60405180910390a350505050565b6129bd612fbe565b6035546129ca9190613a5c565b6129d8600160a01b83613a1b565b6129e29190613a3a565b61015f600082825461110f9190613959565b6000600160a01b82612a068587613a5c565b612a109190613a1b565b612a1a9190613a3a565b949350505050565b6065546001600160a01b0316331461175b5760405162461bcd60e51b815260206004820181905260248201527f4f776e61626c653a2063616c6c6572206973206e6f7420746865206f776e65726044820152606401610f78565b606580546001600160a01b038381166001600160a01b0319831681179093556040519116919082907f8be0079c531659141344cd1fd0a4f28419497f9722a3daafe3b4186f6b6457e090600090a35050565b6001600160a01b0381166000908152610162602052604090205460ff1615612af35750565b61015f546001600160a01b0382166000908152610161602052604090205481811015612b3f57612b3d828261291a866001600160a01b031660009081526033602052604090205490565b505b50506001600160a01b0316600081815261016260205260408120805460ff19166001908117909155610160805491820181559091527fec7e130cdeeae65215fabbcddb1de429e603c4887cc659532eda903e493396630180546001600160a01b0319169091179055565b6001600160a01b0381166000908152610162602052604090205460ff16612bcd5750565b6001600160a01b038116600090815261016260209081526040808320805460ff1916905561016080548251818502810185019093528083529192909190830182828015612c4357602002820191906000526020600020905b81546001600160a01b03168152600190910190602001808311612c25575b5050505050905060005b8151811015612d3c57826001600160a01b0316828281518110612c7257612c72613895565b60200260200101516001600160a01b031603612d2a578160018351612c979190613a5c565b81518110612ca757612ca7613895565b60200260200101516101608281548110612cc357612cc3613895565b9060005260206000200160006101000a8154816001600160a01b0302191690836001600160a01b03160217905550610160805480612d0357612d03613a73565b600082815260209020810160001990810180546001600160a01b0319169055019055612d3c565b80612d3481613a89565b915050612c4d565b505061015f546001600160a01b0390911660009081526101616020526040902055565b612d69828261175d565b610f8b57612d7681613086565b612d81836020613098565b604051602001612d92929190613aa2565b60408051601f198184030181529082905262461bcd60e51b8252610f78916004016134a2565b6101635460ff168015612de05750612dde60008051602061423b8339815191523361175d565b155b15612e2b5761016354610100900460ff1680612e0d5750336000908152610164602052604090205460ff16155b15612e2b576040516313d0ff5960e31b815260040160405180910390fd5b612e34826128ab565b610f8b816128ab565b610165546001600160a01b0390811690831603610cd757610cd7816129b5565b6001600160a01b0381163b612eca5760405162461bcd60e51b815260206004820152602d60248201527f455243313936373a206e657720696d706c656d656e746174696f6e206973206e60448201526c1bdd08184818dbdb9d1c9858dd609a1b6064820152608401610f78565b60008051602061421b83398151915280546001600160a01b0319166001600160a01b0392909216919091179055565b612f0283613234565b600082511180612f0f5750805b15610cd7576120508383613274565b600080612f2c8686866129f4565b610165546001600160a01b0316600090815260336020526040902054909150811115612f705750610165546001600160a01b03166000908152603360205260409020545b6001600160a01b0383166000908152610161602052604090208690558015612faa5761016554612faa906001600160a01b03168483612920565b612fb48185613959565b9695505050505050565b60008061016080548060200260200160405190810160405280929190818152602001828054801561301857602002820191906000526020600020905b81546001600160a01b03168152600190910190602001808311612ffa575b5050505050905060005b81518110156130815761306382828151811061304057613040613895565b60200260200101516001600160a01b031660009081526033602052604090205490565b61306d9084613959565b92508061307981613a89565b915050613022565b505090565b6060610c096001600160a01b03831660145b606060006130a7836002613a1b565b6130b2906002613959565b67ffffffffffffffff8111156130ca576130ca613759565b6040519080825280601f01601f1916602001820160405280156130f4576020820181803683370190505b509050600360fc1b8160008151811061310f5761310f613895565b60200101906001600160f81b031916908160001a905350600f60fb1b8160018151811061313e5761313e613895565b60200101906001600160f81b031916908160001a9053506000613162846002613a1b565b61316d906001613959565b90505b60018111156131e5576f181899199a1a9b1b9c1cb0b131b232b360811b85600f16601081106131a1576131a1613895565b1a60f81b8282815181106131b7576131b7613895565b60200101906001600160f81b031916908160001a90535060049490941c936131de81613b17565b9050613170565b508315610e635760405162461bcd60e51b815260206004820181905260248201527f537472696e67733a20686578206c656e67746820696e73756666696369656e746044820152606401610f78565b61323d81612e5d565b6040516001600160a01b038216907fbc7cd75a20ee27fd9adebab32041f755214dbc6bffa90cc0225b39da2e5c2d3b90600090a250565b60606001600160a01b0383163b6132dc5760405162461bcd60e51b815260206004820152602660248201527f416464726573733a2064656c65676174652063616c6c20746f206e6f6e2d636f6044820152651b9d1c9858dd60d21b6064820152608401610f78565b600080846001600160a01b0316846040516132f79190613b2e565b600060405180830381855af49150503d8060008114613332576040519150601f19603f3d011682016040523d82523d6000602084013e613337565b606091505b509150915061335f828260405180606001604052806027815260200161425b60279139613368565b95945050505050565b60608315613377575081610e63565b610e63838381511561338c5781518083602001fd5b8060405162461bcd60e51b8152600401610f7891906134a2565b6106b080613b4b83390190565b8280546133bf9061385b565b90600052602060002090601f0160209004810192826133e15760008555613427565b82601f106133fa57805160ff1916838001178555613427565b82800160010185558215613427579182015b8281111561342757825182559160200191906001019061340c565b50613433929150613437565b5090565b5b808211156134335760008155600101613438565b60006020828403121561345e57600080fd5b81356001600160e01b031981168114610e6357600080fd5b60005b83811015613491578181015183820152602001613479565b838111156120505750506000910152565b60208152600082518060208401526134c1816040850160208701613476565b601f01601f19169190910160400192915050565b80356001600160a01b038116811461174457600080fd5b600080604083850312156134ff57600080fd5b613508836134d5565b91506020830135801515811461351d57600080fd5b809150509250929050565b6000806040838503121561353b57600080fd5b613544836134d5565b946020939093013593505050565b60008083601f84011261356457600080fd5b50813567ffffffffffffffff81111561357c57600080fd5b6020830191508360208260051b850101111561359757600080fd5b9250929050565b600080600080604085870312156135b457600080fd5b843567ffffffffffffffff808211156135cc57600080fd5b6135d888838901613552565b909650945060208701359150808211156135f157600080fd5b506135fe87828801613552565b95989497509550505050565b60008060006060848603121561361f57600080fd5b613628846134d5565b9250613636602085016134d5565b9150604084013590509250925092565b60006020828403121561365857600080fd5b5035919050565b6000806040838503121561367257600080fd5b82359150613682602084016134d5565b90509250929050565b60006020828403121561369d57600080fd5b610e63826134d5565b6000806000806000806000806000806101408b8d0312156136c657600080fd5b6136cf8b6134d5565b99506136dd60208c016134d5565b98506136eb60408c016134d5565b97506136f960608c016134d5565b965061370760808c016134d5565b955061371560a08c016134d5565b945061372360c08c016134d5565b935061373160e08c016134d5565b92506137406101008c016134d5565b91506101208b013590509295989b9194979a5092959850565b634e487b7160e01b600052604160045260246000fd5b6000806040838503121561378257600080fd5b61378b836134d5565b9150602083013567ffffffffffffffff808211156137a857600080fd5b818501915085601f8301126137bc57600080fd5b8135818111156137ce576137ce613759565b604051601f8201601f19908116603f011681019083821181831017156137f6576137f6613759565b8160405282815288602084870101111561380f57600080fd5b8260208601602083013760006020848301015280955050505050509250929050565b6000806040838503121561384457600080fd5b61384d836134d5565b9150613682602084016134d5565b600181811c9082168061386f57607f821691505b60208210810361388f57634e487b7160e01b600052602260045260246000fd5b50919050565b634e487b7160e01b600052603260045260246000fd5b6020808252602c908201527f46756e6374696f6e206d7573742062652063616c6c6564207468726f7567682060408201526b19195b1959d85d1958d85b1b60a21b606082015260800190565b6020808252602c908201527f46756e6374696f6e206d7573742062652063616c6c6564207468726f7567682060408201526b6163746976652070726f787960a01b606082015260800190565b634e487b7160e01b600052601160045260246000fd5b6000821982111561396c5761396c613943565b500190565b60208082526026908201527f45524332303a207472616e7366657220616d6f756e7420657863656564732062604082015265616c616e636560d01b606082015260800190565b6000602082840312156139c957600080fd5b5051919050565b6020808252602b908201527f496e697469616c697a61626c653a20636f6e7472616374206973206e6f74206960408201526a6e697469616c697a696e6760a81b606082015260800190565b6000816000190483118215151615613a3557613a35613943565b500290565b600082613a5757634e487b7160e01b600052601260045260246000fd5b500490565b600082821015613a6e57613a6e613943565b500390565b634e487b7160e01b600052603160045260246000fd5b600060018201613a9b57613a9b613943565b5060010190565b7f416363657373436f6e74726f6c3a206163636f756e7420000000000000000000815260008351613ada816017850160208801613476565b7001034b99036b4b9b9b4b733903937b6329607d1b6017918401918201528351613b0b816028840160208801613476565b01602801949350505050565b600081613b2657613b26613943565b506000190190565b60008251613b40818460208701613476565b919091019291505056fe60a060405234801561001057600080fd5b50336080526080516106796100376000396000818161010a01526102cd01526106796000f3fe608060405234801561001057600080fd5b506004361061009e5760003560e01c806370a082311161006657806370a082311461017357806384789b521461019357806395d89b41146101a65780639db36ed2146101cc5780639dc29fac146101df57600080fd5b806306fdde03146100a357806318160ddd146100ee5780633110c79214610105578063313ce5671461014457806340c10f191461015e575b600080fd5b6100d86040518060400160405280601681526020017514dd185ad9590811185c9dda5b88141c9bdd1bd8dbdb60521b81525081565b6040516100e59190610541565b60405180910390f35b6100f760015481565b6040519081526020016100e5565b61012c7f000000000000000000000000000000000000000000000000000000000000000081565b6040516001600160a01b0390911681526020016100e5565b61014c601281565b60405160ff90911681526020016100e5565b61017161016c3660046105b2565b6101f2565b005b6100f76101813660046105dc565b60026020526000908152604090205481565b60005461012c906001600160a01b031681565b6100d86040518060400160405280600781526020016639a220a92ba4a760c91b81525081565b6101716101da3660046105dc565b61025f565b6101716101ed3660046105b2565b61035c565b6000546001600160a01b031633146102515760405162461bcd60e51b815260206004820181905260248201527f5374616b656444617277696e3a2043414c4c45525f4e4f545f5354414b494e4760448201526064015b60405180910390fd5b61025b82826103c0565b5050565b6000546001600160a01b0316156102c25760405162461bcd60e51b815260206004820152602160248201527f5374616b656444617277696e3a205354414b494e475f414c52454144595f53456044820152601560fa1b6064820152608401610248565b336001600160a01b037f0000000000000000000000000000000000000000000000000000000000000000161461033a5760405162461bcd60e51b815260206004820152601f60248201527f5374616b656444617277696e3a2043414c4c45525f4e4f545f44415257494e006044820152606401610248565b600080546001600160a01b0319166001600160a01b0392909216919091179055565b6000546001600160a01b031633146103b65760405162461bcd60e51b815260206004820181905260248201527f5374616b656444617277696e3a2043414c4c45525f4e4f545f5354414b494e476044820152606401610248565b61025b828261044a565b80600160008282546103d29190610614565b90915550506001600160a01b038216600090815260026020526040812080548392906103ff908490610614565b90915550506040518181526001600160a01b038316906000907fddf252ad1be2c89b69c2b068fc378daa952ba7f163c4a11628f55a4df523b3ef906020015b60405180910390a35050565b6001600160a01b0382166000908152600260205260409020548111156104bd5760405162461bcd60e51b815260206004820152602260248201527f5374616b656444617277696e3a204255524e5f455843454544535f42414c414e604482015261434560f01b6064820152608401610248565b6001600160a01b038216600090815260026020526040812080548392906104e590849061062c565b9250508190555080600160008282546104fe919061062c565b90915550506040518181526000906001600160a01b038416907fddf252ad1be2c89b69c2b068fc378daa952ba7f163c4a11628f55a4df523b3ef9060200161043e565b600060208083528351808285015260005b8181101561056e57858101830151858201604001528201610552565b81811115610580576000604083870101525b50601f01601f1916929092016040019392505050565b80356001600160a01b03811681146105ad57600080fd5b919050565b600080604083850312156105c557600080fd5b6105ce83610596565b946020939093013593505050565b6000602082840312156105ee57600080fd5b6105f782610596565b9392505050565b634e487b7160e01b600052601160045260246000fd5b60008219821115610627576106276105fe565b500190565b60008282101561063e5761063e6105fe565b50039056fea2646970667358221220a0b3a439829f9b51e30d1926dac7413ef7d0fd190d15b36c45591f334ebc830a64736f6c634300080e0033189ab7a9244df0848122154315af71fe140f3db0fe014031783b0946b8c9d2e3360894a13ba1a3210667c828492db98dca3e2076cc3735a920a3ca505d382bbc78afd8eb771d7501d125738bdabc2c1f8b945a7e4fcba88e940ac2d88fb25666416464726573733a206c6f772d6c6576656c2064656c65676174652063616c6c206661696c65649f2df0fed2c77648de5860a4cc508cd0818c85b8b8a1ab4ceeef8d981c8956a6ddf252ad1be2c89b69c2b068fc378daa952ba7f163c4a11628f55a4df523b3efb06fd1d7ac3cc9ad93e77413fab9fcd3bbd887f5685e519e34e0e80802d074ee4698baa05b306e3e5e3fa66d29891e203a1418ef5bee962e2c9b109f129e8920a2646970667358221220a8a61010cdd30d55d17f7be835fbe26fad80c12ffd1352c222d08071e57ad8d064736f6c634300080e0033",
  "linkReferences": {},
  "deployedLinkReferences": {}
}