{
  "_format": "hh-sol-artifact-1",
  "contractName": "EvoturesNFT",
  "sourceName": "contracts/EvoturesNFT.sol",
  "abi": [
    {
      "inputs": [
        {
          "internalType": "uint16[]",
          "name": "unminted_",
          "type": "uint16[]"
        },
        {
          "internalType": "contract IBoosterNFT",
          "name": "_boosterContract",
          "type": "address"
        }
      ],
      "stateMutability": "nonpayable",
      "type": "constructor"
    },
    {
      "anonymous": false,
      "inputs": [
        {
          "indexed": true,
          "internalType": "address",
          "name": "owner",
          "type": "address"
        },
        {
          "indexed": true,
          "internalType": "address",
          "name": "approved",
          "type": "address"
        },
        {
          "indexed": true,
          "internalType": "uint256",
          "name": "tokenId",
          "type": "uint256"
        }
      ],
      "name": "Approval",
      "type": "event"
    },
    {
      "anonymous": false,
      "inputs": [
        {
          "indexed": true,
          "internalType": "address",
          "name": "owner",
          "type": "address"
        },
        {
          "indexed": true,
          "internalType": "address",
          "name": "operator",
          "type": "address"
        },
        {
          "indexed": false,
          "internalType": "bool",
          "name": "approved",
          "type": "bool"
        }
      ],
      "name": "ApprovalForAll",
      "type": "event"
    },
    {
      "anonymous": false,
      "inputs": [
        {
          "indexed": true,
          "internalType": "address",
          "name": "from",
          "type": "address"
        },
        {
          "indexed": true,
          "internalType": "address",
          "name": "to",
          "type": "address"
        },
        {
          "indexed": true,
          "internalType": "uint256",
          "name": "tokenId",
          "type": "uint256"
        }
      ],
      "name": "Transfer",
      "type": "event"
    },
    {
      "inputs": [],
      "name": "BOOSTER_PRICE",
      "outputs": [
        {
          "internalType": "uint56",
          "name": "",
          "type": "uint56"
        }
      ],
      "stateMutability": "view",
      "type": "function"
    },
    {
      "inputs": [],
      "name": "EVOTURES_PRICE",
      "outputs": [
        {
          "internalType": "uint56",
          "name": "",
          "type": "uint56"
        }
      ],
      "stateMutability": "view",
      "type": "function"
    },
    {
      "inputs": [
        {
          "internalType": "uint16",
          "name": "_tokenId",
          "type": "uint16"
        },
        {
          "internalType": "uint16",
          "name": "_boosterTokenId",
          "type": "uint16"
        }
      ],
      "name": "addBooster",
      "outputs": [],
      "stateMutability": "nonpayable",
      "type": "function"
    },
    {
      "inputs": [
        {
          "internalType": "address",
          "name": "to",
          "type": "address"
        },
        {
          "internalType": "uint256",
          "name": "tokenId",
          "type": "uint256"
        }
      ],
      "name": "approve",
      "outputs": [],
      "stateMutability": "nonpayable",
      "type": "function"
    },
    {
      "inputs": [
        {
          "internalType": "address",
          "name": "owner",
          "type": "address"
        }
      ],
      "name": "balanceOf",
      "outputs": [
        {
          "internalType": "uint256",
          "name": "",
          "type": "uint256"
        }
      ],
      "stateMutability": "view",
      "type": "function"
    },
    {
      "inputs": [],
      "name": "boosterContract",
      "outputs": [
        {
          "internalType": "contract IBoosterNFT",
          "name": "",
          "type": "address"
        }
      ],
      "stateMutability": "view",
      "type": "function"
    },
    {
      "inputs": [
        {
          "internalType": "uint16",
          "name": "_tokenId",
          "type": "uint16"
        }
      ],
      "name": "boosters",
      "outputs": [
        {
          "internalType": "uint16[]",
          "name": "",
          "type": "uint16[]"
        }
      ],
      "stateMutability": "view",
      "type": "function"
    },
    {
      "inputs": [
        {
          "internalType": "uint256[]",
          "name": "_randomWords",
          "type": "uint256[]"
        },
        {
          "internalType": "uint8",
          "name": "_evotures",
          "type": "uint8"
        },
        {
          "internalType": "uint8",
          "name": "boosters_",
          "type": "uint8"
        }
      ],
      "name": "chainlinkMint",
      "outputs": [],
      "stateMutability": "nonpayable",
      "type": "function"
    },
    {
      "inputs": [],
      "name": "contractURI",
      "outputs": [
        {
          "internalType": "string",
          "name": "",
          "type": "string"
        }
      ],
      "stateMutability": "pure",
      "type": "function"
    },
    {
      "inputs": [],
      "name": "dev",
      "outputs": [
        {
          "internalType": "address",
          "name": "",
          "type": "address"
        }
      ],
      "stateMutability": "view",
      "type": "function"
    },
    {
      "inputs": [
        {
          "internalType": "uint256",
          "name": "tokenId",
          "type": "uint256"
        }
      ],
      "name": "getApproved",
      "outputs": [
        {
          "internalType": "address",
          "name": "",
          "type": "address"
        }
      ],
      "stateMutability": "view",
      "type": "function"
    },
    {
      "inputs": [
        {
          "internalType": "address",
          "name": "owner",
          "type": "address"
        },
        {
          "internalType": "address",
          "name": "operator",
          "type": "address"
        }
      ],
      "name": "isApprovedForAll",
      "outputs": [
        {
          "internalType": "bool",
          "name": "",
          "type": "bool"
        }
      ],
      "stateMutability": "view",
      "type": "function"
    },
    {
      "inputs": [
        {
          "internalType": "uint8",
          "name": "_evotures",
          "type": "uint8"
        },
        {
          "internalType": "uint8",
          "name": "boosters_",
          "type": "uint8"
        }
      ],
      "name": "mint",
      "outputs": [],
      "stateMutability": "payable",
      "type": "function"
    },
    {
      "inputs": [
        {
          "internalType": "uint16",
          "name": "id",
          "type": "uint16"
        }
      ],
      "name": "multipliers",
      "outputs": [
        {
          "internalType": "uint16",
          "name": "mult",
          "type": "uint16"
        }
      ],
      "stateMutability": "view",
      "type": "function"
    },
    {
      "inputs": [],
      "name": "name",
      "outputs": [
        {
          "internalType": "string",
          "name": "",
          "type": "string"
        }
      ],
      "stateMutability": "view",
      "type": "function"
    },
    {
      "inputs": [
        {
          "internalType": "address",
          "name": "",
          "type": "address"
        },
        {
          "internalType": "address",
          "name": "",
          "type": "address"
        },
        {
          "internalType": "uint256",
          "name": "",
          "type": "uint256"
        },
        {
          "internalType": "bytes",
          "name": "",
          "type": "bytes"
        }
      ],
      "name": "onERC721Received",
      "outputs": [
        {
          "internalType": "bytes4",
          "name": "",
          "type": "bytes4"
        }
      ],
      "stateMutability": "pure",
      "type": "function"
    },
    {
      "inputs": [
        {
          "internalType": "uint256",
          "name": "tokenId",
          "type": "uint256"
        }
      ],
      "name": "ownerOf",
      "outputs": [
        {
          "internalType": "address",
          "name": "",
          "type": "address"
        }
      ],
      "stateMutability": "view",
      "type": "function"
    },
    {
      "inputs": [
        {
          "internalType": "uint16",
          "name": "_tokenId",
          "type": "uint16"
        },
        {
          "internalType": "uint16",
          "name": "_boosterTokenId",
          "type": "uint16"
        }
      ],
      "name": "removeBooster",
      "outputs": [],
      "stateMutability": "nonpayable",
      "type": "function"
    },
    {
      "inputs": [
        {
          "internalType": "address",
          "name": "from",
          "type": "address"
        },
        {
          "internalType": "address",
          "name": "to",
          "type": "address"
        },
        {
          "internalType": "uint256",
          "name": "tokenId",
          "type": "uint256"
        }
      ],
      "name": "safeTransferFrom",
      "outputs": [],
      "stateMutability": "nonpayable",
      "type": "function"
    },
    {
      "inputs": [
        {
          "internalType": "address",
          "name": "from",
          "type": "address"
        },
        {
          "internalType": "address",
          "name": "to",
          "type": "address"
        },
        {
          "internalType": "uint256",
          "name": "tokenId",
          "type": "uint256"
        },
        {
          "internalType": "bytes",
          "name": "data",
          "type": "bytes"
        }
      ],
      "name": "safeTransferFrom",
      "outputs": [],
      "stateMutability": "nonpayable",
      "type": "function"
    },
    {
      "inputs": [
        {
          "internalType": "address",
          "name": "operator",
          "type": "address"
        },
        {
          "internalType": "bool",
          "name": "approved",
          "type": "bool"
        }
      ],
      "name": "setApprovalForAll",
      "outputs": [],
      "stateMutability": "nonpayable",
      "type": "function"
    },
    {
      "inputs": [
        {
          "internalType": "bytes4",
          "name": "interfaceId",
          "type": "bytes4"
        }
      ],
      "name": "supportsInterface",
      "outputs": [
        {
          "internalType": "bool",
          "name": "",
          "type": "bool"
        }
      ],
      "stateMutability": "view",
      "type": "function"
    },
    {
      "inputs": [],
      "name": "symbol",
      "outputs": [
        {
          "internalType": "string",
          "name": "",
          "type": "string"
        }
      ],
      "stateMutability": "view",
      "type": "function"
    },
    {
      "inputs": [
        {
          "internalType": "uint256",
          "name": "tokenId",
          "type": "uint256"
        }
      ],
      "name": "tokenURI",
      "outputs": [
        {
          "internalType": "string",
          "name": "",
          "type": "string"
        }
      ],
      "stateMutability": "view",
      "type": "function"
    },
    {
      "inputs": [],
      "name": "totalMinted",
      "outputs": [
        {
          "internalType": "uint16",
          "name": "",
          "type": "uint16"
        }
      ],
      "stateMutability": "view",
      "type": "function"
    },
    {
      "inputs": [
        {
          "internalType": "address",
          "name": "from",
          "type": "address"
        },
        {
          "internalType": "address",
          "name": "to",
          "type": "address"
        },
        {
          "internalType": "uint256",
          "name": "tokenId",
          "type": "uint256"
        }
      ],
      "name": "transferFrom",
      "outputs": [],
      "stateMutability": "nonpayable",
      "type": "function"
    },
    {
      "inputs": [],
      "name": "unminted",
      "outputs": [
        {
          "internalType": "uint16[]",
          "name": "",
          "type": "uint16[]"
        }
      ],
      "stateMutability": "view",
      "type": "function"
    },
    {
      "inputs": [
        {
          "internalType": "address",
          "name": "_user",
          "type": "address"
        }
      ],
      "name": "userMinted",
      "outputs": [
        {
          "internalType": "uint16[]",
          "name": "",
          "type": "uint16[]"
        }
      ],
      "stateMutability": "view",
      "type": "function"
    },
    {
      "inputs": [],
      "name": "vrfConsumer",
      "outputs": [
        {
          "internalType": "contract IVRFv2Consumer",
          "name": "",
          "type": "address"
        }
      ],
      "stateMutability": "view",
      "type": "function"
    },
    {
      "inputs": [],
      "name": "withdrawETH",
      "outputs": [],
      "stateMutability": "nonpayable",
      "type": "function"
    },
    {
      "stateMutability": "payable",
      "type": "receive"
    }
  ],
  "bytecode": "0x60a060405260078054642386f26fc160c21b66ffffffffffffff60b01b199091161790556008805466ffffffffffffff1916661550f7dca700001790553480156200004957600080fd5b5060405162004351380380620043518339810160408190526200006c9162000710565b604080518082018252600d81526c45766f7475726573204e46547360981b60208083019182528351808501909452600884526745564f545552455360c01b908401528151919291620000c19160009162000570565b508051620000d790600190602084019062000570565b505050600060405180602001620000ee90620005ff565b601f1982820381018352601f9091011660408190526001600160601b03193060601b1660208201529091506000906034016040516020818303038152906040528051906020012090506000818351602085016000f5600780546001600160a01b0319166001600160a01b0383161790553360805285519091506200017a9060099060208801906200060d565b50600680546001600160a01b0319166001600160a01b038616179055620001a43361080d620001d2565b620001b233610848620001d2565b50506007805461ffff60a01b1916600160a11b17905550620008e0915050565b620001f4828260405180602001604052806000815250620001f860201b60201c565b5050565b62000204838362000274565b62000213600084848462000405565b6200026f5760405162461bcd60e51b815260206004820152603260248201526000805160206200433183398151915260448201527131b2b4bb32b91034b6b83632b6b2b73a32b960711b60648201526084015b60405180910390fd5b505050565b6001600160a01b038216620002cc5760405162461bcd60e51b815260206004820181905260248201527f4552433732313a206d696e7420746f20746865207a65726f2061646472657373604482015260640162000266565b6000818152600260205260409020546001600160a01b031615620003335760405162461bcd60e51b815260206004820152601c60248201527f4552433732313a20746f6b656e20616c7265616479206d696e74656400000000604482015260640162000266565b6000818152600260205260409020546001600160a01b0316156200039a5760405162461bcd60e51b815260206004820152601c60248201527f4552433732313a20746f6b656e20616c7265616479206d696e74656400000000604482015260640162000266565b6001600160a01b038216600081815260036020908152604080832080546001019055848352600290915280822080546001600160a01b0319168417905551839291907fddf252ad1be2c89b69c2b068fc378daa952ba7f163c4a11628f55a4df523b3ef908290a45050565b600062000426846001600160a01b03166200056160201b620019941760201c565b156200055557604051630a85bd0160e11b81526001600160a01b0385169063150b7a029062000460903390899088908890600401620007f6565b6020604051808303816000875af19250505080156200049e575060408051601f3d908101601f191682019092526200049b9181019062000871565b60015b6200053a573d808015620004cf576040519150601f19603f3d011682016040523d82523d6000602084013e620004d4565b606091505b508051600003620005325760405162461bcd60e51b815260206004820152603260248201526000805160206200433183398151915260448201527131b2b4bb32b91034b6b83632b6b2b73a32b960711b606482015260840162000266565b805181602001fd5b6001600160e01b031916630a85bd0160e11b14905062000559565b5060015b949350505050565b6001600160a01b03163b151590565b8280546200057e90620008a4565b90600052602060002090601f016020900481019282620005a25760008555620005ed565b82601f10620005bd57805160ff1916838001178555620005ed565b82800160010185558215620005ed579182015b82811115620005ed578251825591602001919060010190620005d0565b50620005fb929150620006b3565b5090565b610d0f806200362283390190565b82805482825590600052602060002090600f01601090048101928215620005ed5791602002820160005b838211156200067957835183826101000a81548161ffff021916908361ffff160217905550926020019260020160208160010104928301926001030262000637565b8015620006a95782816101000a81549061ffff021916905560020160208160010104928301926001030262000679565b5050620005fb9291505b5b80821115620005fb5760008155600101620006b4565b634e487b7160e01b600052604160045260246000fd5b805161ffff81168114620006f357600080fd5b919050565b80516001600160a01b0381168114620006f357600080fd5b600080604083850312156200072457600080fd5b82516001600160401b03808211156200073c57600080fd5b818501915085601f8301126200075157600080fd5b8151602082821115620007685762000768620006ca565b8160051b604051601f19603f83011681018181108682111715620007905762000790620006ca565b604052928352818301935084810182019289841115620007af57600080fd5b948201945b83861015620007d857620007c886620006e0565b85529482019493820193620007b4565b9650620007e99050878201620006f8565b9450505050509250929050565b600060018060a01b038087168352602081871681850152856040850152608060608501528451915081608085015260005b82811015620008455785810182015185820160a00152810162000827565b828111156200085857600060a084870101525b5050601f01601f19169190910160a00195945050505050565b6000602082840312156200088457600080fd5b81516001600160e01b0319811681146200089d57600080fd5b9392505050565b600181811c90821680620008b957607f821691505b602082108103620008da57634e487b7160e01b600052602260045260246000fd5b50919050565b608051612d1f620009036000396000818161049b01526118490152612d1f6000f3fe6080604052600436106101d15760003560e01c80635b6cc627116100f7578063afd8e4fa11610095578063d183d33411610064578063d183d334146105b3578063e086e5ec146105d3578063e8a3d485146105e8578063e985e9c5146105fd57600080fd5b8063afd8e4fa14610514578063b88d4fde14610553578063c87b56dd14610573578063d035770c1461059357600080fd5b806391cca3db116100d157806391cca3db1461048957806395d89b41146104bd578063a22cb465146104d2578063a2309ff8146104f257600080fd5b80635b6cc6271461041b5780636352211e1461043b57806370a082311461045b57600080fd5b80631ef4d1fd1161016f57806329a0eee81161013e57806329a0eee8146103a057806337321589146103b35780633a3328cb146103c857806342842e0e146103fb57600080fd5b80631ef4d1fd146103205780632163a04a1461034057806323b872dd1461036057806327f7be991461038057600080fd5b8063095ea7b3116101ab578063095ea7b31461026c578063150b7a021461028e5780631aa5e872146102d35780631ceb921f1461030057600080fd5b806301ffc9a7146101dd57806306fdde0314610212578063081812fc1461023457600080fd5b366101d857005b600080fd5b3480156101e957600080fd5b506101fd6101f836600461228c565b610646565b60405190151581526020015b60405180910390f35b34801561021e57600080fd5b50610227610698565b6040516102099190612308565b34801561024057600080fd5b5061025461024f36600461231b565b61072a565b6040516001600160a01b039091168152602001610209565b34801561027857600080fd5b5061028c610287366004612350565b610751565b005b34801561029a57600080fd5b506102ba6102a936600461237a565b630a85bd0160e11b95945050505050565b6040516001600160e01b03199091168152602001610209565b3480156102df57600080fd5b506102f36102ee366004612415565b61086b565b6040516102099190612430565b34801561030c57600080fd5b5061028c61031b366004612488565b6108ff565b34801561032c57600080fd5b50600754610254906001600160a01b031681565b34801561034c57600080fd5b5061028c61035b366004612488565b610bf7565b34801561036c57600080fd5b5061028c61037b3660046124c1565b610da0565b34801561038c57600080fd5b50600654610254906001600160a01b031681565b61028c6103ae366004612517565b610dd1565b3480156103bf57600080fd5b506102f3610fcd565b3480156103d457600080fd5b506103e86103e3366004612545565b61104c565b60405161ffff9091168152602001610209565b34801561040757600080fd5b5061028c6104163660046124c1565b611285565b34801561042757600080fd5b506102f3610436366004612545565b6112a0565b34801561044757600080fd5b5061025461045636600461231b565b611309565b34801561046757600080fd5b5061047b610476366004612415565b611369565b604051908152602001610209565b34801561049557600080fd5b506102547f000000000000000000000000000000000000000000000000000000000000000081565b3480156104c957600080fd5b506102276113ef565b3480156104de57600080fd5b5061028c6104ed366004612562565b6113fe565b3480156104fe57600080fd5b506007546103e890600160a01b900461ffff1681565b34801561052057600080fd5b5060075461053b90600160b01b900466ffffffffffffff1681565b60405166ffffffffffffff9091168152602001610209565b34801561055f57600080fd5b5061028c61056e3660046125da565b61140d565b34801561057f57600080fd5b5061022761058e36600461231b565b611445565b34801561059f57600080fd5b5060085461053b9066ffffffffffffff1681565b3480156105bf57600080fd5b5061028c6105ce3660046126be565b6114ab565b3480156105df57600080fd5b5061028c61183e565b3480156105f457600080fd5b50610227611974565b34801561060957600080fd5b506101fd610618366004612776565b6001600160a01b03918216600090815260056020908152604080832093909416825291909152205460ff1690565b60006001600160e01b031982166380ac58cd60e01b148061067757506001600160e01b03198216635b5e139f60e01b145b8061069257506301ffc9a760e01b6001600160e01b03198316145b92915050565b6060600080546106a7906127a9565b80601f01602080910402602001604051908101604052809291908181526020018280546106d3906127a9565b80156107205780601f106106f557610100808354040283529160200191610720565b820191906000526020600020905b81548152906001019060200180831161070357829003601f168201915b5050505050905090565b6000610735826119a3565b506000908152600460205260409020546001600160a01b031690565b600061075c82611309565b9050806001600160a01b0316836001600160a01b0316036107ce5760405162461bcd60e51b815260206004820152602160248201527f4552433732313a20617070726f76616c20746f2063757272656e74206f776e656044820152603960f91b60648201526084015b60405180910390fd5b336001600160a01b03821614806107ea57506107ea8133610618565b61085c5760405162461bcd60e51b815260206004820152603d60248201527f4552433732313a20617070726f76652063616c6c6572206973206e6f7420746f60448201527f6b656e206f776e6572206f7220617070726f76656420666f7220616c6c00000060648201526084016107c5565b6108668383611a02565b505050565b6001600160a01b0381166000908152600a60209081526040918290208054835181840281018401909452808452606093928301828280156108f357602002820191906000526020600020906000905b82829054906101000a900461ffff1661ffff16815260200190600201906020826001010492830192600103820291508084116108ba5790505b50505050509050919050565b3361090d61ffff8416611309565b6001600160a01b0316146109805760405162461bcd60e51b815260206004820152603460248201527f45766f74757265734e46543a3a72656d6f7665426f6f737465723a2043414c4c60448201527322a92fa727aa2fa2ab27aa2aa922afa7aba722a960611b60648201526084016107c5565b61ffff82166000908152600b60205260409020546109f55760405162461bcd60e51b815260206004820152602c60248201527f45766f74757265734e46543a3a72656d6f7665426f6f737465723a204e4f5f4260448201526b13d3d4d5115497d05111115160a21b60648201526084016107c5565b600654604051632142170760e11b815230600482015233602482015261ffff831660448201526001600160a01b03909116906342842e0e90606401600060405180830381600087803b158015610a4a57600080fd5b505af1158015610a5e573d6000803e3d6000fd5b5050505060005b61ffff83166000908152600b602052604090205460ff821610156108665761ffff8381166000908152600b6020526040902080549184169160ff8416908110610ab057610ab06127dd565b60009182526020909120601082040154600f9091166002026101000a900461ffff1603610be55761ffff83166000908152600b602052604090208054610af890600190612809565b81548110610b0857610b086127dd565b90600052602060002090601091828204019190066002029054906101000a900461ffff16600b60008561ffff1661ffff1681526020019081526020016000208260ff1681548110610b5b57610b5b6127dd565b90600052602060002090601091828204019190066002026101000a81548161ffff021916908361ffff160217905550600b60008461ffff1661ffff168152602001908152602001600020805480610bb457610bb4612820565b600082815260209020601060001990920191820401805461ffff6002600f8516026101000a02191690559055505050565b80610bef81612836565b915050610a65565b33610c0561ffff8416611309565b6001600160a01b031614610c755760405162461bcd60e51b815260206004820152603160248201527f45766f74757265734e46543a3a616464426f6f737465723a2043414c4c45525f6044820152702727aa2fa2ab27aa2aa922afa7aba722a960791b60648201526084016107c5565b61ffff82166000908152600b6020526040902054600511610cec5760405162461bcd60e51b815260206004820152602b60248201527f45766f74757265734e46543a3a616464426f6f737465723a204d41585f424f4f60448201526a14d5115494d7d05111115160aa1b60648201526084016107c5565b600654604051632142170760e11b815233600482015230602482015261ffff831660448201526001600160a01b03909116906342842e0e90606401600060405180830381600087803b158015610d4157600080fd5b505af1158015610d55573d6000803e3d6000fd5b5050505061ffff9182166000908152600b6020908152604082208054600181018255908352912060108204018054600f9092166002026101000a808502199092169290931602179055565b610daa3382611a70565b610dc65760405162461bcd60e51b81526004016107c590612855565b610866838383611aef565b60095460ff83161115610e265760405162461bcd60e51b815260206004820181905260248201527f45766f74757265734e46543a3a6d696e743a204d494e545f455843454544454460448201526064016107c5565b336000908152600a6020526040902054610e41906003612809565b8260ff1611158015610e57575060058160ff1611155b610ea35760405162461bcd60e51b815260206004820152601c60248201527f45766f74757265734e46543a3a6d696e743a20464f5242494444454e0000000060448201526064016107c5565b60085466ffffffffffffff16610eb982846128a2565b60ff16610ec691906128cb565b600754610ee690600160b01b900466ffffffffffffff1660ff85166128cb565b610ef091906128fa565b66ffffffffffffff16341015610f545760405162461bcd60e51b815260206004820152602360248201527f45766f74757265734e46543a3a6d696e743a20494e53554646494349454e545f60448201526208aa8960eb1b60648201526084016107c5565b60075460405163bbcaf7e160e01b815260ff8085166004830152831660248201526001600160a01b039091169063bbcaf7e1906044016020604051808303816000875af1158015610fa9573d6000803e3d6000fd5b505050506040513d601f19601f820116820180604052508101906108669190612925565b6060600980548060200260200160405190810160405280929190818152602001828054801561072057602002820191906000526020600020906000905b82829054906101000a900461ffff1661ffff168152602001906002019060208260010104928301926001038202915080841161100a5790505050505050905090565b61ffff81166000908152600b60209081526040808320805482518185028101850190935280835284938301828280156110cc57602002820191906000526020600020906000905b82829054906101000a900461ffff1661ffff16815260200190600201906020826001010492830192600103820291508084116110935790505b5050505050905060005b81518160ff16101561119e5760065482516001600160a01b03909116906359ea5adb90849060ff851690811061110e5761110e6127dd565b60200260200101516040518263ffffffff1660e01b815260040161113c919061ffff91909116815260200190565b6040805180830381865afa158015611158573d6000803e3d6000fd5b505050506040513d601f19601f8201168201806040525081019061117c919061293e565b5161118a9060ff168461299d565b92508061119681612836565b9150506110d6565b508261ffff1661080d14806111b857508261ffff16610848145b156111d0576111c96103e88361299d565b915061127f565b6107d08361ffff1611156111f1576111ea6107d0846129ba565b925061120e565b6103e88361ffff16111561120e5761120b6103e8846129ba565b92505b60038361ffff161015611227576111c96101f48361299d565b60088361ffff161015611240576111c96101908361299d565b60148361ffff161015611259576111c961012c8361299d565b60288361ffff161015611271576111c960fa8361299d565b61127c60c88361299d565b91505b50919050565b6108668383836040518060200160405280600081525061140d565b61ffff81166000908152600b60209081526040918290208054835181840281018401909452808452606093928301828280156108f3576000918252602091829020805461ffff1684529082028301929091600291018084116108ba575094979650505050505050565b6000818152600260205260408120546001600160a01b0316806106925760405162461bcd60e51b8152602060048201526018602482015277115490cdcc8c4e881a5b9d985b1a59081d1bdad95b88125160421b60448201526064016107c5565b60006001600160a01b0382166113d35760405162461bcd60e51b815260206004820152602960248201527f4552433732313a2061646472657373207a65726f206973206e6f7420612076616044820152683634b21037bbb732b960b91b60648201526084016107c5565b506001600160a01b031660009081526003602052604090205490565b6060600180546106a7906127a9565b611409338383611c53565b5050565b6114173383611a70565b6114335760405162461bcd60e51b81526004016107c590612855565b61143f84848484611d21565b50505050565b6060611450826119a3565b600061145a611d54565b9050600081511161147a576040518060200160405280600081525061127c565b8061148484611d74565b6040516020016114959291906129dd565b6040516020818303038152906040529392505050565b6007546001600160a01b0316331461151d5760405162461bcd60e51b815260206004820152602f60248201527f45766f74757265734e46543a3a636861696e6c696e6b4d696e743a2043414c4c60448201526e22a92fa727aa2fa1a7a729aaa6a2a960891b60648201526084016107c5565b60005b8260ff168160ff16101561143f57600954600090858361154086826128a2565b61154a9190612a1c565b60ff168151811061155d5761155d6127dd565b602002602001015161156f9190612a41565b90506115b33360098361ffff168154811061158c5761158c6127dd565b60009182526020909120601082040154600f9091166002026101000a900461ffff16611e07565b60078054600160a01b900461ffff169060146115ce83612a63565b91906101000a81548161ffff021916908361ffff16021790555050600a6000336001600160a01b03166001600160a01b0316815260200190815260200160002060098261ffff1681548110611625576116256127dd565b600091825260208083206010808404909101548554600181018755958552919093209284049092018054600f948516600290810261010090810a61ffff9790951691909102900a90930484168202919093021990911617905560065460405163adb9be9f60e01b81526001600160a01b039091169063adb9be9f906116b490869086908a903090600401612a84565b6000604051808303816000875af11580156116d3573d6000803e3d6000fd5b505050506040513d6000823e601f3d908101601f191682016040526116fb9190810190612af4565b600b600060098461ffff1681548110611716576117166127dd565b90600052602060002090601091828204019190066002029054906101000a900461ffff1661ffff1661ffff16815260200190815260200160002090805190602001906117639291906121b8565b506009805461177490600190612809565b81548110611784576117846127dd565b90600052602060002090601091828204019190066002029054906101000a900461ffff1660098261ffff16815481106117bf576117bf6127dd565b90600052602060002090601091828204019190066002026101000a81548161ffff021916908361ffff16021790555060098054806117ff576117ff612820565b600082815260209020601060001990920191820401805461ffff6002600f8516026101000a02191690559055508061183681612836565b915050611520565b336001600160a01b037f000000000000000000000000000000000000000000000000000000000000000016146118c75760405162461bcd60e51b815260206004820152602860248201527f45766f74757265734e46543a3a77697468647261774554483a2043414c4c45526044820152672fa727aa2fa222ab60c11b60648201526084016107c5565b604051600090339047908381818185875af1925050503d8060008114611909576040519150601f19603f3d011682016040523d82523d6000602084013e61190e565b606091505b50509050806119715760405162461bcd60e51b815260206004820152602960248201527f45766f74757265734e46543a3a77697468647261774554483a205452414e5346604482015268115497d1905253115160ba1b60648201526084016107c5565b50565b6060604051806060016040528060278152602001612cc360279139905090565b6001600160a01b03163b151590565b6000818152600260205260409020546001600160a01b03166119715760405162461bcd60e51b8152602060048201526018602482015277115490cdcc8c4e881a5b9d985b1a59081d1bdad95b88125160421b60448201526064016107c5565b600081815260046020526040902080546001600160a01b0319166001600160a01b0384169081179091558190611a3782611309565b6001600160a01b03167f8c5be1e5ebec7d5bd14f71427d1e84f3dd0314c0f7b2291e5b200ac8c7c3b92560405160405180910390a45050565b600080611a7c83611309565b9050806001600160a01b0316846001600160a01b03161480611ac357506001600160a01b0380821660009081526005602090815260408083209388168352929052205460ff165b80611ae75750836001600160a01b0316611adc8461072a565b6001600160a01b0316145b949350505050565b826001600160a01b0316611b0282611309565b6001600160a01b031614611b285760405162461bcd60e51b81526004016107c590612b8e565b6001600160a01b038216611b8a5760405162461bcd60e51b8152602060048201526024808201527f4552433732313a207472616e7366657220746f20746865207a65726f206164646044820152637265737360e01b60648201526084016107c5565b826001600160a01b0316611b9d82611309565b6001600160a01b031614611bc35760405162461bcd60e51b81526004016107c590612b8e565b600081815260046020908152604080832080546001600160a01b03199081169091556001600160a01b0387811680865260038552838620805460001901905590871680865283862080546001019055868652600290945282852080549092168417909155905184937fddf252ad1be2c89b69c2b068fc378daa952ba7f163c4a11628f55a4df523b3ef91a4505050565b816001600160a01b0316836001600160a01b031603611cb45760405162461bcd60e51b815260206004820152601960248201527f4552433732313a20617070726f766520746f2063616c6c65720000000000000060448201526064016107c5565b6001600160a01b03838116600081815260056020908152604080832094871680845294825291829020805460ff191686151590811790915591519182527f17307eab39ab6107e8899845ad3d59bd9653f200f220920489ca2b5937696c31910160405180910390a3505050565b611d2c848484611aef565b611d3884848484611e21565b61143f5760405162461bcd60e51b81526004016107c590612bd3565b6060604051806080016040528060438152602001612c8060439139905090565b60606000611d8183611f22565b600101905060008167ffffffffffffffff811115611da157611da1612593565b6040519080825280601f01601f191660200182016040528015611dcb576020820181803683370190505b5090508181016020015b600019016f181899199a1a9b1b9c1cb0b131b232b360811b600a86061a8153600a8504945084611dd557509392505050565b611409828260405180602001604052806000815250611ffa565b60006001600160a01b0384163b15611f1757604051630a85bd0160e11b81526001600160a01b0385169063150b7a0290611e65903390899088908890600401612c25565b6020604051808303816000875af1925050508015611ea0575060408051601f3d908101601f19168201909252611e9d91810190612c62565b60015b611efd573d808015611ece576040519150601f19603f3d011682016040523d82523d6000602084013e611ed3565b606091505b508051600003611ef55760405162461bcd60e51b81526004016107c590612bd3565b805181602001fd5b6001600160e01b031916630a85bd0160e11b149050611ae7565b506001949350505050565b60008072184f03e93ff9f4daa797ed6e38ed64bf6a1f0160401b8310611f615772184f03e93ff9f4daa797ed6e38ed64bf6a1f0160401b830492506040015b6d04ee2d6d415b85acef81000000008310611f8d576d04ee2d6d415b85acef8100000000830492506020015b662386f26fc100008310611fab57662386f26fc10000830492506010015b6305f5e1008310611fc3576305f5e100830492506008015b6127108310611fd757612710830492506004015b60648310611fe9576064830492506002015b600a83106106925760010192915050565b612004838361202d565b6120116000848484611e21565b6108665760405162461bcd60e51b81526004016107c590612bd3565b6001600160a01b0382166120835760405162461bcd60e51b815260206004820181905260248201527f4552433732313a206d696e7420746f20746865207a65726f206164647265737360448201526064016107c5565b6000818152600260205260409020546001600160a01b0316156120e85760405162461bcd60e51b815260206004820152601c60248201527f4552433732313a20746f6b656e20616c7265616479206d696e7465640000000060448201526064016107c5565b6000818152600260205260409020546001600160a01b03161561214d5760405162461bcd60e51b815260206004820152601c60248201527f4552433732313a20746f6b656e20616c7265616479206d696e7465640000000060448201526064016107c5565b6001600160a01b038216600081815260036020908152604080832080546001019055848352600290915280822080546001600160a01b0319168417905551839291907fddf252ad1be2c89b69c2b068fc378daa952ba7f163c4a11628f55a4df523b3ef908290a45050565b82805482825590600052602060002090600f016010900481019282156122515791602002820160005b8382111561222157835183826101000a81548161ffff021916908361ffff16021790555092602001926002016020816001010492830192600103026121e1565b801561224f5782816101000a81549061ffff0219169055600201602081600101049283019260010302612221565b505b5061225d929150612261565b5090565b5b8082111561225d5760008155600101612262565b6001600160e01b03198116811461197157600080fd5b60006020828403121561229e57600080fd5b81356122a981612276565b9392505050565b60005b838110156122cb5781810151838201526020016122b3565b8381111561143f5750506000910152565b600081518084526122f48160208601602086016122b0565b601f01601f19169290920160200192915050565b6020815260006122a960208301846122dc565b60006020828403121561232d57600080fd5b5035919050565b80356001600160a01b038116811461234b57600080fd5b919050565b6000806040838503121561236357600080fd5b61236c83612334565b946020939093013593505050565b60008060008060006080868803121561239257600080fd5b61239b86612334565b94506123a960208701612334565b935060408601359250606086013567ffffffffffffffff808211156123cd57600080fd5b818801915088601f8301126123e157600080fd5b8135818111156123f057600080fd5b89602082850101111561240257600080fd5b9699959850939650602001949392505050565b60006020828403121561242757600080fd5b6122a982612334565b6020808252825182820181905260009190848201906040850190845b8181101561246c57835161ffff168352928401929184019160010161244c565b50909695505050505050565b61ffff8116811461197157600080fd5b6000806040838503121561249b57600080fd5b82356124a681612478565b915060208301356124b681612478565b809150509250929050565b6000806000606084860312156124d657600080fd5b6124df84612334565b92506124ed60208501612334565b9150604084013590509250925092565b60ff8116811461197157600080fd5b803561234b816124fd565b6000806040838503121561252a57600080fd5b8235612535816124fd565b915060208301356124b6816124fd565b60006020828403121561255757600080fd5b81356122a981612478565b6000806040838503121561257557600080fd5b61257e83612334565b9150602083013580151581146124b657600080fd5b634e487b7160e01b600052604160045260246000fd5b604051601f8201601f1916810167ffffffffffffffff811182821017156125d2576125d2612593565b604052919050565b600080600080608085870312156125f057600080fd5b6125f985612334565b93506020612608818701612334565b935060408601359250606086013567ffffffffffffffff8082111561262c57600080fd5b818801915088601f83011261264057600080fd5b81358181111561265257612652612593565b612664601f8201601f191685016125a9565b9150808252898482850101111561267a57600080fd5b808484018584013760008482840101525080935050505092959194509250565b600067ffffffffffffffff8211156126b4576126b4612593565b5060051b60200190565b6000806000606084860312156126d357600080fd5b833567ffffffffffffffff8111156126ea57600080fd5b8401601f810186136126fb57600080fd5b8035602061271061270b8361269a565b6125a9565b82815260059290921b8301810191818101908984111561272f57600080fd5b938201935b8385101561274d57843582529382019390820190612734565b965061275c905087820161250c565b945050505061276d6040850161250c565b90509250925092565b6000806040838503121561278957600080fd5b61279283612334565b91506127a060208401612334565b90509250929050565b600181811c908216806127bd57607f821691505b60208210810361127f57634e487b7160e01b600052602260045260246000fd5b634e487b7160e01b600052603260045260246000fd5b634e487b7160e01b600052601160045260246000fd5b60008282101561281b5761281b6127f3565b500390565b634e487b7160e01b600052603160045260246000fd5b600060ff821660ff810361284c5761284c6127f3565b60010192915050565b6020808252602d908201527f4552433732313a2063616c6c6572206973206e6f7420746f6b656e206f776e6560408201526c1c881bdc88185c1c1c9bdd9959609a1b606082015260800190565b600060ff821660ff84168160ff04811182151516156128c3576128c36127f3565b029392505050565b600066ffffffffffffff808316818516818304811182151516156128f1576128f16127f3565b02949350505050565b600066ffffffffffffff80831681851680830382111561291c5761291c6127f3565b01949350505050565b60006020828403121561293757600080fd5b5051919050565b60006040828403121561295057600080fd5b6040516040810181811067ffffffffffffffff8211171561297357612973612593565b6040528251612981816124fd565b81526020830151612991816124fd565b60208201529392505050565b600061ffff80831681851680830382111561291c5761291c6127f3565b600061ffff838116908316818110156129d5576129d56127f3565b039392505050565b600083516129ef8184602088016122b0565b835190830190612a038183602088016122b0565b64173539b7b760d91b9101908152600501949350505050565b600060ff821660ff84168060ff03821115612a3957612a396127f3565b019392505050565b600082612a5e57634e487b7160e01b600052601260045260246000fd5b500690565b600061ffff808316818103612a7a57612a7a6127f3565b6001019392505050565b60006080820160ff87168352602060ff8716818501526080604085015281865180845260a086019150828801935060005b81811015612ad157845183529383019391830191600101612ab5565b50506001600160a01b039590951660609490940193909352509195945050505050565b60006020808385031215612b0757600080fd5b825167ffffffffffffffff811115612b1e57600080fd5b8301601f81018513612b2f57600080fd5b8051612b3d61270b8261269a565b81815260059190911b82018301908381019087831115612b5c57600080fd5b928401925b82841015612b83578351612b7481612478565b82529284019290840190612b61565b979650505050505050565b60208082526025908201527f4552433732313a207472616e736665722066726f6d20696e636f72726563742060408201526437bbb732b960d91b606082015260800190565b60208082526032908201527f4552433732313a207472616e7366657220746f206e6f6e20455243373231526560408201527131b2b4bb32b91034b6b83632b6b2b73a32b960711b606082015260800190565b6001600160a01b0385811682528416602082015260408101839052608060608201819052600090612c58908301846122dc565b9695505050505050565b600060208284031215612c7457600080fd5b81516122a98161227656fe697066733a2f2f626166796265696567626779376132673232706e6f7867786b786a7a74677a7a35786e77336e616f627066626e6234766c367473677570706370692f68747470733a2f2f64617277696e70726f746f636f6c2e696f2f65766f74757265732e6a736f6ea2646970667358221220cf776d78c85314237ac17230418dfe3eecf5280da82614ad3cd4de8f61b9251264736f6c634300080e003360c0604052600580546001600160a01b031916736d80646beadd07ce68cab36c27c626790bbcf17f1790557f83d1b6e3388bed3d76426974512bb0d270e9542a765cd667242ea26c0cc0b730600655600780546401000186a065ffffffffffff1990911617905534801561007257600080fd5b506005546001600160a01b031660805233806100d45760405162461bcd60e51b815260206004820152601860248201527f43616e6e6f7420736574206f776e657220746f207a65726f0000000000000000604482015260640160405180910390fd5b600080546001600160a01b03199081166001600160a01b03938416179091553360a0526005546002805491909316911617905560805160a051610bdc610133600039600061078101526000818161021d015261025f0152610bdc6000f3fe608060405234801561001057600080fd5b506004361061009e5760003560e01c8063c58343ef11610066578063c58343ef14610176578063d8a4676f146101b9578063eb92db27146101e3578063f2fde38b146101f6578063fc2a88c31461020957600080fd5b80631fe543e3146100a35780638796ba8c146100b85780638da5cb5b146100de578063a168fa89146100f9578063bbcaf7e114610163575b600080fd5b6100b66100b1366004610904565b610212565b005b6100cb6100c63660046109ce565b61029f565b6040519081526020015b60405180910390f35b6000546040516001600160a01b0390911681526020016100d5565b6101386101073660046109ce565b60016020526000908152604090205460ff808216916101008104821691620100008204811691630100000090041684565b604080519415158552921515602085015260ff918216928401929092521660608201526080016100d5565b6100cb6101713660046109fd565b6102c0565b6101a26101843660046109ce565b60009081526001602052604090205460ff6101008204811692911690565b6040805192151583529015156020830152016100d5565b6101cc6101c73660046109ce565b6104c9565b6040805192151583526020830191909152016100d5565b6100b66101f1366004610a30565b6105f2565b6100b6610204366004610a61565b610628565b6100cb60045481565b336001600160a01b037f000000000000000000000000000000000000000000000000000000000000000016146102915760405163073e64fd60e21b81523360048201526001600160a01b037f00000000000000000000000000000000000000000000000000000000000000001660248201526044015b60405180910390fd5b61029b82826106d3565b5050565b600381815481106102af57600080fd5b600091825260209091200154905081565b60006102ca610839565b60006102d68385610aa0565b6102e09085610ac9565b6002546006546007546040516305d3b1d360e41b81526004810192909252600160a01b830467ffffffffffffffff166024830152640100000000810461ffff16604483015263ffffffff16606482015260ff831660848201529192506001600160a01b031690635d3b1d309060a4016020604051808303816000875af115801561036e573d6000803e3d6000fd5b505050506040513d601f19601f820116820180604052508101906103929190610aee565b6040805160a08101825260008082526001602080840182815260ff8b81168688019081528b82166060880190815288518781528086018a52608089019081528a88528686529890962087518154945192519751841663010000000263ff000000199890941662010000029790971663ffff0000199215156101000261ff00199815159890981661ffff1990951694909417969096171691909117178355935180519597509294919361044a939185019291019061088e565b5050600380546001810182556000919091527fc2575a0e9e593c00f959f8c92f12db2869c3395a3b0502d05e2516446f71f85b018390555060048290556040805183815260ff831660208201527fcc58b13ad3eab50626c6a6300b1d139cd6ebb1688a7cced9461c2f7e762665ee910160405180910390a15092915050565b6000818152600160205260408120548190610100900460ff166105225760405162461bcd60e51b81526020600482015260116024820152701c995c5d595cdd081b9bdd08199bdd5b99607a1b6044820152606401610288565b6000838152600160208181526040808420815160a081018352815460ff8082161515835261010082048116151583870152620100008204811683860152630100000090910416606082015293810180548351818602810186019094528084529193608086019392908301828280156105b957602002820191906000526020600020905b8154815260200190600101908083116105a5575b5050505050815250509050806000015181608001516000815181106105e0576105e0610b07565b60200260200101519250925050915091565b6105fa610839565b6002805467ffffffffffffffff909216600160a01b0267ffffffffffffffff60a01b19909216919091179055565b610630610839565b336001600160a01b038216036106885760405162461bcd60e51b815260206004820152601760248201527f43616e6e6f74207472616e7366657220746f2073656c660000000000000000006044820152606401610288565b600080546001600160a01b0319166001600160a01b0383169081178255604051909182917f8be0079c531659141344cd1fd0a4f28419497f9722a3daafe3b4186f6b6457e09190a350565b600082815260016020526040902054610100900460ff1661072a5760405162461bcd60e51b81526020600482015260116024820152701c995c5d595cdd081b9bdd08199bdd5b99607a1b6044820152606401610288565b6000828152600160208181526040909220805460ff19168217815583516107599391909201919084019061088e565b5060008281526001602052604090819020549051633460f4cd60e21b81526001600160a01b037f0000000000000000000000000000000000000000000000000000000000000000169163d183d334916107ca91859160ff620100008304811692630100000090041690600401610b58565b600060405180830381600087803b1580156107e457600080fd5b505af11580156107f8573d6000803e3d6000fd5b505050507ffe2e2d779dba245964d4e3ef9b994be63856fd568bf7d3ca9e224755cb1bd54d828260405161082d929190610b85565b60405180910390a15050565b6000546001600160a01b0316331461088c5760405162461bcd60e51b815260206004820152601660248201527527b7363c9031b0b63630b1363290313c9037bbb732b960511b6044820152606401610288565b565b8280548282559060005260206000209081019282156108c9579160200282015b828111156108c95782518255916020019190600101906108ae565b506108d59291506108d9565b5090565b5b808211156108d557600081556001016108da565b634e487b7160e01b600052604160045260246000fd5b6000806040838503121561091757600080fd5b8235915060208084013567ffffffffffffffff8082111561093757600080fd5b818601915086601f83011261094b57600080fd5b81358181111561095d5761095d6108ee565b8060051b604051601f19603f83011681018181108582111715610982576109826108ee565b6040529182528482019250838101850191898311156109a057600080fd5b938501935b828510156109be578435845293850193928501926109a5565b8096505050505050509250929050565b6000602082840312156109e057600080fd5b5035919050565b803560ff811681146109f857600080fd5b919050565b60008060408385031215610a1057600080fd5b610a19836109e7565b9150610a27602084016109e7565b90509250929050565b600060208284031215610a4257600080fd5b813567ffffffffffffffff81168114610a5a57600080fd5b9392505050565b600060208284031215610a7357600080fd5b81356001600160a01b0381168114610a5a57600080fd5b634e487b7160e01b600052601160045260246000fd5b600060ff821660ff84168160ff0481118215151615610ac157610ac1610a8a565b029392505050565b600060ff821660ff84168060ff03821115610ae657610ae6610a8a565b019392505050565b600060208284031215610b0057600080fd5b5051919050565b634e487b7160e01b600052603260045260246000fd5b600081518084526020808501945080840160005b83811015610b4d57815187529582019590820190600101610b31565b509495945050505050565b606081526000610b6b6060830186610b1d565b60ff94851660208401529290931660409091015292915050565b828152604060208201526000610b9e6040830184610b1d565b94935050505056fea264697066735822122015f6c4a1c946320c76da14503c84e21d3e9700f0d5e6a1271caa6e0a0e44857464736f6c634300080e00334552433732313a207472616e7366657220746f206e6f6e204552433732315265",
  "linkReferences": {},
  "deployedLinkReferences": {}
}