{
  "_format": "hh-sol-artifact-1",
  "contractName": "EvoturesNFT",
  "sourceName": "contracts/EvoturesNFT.sol",
  "abi": [
    {
      "inputs": [
        {
          "internalType": "uint16[]",
          "name": "unminted_",
          "type": "uint16[]"
        },
        {
          "internalType": "contract IBoosterNFT",
          "name": "_boosterContract",
          "type": "address"
        },
        {
          "internalType": "contract IVRFv2Consumer",
          "name": "_vrfConsumer",
          "type": "address"
        }
      ],
      "stateMutability": "nonpayable",
      "type": "constructor"
    },
    {
      "anonymous": false,
      "inputs": [
        {
          "indexed": true,
          "internalType": "address",
          "name": "owner",
          "type": "address"
        },
        {
          "indexed": true,
          "internalType": "address",
          "name": "approved",
          "type": "address"
        },
        {
          "indexed": true,
          "internalType": "uint256",
          "name": "tokenId",
          "type": "uint256"
        }
      ],
      "name": "Approval",
      "type": "event"
    },
    {
      "anonymous": false,
      "inputs": [
        {
          "indexed": true,
          "internalType": "address",
          "name": "owner",
          "type": "address"
        },
        {
          "indexed": true,
          "internalType": "address",
          "name": "operator",
          "type": "address"
        },
        {
          "indexed": false,
          "internalType": "bool",
          "name": "approved",
          "type": "bool"
        }
      ],
      "name": "ApprovalForAll",
      "type": "event"
    },
    {
      "anonymous": false,
      "inputs": [
        {
          "indexed": true,
          "internalType": "address",
          "name": "from",
          "type": "address"
        },
        {
          "indexed": true,
          "internalType": "address",
          "name": "to",
          "type": "address"
        },
        {
          "indexed": true,
          "internalType": "uint256",
          "name": "tokenId",
          "type": "uint256"
        }
      ],
      "name": "Transfer",
      "type": "event"
    },
    {
      "inputs": [],
      "name": "BOOSTER_PRICE",
      "outputs": [
        {
          "internalType": "uint64",
          "name": "",
          "type": "uint64"
        }
      ],
      "stateMutability": "view",
      "type": "function"
    },
    {
      "inputs": [],
      "name": "EVOTURES_PRICE",
      "outputs": [
        {
          "internalType": "uint64",
          "name": "",
          "type": "uint64"
        }
      ],
      "stateMutability": "view",
      "type": "function"
    },
    {
      "inputs": [
        {
          "internalType": "uint16",
          "name": "_tokenId",
          "type": "uint16"
        },
        {
          "internalType": "uint16",
          "name": "_boosterTokenId",
          "type": "uint16"
        }
      ],
      "name": "addBooster",
      "outputs": [],
      "stateMutability": "nonpayable",
      "type": "function"
    },
    {
      "inputs": [
        {
          "internalType": "address",
          "name": "to",
          "type": "address"
        },
        {
          "internalType": "uint256",
          "name": "tokenId",
          "type": "uint256"
        }
      ],
      "name": "approve",
      "outputs": [],
      "stateMutability": "nonpayable",
      "type": "function"
    },
    {
      "inputs": [
        {
          "internalType": "address",
          "name": "owner",
          "type": "address"
        }
      ],
      "name": "balanceOf",
      "outputs": [
        {
          "internalType": "uint256",
          "name": "",
          "type": "uint256"
        }
      ],
      "stateMutability": "view",
      "type": "function"
    },
    {
      "inputs": [],
      "name": "boosterContract",
      "outputs": [
        {
          "internalType": "contract IBoosterNFT",
          "name": "",
          "type": "address"
        }
      ],
      "stateMutability": "view",
      "type": "function"
    },
    {
      "inputs": [
        {
          "internalType": "uint16",
          "name": "_tokenId",
          "type": "uint16"
        }
      ],
      "name": "boosters",
      "outputs": [
        {
          "internalType": "uint16[]",
          "name": "",
          "type": "uint16[]"
        }
      ],
      "stateMutability": "view",
      "type": "function"
    },
    {
      "inputs": [
        {
          "internalType": "uint256[]",
          "name": "_randomWords",
          "type": "uint256[]"
        },
        {
          "internalType": "uint8",
          "name": "_evotures",
          "type": "uint8"
        },
        {
          "internalType": "uint8",
          "name": "_boosters",
          "type": "uint8"
        },
        {
          "internalType": "address",
          "name": "_minter",
          "type": "address"
        }
      ],
      "name": "chainlinkMint",
      "outputs": [],
      "stateMutability": "nonpayable",
      "type": "function"
    },
    {
      "inputs": [],
      "name": "contractURI",
      "outputs": [
        {
          "internalType": "string",
          "name": "",
          "type": "string"
        }
      ],
      "stateMutability": "pure",
      "type": "function"
    },
    {
      "inputs": [],
      "name": "dev",
      "outputs": [
        {
          "internalType": "address",
          "name": "",
          "type": "address"
        }
      ],
      "stateMutability": "view",
      "type": "function"
    },
    {
      "inputs": [
        {
          "internalType": "uint256",
          "name": "tokenId",
          "type": "uint256"
        }
      ],
      "name": "getApproved",
      "outputs": [
        {
          "internalType": "address",
          "name": "",
          "type": "address"
        }
      ],
      "stateMutability": "view",
      "type": "function"
    },
    {
      "inputs": [
        {
          "internalType": "uint8",
          "name": "_evotures",
          "type": "uint8"
        },
        {
          "internalType": "uint8",
          "name": "_boosters",
          "type": "uint8"
        },
        {
          "internalType": "address",
          "name": "to",
          "type": "address"
        }
      ],
      "name": "hardMint",
      "outputs": [],
      "stateMutability": "nonpayable",
      "type": "function"
    },
    {
      "inputs": [
        {
          "internalType": "address",
          "name": "owner",
          "type": "address"
        },
        {
          "internalType": "address",
          "name": "operator",
          "type": "address"
        }
      ],
      "name": "isApprovedForAll",
      "outputs": [
        {
          "internalType": "bool",
          "name": "",
          "type": "bool"
        }
      ],
      "stateMutability": "view",
      "type": "function"
    },
    {
      "inputs": [
        {
          "internalType": "uint8",
          "name": "_evotures",
          "type": "uint8"
        },
        {
          "internalType": "uint8",
          "name": "_boosters",
          "type": "uint8"
        },
        {
          "internalType": "address",
          "name": "to",
          "type": "address"
        }
      ],
      "name": "mint",
      "outputs": [],
      "stateMutability": "payable",
      "type": "function"
    },
    {
      "inputs": [
        {
          "internalType": "uint16",
          "name": "id",
          "type": "uint16"
        }
      ],
      "name": "multipliers",
      "outputs": [
        {
          "internalType": "uint16",
          "name": "mult",
          "type": "uint16"
        }
      ],
      "stateMutability": "view",
      "type": "function"
    },
    {
      "inputs": [],
      "name": "name",
      "outputs": [
        {
          "internalType": "string",
          "name": "",
          "type": "string"
        }
      ],
      "stateMutability": "view",
      "type": "function"
    },
    {
      "inputs": [
        {
          "internalType": "address",
          "name": "",
          "type": "address"
        },
        {
          "internalType": "address",
          "name": "",
          "type": "address"
        },
        {
          "internalType": "uint256",
          "name": "",
          "type": "uint256"
        },
        {
          "internalType": "bytes",
          "name": "",
          "type": "bytes"
        }
      ],
      "name": "onERC721Received",
      "outputs": [
        {
          "internalType": "bytes4",
          "name": "",
          "type": "bytes4"
        }
      ],
      "stateMutability": "pure",
      "type": "function"
    },
    {
      "inputs": [
        {
          "internalType": "uint256",
          "name": "tokenId",
          "type": "uint256"
        }
      ],
      "name": "ownerOf",
      "outputs": [
        {
          "internalType": "address",
          "name": "",
          "type": "address"
        }
      ],
      "stateMutability": "view",
      "type": "function"
    },
    {
      "inputs": [
        {
          "internalType": "uint16",
          "name": "_tokenId",
          "type": "uint16"
        },
        {
          "internalType": "uint16",
          "name": "_boosterTokenId",
          "type": "uint16"
        }
      ],
      "name": "removeBooster",
      "outputs": [],
      "stateMutability": "nonpayable",
      "type": "function"
    },
    {
      "inputs": [
        {
          "internalType": "address",
          "name": "from",
          "type": "address"
        },
        {
          "internalType": "address",
          "name": "to",
          "type": "address"
        },
        {
          "internalType": "uint256",
          "name": "tokenId",
          "type": "uint256"
        }
      ],
      "name": "safeTransferFrom",
      "outputs": [],
      "stateMutability": "nonpayable",
      "type": "function"
    },
    {
      "inputs": [
        {
          "internalType": "address",
          "name": "from",
          "type": "address"
        },
        {
          "internalType": "address",
          "name": "to",
          "type": "address"
        },
        {
          "internalType": "uint256",
          "name": "tokenId",
          "type": "uint256"
        },
        {
          "internalType": "bytes",
          "name": "data",
          "type": "bytes"
        }
      ],
      "name": "safeTransferFrom",
      "outputs": [],
      "stateMutability": "nonpayable",
      "type": "function"
    },
    {
      "inputs": [
        {
          "internalType": "address",
          "name": "operator",
          "type": "address"
        },
        {
          "internalType": "bool",
          "name": "approved",
          "type": "bool"
        }
      ],
      "name": "setApprovalForAll",
      "outputs": [],
      "stateMutability": "nonpayable",
      "type": "function"
    },
    {
      "inputs": [
        {
          "internalType": "bytes4",
          "name": "interfaceId",
          "type": "bytes4"
        }
      ],
      "name": "supportsInterface",
      "outputs": [
        {
          "internalType": "bool",
          "name": "",
          "type": "bool"
        }
      ],
      "stateMutability": "view",
      "type": "function"
    },
    {
      "inputs": [],
      "name": "symbol",
      "outputs": [
        {
          "internalType": "string",
          "name": "",
          "type": "string"
        }
      ],
      "stateMutability": "view",
      "type": "function"
    },
    {
      "inputs": [
        {
          "internalType": "uint256",
          "name": "tokenId",
          "type": "uint256"
        }
      ],
      "name": "tokenURI",
      "outputs": [
        {
          "internalType": "string",
          "name": "",
          "type": "string"
        }
      ],
      "stateMutability": "view",
      "type": "function"
    },
    {
      "inputs": [],
      "name": "totalMinted",
      "outputs": [
        {
          "internalType": "uint16",
          "name": "",
          "type": "uint16"
        }
      ],
      "stateMutability": "view",
      "type": "function"
    },
    {
      "inputs": [
        {
          "internalType": "address",
          "name": "from",
          "type": "address"
        },
        {
          "internalType": "address",
          "name": "to",
          "type": "address"
        },
        {
          "internalType": "uint256",
          "name": "tokenId",
          "type": "uint256"
        }
      ],
      "name": "transferFrom",
      "outputs": [],
      "stateMutability": "nonpayable",
      "type": "function"
    },
    {
      "inputs": [],
      "name": "unminted",
      "outputs": [
        {
          "internalType": "uint16[]",
          "name": "",
          "type": "uint16[]"
        }
      ],
      "stateMutability": "view",
      "type": "function"
    },
    {
      "inputs": [
        {
          "internalType": "address",
          "name": "_user",
          "type": "address"
        }
      ],
      "name": "userMinted",
      "outputs": [
        {
          "internalType": "uint16[]",
          "name": "",
          "type": "uint16[]"
        }
      ],
      "stateMutability": "view",
      "type": "function"
    },
    {
      "inputs": [],
      "name": "vrfConsumer",
      "outputs": [
        {
          "internalType": "contract IVRFv2Consumer",
          "name": "",
          "type": "address"
        }
      ],
      "stateMutability": "view",
      "type": "function"
    },
    {
      "inputs": [],
      "name": "withdrawETH",
      "outputs": [],
      "stateMutability": "nonpayable",
      "type": "function"
    },
    {
      "stateMutability": "payable",
      "type": "receive"
    }
  ],
  "bytecode": "0x60e06040523480156200001157600080fd5b506040516200383838038062003838833981016040819052620000349162000632565b604080518082018252600d81526c45766f7475726573204e46547360981b60208083019182528351808501909452600884526745564f545552455360c01b9084015281519192916200008991600091620004a0565b5080516200009f906001906020840190620004a0565b505033608052508251620000bb9060079060208601906200052f565b506001600160a01b0380831660a052811660c052620000dd3361080d62000102565b620000eb3361084862000102565b50506006805461ffff191660021790555062000814565b620001248282604051806020016040528060008152506200012860201b60201c565b5050565b620001348383620001a4565b62000143600084848462000335565b6200019f5760405162461bcd60e51b815260206004820152603260248201526000805160206200381883398151915260448201527131b2b4bb32b91034b6b83632b6b2b73a32b960711b60648201526084015b60405180910390fd5b505050565b6001600160a01b038216620001fc5760405162461bcd60e51b815260206004820181905260248201527f4552433732313a206d696e7420746f20746865207a65726f2061646472657373604482015260640162000196565b6000818152600260205260409020546001600160a01b031615620002635760405162461bcd60e51b815260206004820152601c60248201527f4552433732313a20746f6b656e20616c7265616479206d696e74656400000000604482015260640162000196565b6000818152600260205260409020546001600160a01b031615620002ca5760405162461bcd60e51b815260206004820152601c60248201527f4552433732313a20746f6b656e20616c7265616479206d696e74656400000000604482015260640162000196565b6001600160a01b038216600081815260036020908152604080832080546001019055848352600290915280822080546001600160a01b0319168417905551839291907fddf252ad1be2c89b69c2b068fc378daa952ba7f163c4a11628f55a4df523b3ef908290a45050565b600062000356846001600160a01b03166200049160201b62001be51760201c565b156200048557604051630a85bd0160e11b81526001600160a01b0385169063150b7a0290620003909033908990889088906004016200072a565b6020604051808303816000875af1925050508015620003ce575060408051601f3d908101601f19168201909252620003cb91810190620007a5565b60015b6200046a573d808015620003ff576040519150601f19603f3d011682016040523d82523d6000602084013e62000404565b606091505b508051600003620004625760405162461bcd60e51b815260206004820152603260248201526000805160206200381883398151915260448201527131b2b4bb32b91034b6b83632b6b2b73a32b960711b606482015260840162000196565b805181602001fd5b6001600160e01b031916630a85bd0160e11b14905062000489565b5060015b949350505050565b6001600160a01b03163b151590565b828054620004ae90620007d8565b90600052602060002090601f016020900481019282620004d257600085556200051d565b82601f10620004ed57805160ff19168380011785556200051d565b828001600101855582156200051d579182015b828111156200051d57825182559160200191906001019062000500565b506200052b929150620005d5565b5090565b82805482825590600052602060002090600f016010900481019282156200051d5791602002820160005b838211156200059b57835183826101000a81548161ffff021916908361ffff160217905550926020019260020160208160010104928301926001030262000559565b8015620005cb5782816101000a81549061ffff02191690556002016020816001010492830192600103026200059b565b50506200052b9291505b5b808211156200052b5760008155600101620005d6565b634e487b7160e01b600052604160045260246000fd5b805161ffff811681146200061557600080fd5b919050565b80516001600160a01b03811681146200061557600080fd5b6000806000606084860312156200064857600080fd5b83516001600160401b03808211156200066057600080fd5b818601915086601f8301126200067557600080fd5b81516020828211156200068c576200068c620005ec565b8160051b604051601f19603f83011681018181108682111715620006b457620006b4620005ec565b60405292835281830193508481018201928a841115620006d357600080fd5b948201945b83861015620006fc57620006ec8662000602565b85529482019493820193620006d8565b97506200070d90508882016200061a565b95505050505062000721604085016200061a565b90509250925092565b600060018060a01b038087168352602081871681850152856040850152608060608501528451915081608085015260005b82811015620007795785810182015185820160a0015281016200075b565b828111156200078c57600060a084870101525b5050601f01601f19169190910160a00195945050505050565b600060208284031215620007b857600080fd5b81516001600160e01b031981168114620007d157600080fd5b9392505050565b600181811c90821680620007ed57607f821691505b6020821081036200080e57634e487b7160e01b600052602260045260246000fd5b50919050565b60805160a05160c051612f9c6200087c6000396000818161033d0152818161147201526118230152600081816103b101528181610a5601528181610d6901528181610f5c0152611a190152600081816104bb015281816112e001526116cd0152612f9c6000f3fe6080604052600436106101dc5760003560e01c80636352211e11610102578063c251b96111610095578063e086e5ec11610064578063e086e5ec146105ef578063e8a3d48514610604578063e985e9c514610619578063fa8c95901461066257600080fd5b8063c251b96114610581578063c87b56dd146105a1578063d035770c146105c1578063d20e4874146105dc57600080fd5b8063a22cb465116100d1578063a22cb465146104f2578063a2309ff814610512578063afd8e4fa1461052d578063b88d4fde1461056157600080fd5b80636352211e1461045b57806370a082311461047b57806391cca3db146104a957806395d89b41146104dd57600080fd5b80631ef4d1fd1161017a578063373215891161014957806337321589146103d35780633a3328cb146103e857806342842e0e1461041b5780635b6cc6271461043b57600080fd5b80631ef4d1fd1461032b5780632163a04a1461035f57806323b872dd1461037f57806327f7be991461039f57600080fd5b8063095ea7b3116101b6578063095ea7b314610277578063150b7a02146102995780631aa5e872146102de5780631ceb921f1461030b57600080fd5b806301ffc9a7146101e857806306fdde031461021d578063081812fc1461023f57600080fd5b366101e357005b600080fd5b3480156101f457600080fd5b506102086102033660046124dd565b610682565b60405190151581526020015b60405180910390f35b34801561022957600080fd5b506102326106d4565b6040516102149190612559565b34801561024b57600080fd5b5061025f61025a36600461256c565b610766565b6040516001600160a01b039091168152602001610214565b34801561028357600080fd5b506102976102923660046125a1565b61078d565b005b3480156102a557600080fd5b506102c56102b43660046125cb565b630a85bd0160e11b95945050505050565b6040516001600160e01b03199091168152602001610214565b3480156102ea57600080fd5b506102fe6102f9366004612666565b6108a7565b6040516102149190612681565b34801561031757600080fd5b506102976103263660046126d9565b61093b565b34801561033757600080fd5b5061025f7f000000000000000000000000000000000000000000000000000000000000000081565b34801561036b57600080fd5b5061029761037a3660046126d9565b610c4f565b34801561038b57600080fd5b5061029761039a366004612712565b610e14565b3480156103ab57600080fd5b5061025f7f000000000000000000000000000000000000000000000000000000000000000081565b3480156103df57600080fd5b506102fe610e45565b3480156103f457600080fd5b5061040861040336600461274e565b610ec4565b60405161ffff9091168152602001610214565b34801561042757600080fd5b50610297610436366004612712565b611115565b34801561044757600080fd5b506102fe61045636600461274e565b611130565b34801561046757600080fd5b5061025f61047636600461256c565b611199565b34801561048757600080fd5b5061049b610496366004612666565b6111f9565b604051908152602001610214565b3480156104b557600080fd5b5061025f7f000000000000000000000000000000000000000000000000000000000000000081565b3480156104e957600080fd5b5061023261127f565b3480156104fe57600080fd5b5061029761050d36600461276b565b61128e565b34801561051e57600080fd5b506006546104089061ffff1681565b34801561053957600080fd5b50610548668e1bc9bf04000081565b60405167ffffffffffffffff9091168152602001610214565b34801561056d57600080fd5b5061029761057c3660046127e3565b61129d565b34801561058d57600080fd5b5061029761059c3660046128bd565b6112d5565b3480156105ad57600080fd5b506102326105bc36600461256c565b6114df565b3480156105cd57600080fd5b50610548661550f7dca7000081565b6102976105ea3660046128bd565b611545565b3480156105fb57600080fd5b506102976116c2565b34801561061057600080fd5b506102326117f8565b34801561062557600080fd5b50610208610634366004612904565b6001600160a01b03918216600090815260056020908152604080832093909416825291909152205460ff1690565b34801561066e57600080fd5b5061029761067d36600461295b565b611818565b60006001600160e01b031982166380ac58cd60e01b14806106b357506001600160e01b03198216635b5e139f60e01b145b806106ce57506301ffc9a760e01b6001600160e01b03198316145b92915050565b6060600080546106e390612a24565b80601f016020809104026020016040519081016040528092919081815260200182805461070f90612a24565b801561075c5780601f106107315761010080835404028352916020019161075c565b820191906000526020600020905b81548152906001019060200180831161073f57829003601f168201915b5050505050905090565b600061077182611bf4565b506000908152600460205260409020546001600160a01b031690565b600061079882611199565b9050806001600160a01b0316836001600160a01b03160361080a5760405162461bcd60e51b815260206004820152602160248201527f4552433732313a20617070726f76616c20746f2063757272656e74206f776e656044820152603960f91b60648201526084015b60405180910390fd5b336001600160a01b038216148061082657506108268133610634565b6108985760405162461bcd60e51b815260206004820152603d60248201527f4552433732313a20617070726f76652063616c6c6572206973206e6f7420746f60448201527f6b656e206f776e6572206f7220617070726f76656420666f7220616c6c0000006064820152608401610801565b6108a28383611c53565b505050565b6001600160a01b03811660009081526008602090815260409182902080548351818402810184019094528084526060939283018282801561092f57602002820191906000526020600020906000905b82829054906101000a900461ffff1661ffff16815260200190600201906020826001010492830192600103820291508084116108f65790505b50505050509050919050565b3361094961ffff8416611199565b6001600160a01b0316146109bc5760405162461bcd60e51b815260206004820152603460248201527f45766f74757265734e46543a3a72656d6f7665426f6f737465723a2043414c4c60448201527322a92fa727aa2fa2ab27aa2aa922afa7aba722a960611b6064820152608401610801565b61ffff8216600090815260096020526040902054610a315760405162461bcd60e51b815260206004820152602c60248201527f45766f74757265734e46543a3a72656d6f7665426f6f737465723a204e4f5f4260448201526b13d3d4d5115497d05111115160a21b6064820152608401610801565b604051632142170760e11b815230600482015233602482015261ffff821660448201527f00000000000000000000000000000000000000000000000000000000000000006001600160a01b0316906342842e0e90606401600060405180830381600087803b158015610aa257600080fd5b505af1158015610ab6573d6000803e3d6000fd5b5050505060005b61ffff831660009081526009602052604090205460ff821610156108a25761ffff838116600090815260096020526040902080549184169160ff8416908110610b0857610b08612a58565b60009182526020909120601082040154600f9091166002026101000a900461ffff1603610c3d5761ffff831660009081526009602052604090208054610b5090600190612a84565b81548110610b6057610b60612a58565b90600052602060002090601091828204019190066002029054906101000a900461ffff16600960008561ffff1661ffff1681526020019081526020016000208260ff1681548110610bb357610bb3612a58565b90600052602060002090601091828204019190066002026101000a81548161ffff021916908361ffff160217905550600960008461ffff1661ffff168152602001908152602001600020805480610c0c57610c0c612a9b565b600082815260209020601060001990920191820401805461ffff6002600f8516026101000a02191690559055505050565b80610c4781612ab1565b915050610abd565b33610c5d61ffff8416611199565b6001600160a01b031614610ccd5760405162461bcd60e51b815260206004820152603160248201527f45766f74757265734e46543a3a616464426f6f737465723a2043414c4c45525f6044820152702727aa2fa2ab27aa2aa922afa7aba722a960791b6064820152608401610801565b61ffff8216600090815260096020526040902054600511610d445760405162461bcd60e51b815260206004820152602b60248201527f45766f74757265734e46543a3a616464426f6f737465723a204d41585f424f4f60448201526a14d5115494d7d05111115160aa1b6064820152608401610801565b604051632142170760e11b815233600482015230602482015261ffff821660448201527f00000000000000000000000000000000000000000000000000000000000000006001600160a01b0316906342842e0e90606401600060405180830381600087803b158015610db557600080fd5b505af1158015610dc9573d6000803e3d6000fd5b5050505061ffff918216600090815260096020908152604082208054600181018255908352912060108204018054600f9092166002026101000a808502199092169290931602179055565b610e1e3382611cc1565b610e3a5760405162461bcd60e51b815260040161080190612ad0565b6108a2838383611d40565b6060600780548060200260200160405190810160405280929190818152602001828054801561075c57602002820191906000526020600020906000905b82829054906101000a900461ffff1661ffff1681526020019060020190602082600101049283019260010382029150808411610e825790505050505050905090565b61ffff8116600090815260096020908152604080832080548251818502810185019093528083528493830182828015610f4457602002820191906000526020600020906000905b82829054906101000a900461ffff1661ffff1681526020019060020190602082600101049283019260010382029150808411610f0b5790505b5050505050905060005b81518160ff16101561102e577f00000000000000000000000000000000000000000000000000000000000000006001600160a01b03166359ea5adb838360ff1681518110610f9e57610f9e612a58565b60200260200101516040518263ffffffff1660e01b8152600401610fcc919061ffff91909116815260200190565b6040805180830381865afa158015610fe8573d6000803e3d6000fd5b505050506040513d601f19601f8201168201806040525081019061100c9190612b1d565b5161101a9060ff1684612b7c565b92508061102681612ab1565b915050610f4e565b508261ffff1661080d148061104857508261ffff16610848145b15611060576110596103e883612b7c565b915061110f565b6107d08361ffff1611156110815761107a6107d084612ba2565b925061109e565b6103e88361ffff16111561109e5761109b6103e884612ba2565b92505b60038361ffff1610156110b7576110596101f483612b7c565b60088361ffff1610156110d05761105961019083612b7c565b60148361ffff1610156110e95761105961012c83612b7c565b60288361ffff1610156111015761105960fa83612b7c565b61110c60c883612b7c565b91505b50919050565b6108a28383836040518060200160405280600081525061129d565b61ffff811660009081526009602090815260409182902080548351818402810184019094528084526060939283018282801561092f576000918252602091829020805461ffff1684529082028301929091600291018084116108f6575094979650505050505050565b6000818152600260205260408120546001600160a01b0316806106ce5760405162461bcd60e51b8152602060048201526018602482015277115490cdcc8c4e881a5b9d985b1a59081d1bdad95b88125160421b6044820152606401610801565b60006001600160a01b0382166112635760405162461bcd60e51b815260206004820152602960248201527f4552433732313a2061646472657373207a65726f206973206e6f7420612076616044820152683634b21037bbb732b960b91b6064820152608401610801565b506001600160a01b031660009081526003602052604090205490565b6060600180546106e390612a24565b611299338383611ea4565b5050565b6112a73383611cc1565b6112c35760405162461bcd60e51b815260040161080190612ad0565b6112cf84848484611f72565b50505050565b336001600160a01b037f0000000000000000000000000000000000000000000000000000000000000000161461135b5760405162461bcd60e51b815260206004820152602560248201527f45766f74757265734e46543a3a686172644d696e743a2043414c4c45525f4e4f6044820152642a2fa222ab60d91b6064820152608401610801565b60075460ff841611156113bc5760405162461bcd60e51b8152602060048201526024808201527f45766f74757265734e46543a3a686172644d696e743a204d494e545f455843456044820152631151115160e21b6064820152608401610801565b6001600160a01b0381166000908152600860205260409020546113e0906003612a84565b8360ff16111580156113f6575060058260ff1611155b6114425760405162461bcd60e51b815260206004820181905260248201527f45766f74757265734e46543a3a686172644d696e743a20464f5242494444454e6044820152606401610801565b60405163df16aa7960e01b815260ff8085166004830152831660248201526001600160a01b0382811660448301527f0000000000000000000000000000000000000000000000000000000000000000169063df16aa79906064016020604051808303816000875af11580156114bb573d6000803e3d6000fd5b505050506040513d601f19601f820116820180604052508101906112cf9190612bc5565b60606114ea82611bf4565b60006114f4611fa5565b90506000815111611514576040518060200160405280600081525061110c565b8061151e84611fc5565b60405160200161152f929190612bde565b6040516020818303038152906040529392505050565b60075460ff8416111561159a5760405162461bcd60e51b815260206004820181905260248201527f45766f74757265734e46543a3a6d696e743a204d494e545f45584345454445446044820152606401610801565b6001600160a01b0381166000908152600860205260409020546115be906003612a84565b8360ff16111580156115d4575060058260ff1611155b6116205760405162461bcd60e51b815260206004820152601c60248201527f45766f74757265734e46543a3a6d696e743a20464f5242494444454e000000006044820152606401610801565b661550f7dca700006116328385612c1d565b60ff1661163f9190612c46565b611653668e1bc9bf04000060ff8616612c46565b61165d9190612c76565b67ffffffffffffffff163410156114425760405162461bcd60e51b815260206004820152602360248201527f45766f74757265734e46543a3a6d696e743a20494e53554646494349454e545f60448201526208aa8960eb1b6064820152608401610801565b336001600160a01b037f0000000000000000000000000000000000000000000000000000000000000000161461174b5760405162461bcd60e51b815260206004820152602860248201527f45766f74757265734e46543a3a77697468647261774554483a2043414c4c45526044820152672fa727aa2fa222ab60c11b6064820152608401610801565b604051600090339047908381818185875af1925050503d806000811461178d576040519150601f19603f3d011682016040523d82523d6000602084013e611792565b606091505b50509050806117f55760405162461bcd60e51b815260206004820152602960248201527f45766f74757265734e46543a3a77697468647261774554483a205452414e5346604482015268115497d1905253115160ba1b6064820152608401610801565b50565b6060604051806060016040528060278152602001612f4060279139905090565b336001600160a01b037f000000000000000000000000000000000000000000000000000000000000000016146118a85760405162461bcd60e51b815260206004820152602f60248201527f45766f74757265734e46543a3a636861696e6c696e6b4d696e743a2043414c4c60448201526e22a92fa727aa2fa1a7a729aaa6a2a960891b6064820152608401610801565b60005b8360ff168160ff161015611bde5760075460009086836118cb8782612c1d565b6118d59190612c99565b60ff16815181106118e8576118e8612a58565b60200260200101516118fa9190612cbe565b905061193e8360078361ffff168154811061191757611917612a58565b60009182526020909120601082040154600f9091166002026101000a900461ffff16612058565b6006805461ffff1690600061195283612ce0565b91906101000a81548161ffff021916908361ffff1602179055505060086000846001600160a01b03166001600160a01b0316815260200190815260200160002060078261ffff16815481106119a9576119a9612a58565b600091825260208083206010808404909101548554600181018755958552919093209284049092018054600f948516600290810261010090810a61ffff9790951691909102900a90930484168202919093021990911617905560405163adb9be9f60e01b81526001600160a01b037f0000000000000000000000000000000000000000000000000000000000000000169063adb9be9f90611a5490879086908b903090600401612d01565b6000604051808303816000875af1158015611a73573d6000803e3d6000fd5b505050506040513d6000823e601f3d908101601f19168201604052611a9b9190810190612d71565b6009600060078461ffff1681548110611ab657611ab6612a58565b90600052602060002090601091828204019190066002029054906101000a900461ffff1661ffff1661ffff1681526020019081526020016000209080519060200190611b03929190612409565b5060078054611b1490600190612a84565b81548110611b2457611b24612a58565b90600052602060002090601091828204019190066002029054906101000a900461ffff1660078261ffff1681548110611b5f57611b5f612a58565b90600052602060002090601091828204019190066002026101000a81548161ffff021916908361ffff1602179055506007805480611b9f57611b9f612a9b565b600082815260209020601060001990920191820401805461ffff6002600f8516026101000a021916905590555080611bd681612ab1565b9150506118ab565b5050505050565b6001600160a01b03163b151590565b6000818152600260205260409020546001600160a01b03166117f55760405162461bcd60e51b8152602060048201526018602482015277115490cdcc8c4e881a5b9d985b1a59081d1bdad95b88125160421b6044820152606401610801565b600081815260046020526040902080546001600160a01b0319166001600160a01b0384169081179091558190611c8882611199565b6001600160a01b03167f8c5be1e5ebec7d5bd14f71427d1e84f3dd0314c0f7b2291e5b200ac8c7c3b92560405160405180910390a45050565b600080611ccd83611199565b9050806001600160a01b0316846001600160a01b03161480611d1457506001600160a01b0380821660009081526005602090815260408083209388168352929052205460ff165b80611d385750836001600160a01b0316611d2d84610766565b6001600160a01b0316145b949350505050565b826001600160a01b0316611d5382611199565b6001600160a01b031614611d795760405162461bcd60e51b815260040161080190612e0b565b6001600160a01b038216611ddb5760405162461bcd60e51b8152602060048201526024808201527f4552433732313a207472616e7366657220746f20746865207a65726f206164646044820152637265737360e01b6064820152608401610801565b826001600160a01b0316611dee82611199565b6001600160a01b031614611e145760405162461bcd60e51b815260040161080190612e0b565b600081815260046020908152604080832080546001600160a01b03199081169091556001600160a01b0387811680865260038552838620805460001901905590871680865283862080546001019055868652600290945282852080549092168417909155905184937fddf252ad1be2c89b69c2b068fc378daa952ba7f163c4a11628f55a4df523b3ef91a4505050565b816001600160a01b0316836001600160a01b031603611f055760405162461bcd60e51b815260206004820152601960248201527f4552433732313a20617070726f766520746f2063616c6c6572000000000000006044820152606401610801565b6001600160a01b03838116600081815260056020908152604080832094871680845294825291829020805460ff191686151590811790915591519182527f17307eab39ab6107e8899845ad3d59bd9653f200f220920489ca2b5937696c31910160405180910390a3505050565b611f7d848484611d40565b611f8984848484612072565b6112cf5760405162461bcd60e51b815260040161080190612e50565b6060604051806080016040528060438152602001612efd60439139905090565b60606000611fd283612173565b600101905060008167ffffffffffffffff811115611ff257611ff261279c565b6040519080825280601f01601f19166020018201604052801561201c576020820181803683370190505b5090508181016020015b600019016f181899199a1a9b1b9c1cb0b131b232b360811b600a86061a8153600a850494508461202657509392505050565b61129982826040518060200160405280600081525061224b565b60006001600160a01b0384163b1561216857604051630a85bd0160e11b81526001600160a01b0385169063150b7a02906120b6903390899088908890600401612ea2565b6020604051808303816000875af19250505080156120f1575060408051601f3d908101601f191682019092526120ee91810190612edf565b60015b61214e573d80801561211f576040519150601f19603f3d011682016040523d82523d6000602084013e612124565b606091505b5080516000036121465760405162461bcd60e51b815260040161080190612e50565b805181602001fd5b6001600160e01b031916630a85bd0160e11b149050611d38565b506001949350505050565b60008072184f03e93ff9f4daa797ed6e38ed64bf6a1f0160401b83106121b25772184f03e93ff9f4daa797ed6e38ed64bf6a1f0160401b830492506040015b6d04ee2d6d415b85acef810000000083106121de576d04ee2d6d415b85acef8100000000830492506020015b662386f26fc1000083106121fc57662386f26fc10000830492506010015b6305f5e1008310612214576305f5e100830492506008015b612710831061222857612710830492506004015b6064831061223a576064830492506002015b600a83106106ce5760010192915050565b612255838361227e565b6122626000848484612072565b6108a25760405162461bcd60e51b815260040161080190612e50565b6001600160a01b0382166122d45760405162461bcd60e51b815260206004820181905260248201527f4552433732313a206d696e7420746f20746865207a65726f20616464726573736044820152606401610801565b6000818152600260205260409020546001600160a01b0316156123395760405162461bcd60e51b815260206004820152601c60248201527f4552433732313a20746f6b656e20616c7265616479206d696e746564000000006044820152606401610801565b6000818152600260205260409020546001600160a01b03161561239e5760405162461bcd60e51b815260206004820152601c60248201527f4552433732313a20746f6b656e20616c7265616479206d696e746564000000006044820152606401610801565b6001600160a01b038216600081815260036020908152604080832080546001019055848352600290915280822080546001600160a01b0319168417905551839291907fddf252ad1be2c89b69c2b068fc378daa952ba7f163c4a11628f55a4df523b3ef908290a45050565b82805482825590600052602060002090600f016010900481019282156124a25791602002820160005b8382111561247257835183826101000a81548161ffff021916908361ffff1602179055509260200192600201602081600101049283019260010302612432565b80156124a05782816101000a81549061ffff0219169055600201602081600101049283019260010302612472565b505b506124ae9291506124b2565b5090565b5b808211156124ae57600081556001016124b3565b6001600160e01b0319811681146117f557600080fd5b6000602082840312156124ef57600080fd5b81356124fa816124c7565b9392505050565b60005b8381101561251c578181015183820152602001612504565b838111156112cf5750506000910152565b60008151808452612545816020860160208601612501565b601f01601f19169290920160200192915050565b6020815260006124fa602083018461252d565b60006020828403121561257e57600080fd5b5035919050565b80356001600160a01b038116811461259c57600080fd5b919050565b600080604083850312156125b457600080fd5b6125bd83612585565b946020939093013593505050565b6000806000806000608086880312156125e357600080fd5b6125ec86612585565b94506125fa60208701612585565b935060408601359250606086013567ffffffffffffffff8082111561261e57600080fd5b818801915088601f83011261263257600080fd5b81358181111561264157600080fd5b89602082850101111561265357600080fd5b9699959850939650602001949392505050565b60006020828403121561267857600080fd5b6124fa82612585565b6020808252825182820181905260009190848201906040850190845b818110156126bd57835161ffff168352928401929184019160010161269d565b50909695505050505050565b61ffff811681146117f557600080fd5b600080604083850312156126ec57600080fd5b82356126f7816126c9565b91506020830135612707816126c9565b809150509250929050565b60008060006060848603121561272757600080fd5b61273084612585565b925061273e60208501612585565b9150604084013590509250925092565b60006020828403121561276057600080fd5b81356124fa816126c9565b6000806040838503121561277e57600080fd5b61278783612585565b91506020830135801515811461270757600080fd5b634e487b7160e01b600052604160045260246000fd5b604051601f8201601f1916810167ffffffffffffffff811182821017156127db576127db61279c565b604052919050565b600080600080608085870312156127f957600080fd5b61280285612585565b93506020612811818701612585565b935060408601359250606086013567ffffffffffffffff8082111561283557600080fd5b818801915088601f83011261284957600080fd5b81358181111561285b5761285b61279c565b61286d601f8201601f191685016127b2565b9150808252898482850101111561288357600080fd5b808484018584013760008482840101525080935050505092959194509250565b60ff811681146117f557600080fd5b803561259c816128a3565b6000806000606084860312156128d257600080fd5b83356128dd816128a3565b925060208401356128ed816128a3565b91506128fb60408501612585565b90509250925092565b6000806040838503121561291757600080fd5b61292083612585565b915061292e60208401612585565b90509250929050565b600067ffffffffffffffff8211156129515761295161279c565b5060051b60200190565b6000806000806080858703121561297157600080fd5b843567ffffffffffffffff81111561298857600080fd5b8501601f8101871361299957600080fd5b803560206129ae6129a983612937565b6127b2565b82815260059290921b8301810191818101908a8411156129cd57600080fd5b938201935b838510156129eb578435825293820193908201906129d2565b97506129fa90508882016128b2565b9550505050612a0b604086016128b2565b9150612a1960608601612585565b905092959194509250565b600181811c90821680612a3857607f821691505b60208210810361110f57634e487b7160e01b600052602260045260246000fd5b634e487b7160e01b600052603260045260246000fd5b634e487b7160e01b600052601160045260246000fd5b600082821015612a9657612a96612a6e565b500390565b634e487b7160e01b600052603160045260246000fd5b600060ff821660ff8103612ac757612ac7612a6e565b60010192915050565b6020808252602d908201527f4552433732313a2063616c6c6572206973206e6f7420746f6b656e206f776e6560408201526c1c881bdc88185c1c1c9bdd9959609a1b606082015260800190565b600060408284031215612b2f57600080fd5b6040516040810181811067ffffffffffffffff82111715612b5257612b5261279c565b6040528251612b60816128a3565b81526020830151612b70816128a3565b60208201529392505050565b600061ffff808316818516808303821115612b9957612b99612a6e565b01949350505050565b600061ffff83811690831681811015612bbd57612bbd612a6e565b039392505050565b600060208284031215612bd757600080fd5b5051919050565b60008351612bf0818460208801612501565b835190830190612c04818360208801612501565b64173539b7b760d91b9101908152600501949350505050565b600060ff821660ff84168160ff0481118215151615612c3e57612c3e612a6e565b029392505050565b600067ffffffffffffffff80831681851681830481118215151615612c6d57612c6d612a6e565b02949350505050565b600067ffffffffffffffff808316818516808303821115612b9957612b99612a6e565b600060ff821660ff84168060ff03821115612cb657612cb6612a6e565b019392505050565b600082612cdb57634e487b7160e01b600052601260045260246000fd5b500690565b600061ffff808316818103612cf757612cf7612a6e565b6001019392505050565b60006080820160ff87168352602060ff8716818501526080604085015281865180845260a086019150828801935060005b81811015612d4e57845183529383019391830191600101612d32565b50506001600160a01b039590951660609490940193909352509195945050505050565b60006020808385031215612d8457600080fd5b825167ffffffffffffffff811115612d9b57600080fd5b8301601f81018513612dac57600080fd5b8051612dba6129a982612937565b81815260059190911b82018301908381019087831115612dd957600080fd5b928401925b82841015612e00578351612df1816126c9565b82529284019290840190612dde565b979650505050505050565b60208082526025908201527f4552433732313a207472616e736665722066726f6d20696e636f72726563742060408201526437bbb732b960d91b606082015260800190565b60208082526032908201527f4552433732313a207472616e7366657220746f206e6f6e20455243373231526560408201527131b2b4bb32b91034b6b83632b6b2b73a32b960711b606082015260800190565b6001600160a01b0385811682528416602082015260408101839052608060608201819052600090612ed59083018461252d565b9695505050505050565b600060208284031215612ef157600080fd5b81516124fa816124c756fe697066733a2f2f626166796265696372686977376161613332617a62746d686c70707a37787a6f706d797668766964777a33797332376136753473366169366761692f68747470733a2f2f64617277696e70726f746f636f6c2e696f2f65766f74757265732e6a736f6ea2646970667358221220b67b1865a6a23ed2b1ff65275b8337b683c808832477ec71a72f54f2493e8e0b64736f6c634300080e00334552433732313a207472616e7366657220746f206e6f6e204552433732315265",
  "linkReferences": {},
  "deployedLinkReferences": {}
}