{
  "_format": "hh-sol-artifact-1",
  "contractName": "EvoturesNFT",
  "sourceName": "contracts/EvoturesNFT.sol",
  "abi": [
    {
      "inputs": [
        {
          "internalType": "uint16[]",
          "name": "unminted_",
          "type": "uint16[]"
        },
        {
          "internalType": "contract IBoosterNFT",
          "name": "_boosterContract",
          "type": "address"
        },
        {
          "internalType": "contract IVRFv2Consumer",
          "name": "_vrfConsumer",
          "type": "address"
        }
      ],
      "stateMutability": "nonpayable",
      "type": "constructor"
    },
    {
      "anonymous": false,
      "inputs": [
        {
          "indexed": true,
          "internalType": "address",
          "name": "owner",
          "type": "address"
        },
        {
          "indexed": true,
          "internalType": "address",
          "name": "approved",
          "type": "address"
        },
        {
          "indexed": true,
          "internalType": "uint256",
          "name": "tokenId",
          "type": "uint256"
        }
      ],
      "name": "Approval",
      "type": "event"
    },
    {
      "anonymous": false,
      "inputs": [
        {
          "indexed": true,
          "internalType": "address",
          "name": "owner",
          "type": "address"
        },
        {
          "indexed": true,
          "internalType": "address",
          "name": "operator",
          "type": "address"
        },
        {
          "indexed": false,
          "internalType": "bool",
          "name": "approved",
          "type": "bool"
        }
      ],
      "name": "ApprovalForAll",
      "type": "event"
    },
    {
      "anonymous": false,
      "inputs": [
        {
          "indexed": true,
          "internalType": "address",
          "name": "from",
          "type": "address"
        },
        {
          "indexed": true,
          "internalType": "address",
          "name": "to",
          "type": "address"
        },
        {
          "indexed": true,
          "internalType": "uint256",
          "name": "tokenId",
          "type": "uint256"
        }
      ],
      "name": "Transfer",
      "type": "event"
    },
    {
      "inputs": [],
      "name": "BOOSTER_PRICE",
      "outputs": [
        {
          "internalType": "uint56",
          "name": "",
          "type": "uint56"
        }
      ],
      "stateMutability": "view",
      "type": "function"
    },
    {
      "inputs": [],
      "name": "EVOTURES_PRICE",
      "outputs": [
        {
          "internalType": "uint56",
          "name": "",
          "type": "uint56"
        }
      ],
      "stateMutability": "view",
      "type": "function"
    },
    {
      "inputs": [
        {
          "internalType": "uint16",
          "name": "_tokenId",
          "type": "uint16"
        },
        {
          "internalType": "uint16",
          "name": "_boosterTokenId",
          "type": "uint16"
        }
      ],
      "name": "addBooster",
      "outputs": [],
      "stateMutability": "nonpayable",
      "type": "function"
    },
    {
      "inputs": [
        {
          "internalType": "address",
          "name": "to",
          "type": "address"
        },
        {
          "internalType": "uint256",
          "name": "tokenId",
          "type": "uint256"
        }
      ],
      "name": "approve",
      "outputs": [],
      "stateMutability": "nonpayable",
      "type": "function"
    },
    {
      "inputs": [
        {
          "internalType": "address",
          "name": "owner",
          "type": "address"
        }
      ],
      "name": "balanceOf",
      "outputs": [
        {
          "internalType": "uint256",
          "name": "",
          "type": "uint256"
        }
      ],
      "stateMutability": "view",
      "type": "function"
    },
    {
      "inputs": [],
      "name": "boosterContract",
      "outputs": [
        {
          "internalType": "contract IBoosterNFT",
          "name": "",
          "type": "address"
        }
      ],
      "stateMutability": "view",
      "type": "function"
    },
    {
      "inputs": [
        {
          "internalType": "uint16",
          "name": "_tokenId",
          "type": "uint16"
        }
      ],
      "name": "boosters",
      "outputs": [
        {
          "internalType": "uint16[]",
          "name": "",
          "type": "uint16[]"
        }
      ],
      "stateMutability": "view",
      "type": "function"
    },
    {
      "inputs": [
        {
          "internalType": "uint256[]",
          "name": "_randomWords",
          "type": "uint256[]"
        },
        {
          "internalType": "uint8",
          "name": "_evotures",
          "type": "uint8"
        },
        {
          "internalType": "uint8",
          "name": "boosters_",
          "type": "uint8"
        }
      ],
      "name": "chainlinkMint",
      "outputs": [],
      "stateMutability": "nonpayable",
      "type": "function"
    },
    {
      "inputs": [],
      "name": "contractURI",
      "outputs": [
        {
          "internalType": "string",
          "name": "",
          "type": "string"
        }
      ],
      "stateMutability": "pure",
      "type": "function"
    },
    {
      "inputs": [],
      "name": "dev",
      "outputs": [
        {
          "internalType": "address",
          "name": "",
          "type": "address"
        }
      ],
      "stateMutability": "view",
      "type": "function"
    },
    {
      "inputs": [
        {
          "internalType": "uint256",
          "name": "tokenId",
          "type": "uint256"
        }
      ],
      "name": "getApproved",
      "outputs": [
        {
          "internalType": "address",
          "name": "",
          "type": "address"
        }
      ],
      "stateMutability": "view",
      "type": "function"
    },
    {
      "inputs": [
        {
          "internalType": "address",
          "name": "owner",
          "type": "address"
        },
        {
          "internalType": "address",
          "name": "operator",
          "type": "address"
        }
      ],
      "name": "isApprovedForAll",
      "outputs": [
        {
          "internalType": "bool",
          "name": "",
          "type": "bool"
        }
      ],
      "stateMutability": "view",
      "type": "function"
    },
    {
      "inputs": [
        {
          "internalType": "uint8",
          "name": "_evotures",
          "type": "uint8"
        },
        {
          "internalType": "uint8",
          "name": "boosters_",
          "type": "uint8"
        }
      ],
      "name": "mint",
      "outputs": [],
      "stateMutability": "payable",
      "type": "function"
    },
    {
      "inputs": [
        {
          "internalType": "uint16",
          "name": "id",
          "type": "uint16"
        }
      ],
      "name": "multipliers",
      "outputs": [
        {
          "internalType": "uint16",
          "name": "mult",
          "type": "uint16"
        }
      ],
      "stateMutability": "view",
      "type": "function"
    },
    {
      "inputs": [],
      "name": "name",
      "outputs": [
        {
          "internalType": "string",
          "name": "",
          "type": "string"
        }
      ],
      "stateMutability": "view",
      "type": "function"
    },
    {
      "inputs": [
        {
          "internalType": "address",
          "name": "",
          "type": "address"
        },
        {
          "internalType": "address",
          "name": "",
          "type": "address"
        },
        {
          "internalType": "uint256",
          "name": "",
          "type": "uint256"
        },
        {
          "internalType": "bytes",
          "name": "",
          "type": "bytes"
        }
      ],
      "name": "onERC721Received",
      "outputs": [
        {
          "internalType": "bytes4",
          "name": "",
          "type": "bytes4"
        }
      ],
      "stateMutability": "pure",
      "type": "function"
    },
    {
      "inputs": [
        {
          "internalType": "uint256",
          "name": "tokenId",
          "type": "uint256"
        }
      ],
      "name": "ownerOf",
      "outputs": [
        {
          "internalType": "address",
          "name": "",
          "type": "address"
        }
      ],
      "stateMutability": "view",
      "type": "function"
    },
    {
      "inputs": [
        {
          "internalType": "uint16",
          "name": "_tokenId",
          "type": "uint16"
        },
        {
          "internalType": "uint16",
          "name": "_boosterTokenId",
          "type": "uint16"
        }
      ],
      "name": "removeBooster",
      "outputs": [],
      "stateMutability": "nonpayable",
      "type": "function"
    },
    {
      "inputs": [
        {
          "internalType": "address",
          "name": "from",
          "type": "address"
        },
        {
          "internalType": "address",
          "name": "to",
          "type": "address"
        },
        {
          "internalType": "uint256",
          "name": "tokenId",
          "type": "uint256"
        }
      ],
      "name": "safeTransferFrom",
      "outputs": [],
      "stateMutability": "nonpayable",
      "type": "function"
    },
    {
      "inputs": [
        {
          "internalType": "address",
          "name": "from",
          "type": "address"
        },
        {
          "internalType": "address",
          "name": "to",
          "type": "address"
        },
        {
          "internalType": "uint256",
          "name": "tokenId",
          "type": "uint256"
        },
        {
          "internalType": "bytes",
          "name": "data",
          "type": "bytes"
        }
      ],
      "name": "safeTransferFrom",
      "outputs": [],
      "stateMutability": "nonpayable",
      "type": "function"
    },
    {
      "inputs": [
        {
          "internalType": "address",
          "name": "operator",
          "type": "address"
        },
        {
          "internalType": "bool",
          "name": "approved",
          "type": "bool"
        }
      ],
      "name": "setApprovalForAll",
      "outputs": [],
      "stateMutability": "nonpayable",
      "type": "function"
    },
    {
      "inputs": [
        {
          "internalType": "bytes4",
          "name": "interfaceId",
          "type": "bytes4"
        }
      ],
      "name": "supportsInterface",
      "outputs": [
        {
          "internalType": "bool",
          "name": "",
          "type": "bool"
        }
      ],
      "stateMutability": "view",
      "type": "function"
    },
    {
      "inputs": [],
      "name": "symbol",
      "outputs": [
        {
          "internalType": "string",
          "name": "",
          "type": "string"
        }
      ],
      "stateMutability": "view",
      "type": "function"
    },
    {
      "inputs": [
        {
          "internalType": "uint256",
          "name": "tokenId",
          "type": "uint256"
        }
      ],
      "name": "tokenURI",
      "outputs": [
        {
          "internalType": "string",
          "name": "",
          "type": "string"
        }
      ],
      "stateMutability": "view",
      "type": "function"
    },
    {
      "inputs": [],
      "name": "totalMinted",
      "outputs": [
        {
          "internalType": "uint16",
          "name": "",
          "type": "uint16"
        }
      ],
      "stateMutability": "view",
      "type": "function"
    },
    {
      "inputs": [
        {
          "internalType": "address",
          "name": "from",
          "type": "address"
        },
        {
          "internalType": "address",
          "name": "to",
          "type": "address"
        },
        {
          "internalType": "uint256",
          "name": "tokenId",
          "type": "uint256"
        }
      ],
      "name": "transferFrom",
      "outputs": [],
      "stateMutability": "nonpayable",
      "type": "function"
    },
    {
      "inputs": [],
      "name": "unminted",
      "outputs": [
        {
          "internalType": "uint16[]",
          "name": "",
          "type": "uint16[]"
        }
      ],
      "stateMutability": "view",
      "type": "function"
    },
    {
      "inputs": [
        {
          "internalType": "address",
          "name": "_user",
          "type": "address"
        }
      ],
      "name": "userMinted",
      "outputs": [
        {
          "internalType": "uint16[]",
          "name": "",
          "type": "uint16[]"
        }
      ],
      "stateMutability": "view",
      "type": "function"
    },
    {
      "inputs": [],
      "name": "vrfConsumer",
      "outputs": [
        {
          "internalType": "contract IVRFv2Consumer",
          "name": "",
          "type": "address"
        }
      ],
      "stateMutability": "view",
      "type": "function"
    },
    {
      "inputs": [],
      "name": "withdrawETH",
      "outputs": [],
      "stateMutability": "nonpayable",
      "type": "function"
    },
    {
      "stateMutability": "payable",
      "type": "receive"
    }
  ],
  "bytecode": "0x60e06040526006805462010000600160801b0319166f1550f7dca700008e1bc9bf04000000001790553480156200003557600080fd5b50604051620036a4380380620036a4833981016040819052620000589162000656565b604080518082018252600d81526c45766f7475726573204e46547360981b60208083019182528351808501909452600884526745564f545552455360c01b908401528151919291620000ad91600091620004c4565b508051620000c3906001906020840190620004c4565b505033608052508251620000df90600790602086019062000553565b506001600160a01b0380831660a052811660c052620001013361080d62000126565b6200010f3361084862000126565b50506006805461ffff191660021790555062000838565b620001488282604051806020016040528060008152506200014c60201b60201c565b5050565b620001588383620001c8565b62000167600084848462000359565b620001c35760405162461bcd60e51b815260206004820152603260248201526000805160206200368483398151915260448201527131b2b4bb32b91034b6b83632b6b2b73a32b960711b60648201526084015b60405180910390fd5b505050565b6001600160a01b038216620002205760405162461bcd60e51b815260206004820181905260248201527f4552433732313a206d696e7420746f20746865207a65726f20616464726573736044820152606401620001ba565b6000818152600260205260409020546001600160a01b031615620002875760405162461bcd60e51b815260206004820152601c60248201527f4552433732313a20746f6b656e20616c7265616479206d696e746564000000006044820152606401620001ba565b6000818152600260205260409020546001600160a01b031615620002ee5760405162461bcd60e51b815260206004820152601c60248201527f4552433732313a20746f6b656e20616c7265616479206d696e746564000000006044820152606401620001ba565b6001600160a01b038216600081815260036020908152604080832080546001019055848352600290915280822080546001600160a01b0319168417905551839291907fddf252ad1be2c89b69c2b068fc378daa952ba7f163c4a11628f55a4df523b3ef908290a45050565b60006200037a846001600160a01b0316620004b560201b62001a601760201c565b15620004a957604051630a85bd0160e11b81526001600160a01b0385169063150b7a0290620003b49033908990889088906004016200074e565b6020604051808303816000875af1925050508015620003f2575060408051601f3d908101601f19168201909252620003ef91810190620007c9565b60015b6200048e573d80801562000423576040519150601f19603f3d011682016040523d82523d6000602084013e62000428565b606091505b508051600003620004865760405162461bcd60e51b815260206004820152603260248201526000805160206200368483398151915260448201527131b2b4bb32b91034b6b83632b6b2b73a32b960711b6064820152608401620001ba565b805181602001fd5b6001600160e01b031916630a85bd0160e11b149050620004ad565b5060015b949350505050565b6001600160a01b03163b151590565b828054620004d290620007fc565b90600052602060002090601f016020900481019282620004f6576000855562000541565b82601f106200051157805160ff191683800117855562000541565b8280016001018555821562000541579182015b828111156200054157825182559160200191906001019062000524565b506200054f929150620005f9565b5090565b82805482825590600052602060002090600f01601090048101928215620005415791602002820160005b83821115620005bf57835183826101000a81548161ffff021916908361ffff16021790555092602001926002016020816001010492830192600103026200057d565b8015620005ef5782816101000a81549061ffff0219169055600201602081600101049283019260010302620005bf565b50506200054f9291505b5b808211156200054f5760008155600101620005fa565b634e487b7160e01b600052604160045260246000fd5b805161ffff811681146200063957600080fd5b919050565b80516001600160a01b03811681146200063957600080fd5b6000806000606084860312156200066c57600080fd5b83516001600160401b03808211156200068457600080fd5b818601915086601f8301126200069957600080fd5b8151602082821115620006b057620006b062000610565b8160051b604051601f19603f83011681018181108682111715620006d857620006d862000610565b60405292835281830193508481018201928a841115620006f757600080fd5b948201945b838610156200072057620007108662000626565b85529482019493820193620006fc565b97506200073190508882016200063e565b95505050505062000745604085016200063e565b90509250925092565b600060018060a01b038087168352602081871681850152856040850152608060608501528451915081608085015260005b828110156200079d5785810182015185820160a0015281016200077f565b82811115620007b057600060a084870101525b5050601f01601f19169190910160a00195945050505050565b600060208284031215620007dc57600080fd5b81516001600160e01b031981168114620007f557600080fd5b9392505050565b600181811c908216806200081157607f821691505b6020821081036200083257634e487b7160e01b600052602260045260246000fd5b50919050565b60805160a05160c051612deb620008996000396000818161033201528181610fd9015261154f0152600081816103a601528181610a4101528181610d540152818161116501526117450152600081816104c301526119150152612deb6000f3fe6080604052600436106101d15760003560e01c80635b6cc627116100f7578063afd8e4fa11610095578063d183d33411610064578063d183d334146105da578063e086e5ec146105fa578063e8a3d4851461060f578063e985e9c51461062457600080fd5b8063afd8e4fa14610535578063b88d4fde14610573578063c87b56dd14610593578063d035770c146105b357600080fd5b806391cca3db116100d157806391cca3db146104b157806395d89b41146104e5578063a22cb465146104fa578063a2309ff81461051a57600080fd5b80635b6cc627146104435780636352211e1461046357806370a082311461048357600080fd5b80631ef4d1fd1161016f57806329a0eee81161013e57806329a0eee8146103c857806337321589146103db5780633a3328cb146103f057806342842e0e1461042357600080fd5b80631ef4d1fd146103205780632163a04a1461035457806323b872dd1461037457806327f7be991461039457600080fd5b8063095ea7b3116101ab578063095ea7b31461026c578063150b7a021461028e5780631aa5e872146102d35780631ceb921f1461030057600080fd5b806301ffc9a7146101dd57806306fdde0314610212578063081812fc1461023457600080fd5b366101d857005b600080fd5b3480156101e957600080fd5b506101fd6101f8366004612358565b61066d565b60405190151581526020015b60405180910390f35b34801561021e57600080fd5b506102276106bf565b60405161020991906123d4565b34801561024057600080fd5b5061025461024f3660046123e7565b610751565b6040516001600160a01b039091168152602001610209565b34801561027857600080fd5b5061028c61028736600461241c565b610778565b005b34801561029a57600080fd5b506102ba6102a9366004612446565b630a85bd0160e11b95945050505050565b6040516001600160e01b03199091168152602001610209565b3480156102df57600080fd5b506102f36102ee3660046124e1565b610892565b60405161020991906124fc565b34801561030c57600080fd5b5061028c61031b366004612554565b610926565b34801561032c57600080fd5b506102547f000000000000000000000000000000000000000000000000000000000000000081565b34801561036057600080fd5b5061028c61036f366004612554565b610c3a565b34801561038057600080fd5b5061028c61038f36600461258d565b610dff565b3480156103a057600080fd5b506102547f000000000000000000000000000000000000000000000000000000000000000081565b61028c6103d63660046125e3565b610e30565b3480156103e757600080fd5b506102f361104e565b3480156103fc57600080fd5b5061041061040b366004612611565b6110cd565b60405161ffff9091168152602001610209565b34801561042f57600080fd5b5061028c61043e36600461258d565b61131e565b34801561044f57600080fd5b506102f361045e366004612611565b611339565b34801561046f57600080fd5b5061025461047e3660046123e7565b6113a2565b34801561048f57600080fd5b506104a361049e3660046124e1565b611402565b604051908152602001610209565b3480156104bd57600080fd5b506102547f000000000000000000000000000000000000000000000000000000000000000081565b3480156104f157600080fd5b50610227611488565b34801561050657600080fd5b5061028c61051536600461262e565b611497565b34801561052657600080fd5b506006546104109061ffff1681565b34801561054157600080fd5b5060065461055b9062010000900466ffffffffffffff1681565b60405166ffffffffffffff9091168152602001610209565b34801561057f57600080fd5b5061028c61058e3660046126a6565b6114a6565b34801561059f57600080fd5b506102276105ae3660046123e7565b6114de565b3480156105bf57600080fd5b5060065461055b90600160481b900466ffffffffffffff1681565b3480156105e657600080fd5b5061028c6105f536600461278a565b611544565b34801561060657600080fd5b5061028c61190a565b34801561061b57600080fd5b50610227611a40565b34801561063057600080fd5b506101fd61063f366004612842565b6001600160a01b03918216600090815260056020908152604080832093909416825291909152205460ff1690565b60006001600160e01b031982166380ac58cd60e01b148061069e57506001600160e01b03198216635b5e139f60e01b145b806106b957506301ffc9a760e01b6001600160e01b03198316145b92915050565b6060600080546106ce90612875565b80601f01602080910402602001604051908101604052809291908181526020018280546106fa90612875565b80156107475780601f1061071c57610100808354040283529160200191610747565b820191906000526020600020905b81548152906001019060200180831161072a57829003601f168201915b5050505050905090565b600061075c82611a6f565b506000908152600460205260409020546001600160a01b031690565b6000610783826113a2565b9050806001600160a01b0316836001600160a01b0316036107f55760405162461bcd60e51b815260206004820152602160248201527f4552433732313a20617070726f76616c20746f2063757272656e74206f776e656044820152603960f91b60648201526084015b60405180910390fd5b336001600160a01b03821614806108115750610811813361063f565b6108835760405162461bcd60e51b815260206004820152603d60248201527f4552433732313a20617070726f76652063616c6c6572206973206e6f7420746f60448201527f6b656e206f776e6572206f7220617070726f76656420666f7220616c6c00000060648201526084016107ec565b61088d8383611ace565b505050565b6001600160a01b03811660009081526008602090815260409182902080548351818402810184019094528084526060939283018282801561091a57602002820191906000526020600020906000905b82829054906101000a900461ffff1661ffff16815260200190600201906020826001010492830192600103820291508084116108e15790505b50505050509050919050565b3361093461ffff84166113a2565b6001600160a01b0316146109a75760405162461bcd60e51b815260206004820152603460248201527f45766f74757265734e46543a3a72656d6f7665426f6f737465723a2043414c4c60448201527322a92fa727aa2fa2ab27aa2aa922afa7aba722a960611b60648201526084016107ec565b61ffff8216600090815260096020526040902054610a1c5760405162461bcd60e51b815260206004820152602c60248201527f45766f74757265734e46543a3a72656d6f7665426f6f737465723a204e4f5f4260448201526b13d3d4d5115497d05111115160a21b60648201526084016107ec565b604051632142170760e11b815230600482015233602482015261ffff821660448201527f00000000000000000000000000000000000000000000000000000000000000006001600160a01b0316906342842e0e90606401600060405180830381600087803b158015610a8d57600080fd5b505af1158015610aa1573d6000803e3d6000fd5b5050505060005b61ffff831660009081526009602052604090205460ff8216101561088d5761ffff838116600090815260096020526040902080549184169160ff8416908110610af357610af36128a9565b60009182526020909120601082040154600f9091166002026101000a900461ffff1603610c285761ffff831660009081526009602052604090208054610b3b906001906128d5565b81548110610b4b57610b4b6128a9565b90600052602060002090601091828204019190066002029054906101000a900461ffff16600960008561ffff1661ffff1681526020019081526020016000208260ff1681548110610b9e57610b9e6128a9565b90600052602060002090601091828204019190066002026101000a81548161ffff021916908361ffff160217905550600960008461ffff1661ffff168152602001908152602001600020805480610bf757610bf76128ec565b600082815260209020601060001990920191820401805461ffff6002600f8516026101000a02191690559055505050565b80610c3281612902565b915050610aa8565b33610c4861ffff84166113a2565b6001600160a01b031614610cb85760405162461bcd60e51b815260206004820152603160248201527f45766f74757265734e46543a3a616464426f6f737465723a2043414c4c45525f6044820152702727aa2fa2ab27aa2aa922afa7aba722a960791b60648201526084016107ec565b61ffff8216600090815260096020526040902054600511610d2f5760405162461bcd60e51b815260206004820152602b60248201527f45766f74757265734e46543a3a616464426f6f737465723a204d41585f424f4f60448201526a14d5115494d7d05111115160aa1b60648201526084016107ec565b604051632142170760e11b815233600482015230602482015261ffff821660448201527f00000000000000000000000000000000000000000000000000000000000000006001600160a01b0316906342842e0e90606401600060405180830381600087803b158015610da057600080fd5b505af1158015610db4573d6000803e3d6000fd5b5050505061ffff918216600090815260096020908152604082208054600181018255908352912060108204018054600f9092166002026101000a808502199092169290931602179055565b610e093382611b3c565b610e255760405162461bcd60e51b81526004016107ec90612921565b61088d838383611bbb565b60075460ff83161115610e855760405162461bcd60e51b815260206004820181905260248201527f45766f74757265734e46543a3a6d696e743a204d494e545f455843454544454460448201526064016107ec565b33600090815260086020526040902054610ea09060036128d5565b8260ff1611158015610eb6575060058160ff1611155b610f025760405162461bcd60e51b815260206004820152601c60248201527f45766f74757265734e46543a3a6d696e743a20464f5242494444454e0000000060448201526064016107ec565b600654600160481b900466ffffffffffffff16610f1f828461296e565b60ff16610f2c9190612997565b600654610f4b9062010000900466ffffffffffffff1660ff8516612997565b610f5591906129c6565b66ffffffffffffff16341015610fb95760405162461bcd60e51b815260206004820152602360248201527f45766f74757265734e46543a3a6d696e743a20494e53554646494349454e545f60448201526208aa8960eb1b60648201526084016107ec565b60405163bbcaf7e160e01b815260ff8084166004830152821660248201527f00000000000000000000000000000000000000000000000000000000000000006001600160a01b03169063bbcaf7e1906044016020604051808303816000875af115801561102a573d6000803e3d6000fd5b505050506040513d601f19601f8201168201806040525081019061088d91906129f1565b6060600780548060200260200160405190810160405280929190818152602001828054801561074757602002820191906000526020600020906000905b82829054906101000a900461ffff1661ffff168152602001906002019060208260010104928301926001038202915080841161108b5790505050505050905090565b61ffff811660009081526009602090815260408083208054825181850281018501909352808352849383018282801561114d57602002820191906000526020600020906000905b82829054906101000a900461ffff1661ffff16815260200190600201906020826001010492830192600103820291508084116111145790505b5050505050905060005b81518160ff161015611237577f00000000000000000000000000000000000000000000000000000000000000006001600160a01b03166359ea5adb838360ff16815181106111a7576111a76128a9565b60200260200101516040518263ffffffff1660e01b81526004016111d5919061ffff91909116815260200190565b6040805180830381865afa1580156111f1573d6000803e3d6000fd5b505050506040513d601f19601f820116820180604052508101906112159190612a0a565b516112239060ff1684612a69565b92508061122f81612902565b915050611157565b508261ffff1661080d148061125157508261ffff16610848145b15611269576112626103e883612a69565b9150611318565b6107d08361ffff16111561128a576112836107d084612a86565b92506112a7565b6103e88361ffff1611156112a7576112a46103e884612a86565b92505b60038361ffff1610156112c0576112626101f483612a69565b60088361ffff1610156112d95761126261019083612a69565b60148361ffff1610156112f25761126261012c83612a69565b60288361ffff16101561130a5761126260fa83612a69565b61131560c883612a69565b91505b50919050565b61088d838383604051806020016040528060008152506114a6565b61ffff811660009081526009602090815260409182902080548351818402810184019094528084526060939283018282801561091a576000918252602091829020805461ffff1684529082028301929091600291018084116108e1575094979650505050505050565b6000818152600260205260408120546001600160a01b0316806106b95760405162461bcd60e51b8152602060048201526018602482015277115490cdcc8c4e881a5b9d985b1a59081d1bdad95b88125160421b60448201526064016107ec565b60006001600160a01b03821661146c5760405162461bcd60e51b815260206004820152602960248201527f4552433732313a2061646472657373207a65726f206973206e6f7420612076616044820152683634b21037bbb732b960b91b60648201526084016107ec565b506001600160a01b031660009081526003602052604090205490565b6060600180546106ce90612875565b6114a2338383611d1f565b5050565b6114b03383611b3c565b6114cc5760405162461bcd60e51b81526004016107ec90612921565b6114d884848484611ded565b50505050565b60606114e982611a6f565b60006114f3611e20565b905060008151116115135760405180602001604052806000815250611315565b8061151d84611e40565b60405160200161152e929190612aa9565b6040516020818303038152906040529392505050565b336001600160a01b037f000000000000000000000000000000000000000000000000000000000000000016146115d45760405162461bcd60e51b815260206004820152602f60248201527f45766f74757265734e46543a3a636861696e6c696e6b4d696e743a2043414c4c60448201526e22a92fa727aa2fa1a7a729aaa6a2a960891b60648201526084016107ec565b60005b8260ff168160ff1610156114d85760075460009085836115f7868261296e565b6116019190612ae8565b60ff1681518110611614576116146128a9565b60200260200101516116269190612b0d565b905061166a3360078361ffff1681548110611643576116436128a9565b60009182526020909120601082040154600f9091166002026101000a900461ffff16611ed3565b6006805461ffff1690600061167e83612b2f565b91906101000a81548161ffff021916908361ffff1602179055505060086000336001600160a01b03166001600160a01b0316815260200190815260200160002060078261ffff16815481106116d5576116d56128a9565b600091825260208083206010808404909101548554600181018755958552919093209284049092018054600f948516600290810261010090810a61ffff9790951691909102900a90930484168202919093021990911617905560405163adb9be9f60e01b81526001600160a01b037f0000000000000000000000000000000000000000000000000000000000000000169063adb9be9f9061178090869086908a903090600401612b50565b6000604051808303816000875af115801561179f573d6000803e3d6000fd5b505050506040513d6000823e601f3d908101601f191682016040526117c79190810190612bc0565b6009600060078461ffff16815481106117e2576117e26128a9565b90600052602060002090601091828204019190066002029054906101000a900461ffff1661ffff1661ffff168152602001908152602001600020908051906020019061182f929190612284565b5060078054611840906001906128d5565b81548110611850576118506128a9565b90600052602060002090601091828204019190066002029054906101000a900461ffff1660078261ffff168154811061188b5761188b6128a9565b90600052602060002090601091828204019190066002026101000a81548161ffff021916908361ffff16021790555060078054806118cb576118cb6128ec565b600082815260209020601060001990920191820401805461ffff6002600f8516026101000a02191690559055508061190281612902565b9150506115d7565b336001600160a01b037f000000000000000000000000000000000000000000000000000000000000000016146119935760405162461bcd60e51b815260206004820152602860248201527f45766f74757265734e46543a3a77697468647261774554483a2043414c4c45526044820152672fa727aa2fa222ab60c11b60648201526084016107ec565b604051600090339047908381818185875af1925050503d80600081146119d5576040519150601f19603f3d011682016040523d82523d6000602084013e6119da565b606091505b5050905080611a3d5760405162461bcd60e51b815260206004820152602960248201527f45766f74757265734e46543a3a77697468647261774554483a205452414e5346604482015268115497d1905253115160ba1b60648201526084016107ec565b50565b6060604051806060016040528060278152602001612d8f60279139905090565b6001600160a01b03163b151590565b6000818152600260205260409020546001600160a01b0316611a3d5760405162461bcd60e51b8152602060048201526018602482015277115490cdcc8c4e881a5b9d985b1a59081d1bdad95b88125160421b60448201526064016107ec565b600081815260046020526040902080546001600160a01b0319166001600160a01b0384169081179091558190611b03826113a2565b6001600160a01b03167f8c5be1e5ebec7d5bd14f71427d1e84f3dd0314c0f7b2291e5b200ac8c7c3b92560405160405180910390a45050565b600080611b48836113a2565b9050806001600160a01b0316846001600160a01b03161480611b8f57506001600160a01b0380821660009081526005602090815260408083209388168352929052205460ff165b80611bb35750836001600160a01b0316611ba884610751565b6001600160a01b0316145b949350505050565b826001600160a01b0316611bce826113a2565b6001600160a01b031614611bf45760405162461bcd60e51b81526004016107ec90612c5a565b6001600160a01b038216611c565760405162461bcd60e51b8152602060048201526024808201527f4552433732313a207472616e7366657220746f20746865207a65726f206164646044820152637265737360e01b60648201526084016107ec565b826001600160a01b0316611c69826113a2565b6001600160a01b031614611c8f5760405162461bcd60e51b81526004016107ec90612c5a565b600081815260046020908152604080832080546001600160a01b03199081169091556001600160a01b0387811680865260038552838620805460001901905590871680865283862080546001019055868652600290945282852080549092168417909155905184937fddf252ad1be2c89b69c2b068fc378daa952ba7f163c4a11628f55a4df523b3ef91a4505050565b816001600160a01b0316836001600160a01b031603611d805760405162461bcd60e51b815260206004820152601960248201527f4552433732313a20617070726f766520746f2063616c6c65720000000000000060448201526064016107ec565b6001600160a01b03838116600081815260056020908152604080832094871680845294825291829020805460ff191686151590811790915591519182527f17307eab39ab6107e8899845ad3d59bd9653f200f220920489ca2b5937696c31910160405180910390a3505050565b611df8848484611bbb565b611e0484848484611eed565b6114d85760405162461bcd60e51b81526004016107ec90612c9f565b6060604051806080016040528060438152602001612d4c60439139905090565b60606000611e4d83611fee565b600101905060008167ffffffffffffffff811115611e6d57611e6d61265f565b6040519080825280601f01601f191660200182016040528015611e97576020820181803683370190505b5090508181016020015b600019016f181899199a1a9b1b9c1cb0b131b232b360811b600a86061a8153600a8504945084611ea157509392505050565b6114a28282604051806020016040528060008152506120c6565b60006001600160a01b0384163b15611fe357604051630a85bd0160e11b81526001600160a01b0385169063150b7a0290611f31903390899088908890600401612cf1565b6020604051808303816000875af1925050508015611f6c575060408051601f3d908101601f19168201909252611f6991810190612d2e565b60015b611fc9573d808015611f9a576040519150601f19603f3d011682016040523d82523d6000602084013e611f9f565b606091505b508051600003611fc15760405162461bcd60e51b81526004016107ec90612c9f565b805181602001fd5b6001600160e01b031916630a85bd0160e11b149050611bb3565b506001949350505050565b60008072184f03e93ff9f4daa797ed6e38ed64bf6a1f0160401b831061202d5772184f03e93ff9f4daa797ed6e38ed64bf6a1f0160401b830492506040015b6d04ee2d6d415b85acef81000000008310612059576d04ee2d6d415b85acef8100000000830492506020015b662386f26fc10000831061207757662386f26fc10000830492506010015b6305f5e100831061208f576305f5e100830492506008015b61271083106120a357612710830492506004015b606483106120b5576064830492506002015b600a83106106b95760010192915050565b6120d083836120f9565b6120dd6000848484611eed565b61088d5760405162461bcd60e51b81526004016107ec90612c9f565b6001600160a01b03821661214f5760405162461bcd60e51b815260206004820181905260248201527f4552433732313a206d696e7420746f20746865207a65726f206164647265737360448201526064016107ec565b6000818152600260205260409020546001600160a01b0316156121b45760405162461bcd60e51b815260206004820152601c60248201527f4552433732313a20746f6b656e20616c7265616479206d696e7465640000000060448201526064016107ec565b6000818152600260205260409020546001600160a01b0316156122195760405162461bcd60e51b815260206004820152601c60248201527f4552433732313a20746f6b656e20616c7265616479206d696e7465640000000060448201526064016107ec565b6001600160a01b038216600081815260036020908152604080832080546001019055848352600290915280822080546001600160a01b0319168417905551839291907fddf252ad1be2c89b69c2b068fc378daa952ba7f163c4a11628f55a4df523b3ef908290a45050565b82805482825590600052602060002090600f0160109004810192821561231d5791602002820160005b838211156122ed57835183826101000a81548161ffff021916908361ffff16021790555092602001926002016020816001010492830192600103026122ad565b801561231b5782816101000a81549061ffff02191690556002016020816001010492830192600103026122ed565b505b5061232992915061232d565b5090565b5b80821115612329576000815560010161232e565b6001600160e01b031981168114611a3d57600080fd5b60006020828403121561236a57600080fd5b813561237581612342565b9392505050565b60005b8381101561239757818101518382015260200161237f565b838111156114d85750506000910152565b600081518084526123c081602086016020860161237c565b601f01601f19169290920160200192915050565b60208152600061237560208301846123a8565b6000602082840312156123f957600080fd5b5035919050565b80356001600160a01b038116811461241757600080fd5b919050565b6000806040838503121561242f57600080fd5b61243883612400565b946020939093013593505050565b60008060008060006080868803121561245e57600080fd5b61246786612400565b945061247560208701612400565b935060408601359250606086013567ffffffffffffffff8082111561249957600080fd5b818801915088601f8301126124ad57600080fd5b8135818111156124bc57600080fd5b8960208285010111156124ce57600080fd5b9699959850939650602001949392505050565b6000602082840312156124f357600080fd5b61237582612400565b6020808252825182820181905260009190848201906040850190845b8181101561253857835161ffff1683529284019291840191600101612518565b50909695505050505050565b61ffff81168114611a3d57600080fd5b6000806040838503121561256757600080fd5b823561257281612544565b9150602083013561258281612544565b809150509250929050565b6000806000606084860312156125a257600080fd5b6125ab84612400565b92506125b960208501612400565b9150604084013590509250925092565b60ff81168114611a3d57600080fd5b8035612417816125c9565b600080604083850312156125f657600080fd5b8235612601816125c9565b91506020830135612582816125c9565b60006020828403121561262357600080fd5b813561237581612544565b6000806040838503121561264157600080fd5b61264a83612400565b91506020830135801515811461258257600080fd5b634e487b7160e01b600052604160045260246000fd5b604051601f8201601f1916810167ffffffffffffffff8111828210171561269e5761269e61265f565b604052919050565b600080600080608085870312156126bc57600080fd5b6126c585612400565b935060206126d4818701612400565b935060408601359250606086013567ffffffffffffffff808211156126f857600080fd5b818801915088601f83011261270c57600080fd5b81358181111561271e5761271e61265f565b612730601f8201601f19168501612675565b9150808252898482850101111561274657600080fd5b808484018584013760008482840101525080935050505092959194509250565b600067ffffffffffffffff8211156127805761278061265f565b5060051b60200190565b60008060006060848603121561279f57600080fd5b833567ffffffffffffffff8111156127b657600080fd5b8401601f810186136127c757600080fd5b803560206127dc6127d783612766565b612675565b82815260059290921b830181019181810190898411156127fb57600080fd5b938201935b8385101561281957843582529382019390820190612800565b965061282890508782016125d8565b9450505050612839604085016125d8565b90509250925092565b6000806040838503121561285557600080fd5b61285e83612400565b915061286c60208401612400565b90509250929050565b600181811c9082168061288957607f821691505b60208210810361131857634e487b7160e01b600052602260045260246000fd5b634e487b7160e01b600052603260045260246000fd5b634e487b7160e01b600052601160045260246000fd5b6000828210156128e7576128e76128bf565b500390565b634e487b7160e01b600052603160045260246000fd5b600060ff821660ff8103612918576129186128bf565b60010192915050565b6020808252602d908201527f4552433732313a2063616c6c6572206973206e6f7420746f6b656e206f776e6560408201526c1c881bdc88185c1c1c9bdd9959609a1b606082015260800190565b600060ff821660ff84168160ff048111821515161561298f5761298f6128bf565b029392505050565b600066ffffffffffffff808316818516818304811182151516156129bd576129bd6128bf565b02949350505050565b600066ffffffffffffff8083168185168083038211156129e8576129e86128bf565b01949350505050565b600060208284031215612a0357600080fd5b5051919050565b600060408284031215612a1c57600080fd5b6040516040810181811067ffffffffffffffff82111715612a3f57612a3f61265f565b6040528251612a4d816125c9565b81526020830151612a5d816125c9565b60208201529392505050565b600061ffff8083168185168083038211156129e8576129e86128bf565b600061ffff83811690831681811015612aa157612aa16128bf565b039392505050565b60008351612abb81846020880161237c565b835190830190612acf81836020880161237c565b64173539b7b760d91b9101908152600501949350505050565b600060ff821660ff84168060ff03821115612b0557612b056128bf565b019392505050565b600082612b2a57634e487b7160e01b600052601260045260246000fd5b500690565b600061ffff808316818103612b4657612b466128bf565b6001019392505050565b60006080820160ff87168352602060ff8716818501526080604085015281865180845260a086019150828801935060005b81811015612b9d57845183529383019391830191600101612b81565b50506001600160a01b039590951660609490940193909352509195945050505050565b60006020808385031215612bd357600080fd5b825167ffffffffffffffff811115612bea57600080fd5b8301601f81018513612bfb57600080fd5b8051612c096127d782612766565b81815260059190911b82018301908381019087831115612c2857600080fd5b928401925b82841015612c4f578351612c4081612544565b82529284019290840190612c2d565b979650505050505050565b60208082526025908201527f4552433732313a207472616e736665722066726f6d20696e636f72726563742060408201526437bbb732b960d91b606082015260800190565b60208082526032908201527f4552433732313a207472616e7366657220746f206e6f6e20455243373231526560408201527131b2b4bb32b91034b6b83632b6b2b73a32b960711b606082015260800190565b6001600160a01b0385811682528416602082015260408101839052608060608201819052600090612d24908301846123a8565b9695505050505050565b600060208284031215612d4057600080fd5b81516123758161234256fe697066733a2f2f626166796265696567626779376132673232706e6f7867786b786a7a74677a7a35786e77336e616f627066626e6234766c367473677570706370692f68747470733a2f2f64617277696e70726f746f636f6c2e696f2f65766f74757265732e6a736f6ea2646970667358221220a4800623694c76beee8edf68257c358ce69f7b1bcac0b8b9638ac9ab1beebcf364736f6c634300080e00334552433732313a207472616e7366657220746f206e6f6e204552433732315265",
  "linkReferences": {},
  "deployedLinkReferences": {}
}