{
  "_format": "hh-sol-artifact-1",
  "contractName": "EvoturesNFT",
  "sourceName": "contracts/EvoturesNFT.sol",
  "abi": [
    {
      "inputs": [],
      "stateMutability": "nonpayable",
      "type": "constructor"
    },
    {
      "anonymous": false,
      "inputs": [
        {
          "indexed": true,
          "internalType": "address",
          "name": "owner",
          "type": "address"
        },
        {
          "indexed": true,
          "internalType": "address",
          "name": "approved",
          "type": "address"
        },
        {
          "indexed": true,
          "internalType": "uint256",
          "name": "tokenId",
          "type": "uint256"
        }
      ],
      "name": "Approval",
      "type": "event"
    },
    {
      "anonymous": false,
      "inputs": [
        {
          "indexed": true,
          "internalType": "address",
          "name": "owner",
          "type": "address"
        },
        {
          "indexed": true,
          "internalType": "address",
          "name": "operator",
          "type": "address"
        },
        {
          "indexed": false,
          "internalType": "bool",
          "name": "approved",
          "type": "bool"
        }
      ],
      "name": "ApprovalForAll",
      "type": "event"
    },
    {
      "anonymous": false,
      "inputs": [
        {
          "indexed": true,
          "internalType": "address",
          "name": "from",
          "type": "address"
        },
        {
          "indexed": true,
          "internalType": "address",
          "name": "to",
          "type": "address"
        },
        {
          "indexed": true,
          "internalType": "uint256",
          "name": "tokenId",
          "type": "uint256"
        }
      ],
      "name": "Transfer",
      "type": "event"
    },
    {
      "inputs": [],
      "name": "BOOSTER_PRICE",
      "outputs": [
        {
          "internalType": "uint256",
          "name": "",
          "type": "uint256"
        }
      ],
      "stateMutability": "view",
      "type": "function"
    },
    {
      "inputs": [],
      "name": "EVOTURES_PRICE",
      "outputs": [
        {
          "internalType": "uint256",
          "name": "",
          "type": "uint256"
        }
      ],
      "stateMutability": "view",
      "type": "function"
    },
    {
      "inputs": [
        {
          "internalType": "address",
          "name": "to",
          "type": "address"
        },
        {
          "internalType": "uint256",
          "name": "tokenId",
          "type": "uint256"
        }
      ],
      "name": "approve",
      "outputs": [],
      "stateMutability": "nonpayable",
      "type": "function"
    },
    {
      "inputs": [
        {
          "internalType": "address",
          "name": "owner",
          "type": "address"
        }
      ],
      "name": "balanceOf",
      "outputs": [
        {
          "internalType": "uint256",
          "name": "",
          "type": "uint256"
        }
      ],
      "stateMutability": "view",
      "type": "function"
    },
    {
      "inputs": [],
      "name": "contractURI",
      "outputs": [
        {
          "internalType": "string",
          "name": "",
          "type": "string"
        }
      ],
      "stateMutability": "pure",
      "type": "function"
    },
    {
      "inputs": [
        {
          "internalType": "uint256",
          "name": "tokenId",
          "type": "uint256"
        }
      ],
      "name": "getApproved",
      "outputs": [
        {
          "internalType": "address",
          "name": "",
          "type": "address"
        }
      ],
      "stateMutability": "view",
      "type": "function"
    },
    {
      "inputs": [
        {
          "internalType": "address",
          "name": "owner",
          "type": "address"
        },
        {
          "internalType": "address",
          "name": "operator",
          "type": "address"
        }
      ],
      "name": "isApprovedForAll",
      "outputs": [
        {
          "internalType": "bool",
          "name": "",
          "type": "bool"
        }
      ],
      "stateMutability": "view",
      "type": "function"
    },
    {
      "inputs": [
        {
          "internalType": "uint8",
          "name": "_evotures",
          "type": "uint8"
        },
        {
          "internalType": "uint8",
          "name": "_boosters",
          "type": "uint8"
        }
      ],
      "name": "mint",
      "outputs": [],
      "stateMutability": "payable",
      "type": "function"
    },
    {
      "inputs": [
        {
          "internalType": "uint16",
          "name": "id",
          "type": "uint16"
        }
      ],
      "name": "multipliers",
      "outputs": [
        {
          "internalType": "uint16",
          "name": "mult",
          "type": "uint16"
        }
      ],
      "stateMutability": "pure",
      "type": "function"
    },
    {
      "inputs": [],
      "name": "name",
      "outputs": [
        {
          "internalType": "string",
          "name": "",
          "type": "string"
        }
      ],
      "stateMutability": "view",
      "type": "function"
    },
    {
      "inputs": [
        {
          "internalType": "uint256",
          "name": "tokenId",
          "type": "uint256"
        }
      ],
      "name": "ownerOf",
      "outputs": [
        {
          "internalType": "address",
          "name": "",
          "type": "address"
        }
      ],
      "stateMutability": "view",
      "type": "function"
    },
    {
      "inputs": [
        {
          "internalType": "address",
          "name": "from",
          "type": "address"
        },
        {
          "internalType": "address",
          "name": "to",
          "type": "address"
        },
        {
          "internalType": "uint256",
          "name": "tokenId",
          "type": "uint256"
        }
      ],
      "name": "safeTransferFrom",
      "outputs": [],
      "stateMutability": "nonpayable",
      "type": "function"
    },
    {
      "inputs": [
        {
          "internalType": "address",
          "name": "from",
          "type": "address"
        },
        {
          "internalType": "address",
          "name": "to",
          "type": "address"
        },
        {
          "internalType": "uint256",
          "name": "tokenId",
          "type": "uint256"
        },
        {
          "internalType": "bytes",
          "name": "data",
          "type": "bytes"
        }
      ],
      "name": "safeTransferFrom",
      "outputs": [],
      "stateMutability": "nonpayable",
      "type": "function"
    },
    {
      "inputs": [
        {
          "internalType": "address",
          "name": "operator",
          "type": "address"
        },
        {
          "internalType": "bool",
          "name": "approved",
          "type": "bool"
        }
      ],
      "name": "setApprovalForAll",
      "outputs": [],
      "stateMutability": "nonpayable",
      "type": "function"
    },
    {
      "inputs": [
        {
          "internalType": "bytes4",
          "name": "interfaceId",
          "type": "bytes4"
        }
      ],
      "name": "supportsInterface",
      "outputs": [
        {
          "internalType": "bool",
          "name": "",
          "type": "bool"
        }
      ],
      "stateMutability": "view",
      "type": "function"
    },
    {
      "inputs": [],
      "name": "symbol",
      "outputs": [
        {
          "internalType": "string",
          "name": "",
          "type": "string"
        }
      ],
      "stateMutability": "view",
      "type": "function"
    },
    {
      "inputs": [
        {
          "internalType": "uint256",
          "name": "tokenId",
          "type": "uint256"
        }
      ],
      "name": "tokenURI",
      "outputs": [
        {
          "internalType": "string",
          "name": "",
          "type": "string"
        }
      ],
      "stateMutability": "view",
      "type": "function"
    },
    {
      "inputs": [],
      "name": "totalMinted",
      "outputs": [
        {
          "internalType": "uint256",
          "name": "",
          "type": "uint256"
        }
      ],
      "stateMutability": "view",
      "type": "function"
    },
    {
      "inputs": [
        {
          "internalType": "address",
          "name": "from",
          "type": "address"
        },
        {
          "internalType": "address",
          "name": "to",
          "type": "address"
        },
        {
          "internalType": "uint256",
          "name": "tokenId",
          "type": "uint256"
        }
      ],
      "name": "transferFrom",
      "outputs": [],
      "stateMutability": "nonpayable",
      "type": "function"
    },
    {
      "inputs": [],
      "name": "unminted",
      "outputs": [
        {
          "internalType": "uint16[]",
          "name": "",
          "type": "uint16[]"
        }
      ],
      "stateMutability": "view",
      "type": "function"
    },
    {
      "inputs": [
        {
          "internalType": "address",
          "name": "_user",
          "type": "address"
        }
      ],
      "name": "userMinted",
      "outputs": [
        {
          "internalType": "uint16[]",
          "name": "",
          "type": "uint16[]"
        }
      ],
      "stateMutability": "view",
      "type": "function"
    }
  ],
  "bytecode": "0x6080604052668e1bc9bf040000600755661550f7dca700006008553480156200002757600080fd5b50604080518082018252600d81526c45766f7475726573204e46547360981b60208083019182528351808501909452600884526745564f545552455360c01b9084015281519192916200007d91600091620005bc565b50805162000093906001906020840190620005bc565b5060019150505b6101698161ffff161015620001f65760798161ffff1610156200011557600980546001810182556000919091527f6e1540171b6c0c960b71a7020d9f60077f6af931a8bbf590da0223dacf75c7af60108204018054600f9092166002026101000a61ffff8181021990931692841602919091179055620001e1565b60f18161ffff16101562000173576009620001338261037062000678565b81546001810183556000928352602090922060108304018054600f9093166002026101000a61ffff818102199094169290931692909202179055620001e1565b8061ffff1661012d141580156200019057508061ffff1661016814155b15620001e1576009620001a6826106e062000678565b81546001810183556000928352602090922060108304018054600f9093166002026101000a61ffff8181021990941692909316929092021790555b80620001ed81620006a1565b9150506200009a565b50620002053361080d6200021e565b62000213336108486200021e565b6002600655620007af565b620002408282604051806020016040528060008152506200024460201b60201c565b5050565b620002508383620002c0565b6200025f600084848462000451565b620002bb5760405162461bcd60e51b815260206004820152603260248201526000805160206200255283398151915260448201527131b2b4bb32b91034b6b83632b6b2b73a32b960711b60648201526084015b60405180910390fd5b505050565b6001600160a01b038216620003185760405162461bcd60e51b815260206004820181905260248201527f4552433732313a206d696e7420746f20746865207a65726f20616464726573736044820152606401620002b2565b6000818152600260205260409020546001600160a01b0316156200037f5760405162461bcd60e51b815260206004820152601c60248201527f4552433732313a20746f6b656e20616c7265616479206d696e746564000000006044820152606401620002b2565b6000818152600260205260409020546001600160a01b031615620003e65760405162461bcd60e51b815260206004820152601c60248201527f4552433732313a20746f6b656e20616c7265616479206d696e746564000000006044820152606401620002b2565b6001600160a01b038216600081815260036020908152604080832080546001019055848352600290915280822080546001600160a01b0319168417905551839291907fddf252ad1be2c89b69c2b068fc378daa952ba7f163c4a11628f55a4df523b3ef908290a45050565b600062000472846001600160a01b0316620005ad60201b62000ce51760201c565b15620005a157604051630a85bd0160e11b81526001600160a01b0385169063150b7a0290620004ac903390899088908890600401620006c5565b6020604051808303816000875af1925050508015620004ea575060408051601f3d908101601f19168201909252620004e79181019062000740565b60015b62000586573d8080156200051b576040519150601f19603f3d011682016040523d82523d6000602084013e62000520565b606091505b5080516000036200057e5760405162461bcd60e51b815260206004820152603260248201526000805160206200255283398151915260448201527131b2b4bb32b91034b6b83632b6b2b73a32b960711b6064820152608401620002b2565b805181602001fd5b6001600160e01b031916630a85bd0160e11b149050620005a5565b5060015b949350505050565b6001600160a01b03163b151590565b828054620005ca9062000773565b90600052602060002090601f016020900481019282620005ee576000855562000639565b82601f106200060957805160ff191683800117855562000639565b8280016001018555821562000639579182015b82811115620006395782518255916020019190600101906200061c565b50620006479291506200064b565b5090565b5b808211156200064757600081556001016200064c565b634e487b7160e01b600052601160045260246000fd5b600061ffff80831681851680830382111562000698576200069862000662565b01949350505050565b600061ffff808316818103620006bb57620006bb62000662565b6001019392505050565b600060018060a01b038087168352602081871681850152856040850152608060608501528451915081608085015260005b82811015620007145785810182015185820160a001528101620006f6565b828111156200072757600060a084870101525b5050601f01601f19169190910160a00195945050505050565b6000602082840312156200075357600080fd5b81516001600160e01b0319811681146200076c57600080fd5b9392505050565b600181811c908216806200078857607f821691505b602082108103620007a957634e487b7160e01b600052602260045260246000fd5b50919050565b611d9380620007bf6000396000f3fe60806040526004361061012a5760003560e01c80636352211e116100ab578063afd8e4fa1161006f578063afd8e4fa14610341578063b88d4fde14610357578063c87b56dd14610377578063d035770c14610397578063e8a3d485146103ad578063e985e9c5146103c257600080fd5b80636352211e146102a857806370a08231146102c857806395d89b41146102f6578063a22cb4651461030b578063a2309ff81461032b57600080fd5b806323b872dd116100f257806323b872dd1461020d57806329a0eee81461022d57806337321589146102405780633a3328cb1461025557806342842e0e1461028857600080fd5b806301ffc9a71461012f57806306fdde0314610164578063081812fc14610186578063095ea7b3146101be5780631aa5e872146101e0575b600080fd5b34801561013b57600080fd5b5061014f61014a36600461168c565b61040b565b60405190151581526020015b60405180910390f35b34801561017057600080fd5b5061017961045d565b60405161015b9190611701565b34801561019257600080fd5b506101a66101a1366004611714565b6104ef565b6040516001600160a01b03909116815260200161015b565b3480156101ca57600080fd5b506101de6101d9366004611744565b610516565b005b3480156101ec57600080fd5b506102006101fb36600461176e565b610630565b60405161015b9190611789565b34801561021957600080fd5b506101de6102283660046117d1565b6106c4565b6101de61023b36600461181e565b6106f5565b34801561024c57600080fd5b506102006109c1565b34801561026157600080fd5b50610275610270366004611851565b610a40565b60405161ffff909116815260200161015b565b34801561029457600080fd5b506101de6102a33660046117d1565b610b07565b3480156102b457600080fd5b506101a66102c3366004611714565b610b22565b3480156102d457600080fd5b506102e86102e336600461176e565b610b82565b60405190815260200161015b565b34801561030257600080fd5b50610179610c08565b34801561031757600080fd5b506101de610326366004611875565b610c17565b34801561033757600080fd5b506102e860065481565b34801561034d57600080fd5b506102e860075481565b34801561036357600080fd5b506101de6103723660046118c7565b610c26565b34801561038357600080fd5b50610179610392366004611714565b610c5e565b3480156103a357600080fd5b506102e860085481565b3480156103b957600080fd5b50610179610cc5565b3480156103ce57600080fd5b5061014f6103dd3660046119a3565b6001600160a01b03918216600090815260056020908152604080832093909416825291909152205460ff1690565b60006001600160e01b031982166380ac58cd60e01b148061043c57506001600160e01b03198216635b5e139f60e01b145b8061045757506301ffc9a760e01b6001600160e01b03198316145b92915050565b60606000805461046c906119cd565b80601f0160208091040260200160405190810160405280929190818152602001828054610498906119cd565b80156104e55780601f106104ba576101008083540402835291602001916104e5565b820191906000526020600020905b8154815290600101906020018083116104c857829003601f168201915b5050505050905090565b60006104fa82610cf4565b506000908152600460205260409020546001600160a01b031690565b600061052182610b22565b9050806001600160a01b0316836001600160a01b0316036105935760405162461bcd60e51b815260206004820152602160248201527f4552433732313a20617070726f76616c20746f2063757272656e74206f776e656044820152603960f91b60648201526084015b60405180910390fd5b336001600160a01b03821614806105af57506105af81336103dd565b6106215760405162461bcd60e51b815260206004820152603d60248201527f4552433732313a20617070726f76652063616c6c6572206973206e6f7420746f60448201527f6b656e206f776e6572206f7220617070726f76656420666f7220616c6c000000606482015260840161058a565b61062b8383610d56565b505050565b6001600160a01b0381166000908152600a60209081526040918290208054835181840281018401909452808452606093928301828280156106b857602002820191906000526020600020906000905b82829054906101000a900461ffff1661ffff168152602001906002019060208260010104928301926001038202915080841161067f5790505b50505050509050919050565b6106ce3382610dc4565b6106ea5760405162461bcd60e51b815260040161058a90611a07565b61062b838383610e43565b336000908152600a6020526040902054610710906003611a6a565b8260ff1611158015610726575060058160ff1611155b6107725760405162461bcd60e51b815260206004820152601c60248201527f45766f74757265734e46543a3a6d696e743a20464f5242494444454e00000000604482015260640161058a565b60085461077f8284611a81565b60ff1661078c9190611aaa565b60075461079c9060ff8516611aaa565b6107a69190611ac9565b3410156108015760405162461bcd60e51b815260206004820152602360248201527f45766f74757265734e46543a3a6d696e743a20494e53554646494349454e545f60448201526208aa8960eb1b606482015260840161058a565b60005b8260ff168160ff16101561062b57600061081c610fa7565b905061085c336009838154811061083557610835611ae1565b60009182526020909120601082040154600f9091166002026101000a900461ffff16611111565b6006805490600061086c83611af7565b9091555050336000908152600a60205260409020600980548390811061089457610894611ae1565b6000918252602080832060108084049091015485546001818101885596865292909420908204018054600f928316600290810261010090810a61ffff9590961691909102900a9094048216830292909102199092161790556009805490916108fb91611a6a565b8154811061090b5761090b611ae1565b90600052602060002090601091828204019190066002029054906101000a900461ffff166009828154811061094257610942611ae1565b90600052602060002090601091828204019190066002026101000a81548161ffff021916908361ffff160217905550600980548061098257610982611b10565b600082815260209020601060001990920191820401805461ffff6002600f8516026101000a0219169055905550806109b981611b26565b915050610804565b606060098054806020026020016040519081016040528092919081815260200182805480156104e557602002820191906000526020600020906000905b82829054906101000a900461ffff1661ffff16815260200190600201906020826001010492830192600103820291508084116109fe5790505050505050905090565b60008161ffff1661080d1480610a5b57508161ffff16610848145b15610a6957506103e8919050565b6107d08261ffff161115610a8a57610a836107d083611b45565b9150610aa7565b6103e88261ffff161115610aa757610aa46103e883611b45565b91505b60038261ffff161015610abd57506101f4919050565b60088261ffff161015610ad35750610190919050565b60148261ffff161015610ae9575061012c919050565b60288261ffff161015610afe575060fa919050565b5060c85b919050565b61062b83838360405180602001604052806000815250610c26565b6000818152600260205260408120546001600160a01b0316806104575760405162461bcd60e51b8152602060048201526018602482015277115490cdcc8c4e881a5b9d985b1a59081d1bdad95b88125160421b604482015260640161058a565b60006001600160a01b038216610bec5760405162461bcd60e51b815260206004820152602960248201527f4552433732313a2061646472657373207a65726f206973206e6f7420612076616044820152683634b21037bbb732b960b91b606482015260840161058a565b506001600160a01b031660009081526003602052604090205490565b60606001805461046c906119cd565b610c2233838361112b565b5050565b610c303383610dc4565b610c4c5760405162461bcd60e51b815260040161058a90611a07565b610c58848484846111f9565b50505050565b6060610c6982610cf4565b6000610c7361122c565b90506000815111610c935760405180602001604052806000815250610cbe565b80610c9d8461124c565b604051602001610cae929190611b68565b6040516020818303038152906040525b9392505050565b6060604051806060016040528060278152602001611d3760279139905090565b6001600160a01b03163b151590565b6000818152600260205260409020546001600160a01b0316610d535760405162461bcd60e51b8152602060048201526018602482015277115490cdcc8c4e881a5b9d985b1a59081d1bdad95b88125160421b604482015260640161058a565b50565b600081815260046020526040902080546001600160a01b0319166001600160a01b0384169081179091558190610d8b82610b22565b6001600160a01b03167f8c5be1e5ebec7d5bd14f71427d1e84f3dd0314c0f7b2291e5b200ac8c7c3b92560405160405180910390a45050565b600080610dd083610b22565b9050806001600160a01b0316846001600160a01b03161480610e1757506001600160a01b0380821660009081526005602090815260408083209388168352929052205460ff165b80610e3b5750836001600160a01b0316610e30846104ef565b6001600160a01b0316145b949350505050565b826001600160a01b0316610e5682610b22565b6001600160a01b031614610e7c5760405162461bcd60e51b815260040161058a90611ba7565b6001600160a01b038216610ede5760405162461bcd60e51b8152602060048201526024808201527f4552433732313a207472616e7366657220746f20746865207a65726f206164646044820152637265737360e01b606482015260840161058a565b826001600160a01b0316610ef182610b22565b6001600160a01b031614610f175760405162461bcd60e51b815260040161058a90611ba7565b600081815260046020908152604080832080546001600160a01b03199081169091556001600160a01b0387811680865260038552838620805460001901905590871680865283862080546001019055868652600290945282852080549092168417909155905184937fddf252ad1be2c89b69c2b068fc378daa952ba7f163c4a11628f55a4df523b3ef91a4505050565b6000804233604051602001610fbc9190611bec565b6040516020818303038152906040528051906020012060001c610fdf9190611c1f565b4230604051602001610ff19190611bec565b6040516020818303038152906040528051906020012060001c6110149190611c1f565b4342326040516020016110279190611bec565b6040516020818303038152906040528051906020012060001c61104a9190611c1f565b45424160405160200161105d9190611bec565b6040516020818303038152906040528051906020012060001c6110809190611c1f565b5a61108b4442611ac9565b6110959190611ac9565b61109f9190611ac9565b6110a99190611ac9565b6110b39190611ac9565b6110bd9190611ac9565b6110c79190611ac9565b6110d19190611ac9565b6040516020016110e391815260200190565b60408051601f19818403018152919052805160209091012060095490915061110b9082611c33565b91505090565b610c228282604051806020016040528060008152506112df565b816001600160a01b0316836001600160a01b03160361118c5760405162461bcd60e51b815260206004820152601960248201527f4552433732313a20617070726f766520746f2063616c6c657200000000000000604482015260640161058a565b6001600160a01b03838116600081815260056020908152604080832094871680845294825291829020805460ff191686151590811790915591519182527f17307eab39ab6107e8899845ad3d59bd9653f200f220920489ca2b5937696c31910160405180910390a3505050565b611204848484610e43565b61121084848484611312565b610c585760405162461bcd60e51b815260040161058a90611c47565b6060604051806080016040528060438152602001611cf460439139905090565b6060600061125983611413565b600101905060008167ffffffffffffffff811115611279576112796118b1565b6040519080825280601f01601f1916602001820160405280156112a3576020820181803683370190505b5090508181016020015b600019016f181899199a1a9b1b9c1cb0b131b232b360811b600a86061a8153600a85049450846112ad57509392505050565b6112e983836114eb565b6112f66000848484611312565b61062b5760405162461bcd60e51b815260040161058a90611c47565b60006001600160a01b0384163b1561140857604051630a85bd0160e11b81526001600160a01b0385169063150b7a0290611356903390899088908890600401611c99565b6020604051808303816000875af1925050508015611391575060408051601f3d908101601f1916820190925261138e91810190611cd6565b60015b6113ee573d8080156113bf576040519150601f19603f3d011682016040523d82523d6000602084013e6113c4565b606091505b5080516000036113e65760405162461bcd60e51b815260040161058a90611c47565b805181602001fd5b6001600160e01b031916630a85bd0160e11b149050610e3b565b506001949350505050565b60008072184f03e93ff9f4daa797ed6e38ed64bf6a1f0160401b83106114525772184f03e93ff9f4daa797ed6e38ed64bf6a1f0160401b830492506040015b6d04ee2d6d415b85acef8100000000831061147e576d04ee2d6d415b85acef8100000000830492506020015b662386f26fc10000831061149c57662386f26fc10000830492506010015b6305f5e10083106114b4576305f5e100830492506008015b61271083106114c857612710830492506004015b606483106114da576064830492506002015b600a83106104575760010192915050565b6001600160a01b0382166115415760405162461bcd60e51b815260206004820181905260248201527f4552433732313a206d696e7420746f20746865207a65726f2061646472657373604482015260640161058a565b6000818152600260205260409020546001600160a01b0316156115a65760405162461bcd60e51b815260206004820152601c60248201527f4552433732313a20746f6b656e20616c7265616479206d696e74656400000000604482015260640161058a565b6000818152600260205260409020546001600160a01b03161561160b5760405162461bcd60e51b815260206004820152601c60248201527f4552433732313a20746f6b656e20616c7265616479206d696e74656400000000604482015260640161058a565b6001600160a01b038216600081815260036020908152604080832080546001019055848352600290915280822080546001600160a01b0319168417905551839291907fddf252ad1be2c89b69c2b068fc378daa952ba7f163c4a11628f55a4df523b3ef908290a45050565b6001600160e01b031981168114610d5357600080fd5b60006020828403121561169e57600080fd5b8135610cbe81611676565b60005b838110156116c45781810151838201526020016116ac565b83811115610c585750506000910152565b600081518084526116ed8160208601602086016116a9565b601f01601f19169290920160200192915050565b602081526000610cbe60208301846116d5565b60006020828403121561172657600080fd5b5035919050565b80356001600160a01b0381168114610b0257600080fd5b6000806040838503121561175757600080fd5b6117608361172d565b946020939093013593505050565b60006020828403121561178057600080fd5b610cbe8261172d565b6020808252825182820181905260009190848201906040850190845b818110156117c557835161ffff16835292840192918401916001016117a5565b50909695505050505050565b6000806000606084860312156117e657600080fd5b6117ef8461172d565b92506117fd6020850161172d565b9150604084013590509250925092565b803560ff81168114610b0257600080fd5b6000806040838503121561183157600080fd5b61183a8361180d565b91506118486020840161180d565b90509250929050565b60006020828403121561186357600080fd5b813561ffff81168114610cbe57600080fd5b6000806040838503121561188857600080fd5b6118918361172d565b9150602083013580151581146118a657600080fd5b809150509250929050565b634e487b7160e01b600052604160045260246000fd5b600080600080608085870312156118dd57600080fd5b6118e68561172d565b93506118f46020860161172d565b925060408501359150606085013567ffffffffffffffff8082111561191857600080fd5b818701915087601f83011261192c57600080fd5b81358181111561193e5761193e6118b1565b604051601f8201601f19908116603f01168101908382118183101715611966576119666118b1565b816040528281528a602084870101111561197f57600080fd5b82602086016020830137600060208483010152809550505050505092959194509250565b600080604083850312156119b657600080fd5b6119bf8361172d565b91506118486020840161172d565b600181811c908216806119e157607f821691505b602082108103611a0157634e487b7160e01b600052602260045260246000fd5b50919050565b6020808252602d908201527f4552433732313a2063616c6c6572206973206e6f7420746f6b656e206f776e6560408201526c1c881bdc88185c1c1c9bdd9959609a1b606082015260800190565b634e487b7160e01b600052601160045260246000fd5b600082821015611a7c57611a7c611a54565b500390565b600060ff821660ff84168160ff0481118215151615611aa257611aa2611a54565b029392505050565b6000816000190483118215151615611ac457611ac4611a54565b500290565b60008219821115611adc57611adc611a54565b500190565b634e487b7160e01b600052603260045260246000fd5b600060018201611b0957611b09611a54565b5060010190565b634e487b7160e01b600052603160045260246000fd5b600060ff821660ff8103611b3c57611b3c611a54565b60010192915050565b600061ffff83811690831681811015611b6057611b60611a54565b039392505050565b60008351611b7a8184602088016116a9565b835190830190611b8e8183602088016116a9565b64173539b7b760d91b9101908152600501949350505050565b60208082526025908201527f4552433732313a207472616e736665722066726f6d20696e636f72726563742060408201526437bbb732b960d91b606082015260800190565b60609190911b6bffffffffffffffffffffffff1916815260140190565b634e487b7160e01b600052601260045260246000fd5b600082611c2e57611c2e611c09565b500490565b600082611c4257611c42611c09565b500690565b60208082526032908201527f4552433732313a207472616e7366657220746f206e6f6e20455243373231526560408201527131b2b4bb32b91034b6b83632b6b2b73a32b960711b606082015260800190565b6001600160a01b0385811682528416602082015260408101839052608060608201819052600090611ccc908301846116d5565b9695505050505050565b600060208284031215611ce857600080fd5b8151610cbe8161167656fe697066733a2f2f626166796265696567626779376132673232706e6f7867786b786a7a74677a7a35786e77336e616f627066626e6234766c367473677570706370692f68747470733a2f2f64617277696e70726f746f636f6c2e696f2f65766f74757265732e6a736f6ea264697066735822122077629d3e78defe1f5d91a6ecad555257b1562736f71d1fe5b54c6cbca7e6af3f64736f6c634300080e00334552433732313a207472616e7366657220746f206e6f6e204552433732315265",
  "linkReferences": {},
  "deployedLinkReferences": {}
}