{
  "_format": "hh-sol-artifact-1",
  "contractName": "EvoturesNFT",
  "sourceName": "contracts/EvoturesNFT.sol",
  "abi": [
    {
      "inputs": [],
      "stateMutability": "nonpayable",
      "type": "constructor"
    },
    {
      "anonymous": false,
      "inputs": [
        {
          "indexed": true,
          "internalType": "address",
          "name": "owner",
          "type": "address"
        },
        {
          "indexed": true,
          "internalType": "address",
          "name": "approved",
          "type": "address"
        },
        {
          "indexed": true,
          "internalType": "uint256",
          "name": "tokenId",
          "type": "uint256"
        }
      ],
      "name": "Approval",
      "type": "event"
    },
    {
      "anonymous": false,
      "inputs": [
        {
          "indexed": true,
          "internalType": "address",
          "name": "owner",
          "type": "address"
        },
        {
          "indexed": true,
          "internalType": "address",
          "name": "operator",
          "type": "address"
        },
        {
          "indexed": false,
          "internalType": "bool",
          "name": "approved",
          "type": "bool"
        }
      ],
      "name": "ApprovalForAll",
      "type": "event"
    },
    {
      "anonymous": false,
      "inputs": [
        {
          "indexed": true,
          "internalType": "address",
          "name": "from",
          "type": "address"
        },
        {
          "indexed": true,
          "internalType": "address",
          "name": "to",
          "type": "address"
        },
        {
          "indexed": true,
          "internalType": "uint256",
          "name": "tokenId",
          "type": "uint256"
        }
      ],
      "name": "Transfer",
      "type": "event"
    },
    {
      "inputs": [
        {
          "internalType": "address",
          "name": "to",
          "type": "address"
        },
        {
          "internalType": "uint256",
          "name": "tokenId",
          "type": "uint256"
        }
      ],
      "name": "approve",
      "outputs": [],
      "stateMutability": "nonpayable",
      "type": "function"
    },
    {
      "inputs": [
        {
          "internalType": "address",
          "name": "owner",
          "type": "address"
        }
      ],
      "name": "balanceOf",
      "outputs": [
        {
          "internalType": "uint256",
          "name": "",
          "type": "uint256"
        }
      ],
      "stateMutability": "view",
      "type": "function"
    },
    {
      "inputs": [],
      "name": "contractURI",
      "outputs": [
        {
          "internalType": "string",
          "name": "",
          "type": "string"
        }
      ],
      "stateMutability": "pure",
      "type": "function"
    },
    {
      "inputs": [],
      "name": "dev",
      "outputs": [
        {
          "internalType": "address",
          "name": "",
          "type": "address"
        }
      ],
      "stateMutability": "view",
      "type": "function"
    },
    {
      "inputs": [
        {
          "internalType": "uint256",
          "name": "tokenId",
          "type": "uint256"
        }
      ],
      "name": "getApproved",
      "outputs": [
        {
          "internalType": "address",
          "name": "",
          "type": "address"
        }
      ],
      "stateMutability": "view",
      "type": "function"
    },
    {
      "inputs": [
        {
          "internalType": "address",
          "name": "owner",
          "type": "address"
        },
        {
          "internalType": "address",
          "name": "operator",
          "type": "address"
        }
      ],
      "name": "isApprovedForAll",
      "outputs": [
        {
          "internalType": "bool",
          "name": "",
          "type": "bool"
        }
      ],
      "stateMutability": "view",
      "type": "function"
    },
    {
      "inputs": [],
      "name": "lastTokenId",
      "outputs": [
        {
          "internalType": "uint256",
          "name": "",
          "type": "uint256"
        }
      ],
      "stateMutability": "view",
      "type": "function"
    },
    {
      "inputs": [
        {
          "internalType": "address",
          "name": "_to",
          "type": "address"
        },
        {
          "internalType": "uint256",
          "name": "_multiplier",
          "type": "uint256"
        }
      ],
      "name": "mint",
      "outputs": [],
      "stateMutability": "nonpayable",
      "type": "function"
    },
    {
      "inputs": [],
      "name": "mintAll",
      "outputs": [],
      "stateMutability": "nonpayable",
      "type": "function"
    },
    {
      "inputs": [
        {
          "internalType": "uint256",
          "name": "",
          "type": "uint256"
        }
      ],
      "name": "multipliers",
      "outputs": [
        {
          "internalType": "uint256",
          "name": "",
          "type": "uint256"
        }
      ],
      "stateMutability": "view",
      "type": "function"
    },
    {
      "inputs": [],
      "name": "name",
      "outputs": [
        {
          "internalType": "string",
          "name": "",
          "type": "string"
        }
      ],
      "stateMutability": "view",
      "type": "function"
    },
    {
      "inputs": [
        {
          "internalType": "uint256",
          "name": "tokenId",
          "type": "uint256"
        }
      ],
      "name": "ownerOf",
      "outputs": [
        {
          "internalType": "address",
          "name": "",
          "type": "address"
        }
      ],
      "stateMutability": "view",
      "type": "function"
    },
    {
      "inputs": [
        {
          "internalType": "address",
          "name": "from",
          "type": "address"
        },
        {
          "internalType": "address",
          "name": "to",
          "type": "address"
        },
        {
          "internalType": "uint256",
          "name": "tokenId",
          "type": "uint256"
        }
      ],
      "name": "safeTransferFrom",
      "outputs": [],
      "stateMutability": "nonpayable",
      "type": "function"
    },
    {
      "inputs": [
        {
          "internalType": "address",
          "name": "from",
          "type": "address"
        },
        {
          "internalType": "address",
          "name": "to",
          "type": "address"
        },
        {
          "internalType": "uint256",
          "name": "tokenId",
          "type": "uint256"
        },
        {
          "internalType": "bytes",
          "name": "data",
          "type": "bytes"
        }
      ],
      "name": "safeTransferFrom",
      "outputs": [],
      "stateMutability": "nonpayable",
      "type": "function"
    },
    {
      "inputs": [
        {
          "internalType": "address",
          "name": "operator",
          "type": "address"
        },
        {
          "internalType": "bool",
          "name": "approved",
          "type": "bool"
        }
      ],
      "name": "setApprovalForAll",
      "outputs": [],
      "stateMutability": "nonpayable",
      "type": "function"
    },
    {
      "inputs": [
        {
          "internalType": "bytes4",
          "name": "interfaceId",
          "type": "bytes4"
        }
      ],
      "name": "supportsInterface",
      "outputs": [
        {
          "internalType": "bool",
          "name": "",
          "type": "bool"
        }
      ],
      "stateMutability": "view",
      "type": "function"
    },
    {
      "inputs": [],
      "name": "symbol",
      "outputs": [
        {
          "internalType": "string",
          "name": "",
          "type": "string"
        }
      ],
      "stateMutability": "view",
      "type": "function"
    },
    {
      "inputs": [
        {
          "internalType": "uint256",
          "name": "tokenId",
          "type": "uint256"
        }
      ],
      "name": "tokenURI",
      "outputs": [
        {
          "internalType": "string",
          "name": "",
          "type": "string"
        }
      ],
      "stateMutability": "view",
      "type": "function"
    },
    {
      "inputs": [
        {
          "internalType": "address",
          "name": "from",
          "type": "address"
        },
        {
          "internalType": "address",
          "name": "to",
          "type": "address"
        },
        {
          "internalType": "uint256",
          "name": "tokenId",
          "type": "uint256"
        }
      ],
      "name": "transferFrom",
      "outputs": [],
      "stateMutability": "nonpayable",
      "type": "function"
    }
  ],
  "bytecode": "0x60806040523480156200001157600080fd5b50604080518082018252600d81526c45766f7475726573204e46547360981b60208083019182528351808501909452600884526745564f545552455360c01b90840152815191929162000067916000916200009d565b5080516200007d9060019060208401906200009d565b5050600160075550600680546001600160a01b031916331790556200017f565b828054620000ab9062000143565b90600052602060002090601f016020900481019282620000cf57600085556200011a565b82601f10620000ea57805160ff19168380011785556200011a565b828001600101855582156200011a579182015b828111156200011a578251825591602001919060010190620000fd565b50620001289291506200012c565b5090565b5b808211156200012857600081556001016200012d565b600181811c908216806200015857607f821691505b6020821081036200017957634e487b7160e01b600052602260045260246000fd5b50919050565b611621806200018f6000396000f3fe608060405234801561001057600080fd5b50600436106101215760003560e01c806370a08231116100ad578063b88d4fde11610071578063b88d4fde14610266578063c87b56dd14610279578063e8a3d4851461028c578063e985e9c514610294578063f84ddf0b146102d057600080fd5b806370a08231146101f757806391cca3db1461021857806395d89b411461022b578063a22cb46514610233578063ac7fc2631461024657600080fd5b806323b872dd116100f457806323b872dd146101a357806340c10f19146101b657806342842e0e146101c9578063595882b3146101dc5780636352211e146101e457600080fd5b806301ffc9a71461012657806306fdde031461014e578063081812fc14610163578063095ea7b31461018e575b600080fd5b6101396101343660046110cd565b6102d9565b60405190151581526020015b60405180910390f35b61015661032b565b6040516101459190611142565b610176610171366004611155565b6103bd565b6040516001600160a01b039091168152602001610145565b6101a161019c36600461118a565b6103e4565b005b6101a16101b13660046111b4565b6104fe565b6101a16101c436600461118a565b61052f565b6101a16101d73660046111b4565b610613565b6101a161062e565b6101766101f2366004611155565b6106e3565b61020a6102053660046111f0565b610743565b604051908152602001610145565b600654610176906001600160a01b031681565b6101566107c9565b6101a161024136600461120b565b6107d8565b61020a610254366004611155565b60086020526000908152604090205481565b6101a161027436600461125d565b6107e3565b610156610287366004611155565b61081b565b610156610882565b6101396102a2366004611339565b6001600160a01b03918216600090815260056020908152604080832093909416825291909152205460ff1690565b61020a60075481565b60006001600160e01b031982166380ac58cd60e01b148061030a57506001600160e01b03198216635b5e139f60e01b145b8061032557506301ffc9a760e01b6001600160e01b03198316145b92915050565b60606000805461033a9061136c565b80601f01602080910402602001604051908101604052809291908181526020018280546103669061136c565b80156103b35780601f10610388576101008083540402835291602001916103b3565b820191906000526020600020905b81548152906001019060200180831161039657829003601f168201915b5050505050905090565b60006103c8826108a2565b506000908152600460205260409020546001600160a01b031690565b60006103ef826106e3565b9050806001600160a01b0316836001600160a01b0316036104615760405162461bcd60e51b815260206004820152602160248201527f4552433732313a20617070726f76616c20746f2063757272656e74206f776e656044820152603960f91b60648201526084015b60405180910390fd5b336001600160a01b038216148061047d575061047d81336102a2565b6104ef5760405162461bcd60e51b815260206004820152603d60248201527f4552433732313a20617070726f76652063616c6c6572206973206e6f7420746f60448201527f6b656e206f776e6572206f7220617070726f76656420666f7220616c6c0000006064820152608401610458565b6104f98383610901565b505050565b610508338261096f565b6105245760405162461bcd60e51b8152600401610458906113a6565b6104f98383836109ee565b6006546001600160a01b03163314801561054c5750610835600754105b6105a95760405162461bcd60e51b815260206004820152602860248201527f45766f74757265734e46543a2043414c4c45525f49535f4e4f545f4445565f4f6044820152671497d3505617d25160c21b6064820152608401610458565b6105b582600754610b52565b600780546000908152600860205260408120839055815491906105d783611409565b9190505550600754606514806105f0575060075461044d145b1561060f576103e8600760008282546106099190611422565b90915550505b5050565b6104f9838383604051806020016040528060008152506107e3565b60005b61012c8110156106e05760075460006107d082111561065d576106566107d08361143a565b9150610676565b6103e8821115610676576106736103e88361143a565b91505b600382101561068857506101f46106c1565b600882101561069a57506101906106c1565b60148210156106ac575061012c6106c1565b60288210156106bd575060fa6106c1565b5060c85b6106cb338261052f565b505080806106d890611409565b915050610631565b50565b6000818152600260205260408120546001600160a01b0316806103255760405162461bcd60e51b8152602060048201526018602482015277115490cdcc8c4e881a5b9d985b1a59081d1bdad95b88125160421b6044820152606401610458565b60006001600160a01b0382166107ad5760405162461bcd60e51b815260206004820152602960248201527f4552433732313a2061646472657373207a65726f206973206e6f7420612076616044820152683634b21037bbb732b960b91b6064820152608401610458565b506001600160a01b031660009081526003602052604090205490565b60606001805461033a9061136c565b61060f338383610b6c565b6107ed338361096f565b6108095760405162461bcd60e51b8152600401610458906113a6565b61081584848484610c3a565b50505050565b6060610826826108a2565b6000610830610c6d565b90506000815111610850576040518060200160405280600081525061087b565b8061085a84610c8d565b60405160200161086b929190611451565b6040516020818303038152906040525b9392505050565b60606040518060600160405280602781526020016115c560279139905090565b6000818152600260205260409020546001600160a01b03166106e05760405162461bcd60e51b8152602060048201526018602482015277115490cdcc8c4e881a5b9d985b1a59081d1bdad95b88125160421b6044820152606401610458565b600081815260046020526040902080546001600160a01b0319166001600160a01b0384169081179091558190610936826106e3565b6001600160a01b03167f8c5be1e5ebec7d5bd14f71427d1e84f3dd0314c0f7b2291e5b200ac8c7c3b92560405160405180910390a45050565b60008061097b836106e3565b9050806001600160a01b0316846001600160a01b031614806109c257506001600160a01b0380821660009081526005602090815260408083209388168352929052205460ff165b806109e65750836001600160a01b03166109db846103bd565b6001600160a01b0316145b949350505050565b826001600160a01b0316610a01826106e3565b6001600160a01b031614610a275760405162461bcd60e51b815260040161045890611490565b6001600160a01b038216610a895760405162461bcd60e51b8152602060048201526024808201527f4552433732313a207472616e7366657220746f20746865207a65726f206164646044820152637265737360e01b6064820152608401610458565b826001600160a01b0316610a9c826106e3565b6001600160a01b031614610ac25760405162461bcd60e51b815260040161045890611490565b600081815260046020908152604080832080546001600160a01b03199081169091556001600160a01b0387811680865260038552838620805460001901905590871680865283862080546001019055868652600290945282852080549092168417909155905184937fddf252ad1be2c89b69c2b068fc378daa952ba7f163c4a11628f55a4df523b3ef91a4505050565b61060f828260405180602001604052806000815250610d20565b816001600160a01b0316836001600160a01b031603610bcd5760405162461bcd60e51b815260206004820152601960248201527f4552433732313a20617070726f766520746f2063616c6c6572000000000000006044820152606401610458565b6001600160a01b03838116600081815260056020908152604080832094871680845294825291829020805460ff191686151590811790915591519182527f17307eab39ab6107e8899845ad3d59bd9653f200f220920489ca2b5937696c31910160405180910390a3505050565b610c458484846109ee565b610c5184848484610d53565b6108155760405162461bcd60e51b8152600401610458906114d5565b606060405180608001604052806043815260200161158260439139905090565b60606000610c9a83610e54565b600101905060008167ffffffffffffffff811115610cba57610cba611247565b6040519080825280601f01601f191660200182016040528015610ce4576020820181803683370190505b5090508181016020015b600019016f181899199a1a9b1b9c1cb0b131b232b360811b600a86061a8153600a8504945084610cee57509392505050565b610d2a8383610f2c565b610d376000848484610d53565b6104f95760405162461bcd60e51b8152600401610458906114d5565b60006001600160a01b0384163b15610e4957604051630a85bd0160e11b81526001600160a01b0385169063150b7a0290610d97903390899088908890600401611527565b6020604051808303816000875af1925050508015610dd2575060408051601f3d908101601f19168201909252610dcf91810190611564565b60015b610e2f573d808015610e00576040519150601f19603f3d011682016040523d82523d6000602084013e610e05565b606091505b508051600003610e275760405162461bcd60e51b8152600401610458906114d5565b805181602001fd5b6001600160e01b031916630a85bd0160e11b1490506109e6565b506001949350505050565b60008072184f03e93ff9f4daa797ed6e38ed64bf6a1f0160401b8310610e935772184f03e93ff9f4daa797ed6e38ed64bf6a1f0160401b830492506040015b6d04ee2d6d415b85acef81000000008310610ebf576d04ee2d6d415b85acef8100000000830492506020015b662386f26fc100008310610edd57662386f26fc10000830492506010015b6305f5e1008310610ef5576305f5e100830492506008015b6127108310610f0957612710830492506004015b60648310610f1b576064830492506002015b600a83106103255760010192915050565b6001600160a01b038216610f825760405162461bcd60e51b815260206004820181905260248201527f4552433732313a206d696e7420746f20746865207a65726f20616464726573736044820152606401610458565b6000818152600260205260409020546001600160a01b031615610fe75760405162461bcd60e51b815260206004820152601c60248201527f4552433732313a20746f6b656e20616c7265616479206d696e746564000000006044820152606401610458565b6000818152600260205260409020546001600160a01b03161561104c5760405162461bcd60e51b815260206004820152601c60248201527f4552433732313a20746f6b656e20616c7265616479206d696e746564000000006044820152606401610458565b6001600160a01b038216600081815260036020908152604080832080546001019055848352600290915280822080546001600160a01b0319168417905551839291907fddf252ad1be2c89b69c2b068fc378daa952ba7f163c4a11628f55a4df523b3ef908290a45050565b6001600160e01b0319811681146106e057600080fd5b6000602082840312156110df57600080fd5b813561087b816110b7565b60005b838110156111055781810151838201526020016110ed565b838111156108155750506000910152565b6000815180845261112e8160208601602086016110ea565b601f01601f19169290920160200192915050565b60208152600061087b6020830184611116565b60006020828403121561116757600080fd5b5035919050565b80356001600160a01b038116811461118557600080fd5b919050565b6000806040838503121561119d57600080fd5b6111a68361116e565b946020939093013593505050565b6000806000606084860312156111c957600080fd5b6111d28461116e565b92506111e06020850161116e565b9150604084013590509250925092565b60006020828403121561120257600080fd5b61087b8261116e565b6000806040838503121561121e57600080fd5b6112278361116e565b91506020830135801515811461123c57600080fd5b809150509250929050565b634e487b7160e01b600052604160045260246000fd5b6000806000806080858703121561127357600080fd5b61127c8561116e565b935061128a6020860161116e565b925060408501359150606085013567ffffffffffffffff808211156112ae57600080fd5b818701915087601f8301126112c257600080fd5b8135818111156112d4576112d4611247565b604051601f8201601f19908116603f011681019083821181831017156112fc576112fc611247565b816040528281528a602084870101111561131557600080fd5b82602086016020830137600060208483010152809550505050505092959194509250565b6000806040838503121561134c57600080fd5b6113558361116e565b91506113636020840161116e565b90509250929050565b600181811c9082168061138057607f821691505b6020821081036113a057634e487b7160e01b600052602260045260246000fd5b50919050565b6020808252602d908201527f4552433732313a2063616c6c6572206973206e6f7420746f6b656e206f776e6560408201526c1c881bdc88185c1c1c9bdd9959609a1b606082015260800190565b634e487b7160e01b600052601160045260246000fd5b60006001820161141b5761141b6113f3565b5060010190565b60008219821115611435576114356113f3565b500190565b60008282101561144c5761144c6113f3565b500390565b600083516114638184602088016110ea565b8351908301906114778183602088016110ea565b64173539b7b760d91b9101908152600501949350505050565b60208082526025908201527f4552433732313a207472616e736665722066726f6d20696e636f72726563742060408201526437bbb732b960d91b606082015260800190565b60208082526032908201527f4552433732313a207472616e7366657220746f206e6f6e20455243373231526560408201527131b2b4bb32b91034b6b83632b6b2b73a32b960711b606082015260800190565b6001600160a01b038581168252841660208201526040810183905260806060820181905260009061155a90830184611116565b9695505050505050565b60006020828403121561157657600080fd5b815161087b816110b756fe697066733a2f2f626166796265696567626779376132673232706e6f7867786b786a7a74677a7a35786e77336e616f627066626e6234766c367473677570706370692f68747470733a2f2f64617277696e70726f746f636f6c2e696f2f65766f74757265732e6a736f6ea26469706673582212204b49fbd6326011988820fce8b8331e36b2840849b6183461d9e9871e2a4c126664736f6c634300080e0033",
  "linkReferences": {},
  "deployedLinkReferences": {}
}