{
  "_format": "hh-sol-artifact-1",
  "contractName": "DarwinPresale",
  "sourceName": "contracts/DarwinPresale.sol",
  "abi": [
    {
      "inputs": [],
      "name": "AlreadyInitialized",
      "type": "error"
    },
    {
      "inputs": [],
      "name": "AmountExceedsHardcap",
      "type": "error"
    },
    {
      "inputs": [],
      "name": "ApproveFailed",
      "type": "error"
    },
    {
      "inputs": [],
      "name": "InvalidDepositAmount",
      "type": "error"
    },
    {
      "inputs": [],
      "name": "InvalidEndDate",
      "type": "error"
    },
    {
      "inputs": [],
      "name": "InvalidStartDate",
      "type": "error"
    },
    {
      "inputs": [],
      "name": "NotInitialized",
      "type": "error"
    },
    {
      "inputs": [],
      "name": "PresaleNotActive",
      "type": "error"
    },
    {
      "inputs": [],
      "name": "PresaleNotEnded",
      "type": "error"
    },
    {
      "inputs": [],
      "name": "TransferFailed",
      "type": "error"
    },
    {
      "inputs": [],
      "name": "ZeroAddress",
      "type": "error"
    },
    {
      "anonymous": false,
      "inputs": [
        {
          "indexed": true,
          "internalType": "address",
          "name": "previousOwner",
          "type": "address"
        },
        {
          "indexed": true,
          "internalType": "address",
          "name": "newOwner",
          "type": "address"
        }
      ],
      "name": "OwnershipTransferred",
      "type": "event"
    },
    {
      "anonymous": false,
      "inputs": [
        {
          "indexed": true,
          "internalType": "uint256",
          "name": "ethAmount",
          "type": "uint256"
        },
        {
          "indexed": true,
          "internalType": "uint256",
          "name": "unsoldDarwinAmount",
          "type": "uint256"
        }
      ],
      "name": "PresaleCompleted",
      "type": "event"
    },
    {
      "anonymous": false,
      "inputs": [
        {
          "indexed": true,
          "internalType": "uint256",
          "name": "endDate",
          "type": "uint256"
        }
      ],
      "name": "PresaleEndDateSet",
      "type": "event"
    },
    {
      "anonymous": false,
      "inputs": [
        {
          "indexed": true,
          "internalType": "address",
          "name": "router",
          "type": "address"
        }
      ],
      "name": "RouterSet",
      "type": "event"
    },
    {
      "anonymous": false,
      "inputs": [
        {
          "indexed": true,
          "internalType": "address",
          "name": "user",
          "type": "address"
        },
        {
          "indexed": true,
          "internalType": "uint256",
          "name": "amountIn",
          "type": "uint256"
        },
        {
          "indexed": true,
          "internalType": "uint256",
          "name": "darwinAmount",
          "type": "uint256"
        }
      ],
      "name": "UserDeposit",
      "type": "event"
    },
    {
      "anonymous": false,
      "inputs": [
        {
          "indexed": true,
          "internalType": "address",
          "name": "wallet1",
          "type": "address"
        }
      ],
      "name": "Wallet1Set",
      "type": "event"
    },
    {
      "anonymous": false,
      "inputs": [
        {
          "indexed": true,
          "internalType": "address",
          "name": "wallet2",
          "type": "address"
        }
      ],
      "name": "Wallet2Set",
      "type": "event"
    },
    {
      "inputs": [],
      "name": "HARDCAP",
      "outputs": [
        {
          "internalType": "uint256",
          "name": "",
          "type": "uint256"
        }
      ],
      "stateMutability": "view",
      "type": "function"
    },
    {
      "inputs": [],
      "name": "RAISE_MAX",
      "outputs": [
        {
          "internalType": "uint256",
          "name": "",
          "type": "uint256"
        }
      ],
      "stateMutability": "view",
      "type": "function"
    },
    {
      "inputs": [],
      "name": "RAISE_MIN",
      "outputs": [
        {
          "internalType": "uint256",
          "name": "",
          "type": "uint256"
        }
      ],
      "stateMutability": "view",
      "type": "function"
    },
    {
      "inputs": [],
      "name": "baseTokensLeftToRaiseOnCurrentStage",
      "outputs": [
        {
          "internalType": "uint256",
          "name": "tokensLeft",
          "type": "uint256"
        }
      ],
      "stateMutability": "view",
      "type": "function"
    },
    {
      "inputs": [
        {
          "internalType": "uint256",
          "name": "ethAmount",
          "type": "uint256"
        }
      ],
      "name": "calculateDarwinAmount",
      "outputs": [
        {
          "internalType": "uint256",
          "name": "",
          "type": "uint256"
        }
      ],
      "stateMutability": "view",
      "type": "function"
    },
    {
      "inputs": [],
      "name": "darwin",
      "outputs": [
        {
          "internalType": "contract IERC20",
          "name": "",
          "type": "address"
        }
      ],
      "stateMutability": "view",
      "type": "function"
    },
    {
      "inputs": [],
      "name": "getCurrentStage",
      "outputs": [
        {
          "internalType": "uint256",
          "name": "stage",
          "type": "uint256"
        }
      ],
      "stateMutability": "view",
      "type": "function"
    },
    {
      "inputs": [
        {
          "internalType": "address",
          "name": "_darwin",
          "type": "address"
        }
      ],
      "name": "init",
      "outputs": [],
      "stateMutability": "nonpayable",
      "type": "function"
    },
    {
      "inputs": [],
      "name": "owner",
      "outputs": [
        {
          "internalType": "address",
          "name": "",
          "type": "address"
        }
      ],
      "stateMutability": "view",
      "type": "function"
    },
    {
      "inputs": [],
      "name": "presaleEnd",
      "outputs": [
        {
          "internalType": "uint256",
          "name": "",
          "type": "uint256"
        }
      ],
      "stateMutability": "view",
      "type": "function"
    },
    {
      "inputs": [],
      "name": "presaleStart",
      "outputs": [
        {
          "internalType": "uint256",
          "name": "",
          "type": "uint256"
        }
      ],
      "stateMutability": "view",
      "type": "function"
    },
    {
      "inputs": [],
      "name": "presaleStatus",
      "outputs": [
        {
          "internalType": "enum IDarwinPresale.Status",
          "name": "",
          "type": "uint8"
        }
      ],
      "stateMutability": "view",
      "type": "function"
    },
    {
      "inputs": [],
      "name": "renounceOwnership",
      "outputs": [],
      "stateMutability": "nonpayable",
      "type": "function"
    },
    {
      "inputs": [
        {
          "internalType": "uint256",
          "name": "_endDate",
          "type": "uint256"
        }
      ],
      "name": "setPresaleEndDate",
      "outputs": [],
      "stateMutability": "nonpayable",
      "type": "function"
    },
    {
      "inputs": [
        {
          "internalType": "address",
          "name": "_wallet1",
          "type": "address"
        }
      ],
      "name": "setWallet1",
      "outputs": [],
      "stateMutability": "nonpayable",
      "type": "function"
    },
    {
      "inputs": [],
      "name": "startPresale",
      "outputs": [],
      "stateMutability": "nonpayable",
      "type": "function"
    },
    {
      "inputs": [],
      "name": "status",
      "outputs": [
        {
          "internalType": "uint256",
          "name": "raisedAmount",
          "type": "uint256"
        },
        {
          "internalType": "uint256",
          "name": "soldAmount",
          "type": "uint256"
        },
        {
          "internalType": "uint256",
          "name": "numBuyers",
          "type": "uint256"
        }
      ],
      "stateMutability": "view",
      "type": "function"
    },
    {
      "inputs": [
        {
          "internalType": "address",
          "name": "account",
          "type": "address"
        }
      ],
      "name": "tokensDepositedAndOwned",
      "outputs": [
        {
          "internalType": "uint256",
          "name": "",
          "type": "uint256"
        },
        {
          "internalType": "uint256",
          "name": "",
          "type": "uint256"
        }
      ],
      "stateMutability": "view",
      "type": "function"
    },
    {
      "inputs": [
        {
          "internalType": "address",
          "name": "newOwner",
          "type": "address"
        }
      ],
      "name": "transferOwnership",
      "outputs": [],
      "stateMutability": "nonpayable",
      "type": "function"
    },
    {
      "inputs": [],
      "name": "userDeposit",
      "outputs": [],
      "stateMutability": "payable",
      "type": "function"
    },
    {
      "inputs": [
        {
          "internalType": "address",
          "name": "",
          "type": "address"
        }
      ],
      "name": "userDeposits",
      "outputs": [
        {
          "internalType": "uint256",
          "name": "",
          "type": "uint256"
        }
      ],
      "stateMutability": "view",
      "type": "function"
    },
    {
      "inputs": [],
      "name": "wallet1",
      "outputs": [
        {
          "internalType": "address",
          "name": "",
          "type": "address"
        }
      ],
      "stateMutability": "view",
      "type": "function"
    },
    {
      "inputs": [],
      "name": "withdrawETHAndUnsoldDarwin",
      "outputs": [],
      "stateMutability": "nonpayable",
      "type": "function"
    }
  ],
  "bytecode": "0x608060405234801561001057600080fd5b50600160005561001f33610024565b610076565b600180546001600160a01b038381166001600160a01b0319831681179093556040519116919082907f8be0079c531659141344cd1fd0a4f28419497f9722a3daafe3b4186f6b6457e090600090a35050565b61102a806100856000396000f3fe6080604052600436106101405760003560e01c80638da5cb5b116100b6578063d39a840a1161006f578063d39a840a14610379578063d52a7cbf14610399578063de8801e5146103b9578063eedbe31d146103cf578063ef690835146103e4578063f2fde38b1461040157600080fd5b80638da5cb5b146102be5780639ac3e9a8146102dc578063acfb235514610311578063b96cec1614610333578063bed52af41461034f578063cb1980c21461036457600080fd5b8063229f3e2911610108578063229f3e291461022e5780633110c792146102445780633bd748801461026457806348146113146102815780636482233214610289578063715018a6146102a957600080fd5b806304c98b2b146101455780630ba36dcd1461015c57806319ab453c1461019c5780631a026c96146101bc578063200d2ed2146101f4575b600080fd5b34801561015157600080fd5b5061015a610421565b005b34801561016857600080fd5b50610189610177366004610ea6565b60066020526000908152604090205481565b6040519081526020015b60405180910390f35b3480156101a857600080fd5b5061015a6101b7366004610ea6565b610471565b3480156101c857600080fd5b506005546101dc906001600160a01b031681565b6040516001600160a01b039091168152602001610193565b34801561020057600080fd5b5060075460085460095461021392919083565b60408051938452602084019290925290820152606001610193565b34801561023a57600080fd5b5061018960045481565b34801561025057600080fd5b506002546101dc906001600160a01b031681565b34801561027057600080fd5b506101896815779a9de6eeb0000081565b61015a6104fe565b34801561029557600080fd5b506101896102a4366004610ecf565b610709565b3480156102b557600080fd5b5061015a610823565b3480156102ca57600080fd5b506001546001600160a01b03166101dc565b3480156102e857600080fd5b506102fc6102f7366004610ea6565b610835565b60408051928352602083019190915201610193565b34801561031d57600080fd5b506103266108c7565b6040516101939190610efe565b34801561033f57600080fd5b5061018967016345785d8a000081565b34801561035b57600080fd5b5061015a610925565b34801561037057600080fd5b50610189610aa4565b34801561038557600080fd5b5061015a610394366004610ecf565b610ad0565b3480156103a557600080fd5b5061015a6103b4366004610ea6565b610b44565b3480156103c557600080fd5b5061018960035481565b3480156103db57600080fd5b50610189610b7c565b3480156103f057600080fd5b5061018968d8d726b7177a80000081565b34801561040d57600080fd5b5061015a61041c366004610ea6565b610b8b565b610429610c06565b600a5460ff161561044c5760405162dc149f60e41b815260040160405180910390fd5b600a805460ff1916600117905542600381905561046c906276a700610f3c565b600455565b610479610c06565b600a5460ff161561049c5760405162dc149f60e41b815260040160405180910390fd5b6001600160a01b0381166104c35760405163d92e233d60e01b815260040160405180910390fd5b600280546001600160a01b0319166001600160a01b0383161790556104fb730bf1c4139a6168988fe0d1384296e6df44b27afd610c60565b50565b610506610caa565b600a5460ff16610529576040516321c4e35760e21b815260040160405180910390fd5b60016105336108c7565b600281111561054457610544610ee8565b1461056257604051633844da5760e21b815260040160405180910390fd5b3360009081526006602052604090205467016345785d8a0000341080610599575068d8d726b7177a8000006105973483610f3c565b115b156105b75760405163fe9ba5cd60e01b815260040160405180910390fd5b806000036105d457600980546000906105cf90610f54565b909155505b33600090815260066020526040812080543492906105f3908490610f3c565b909155506000905061060434610709565b9050346007600001600082825461061b9190610f3c565b909155505060088054829190600090610635908490610f3c565b909155505060025460405163a9059cbb60e01b8152336004820152602481018390526001600160a01b039091169063a9059cbb906044016020604051808303816000875af115801561068b573d6000803e3d6000fd5b505050506040513d601f19601f820116820180604052508101906106af9190610f6d565b6106cc576040516312171d8360e31b815260040160405180910390fd5b6040518190349033907f2f1a7fda57b5fd5cb62770aebd7fc9a8a0a834c5ff558eb7562f85f2b28c437590600090a450506107076001600055565b565b600754600090610722906815779a9de6eeb00000610f8f565b821115610742576040516309443f3960e01b815260040160405180910390fd5b600061074c610aa4565b90508083101561076f5761075e610d03565b6107689084610fa6565b9392505050565b6000610779610d18565b9050600080600080600060076000015490505b88156108165761079b86610d58565b9195509350915060006107ae8284610f8f565b9050808a116107d7576107c1858b610fa6565b6107cb9087610f3c565b95506000995050610816565b6107e18183610f3c565b91506107ed8582610fa6565b6107f79087610f3c565b9550610803818b610f8f565b995061080e87610f54565b96505061078c565b5092979650505050505050565b61082b610c06565b6107076000610ddb565b6001600160a01b038181166000818152600660205260408082205460025491516370a0823160e01b81526004810194909452919384938492909116906370a0823190602401602060405180830381865afa158015610897573d6000803e3d6000fd5b505050506040513d601f19601f820116820180604052508101906108bb9190610fc5565b91959194509092505050565b600a5460009060ff166108da5750600090565b6007546815779a9de6eeb000001115806108f5575060045442115b156109005750600290565b600354421015801561091457506004544211155b1561091f5750600190565b50600090565b61092d610c06565b60026109376108c7565b600281111561094857610948610ee8565b146109665760405163dfc7e2e560e01b815260040160405180910390fd5b47801561098357600554610983906001600160a01b031682610e2d565b6002546040516370a0823160e01b81523060048201526000916001600160a01b0316906370a0823190602401602060405180830381865afa1580156109cc573d6000803e3d6000fd5b505050506040513d601f19601f820116820180604052508101906109f09190610fc5565b90508015610a735760025460055460405163a9059cbb60e01b81526001600160a01b0391821660048201526024810184905291169063a9059cbb906044016020604051808303816000875af1158015610a4d573d6000803e3d6000fd5b505050506040513d601f19601f82011682018060405250810190610a719190610f6d565b505b604051819083907fdba9c995f50d4dbcf61c8456721131e5b3cf718fb409cdac2578e1a14b2132c990600090a35050565b600080610ab7610ab2610d18565b610d58565b600754909350610aca9250905082610f8f565b91505090565b610ad8610c06565b42811080610ae7575060035481105b80610af3575060045481115b15610b115760405163398145cf60e11b815260040160405180910390fd5b600481905560405181907ff2efedb45b62795007f61674edfbf06d96b7c52daaffe8a30632492cb561cf6b90600090a250565b610b4c610c06565b6001600160a01b038116610b735760405163d92e233d60e01b815260040160405180910390fd5b6104fb81610c60565b6000610b86610d18565b905090565b610b93610c06565b6001600160a01b038116610bfd5760405162461bcd60e51b815260206004820152602660248201527f4f776e61626c653a206e6577206f776e657220697320746865207a65726f206160448201526564647265737360d01b60648201526084015b60405180910390fd5b6104fb81610ddb565b6001546001600160a01b031633146107075760405162461bcd60e51b815260206004820181905260248201527f4f776e61626c653a2063616c6c6572206973206e6f7420746865206f776e65726044820152606401610bf4565b600580546001600160a01b0319166001600160a01b0383169081179091556040517f98a9845b11aff33a851910bf36257bf6b63b3734a53f36d8f56bd5c8ba1316d390600090a250565b600260005403610cfc5760405162461bcd60e51b815260206004820152601f60248201527f5265656e7472616e637947756172643a207265656e7472616e742063616c6c006044820152606401610bf4565b6002600055565b6000610d10610ab2610d18565b509092915050565b6007546000906802b5e3af16b1880000811115610d3757600291505090565b6801158e460913d00000811115610d5057600191505090565b600091505090565b60008060006002841115610d6e57610d6e610fde565b83600003610d8e57506114b491506801158e460913d00000905080610dd4565b83600103610db757506112c091506801a055690d9db8000090506802b5e3af16b1880000610dd4565b5061109a91506811ac28a8c72958000090506815779a9de6eeb000005b9193909250565b600180546001600160a01b038381166001600160a01b0319831681179093556040519116919082907f8be0079c531659141344cd1fd0a4f28419497f9722a3daafe3b4186f6b6457e090600090a35050565b6000826001600160a01b03168260405160006040518083038185875af1925050503d8060008114610e7a576040519150601f19603f3d011682016040523d82523d6000602084013e610e7f565b606091505b5050905080610ea1576040516312171d8360e31b815260040160405180910390fd5b505050565b600060208284031215610eb857600080fd5b81356001600160a01b038116811461076857600080fd5b600060208284031215610ee157600080fd5b5035919050565b634e487b7160e01b600052602160045260246000fd5b6020810160038310610f2057634e487b7160e01b600052602160045260246000fd5b91905290565b634e487b7160e01b600052601160045260246000fd5b60008219821115610f4f57610f4f610f26565b500190565b600060018201610f6657610f66610f26565b5060010190565b600060208284031215610f7f57600080fd5b8151801515811461076857600080fd5b600082821015610fa157610fa1610f26565b500390565b6000816000190483118215151615610fc057610fc0610f26565b500290565b600060208284031215610fd757600080fd5b5051919050565b634e487b7160e01b600052600160045260246000fdfea26469706673582212200a161314d1b0683e6702d1fa79ff4a3e8f59f2cd1f7bc227a6fd61029160bd6464736f6c634300080e0033",
  "linkReferences": {},
  "deployedLinkReferences": {}
}