{
  "_format": "hh-sol-artifact-1",
  "contractName": "VRFv2Consumer",
  "sourceName": "contracts/VRFv2Consumer.sol",
  "abi": [
    {
      "inputs": [
        {
          "internalType": "address",
          "name": "_coordinator",
          "type": "address"
        },
        {
          "internalType": "bytes32",
          "name": "_keyHash",
          "type": "bytes32"
        },
        {
          "internalType": "uint64",
          "name": "subscriptionId",
          "type": "uint64"
        },
        {
          "internalType": "uint16",
          "name": "_confirmations",
          "type": "uint16"
        }
      ],
      "stateMutability": "nonpayable",
      "type": "constructor"
    },
    {
      "inputs": [
        {
          "internalType": "address",
          "name": "have",
          "type": "address"
        },
        {
          "internalType": "address",
          "name": "want",
          "type": "address"
        }
      ],
      "name": "OnlyCoordinatorCanFulfill",
      "type": "error"
    },
    {
      "anonymous": false,
      "inputs": [
        {
          "indexed": true,
          "internalType": "address",
          "name": "from",
          "type": "address"
        },
        {
          "indexed": true,
          "internalType": "address",
          "name": "to",
          "type": "address"
        }
      ],
      "name": "OwnershipTransferred",
      "type": "event"
    },
    {
      "anonymous": false,
      "inputs": [
        {
          "indexed": false,
          "internalType": "uint256",
          "name": "requestId",
          "type": "uint256"
        },
        {
          "indexed": false,
          "internalType": "uint256[]",
          "name": "randomWords",
          "type": "uint256[]"
        }
      ],
      "name": "RequestFulfilled",
      "type": "event"
    },
    {
      "anonymous": false,
      "inputs": [
        {
          "indexed": false,
          "internalType": "uint256",
          "name": "requestId",
          "type": "uint256"
        },
        {
          "indexed": false,
          "internalType": "uint32",
          "name": "numWords",
          "type": "uint32"
        }
      ],
      "name": "RequestSent",
      "type": "event"
    },
    {
      "inputs": [],
      "name": "evoturesContract",
      "outputs": [
        {
          "internalType": "contract IEvoturesNFT",
          "name": "",
          "type": "address"
        }
      ],
      "stateMutability": "view",
      "type": "function"
    },
    {
      "inputs": [],
      "name": "gasLimit",
      "outputs": [
        {
          "internalType": "uint32",
          "name": "",
          "type": "uint32"
        }
      ],
      "stateMutability": "view",
      "type": "function"
    },
    {
      "inputs": [
        {
          "internalType": "uint256",
          "name": "_requestId",
          "type": "uint256"
        }
      ],
      "name": "getRequest",
      "outputs": [
        {
          "internalType": "bool",
          "name": "exists",
          "type": "bool"
        },
        {
          "internalType": "bool",
          "name": "fulfilled",
          "type": "bool"
        }
      ],
      "stateMutability": "view",
      "type": "function"
    },
    {
      "inputs": [
        {
          "internalType": "uint256",
          "name": "_requestId",
          "type": "uint256"
        }
      ],
      "name": "getRequestStatus",
      "outputs": [
        {
          "internalType": "bool",
          "name": "fulfilled",
          "type": "bool"
        },
        {
          "internalType": "uint256",
          "name": "randomNum",
          "type": "uint256"
        }
      ],
      "stateMutability": "view",
      "type": "function"
    },
    {
      "inputs": [
        {
          "internalType": "address",
          "name": "_evotures",
          "type": "address"
        }
      ],
      "name": "initialize",
      "outputs": [],
      "stateMutability": "nonpayable",
      "type": "function"
    },
    {
      "inputs": [],
      "name": "keyHash",
      "outputs": [
        {
          "internalType": "bytes32",
          "name": "",
          "type": "bytes32"
        }
      ],
      "stateMutability": "view",
      "type": "function"
    },
    {
      "inputs": [],
      "name": "lastRequestId",
      "outputs": [
        {
          "internalType": "uint256",
          "name": "",
          "type": "uint256"
        }
      ],
      "stateMutability": "view",
      "type": "function"
    },
    {
      "inputs": [],
      "name": "owner",
      "outputs": [
        {
          "internalType": "address",
          "name": "",
          "type": "address"
        }
      ],
      "stateMutability": "view",
      "type": "function"
    },
    {
      "inputs": [
        {
          "internalType": "uint256",
          "name": "requestId",
          "type": "uint256"
        },
        {
          "internalType": "uint256[]",
          "name": "randomWords",
          "type": "uint256[]"
        }
      ],
      "name": "rawFulfillRandomWords",
      "outputs": [],
      "stateMutability": "nonpayable",
      "type": "function"
    },
    {
      "inputs": [],
      "name": "requestConfirmations",
      "outputs": [
        {
          "internalType": "uint16",
          "name": "",
          "type": "uint16"
        }
      ],
      "stateMutability": "view",
      "type": "function"
    },
    {
      "inputs": [
        {
          "internalType": "uint256",
          "name": "",
          "type": "uint256"
        }
      ],
      "name": "requestIds",
      "outputs": [
        {
          "internalType": "uint256",
          "name": "",
          "type": "uint256"
        }
      ],
      "stateMutability": "view",
      "type": "function"
    },
    {
      "inputs": [
        {
          "internalType": "uint8",
          "name": "_evotures",
          "type": "uint8"
        },
        {
          "internalType": "uint8",
          "name": "_boosters",
          "type": "uint8"
        },
        {
          "internalType": "address",
          "name": "_minter",
          "type": "address"
        }
      ],
      "name": "requestRandomWords",
      "outputs": [
        {
          "internalType": "uint256",
          "name": "requestId",
          "type": "uint256"
        }
      ],
      "stateMutability": "nonpayable",
      "type": "function"
    },
    {
      "inputs": [
        {
          "internalType": "uint256",
          "name": "",
          "type": "uint256"
        }
      ],
      "name": "s_requests",
      "outputs": [
        {
          "internalType": "bool",
          "name": "fulfilled",
          "type": "bool"
        },
        {
          "internalType": "bool",
          "name": "exists",
          "type": "bool"
        },
        {
          "internalType": "uint8",
          "name": "evotures",
          "type": "uint8"
        },
        {
          "internalType": "uint8",
          "name": "boosters",
          "type": "uint8"
        },
        {
          "internalType": "address",
          "name": "minter",
          "type": "address"
        }
      ],
      "stateMutability": "view",
      "type": "function"
    },
    {
      "inputs": [
        {
          "internalType": "uint32",
          "name": "_gasLimit",
          "type": "uint32"
        }
      ],
      "name": "setGasLimit",
      "outputs": [],
      "stateMutability": "nonpayable",
      "type": "function"
    },
    {
      "inputs": [
        {
          "internalType": "address",
          "name": "to",
          "type": "address"
        }
      ],
      "name": "transferOwnership",
      "outputs": [],
      "stateMutability": "nonpayable",
      "type": "function"
    }
  ],
  "bytecode": "0x60e06040526003805463ffffffff60a01b19166121b160a41b17905534801561002757600080fd5b506040516110a83803806110a883398101604081905261004691610111565b6001600160a01b03841660805233806100a55760405162461bcd60e51b815260206004820152601860248201527f43616e6e6f7420736574206f776e657220746f207a65726f0000000000000000604482015260640160405180910390fd5b600080546001600160a01b039283166001600160a01b03199182161790915561ffff90921660a052600380546001600160401b03909416600160c01b026001600160c01b039094169390931790925560c092909252600280549390911692909116919091179055610185565b6000806000806080858703121561012757600080fd5b84516001600160a01b038116811461013e57600080fd5b6020860151604087015191955093506001600160401b038116811461016257600080fd5b606086015190925061ffff8116811461017a57600080fd5b939692955090935050565b60805160a05160c051610edf6101c960003960008181610127015261067c01526000818161022501526106bc01526000818161035301526103950152610edf6000f3fe608060405234801561001057600080fd5b50600436106100f55760003560e01c8063c4d66de811610097578063df16aa7911610066578063df16aa79146102ed578063f2fde38b14610300578063f68016b714610313578063fc2a88c31461033f57600080fd5b8063c4d66de81461025a578063c58343ef1461026d578063d4ac456d146102b0578063d8a4676f146102c357600080fd5b80638796ba8c116100d35780638796ba8c1461015c5780638da5cb5b1461016f578063a168fa8914610194578063b0fb162f1461022057600080fd5b80631fe543e3146100fa57806352d84c621461010f57806361728f3914610122575b600080fd5b61010d610108366004610b8d565b610348565b005b61010d61011d366004610c57565b6103d5565b6101497f000000000000000000000000000000000000000000000000000000000000000081565b6040519081526020015b60405180910390f35b61014961016a366004610c84565b610403565b6000546001600160a01b03165b6040516001600160a01b039091168152602001610153565b6101e76101a2366004610c84565b60016020526000908152604090205460ff808216916101008104821691620100008204811691630100000081049091169064010000000090046001600160a01b031685565b604080519515158652931515602086015260ff928316938501939093521660608301526001600160a01b0316608082015260a001610153565b6102477f000000000000000000000000000000000000000000000000000000000000000081565b60405161ffff9091168152602001610153565b61010d610268366004610cb9565b610424565b61029961027b366004610c84565b60009081526001602052604090205460ff6101008204811692911690565b604080519215158352901515602083015201610153565b60035461017c906001600160a01b031681565b6102d66102d1366004610c84565b61044e565b604080519215158352602083019190915201610153565b6101496102fb366004610ce5565b61058c565b61010d61030e366004610cb9565b6108be565b60035461032a90600160a01b900463ffffffff1681565b60405163ffffffff9091168152602001610153565b61014960055481565b336001600160a01b037f000000000000000000000000000000000000000000000000000000000000000016146103c75760405163073e64fd60e21b81523360048201526001600160a01b037f00000000000000000000000000000000000000000000000000000000000000001660248201526044015b60405180910390fd5b6103d18282610969565b5050565b6103dd610ac2565b6003805463ffffffff909216600160a01b0263ffffffff60a01b19909216919091179055565b6004818154811061041357600080fd5b600091825260209091200154905081565b61042c610ac2565b600380546001600160a01b0319166001600160a01b0392909216919091179055565b6000818152600160205260408120548190610100900460ff166104a75760405162461bcd60e51b81526020600482015260116024820152701c995c5d595cdd081b9bdd08199bdd5b99607a1b60448201526064016103be565b6000838152600160208181526040808420815160c081018352815460ff80821615158352610100820481161515838701526201000082048116838601526301000000820416606083015264010000000090046001600160a01b031660808201529381018054835181860281018601909452808452919360a0860193929083018282801561055357602002820191906000526020600020905b81548152602001906001019080831161053f575b505050505081525050905080600001518160a0015160008151811061057a5761057a610d28565b60200260200101519250925050915091565b6003546000906001600160a01b031633146106085760405162461bcd60e51b815260206004820152603660248201527f5652467632436f6e73756d65723a3a7265717565737452616e646f6d576f7264604482015275733a2043414c4c45525f4e4f545f45564f545552455360501b60648201526084016103be565b60006106148486610d54565b61061e9086610d7d565b6003549091506000906106429060ff841690600160a01b900463ffffffff16610da2565b61064e90619c40610dce565b9050622625a08163ffffffff1611156106675750622625a05b6002546003546040516305d3b1d360e41b81527f00000000000000000000000000000000000000000000000000000000000000006004820152600160c01b90910467ffffffffffffffff16602482015261ffff7f000000000000000000000000000000000000000000000000000000000000000016604482015263ffffffff8316606482015260ff841660848201526001600160a01b0390911690635d3b1d309060a4016020604051808303816000875af115801561072a573d6000803e3d6000fd5b505050506040513d601f19601f8201168201806040525081019061074e9190610df6565b6040805160c08101825260008082526001602080840182815260ff8d81168688019081528d8216606088019081526001600160a01b038e811660808a019081528a518981528088018c5260a08b019081528c8a528888529a90982089518154965194519351995190921664010000000002640100000000600160c01b031999861663010000000263ff000000199490961662010000029390931663ffff0000199415156101000261ff00199315159390931661ffff19909716969096179190911792909216939093179190911794909416178355935180519598509294919361083d9391850192910190610b17565b5050600480546001810182556000919091527f8a35acfbc15ff81a39ae7d344fd709f28e8600b4aa8c65c6b64bfe7fe36bd19b018490555060058390556040805184815260ff841660208201527fcc58b13ad3eab50626c6a6300b1d139cd6ebb1688a7cced9461c2f7e762665ee910160405180910390a150509392505050565b6108c6610ac2565b336001600160a01b0382160361091e5760405162461bcd60e51b815260206004820152601760248201527f43616e6e6f74207472616e7366657220746f2073656c6600000000000000000060448201526064016103be565b600080546001600160a01b0319166001600160a01b0383169081178255604051909182917f8be0079c531659141344cd1fd0a4f28419497f9722a3daafe3b4186f6b6457e09190a350565b600082815260016020526040902054610100900460ff166109c05760405162461bcd60e51b81526020600482015260116024820152701c995c5d595cdd081b9bdd08199bdd5b99607a1b60448201526064016103be565b6000828152600160208181526040909220805460ff19168217815583516109ef93919092019190840190610b17565b5060035460008381526001602052604090819020549051630fa8c95960e41b81526001600160a01b039283169263fa8c959092610a5392869260ff620100008404811693630100000081049091169264010000000090910490911690600401610e4a565b600060405180830381600087803b158015610a6d57600080fd5b505af1158015610a81573d6000803e3d6000fd5b505050507ffe2e2d779dba245964d4e3ef9b994be63856fd568bf7d3ca9e224755cb1bd54d8282604051610ab6929190610e88565b60405180910390a15050565b6000546001600160a01b03163314610b155760405162461bcd60e51b815260206004820152601660248201527527b7363c9031b0b63630b1363290313c9037bbb732b960511b60448201526064016103be565b565b828054828255906000526020600020908101928215610b52579160200282015b82811115610b52578251825591602001919060010190610b37565b50610b5e929150610b62565b5090565b5b80821115610b5e5760008155600101610b63565b634e487b7160e01b600052604160045260246000fd5b60008060408385031215610ba057600080fd5b8235915060208084013567ffffffffffffffff80821115610bc057600080fd5b818601915086601f830112610bd457600080fd5b813581811115610be657610be6610b77565b8060051b604051601f19603f83011681018181108582111715610c0b57610c0b610b77565b604052918252848201925083810185019189831115610c2957600080fd5b938501935b82851015610c4757843584529385019392850192610c2e565b8096505050505050509250929050565b600060208284031215610c6957600080fd5b813563ffffffff81168114610c7d57600080fd5b9392505050565b600060208284031215610c9657600080fd5b5035919050565b80356001600160a01b0381168114610cb457600080fd5b919050565b600060208284031215610ccb57600080fd5b610c7d82610c9d565b803560ff81168114610cb457600080fd5b600080600060608486031215610cfa57600080fd5b610d0384610cd4565b9250610d1160208501610cd4565b9150610d1f60408501610c9d565b90509250925092565b634e487b7160e01b600052603260045260246000fd5b634e487b7160e01b600052601160045260246000fd5b600060ff821660ff84168160ff0481118215151615610d7557610d75610d3e565b029392505050565b600060ff821660ff84168060ff03821115610d9a57610d9a610d3e565b019392505050565b600063ffffffff80831681851681830481118215151615610dc557610dc5610d3e565b02949350505050565b600063ffffffff808316818516808303821115610ded57610ded610d3e565b01949350505050565b600060208284031215610e0857600080fd5b5051919050565b600081518084526020808501945080840160005b83811015610e3f57815187529582019590820190600101610e23565b509495945050505050565b608081526000610e5d6080830187610e0f565b60ff95861660208401529390941660408201526001600160a01b039190911660609091015292915050565b828152604060208201526000610ea16040830184610e0f565b94935050505056fea264697066735822122044d4b20a854a9b943ccb4c792fe830bbbfa07ee284286f6e56345e8e954d9bc364736f6c634300080e0033",
  "linkReferences": {},
  "deployedLinkReferences": {}
}